{
  "transactions": [
    {
      "hash": "0x176a837679bed7f3b41292831ef867bb772bf127e44261c6766a3aa50152206a",
      "transactionType": "CALL",
      "contractName": null,
      "contractAddress": "0x8f73b65b4caaf64fba2af91cc5d4a2a1318e5d8c",
      "function": "createMarket((address,address,address,address,uint256))",
      "arguments": [
        "(0x55d398326f99059fF775485246999027B3197955, 0x7130d2A12B9BCbFAe4f2634d864A1Ee1Ce3Ead9c, 0xf3afD82A4071f272F403dC176916141f44E6c750, 0xFe7dAe87Ebb11a7BEB9F534BB23267992d9cDe7c, 800000000000000000)"
      ],
      "transaction": {
        "from": "0xd7e38800201d6a42c408bf79d8723740c4e7f631",
        "to": "0x8f73b65b4caaf64fba2af91cc5d4a2a1318e5d8c",
        "gas": "0x86b91",
        "value": "0x0",
        "input": "0x8c1358a200000000000000000000000055d398326f99059ff775485246999027b31979550000000000000000000000007130d2a12b9bcbfae4f2634d864a1ee1ce3ead9c000000000000000000000000f3afd82a4071f272f403dc176916141f44e6c750000000000000000000000000fe7dae87ebb11a7beb9f534bb23267992d9cde7c0000000000000000000000000000000000000000000000000b1a2bc2ec500000",
        "nonce": "0x112",
        "chainId": "0x38"
      },
      "additionalContracts": [],
      "isFixedGasLimit": false
    },
    {
      "hash": "0xd5665e14e538d45f2fcb8f5c9bcc2d1fe4a76d54897d94720f5c172271f843d5",
      "transactionType": "CALL",
      "contractName": null,
      "contractAddress": "0x8f73b65b4caaf64fba2af91cc5d4a2a1318e5d8c",
      "function": "createMarket((address,address,address,address,uint256))",
      "arguments": [
        "(0x55d398326f99059fF775485246999027B3197955, 0x2170Ed0880ac9A755fd29B2688956BD959F933F8, 0xf3afD82A4071f272F403dC176916141f44E6c750, 0xFe7dAe87Ebb11a7BEB9F534BB23267992d9cDe7c, 800000000000000000)"
      ],
      "transaction": {
        "from": "0xd7e38800201d6a42c408bf79d8723740c4e7f631",
        "to": "0x8f73b65b4caaf64fba2af91cc5d4a2a1318e5d8c",
        "gas": "0x86b91",
        "value": "0x0",
        "input": "0x8c1358a200000000000000000000000055d398326f99059ff775485246999027b31979550000000000000000000000002170ed0880ac9a755fd29b2688956bd959f933f8000000000000000000000000f3afd82a4071f272f403dc176916141f44e6c750000000000000000000000000fe7dae87ebb11a7beb9f534bb23267992d9cde7c0000000000000000000000000000000000000000000000000b1a2bc2ec500000",
        "nonce": "0x113",
        "chainId": "0x38"
      },
      "additionalContracts": [],
      "isFixedGasLimit": false
    },
    {
      "hash": "0x9146d816894a8b1e6dee4780fbc37b68beacd1f8d0b7bab54e43f54794101513",
      "transactionType": "CALL",
      "contractName": null,
      "contractAddress": "0x8f73b65b4caaf64fba2af91cc5d4a2a1318e5d8c",
      "function": "createMarket((address,address,address,address,uint256))",
      "arguments": [
        "(0x55d398326f99059fF775485246999027B3197955, 0xbb4CdB9CBd36B01bD1cBaEBF2De08d9173bc095c, 0xf3afD82A4071f272F403dC176916141f44E6c750, 0xFe7dAe87Ebb11a7BEB9F534BB23267992d9cDe7c, 800000000000000000)"
      ],
      "transaction": {
        "from": "0xd7e38800201d6a42c408bf79d8723740c4e7f631",
        "to": "0x8f73b65b4caaf64fba2af91cc5d4a2a1318e5d8c",
        "gas": "0x86b91",
        "value": "0x0",
        "input": "0x8c1358a200000000000000000000000055d398326f99059ff775485246999027b3197955000000000000000000000000bb4cdb9cbd36b01bd1cbaebf2de08d9173bc095c000000000000000000000000f3afd82a4071f272f403dc176916141f44e6c750000000000000000000000000fe7dae87ebb11a7beb9f534bb23267992d9cde7c0000000000000000000000000000000000000000000000000b1a2bc2ec500000",
        "nonce": "0x114",
        "chainId": "0x38"
      },
      "additionalContracts": [],
      "isFixedGasLimit": false
    },
    {
      "hash": "0x167c60d4e86d2acfb9d44c73341e0917790d7711e8e7186bcf627897c5f84780",
      "transactionType": "CALL",
      "contractName": null,
      "contractAddress": "0x8f73b65b4caaf64fba2af91cc5d4a2a1318e5d8c",
      "function": "createMarket((address,address,address,address,uint256))",
      "arguments": [
        "(0x55d398326f99059fF775485246999027B3197955, 0xB0b84D294e0C75A6abe60171b70edEb2EFd14A1B, 0x21650E416dC6C89486B2E654c86cC2c36c597b58, 0xFe7dAe87Ebb11a7BEB9F534BB23267992d9cDe7c, 800000000000000000)"
      ],
      "transaction": {
        "from": "0xd7e38800201d6a42c408bf79d8723740c4e7f631",
        "to": "0x8f73b65b4caaf64fba2af91cc5d4a2a1318e5d8c",
        "gas": "0x94ca0",
        "value": "0x0",
        "input": "0x8c1358a200000000000000000000000055d398326f99059ff775485246999027b3197955000000000000000000000000b0b84d294e0c75a6abe60171b70edeb2efd14a1b00000000000000000000000021650e416dc6c89486b2e654c86cc2c36c597b58000000000000000000000000fe7dae87ebb11a7beb9f534bb23267992d9cde7c0000000000000000000000000000000000000000000000000b1a2bc2ec500000",
        "nonce": "0x115",
        "chainId": "0x38"
      },
      "additionalContracts": [],
      "isFixedGasLimit": false
    }
  ],
  "receipts": [
    {
      "status": "0x1",
      "cumulativeGasUsed": "0xbbe305",
      "logs": [
        {
          "address": "0x8f73b65b4caaf64fba2af91cc5d4a2a1318e5d8c",
          "topics": [
            "0xac4b2400f169220b0c0afdde7a0b32e775ba727ea1cb30b35f935cdaab8683ac",
            "0x975f4cf3db16812d995f60e19bec91a96108d47429237acc8d208bc0519c5b19"
          ],
          "data": "0x00000000000000000000000055d398326f99059ff775485246999027b31979550000000000000000000000007130d2a12b9bcbfae4f2634d864a1ee1ce3ead9c000000000000000000000000f3afd82a4071f272f403dc176916141f44e6c750000000000000000000000000fe7dae87ebb11a7beb9f534bb23267992d9cde7c0000000000000000000000000000000000000000000000000b1a2bc2ec500000",
          "blockHash": "0x53a72804619d5a9d91b38b5223a1b8ebf7990da6d353937ecdc8b42a552c5fd5",
          "blockNumber": "0x2ef3380",
          "transactionHash": "0x176a837679bed7f3b41292831ef867bb772bf127e44261c6766a3aa50152206a",
          "transactionIndex": "0x7d",
          "logIndex": "0x191",
          "removed": false
        },
        {
          "address": "0xfe7dae87ebb11a7beb9f534bb23267992d9cde7c",
          "topics": [
            "0x7120161a7b3d31251e01294ab351ef15a41b91659a36032e4641bb89b121e321",
            "0x975f4cf3db16812d995f60e19bec91a96108d47429237acc8d208bc0519c5b19"
          ],
          "data": "0x0000000000000000000000000000000000000000000000000000000012e687bf000000000000000000000000000000000000000000000000000000004b9a1eff",
          "blockHash": "0x53a72804619d5a9d91b38b5223a1b8ebf7990da6d353937ecdc8b42a552c5fd5",
          "blockNumber": "0x2ef3380",
          "transactionHash": "0x176a837679bed7f3b41292831ef867bb772bf127e44261c6766a3aa50152206a",
          "transactionIndex": "0x7d",
          "logIndex": "0x192",
          "removed": false
        }
      ],
      "logsBloom": "0x00000000200000000000000000000800000000000000000000000000000000000000000000000000000000000000000000000080000000000000000000804000000000000000000000000000000000000000000000000000000080000000000000000000000000000000000000000000000001000000000010000040000000000000000000000000000000000000000000000000000000000000000008000000000000000000000000000000000000000000002000000080000000000000040000000000000000000000000000000000000000000000000000000000000000000000000000000000000000000001000000000000000000000000000000000010",
      "type": "0x0",
      "transactionHash": "0x176a837679bed7f3b41292831ef867bb772bf127e44261c6766a3aa50152206a",
      "transactionIndex": "0x7d",
      "blockHash": "0x53a72804619d5a9d91b38b5223a1b8ebf7990da6d353937ecdc8b42a552c5fd5",
      "blockNumber": "0x2ef3380",
      "gasUsed": "0x61898",
      "effectiveGasPrice": "0x3b9aca00",
      "from": "0xd7e38800201d6a42c408bf79d8723740c4e7f631",
      "to": "0x8f73b65b4caaf64fba2af91cc5d4a2a1318e5d8c",
      "contractAddress": null
    },
    {
      "status": "0x1",
      "cumulativeGasUsed": "0xc1fb9d",
      "logs": [
        {
          "address": "0x8f73b65b4caaf64fba2af91cc5d4a2a1318e5d8c",
          "topics": [
            "0xac4b2400f169220b0c0afdde7a0b32e775ba727ea1cb30b35f935cdaab8683ac",
            "0x98736236a21390ea3697d1776974c4adcd7d8fe2961c9296cb744c3627b8b349"
          ],
          "data": "0x00000000000000000000000055d398326f99059ff775485246999027b31979550000000000000000000000002170ed0880ac9a755fd29b2688956bd959f933f8000000000000000000000000f3afd82a4071f272f403dc176916141f44e6c750000000000000000000000000fe7dae87ebb11a7beb9f534bb23267992d9cde7c0000000000000000000000000000000000000000000000000b1a2bc2ec500000",
          "blockHash": "0x53a72804619d5a9d91b38b5223a1b8ebf7990da6d353937ecdc8b42a552c5fd5",
          "blockNumber": "0x2ef3380",
          "transactionHash": "0xd5665e14e538d45f2fcb8f5c9bcc2d1fe4a76d54897d94720f5c172271f843d5",
          "transactionIndex": "0x7e",
          "logIndex": "0x193",
          "removed": false
        },
        {
          "address": "0xfe7dae87ebb11a7beb9f534bb23267992d9cde7c",
          "topics": [
            "0x7120161a7b3d31251e01294ab351ef15a41b91659a36032e4641bb89b121e321",
            "0x98736236a21390ea3697d1776974c4adcd7d8fe2961c9296cb744c3627b8b349"
          ],
          "data": "0x0000000000000000000000000000000000000000000000000000000012e687bf000000000000000000000000000000000000000000000000000000004b9a1eff",
          "blockHash": "0x53a72804619d5a9d91b38b5223a1b8ebf7990da6d353937ecdc8b42a552c5fd5",
          "blockNumber": "0x2ef3380",
          "transactionHash": "0xd5665e14e538d45f2fcb8f5c9bcc2d1fe4a76d54897d94720f5c172271f843d5",
          "transactionIndex": "0x7e",
          "logIndex": "0x194",
          "removed": false
        }
      ],
      "logsBloom": "0x00000000000000000000000000000800000000000000080000000000000000000000000000000000000000000000000000000000000000000000000000804000000000000000000000000000000000000000000000000000000080000000000000000000000100000000000000000020000000000000000010000040000000000000000000000000000000000000000000000000000000000000000008000000000000000000000000000000000000000000002000000080000000000000040000000000000000000000000000000000000000000000000000000000000000000000000000000000000000000001000000000000000000000000000000000010",
      "type": "0x0",
      "transactionHash": "0xd5665e14e538d45f2fcb8f5c9bcc2d1fe4a76d54897d94720f5c172271f843d5",
      "transactionIndex": "0x7e",
      "blockHash": "0x53a72804619d5a9d91b38b5223a1b8ebf7990da6d353937ecdc8b42a552c5fd5",
      "blockNumber": "0x2ef3380",
      "gasUsed": "0x61898",
      "effectiveGasPrice": "0x3b9aca00",
      "from": "0xd7e38800201d6a42c408bf79d8723740c4e7f631",
      "to": "0x8f73b65b4caaf64fba2af91cc5d4a2a1318e5d8c",
      "contractAddress": null
    },
    {
      "status": "0x1",
      "cumulativeGasUsed": "0xc81435",
      "logs": [
        {
          "address": "0x8f73b65b4caaf64fba2af91cc5d4a2a1318e5d8c",
          "topics": [
            "0xac4b2400f169220b0c0afdde7a0b32e775ba727ea1cb30b35f935cdaab8683ac",
            "0xe2fac994ce98526fbc986a2f3877efddd114a09f790d679eb1cd978c3e050e55"
          ],
          "data": "0x00000000000000000000000055d398326f99059ff775485246999027b3197955000000000000000000000000bb4cdb9cbd36b01bd1cbaebf2de08d9173bc095c000000000000000000000000f3afd82a4071f272f403dc176916141f44e6c750000000000000000000000000fe7dae87ebb11a7beb9f534bb23267992d9cde7c0000000000000000000000000000000000000000000000000b1a2bc2ec500000",
          "blockHash": "0x53a72804619d5a9d91b38b5223a1b8ebf7990da6d353937ecdc8b42a552c5fd5",
          "blockNumber": "0x2ef3380",
          "transactionHash": "0x9146d816894a8b1e6dee4780fbc37b68beacd1f8d0b7bab54e43f54794101513",
          "transactionIndex": "0x7f",
          "logIndex": "0x195",
          "removed": false
        },
        {
          "address": "0xfe7dae87ebb11a7beb9f534bb23267992d9cde7c",
          "topics": [
            "0x7120161a7b3d31251e01294ab351ef15a41b91659a36032e4641bb89b121e321",
            "0xe2fac994ce98526fbc986a2f3877efddd114a09f790d679eb1cd978c3e050e55"
          ],
          "data": "0x0000000000000000000000000000000000000000000000000000000012e687bf000000000000000000000000000000000000000000000000000000004b9a1eff",
          "blockHash": "0x53a72804619d5a9d91b38b5223a1b8ebf7990da6d353937ecdc8b42a552c5fd5",
          "blockNumber": "0x2ef3380",
          "transactionHash": "0x9146d816894a8b1e6dee4780fbc37b68beacd1f8d0b7bab54e43f54794101513",
          "transactionIndex": "0x7f",
          "logIndex": "0x196",
          "removed": false
        }
      ],
      "logsBloom": "0x00000000000000000000000000000800000000000000000000000000000000000000000000000000000000000000000000000000000000000000000000804000000000002000000000000000000000000000000000000000000080000000000000000000000000000000000000000000002000000000000010000040000000000000000000000000000000000000000000000000000000000000000008000000000000000000000000000000000000000000002000000080000000000000040000000000000000000000000000000000000000000000000000000000000000000000000000000000000000000001000004000000000000000000000000000010",
      "type": "0x0",
      "transactionHash": "0x9146d816894a8b1e6dee4780fbc37b68beacd1f8d0b7bab54e43f54794101513",
      "transactionIndex": "0x7f",
      "blockHash": "0x53a72804619d5a9d91b38b5223a1b8ebf7990da6d353937ecdc8b42a552c5fd5",
      "blockNumber": "0x2ef3380",
      "gasUsed": "0x61898",
      "effectiveGasPrice": "0x3b9aca00",
      "from": "0xd7e38800201d6a42c408bf79d8723740c4e7f631",
      "to": "0x8f73b65b4caaf64fba2af91cc5d4a2a1318e5d8c",
      "contractAddress": null
    },
    {
      "status": "0x1",
      "cumulativeGasUsed": "0xcecfbd",
      "logs": [
        {
          "address": "0x8f73b65b4caaf64fba2af91cc5d4a2a1318e5d8c",
          "topics": [
            "0xac4b2400f169220b0c0afdde7a0b32e775ba727ea1cb30b35f935cdaab8683ac",
            "0x6350ccd3fe864c1c750f2b5d99b81d1fd712250a650808d2f6e17651b1047e37"
          ],
          "data": "0x00000000000000000000000055d398326f99059ff775485246999027b3197955000000000000000000000000b0b84d294e0c75a6abe60171b70edeb2efd14a1b00000000000000000000000021650e416dc6c89486b2e654c86cc2c36c597b58000000000000000000000000fe7dae87ebb11a7beb9f534bb23267992d9cde7c0000000000000000000000000000000000000000000000000b1a2bc2ec500000",
          "blockHash": "0x53a72804619d5a9d91b38b5223a1b8ebf7990da6d353937ecdc8b42a552c5fd5",
          "blockNumber": "0x2ef3380",
          "transactionHash": "0x167c60d4e86d2acfb9d44c73341e0917790d7711e8e7186bcf627897c5f84780",
          "transactionIndex": "0x80",
          "logIndex": "0x197",
          "removed": false
        },
        {
          "address": "0xfe7dae87ebb11a7beb9f534bb23267992d9cde7c",
          "topics": [
            "0x7120161a7b3d31251e01294ab351ef15a41b91659a36032e4641bb89b121e321",
            "0x6350ccd3fe864c1c750f2b5d99b81d1fd712250a650808d2f6e17651b1047e37"
          ],
          "data": "0x0000000000000000000000000000000000000000000000000000000012e687bf000000000000000000000000000000000000000000000000000000004b9a1eff",
          "blockHash": "0x53a72804619d5a9d91b38b5223a1b8ebf7990da6d353937ecdc8b42a552c5fd5",
          "blockNumber": "0x2ef3380",
          "transactionHash": "0x167c60d4e86d2acfb9d44c73341e0917790d7711e8e7186bcf627897c5f84780",
          "transactionIndex": "0x80",
          "logIndex": "0x198",
          "removed": false
        }
      ],
      "logsBloom": "0x000000000000000000000000000008000000000000000000000000000000000000000000000000000000000000000000000000000000000000000000008040000000000000000000000000000000000000000000000000000000800000100000000000000000000000000000000000000000000000000000100000400000000000000000000000000000000000000000000000000000000000000000080000000000000000000000000000000000000000000020000000c0000000000000040000000000000000000000000000000000000000000000000000000040000000000000000000000000000000000001000000000000000000000000000000000010",
      "type": "0x0",
      "transactionHash": "0x167c60d4e86d2acfb9d44c73341e0917790d7711e8e7186bcf627897c5f84780",
      "transactionIndex": "0x80",
      "blockHash": "0x53a72804619d5a9d91b38b5223a1b8ebf7990da6d353937ecdc8b42a552c5fd5",
      "blockNumber": "0x2ef3380",
      "gasUsed": "0x6bb88",
      "effectiveGasPrice": "0x3b9aca00",
      "from": "0xd7e38800201d6a42c408bf79d8723740c4e7f631",
      "to": "0x8f73b65b4caaf64fba2af91cc5d4a2a1318e5d8c",
      "contractAddress": null
    }
  ],
  "libraries": [],
  "pending": [],
  "returns": {},
  "timestamp": 1746589162,
  "chain": 56,
  "commit": "f3717e7"
}