{
  "transactions": [
    {
      "hash": "0xbce0ba5494d42955af48458e058bb446428c0f3b1a2ad898821a3be922f96d54",
      "transactionType": "CALL",
      "contractName": null,
      "contractAddress": "0x8f73b65b4caaf64fba2af91cc5d4a2a1318e5d8c",
      "function": "createMarket((address,address,address,address,uint256))",
      "arguments": [
        "(0xbb4CdB9CBd36B01bD1cBaEBF2De08d9173bc095c, 0xa2E3356610840701BDf5611a53974510Ae27E2e1, 0xf3afD82A4071f272F403dC176916141f44E6c750, 0xFe7dAe87Ebb11a7BEB9F534BB23267992d9cDe7c, 800000000000000000)"
      ],
      "transaction": {
        "from": "0xd7e38800201d6a42c408bf79d8723740c4e7f631",
        "to": "0x8f73b65b4caaf64fba2af91cc5d4a2a1318e5d8c",
        "gas": "0x9a9d4",
        "value": "0x0",
        "input": "0x8c1358a2000000000000000000000000bb4cdb9cbd36b01bd1cbaebf2de08d9173bc095c000000000000000000000000a2e3356610840701bdf5611a53974510ae27e2e1000000000000000000000000f3afd82a4071f272f403dc176916141f44e6c750000000000000000000000000fe7dae87ebb11a7beb9f534bb23267992d9cde7c0000000000000000000000000000000000000000000000000b1a2bc2ec500000",
        "nonce": "0x1b5",
        "chainId": "0x38"
      },
      "additionalContracts": [],
      "isFixedGasLimit": false
    },
    {
      "hash": "0x7d51c4b2c84544cc9874988bdabd51c444717b421b923bf33aad94648b8d4e1f",
      "transactionType": "CALL",
      "contractName": null,
      "contractAddress": "0x8f73b65b4caaf64fba2af91cc5d4a2a1318e5d8c",
      "function": "createMarket((address,address,address,address,uint256))",
      "arguments": [
        "(0x7130d2A12B9BCbFAe4f2634d864A1Ee1Ce3Ead9c, 0xa2E3356610840701BDf5611a53974510Ae27E2e1, 0xf3afD82A4071f272F403dC176916141f44E6c750, 0xFe7dAe87Ebb11a7BEB9F534BB23267992d9cDe7c, 800000000000000000)"
      ],
      "transaction": {
        "from": "0xd7e38800201d6a42c408bf79d8723740c4e7f631",
        "to": "0x8f73b65b4caaf64fba2af91cc5d4a2a1318e5d8c",
        "gas": "0x9a9d4",
        "value": "0x0",
        "input": "0x8c1358a20000000000000000000000007130d2a12b9bcbfae4f2634d864a1ee1ce3ead9c000000000000000000000000a2e3356610840701bdf5611a53974510ae27e2e1000000000000000000000000f3afd82a4071f272f403dc176916141f44e6c750000000000000000000000000fe7dae87ebb11a7beb9f534bb23267992d9cde7c0000000000000000000000000000000000000000000000000b1a2bc2ec500000",
        "nonce": "0x1b6",
        "chainId": "0x38"
      },
      "additionalContracts": [],
      "isFixedGasLimit": false
    },
    {
      "hash": "0x965b91db053f8709286b9e727dc8279655c470772118cb3dcddb6936ea96efa7",
      "transactionType": "CALL",
      "contractName": null,
      "contractAddress": "0x8f73b65b4caaf64fba2af91cc5d4a2a1318e5d8c",
      "function": "createMarket((address,address,address,address,uint256))",
      "arguments": [
        "(0x55d398326f99059fF775485246999027B3197955, 0xa2E3356610840701BDf5611a53974510Ae27E2e1, 0xf3afD82A4071f272F403dC176916141f44E6c750, 0xFe7dAe87Ebb11a7BEB9F534BB23267992d9cDe7c, 800000000000000000)"
      ],
      "transaction": {
        "from": "0xd7e38800201d6a42c408bf79d8723740c4e7f631",
        "to": "0x8f73b65b4caaf64fba2af91cc5d4a2a1318e5d8c",
        "gas": "0x9141c",
        "value": "0x0",
        "input": "0x8c1358a200000000000000000000000055d398326f99059ff775485246999027b3197955000000000000000000000000a2e3356610840701bdf5611a53974510ae27e2e1000000000000000000000000f3afd82a4071f272f403dc176916141f44e6c750000000000000000000000000fe7dae87ebb11a7beb9f534bb23267992d9cde7c0000000000000000000000000000000000000000000000000b1a2bc2ec500000",
        "nonce": "0x1b7",
        "chainId": "0x38"
      },
      "additionalContracts": [],
      "isFixedGasLimit": false
    },
    {
      "hash": "0x85effd0813a48c14ac1388e7d2f137ac7521200d2d4c6966ce114e451522341b",
      "transactionType": "CALL",
      "contractName": null,
      "contractAddress": "0x8f73b65b4caaf64fba2af91cc5d4a2a1318e5d8c",
      "function": "createMarket((address,address,address,address,uint256))",
      "arguments": [
        "(0x8d0D000Ee44948FC98c9B98A4FA4921476f08B0d, 0xa2E3356610840701BDf5611a53974510Ae27E2e1, 0xf3afD82A4071f272F403dC176916141f44E6c750, 0xFe7dAe87Ebb11a7BEB9F534BB23267992d9cDe7c, 800000000000000000)"
      ],
      "transaction": {
        "from": "0xd7e38800201d6a42c408bf79d8723740c4e7f631",
        "to": "0x8f73b65b4caaf64fba2af91cc5d4a2a1318e5d8c",
        "gas": "0xa05bb",
        "value": "0x0",
        "input": "0x8c1358a20000000000000000000000008d0d000ee44948fc98c9b98a4fa4921476f08b0d000000000000000000000000a2e3356610840701bdf5611a53974510ae27e2e1000000000000000000000000f3afd82a4071f272f403dc176916141f44e6c750000000000000000000000000fe7dae87ebb11a7beb9f534bb23267992d9cde7c0000000000000000000000000000000000000000000000000b1a2bc2ec500000",
        "nonce": "0x1b8",
        "chainId": "0x38"
      },
      "additionalContracts": [],
      "isFixedGasLimit": false
    },
    {
      "hash": "0x9c71d890500c83c6bd6b6be13794f055ea62aa9e50a05dad5d924984964c5b06",
      "transactionType": "CALL",
      "contractName": null,
      "contractAddress": "0x8f73b65b4caaf64fba2af91cc5d4a2a1318e5d8c",
      "function": "createMarket((address,address,address,address,uint256))",
      "arguments": [
        "(0xbb4CdB9CBd36B01bD1cBaEBF2De08d9173bc095c, 0x26c5e01524d2E6280A48F2c50fF6De7e52E9611C, 0xf3afD82A4071f272F403dC176916141f44E6c750, 0xFe7dAe87Ebb11a7BEB9F534BB23267992d9cDe7c, 800000000000000000)"
      ],
      "transaction": {
        "from": "0xd7e38800201d6a42c408bf79d8723740c4e7f631",
        "to": "0x8f73b65b4caaf64fba2af91cc5d4a2a1318e5d8c",
        "gas": "0x96a0d",
        "value": "0x0",
        "input": "0x8c1358a2000000000000000000000000bb4cdb9cbd36b01bd1cbaebf2de08d9173bc095c00000000000000000000000026c5e01524d2e6280a48f2c50ff6de7e52e9611c000000000000000000000000f3afd82a4071f272f403dc176916141f44e6c750000000000000000000000000fe7dae87ebb11a7beb9f534bb23267992d9cde7c0000000000000000000000000000000000000000000000000b1a2bc2ec500000",
        "nonce": "0x1b9",
        "chainId": "0x38"
      },
      "additionalContracts": [],
      "isFixedGasLimit": false
    },
    {
      "hash": "0x8454cd4c8f4821f4e4c1caa3fc79df518acdc98b347d22e95a2a82747e11ddd7",
      "transactionType": "CALL",
      "contractName": null,
      "contractAddress": "0x8f73b65b4caaf64fba2af91cc5d4a2a1318e5d8c",
      "function": "createMarket((address,address,address,address,uint256))",
      "arguments": [
        "(0x7130d2A12B9BCbFAe4f2634d864A1Ee1Ce3Ead9c, 0x26c5e01524d2E6280A48F2c50fF6De7e52E9611C, 0xf3afD82A4071f272F403dC176916141f44E6c750, 0xFe7dAe87Ebb11a7BEB9F534BB23267992d9cDe7c, 800000000000000000)"
      ],
      "transaction": {
        "from": "0xd7e38800201d6a42c408bf79d8723740c4e7f631",
        "to": "0x8f73b65b4caaf64fba2af91cc5d4a2a1318e5d8c",
        "gas": "0x96a0d",
        "value": "0x0",
        "input": "0x8c1358a20000000000000000000000007130d2a12b9bcbfae4f2634d864a1ee1ce3ead9c00000000000000000000000026c5e01524d2e6280a48f2c50ff6de7e52e9611c000000000000000000000000f3afd82a4071f272f403dc176916141f44e6c750000000000000000000000000fe7dae87ebb11a7beb9f534bb23267992d9cde7c0000000000000000000000000000000000000000000000000b1a2bc2ec500000",
        "nonce": "0x1ba",
        "chainId": "0x38"
      },
      "additionalContracts": [],
      "isFixedGasLimit": false
    },
    {
      "hash": "0x10655edb104f7789a30bc3bbdc1c93ebfd14e95a128f36808888b740f0883cc5",
      "transactionType": "CALL",
      "contractName": null,
      "contractAddress": "0x8f73b65b4caaf64fba2af91cc5d4a2a1318e5d8c",
      "function": "createMarket((address,address,address,address,uint256))",
      "arguments": [
        "(0x55d398326f99059fF775485246999027B3197955, 0x26c5e01524d2E6280A48F2c50fF6De7e52E9611C, 0xf3afD82A4071f272F403dC176916141f44E6c750, 0xFe7dAe87Ebb11a7BEB9F534BB23267992d9cDe7c, 800000000000000000)"
      ],
      "transaction": {
        "from": "0xd7e38800201d6a42c408bf79d8723740c4e7f631",
        "to": "0x8f73b65b4caaf64fba2af91cc5d4a2a1318e5d8c",
        "gas": "0x9ead1",
        "value": "0x0",
        "input": "0x8c1358a200000000000000000000000055d398326f99059ff775485246999027b319795500000000000000000000000026c5e01524d2e6280a48f2c50ff6de7e52e9611c000000000000000000000000f3afd82a4071f272f403dc176916141f44e6c750000000000000000000000000fe7dae87ebb11a7beb9f534bb23267992d9cde7c0000000000000000000000000000000000000000000000000b1a2bc2ec500000",
        "nonce": "0x1bb",
        "chainId": "0x38"
      },
      "additionalContracts": [],
      "isFixedGasLimit": false
    },
    {
      "hash": "0xa45f669caaf709e817333e459730924abb1716d7fb804c587612599e8f2e16f1",
      "transactionType": "CALL",
      "contractName": null,
      "contractAddress": "0x8f73b65b4caaf64fba2af91cc5d4a2a1318e5d8c",
      "function": "createMarket((address,address,address,address,uint256))",
      "arguments": [
        "(0x8d0D000Ee44948FC98c9B98A4FA4921476f08B0d, 0x26c5e01524d2E6280A48F2c50fF6De7e52E9611C, 0xf3afD82A4071f272F403dC176916141f44E6c750, 0xFe7dAe87Ebb11a7BEB9F534BB23267992d9cDe7c, 800000000000000000)"
      ],
      "transaction": {
        "from": "0xd7e38800201d6a42c408bf79d8723740c4e7f631",
        "to": "0x8f73b65b4caaf64fba2af91cc5d4a2a1318e5d8c",
        "gas": "0x9c0d9",
        "value": "0x0",
        "input": "0x8c1358a20000000000000000000000008d0d000ee44948fc98c9b98a4fa4921476f08b0d00000000000000000000000026c5e01524d2e6280a48f2c50ff6de7e52e9611c000000000000000000000000f3afd82a4071f272f403dc176916141f44e6c750000000000000000000000000fe7dae87ebb11a7beb9f534bb23267992d9cde7c0000000000000000000000000000000000000000000000000b1a2bc2ec500000",
        "nonce": "0x1bc",
        "chainId": "0x38"
      },
      "additionalContracts": [],
      "isFixedGasLimit": false
    }
  ],
  "receipts": [
    {
      "status": "0x1",
      "cumulativeGasUsed": "0x2369ddd",
      "logs": [
        {
          "address": "0x8f73b65b4caaf64fba2af91cc5d4a2a1318e5d8c",
          "topics": [
            "0xac4b2400f169220b0c0afdde7a0b32e775ba727ea1cb30b35f935cdaab8683ac",
            "0x0c604931198d645ed4ebfaa5d3ced8e11528ec004ef2e6c8fb968d8fbdf902b4"
          ],
          "data": "0x000000000000000000000000bb4cdb9cbd36b01bd1cbaebf2de08d9173bc095c000000000000000000000000a2e3356610840701bdf5611a53974510ae27e2e1000000000000000000000000f3afd82a4071f272f403dc176916141f44e6c750000000000000000000000000fe7dae87ebb11a7beb9f534bb23267992d9cde7c0000000000000000000000000000000000000000000000000b1a2bc2ec500000",
          "blockHash": "0x7620d20b03251dff7baa1e813a56d928bb5c79bc1dad17d0139074bfbd28828e",
          "blockNumber": "0x2fd57d1",
          "transactionHash": "0xbce0ba5494d42955af48458e058bb446428c0f3b1a2ad898821a3be922f96d54",
          "transactionIndex": "0xb2",
          "logIndex": "0x581",
          "removed": false
        },
        {
          "address": "0xfe7dae87ebb11a7beb9f534bb23267992d9cde7c",
          "topics": [
            "0x7120161a7b3d31251e01294ab351ef15a41b91659a36032e4641bb89b121e321",
            "0x0c604931198d645ed4ebfaa5d3ced8e11528ec004ef2e6c8fb968d8fbdf902b4"
          ],
          "data": "0x0000000000000000000000000000000000000000000000000000000012e687bf000000000000000000000000000000000000000000000000000000004b9a1eff",
          "blockHash": "0x7620d20b03251dff7baa1e813a56d928bb5c79bc1dad17d0139074bfbd28828e",
          "blockNumber": "0x2fd57d1",
          "transactionHash": "0xbce0ba5494d42955af48458e058bb446428c0f3b1a2ad898821a3be922f96d54",
          "transactionIndex": "0xb2",
          "logIndex": "0x582",
          "removed": false
        }
      ],
      "logsBloom": "0x00000000000000000000000000000800000000000000000000000000000000000000000000000000000000000000000000000000000000000000000000804000000000000000000000000100000000000000000000000000000080000000000000000000000000000000000000000000000000000000000010000040000000000000000000000000000000000000000000000000000000000000000008000000000000000000000000000000000000000000002000000080000000000000040000000000000000000000000000000000000000000000000000000000000000000000000000000000000000100001000000000000000000000000000000000010",
      "type": "0x0",
      "transactionHash": "0xbce0ba5494d42955af48458e058bb446428c0f3b1a2ad898821a3be922f96d54",
      "transactionIndex": "0xb2",
      "blockHash": "0x7620d20b03251dff7baa1e813a56d928bb5c79bc1dad17d0139074bfbd28828e",
      "blockNumber": "0x2fd57d1",
      "gasUsed": "0x69b82",
      "effectiveGasPrice": "0x5f5e100",
      "from": "0xd7e38800201d6a42c408bf79d8723740c4e7f631",
      "to": "0x8f73b65b4caaf64fba2af91cc5d4a2a1318e5d8c",
      "contractAddress": null
    },
    {
      "status": "0x1",
      "cumulativeGasUsed": "0x23d395f",
      "logs": [
        {
          "address": "0x8f73b65b4caaf64fba2af91cc5d4a2a1318e5d8c",
          "topics": [
            "0xac4b2400f169220b0c0afdde7a0b32e775ba727ea1cb30b35f935cdaab8683ac",
            "0x970bbb364473bace0004b4e8171f95b37e44e9103bf2d65579eaedd0f9f10294"
          ],
          "data": "0x0000000000000000000000007130d2a12b9bcbfae4f2634d864a1ee1ce3ead9c000000000000000000000000a2e3356610840701bdf5611a53974510ae27e2e1000000000000000000000000f3afd82a4071f272f403dc176916141f44e6c750000000000000000000000000fe7dae87ebb11a7beb9f534bb23267992d9cde7c0000000000000000000000000000000000000000000000000b1a2bc2ec500000",
          "blockHash": "0x7620d20b03251dff7baa1e813a56d928bb5c79bc1dad17d0139074bfbd28828e",
          "blockNumber": "0x2fd57d1",
          "transactionHash": "0x7d51c4b2c84544cc9874988bdabd51c444717b421b923bf33aad94648b8d4e1f",
          "transactionIndex": "0xb3",
          "logIndex": "0x583",
          "removed": false
        },
        {
          "address": "0xfe7dae87ebb11a7beb9f534bb23267992d9cde7c",
          "topics": [
            "0x7120161a7b3d31251e01294ab351ef15a41b91659a36032e4641bb89b121e321",
            "0x970bbb364473bace0004b4e8171f95b37e44e9103bf2d65579eaedd0f9f10294"
          ],
          "data": "0x0000000000000000000000000000000000000000000000000000000012e687bf000000000000000000000000000000000000000000000000000000004b9a1eff",
          "blockHash": "0x7620d20b03251dff7baa1e813a56d928bb5c79bc1dad17d0139074bfbd28828e",
          "blockNumber": "0x2fd57d1",
          "transactionHash": "0x7d51c4b2c84544cc9874988bdabd51c444717b421b923bf33aad94648b8d4e1f",
          "transactionIndex": "0xb3",
          "logIndex": "0x584",
          "removed": false
        }
      ],
      "logsBloom": "0x00000000000000000000020000000800000000000000000000000000000000000000000000000000000000000000000000000000000000000000000000804000000000000000000000000000000000000000000000000000000080000000000000000000000000000000000000000000000000000000000010000040000000000000000000000000000000008000000000000000000000000000000008004000000000000000000000000000000000000000002000000080000000000000040000000000000000000000000000000000000000000000000000000000000000000000000000000000000000000001000000000000000000000000000000000010",
      "type": "0x0",
      "transactionHash": "0x7d51c4b2c84544cc9874988bdabd51c444717b421b923bf33aad94648b8d4e1f",
      "transactionIndex": "0xb3",
      "blockHash": "0x7620d20b03251dff7baa1e813a56d928bb5c79bc1dad17d0139074bfbd28828e",
      "blockNumber": "0x2fd57d1",
      "gasUsed": "0x69b82",
      "effectiveGasPrice": "0x5f5e100",
      "from": "0xd7e38800201d6a42c408bf79d8723740c4e7f631",
      "to": "0x8f73b65b4caaf64fba2af91cc5d4a2a1318e5d8c",
      "contractAddress": null
    },
    {
      "status": "0x1",
      "cumulativeGasUsed": "0x243cbfd",
      "logs": [
        {
          "address": "0x8f73b65b4caaf64fba2af91cc5d4a2a1318e5d8c",
          "topics": [
            "0xac4b2400f169220b0c0afdde7a0b32e775ba727ea1cb30b35f935cdaab8683ac",
            "0x2b87aedf2672376147a71cf09d3b7c776f92e6c52d22a12fe1322bb205892961"
          ],
          "data": "0x00000000000000000000000055d398326f99059ff775485246999027b3197955000000000000000000000000a2e3356610840701bdf5611a53974510ae27e2e1000000000000000000000000f3afd82a4071f272f403dc176916141f44e6c750000000000000000000000000fe7dae87ebb11a7beb9f534bb23267992d9cde7c0000000000000000000000000000000000000000000000000b1a2bc2ec500000",
          "blockHash": "0x7620d20b03251dff7baa1e813a56d928bb5c79bc1dad17d0139074bfbd28828e",
          "blockNumber": "0x2fd57d1",
          "transactionHash": "0x965b91db053f8709286b9e727dc8279655c470772118cb3dcddb6936ea96efa7",
          "transactionIndex": "0xb4",
          "logIndex": "0x585",
          "removed": false
        },
        {
          "address": "0xfe7dae87ebb11a7beb9f534bb23267992d9cde7c",
          "topics": [
            "0x7120161a7b3d31251e01294ab351ef15a41b91659a36032e4641bb89b121e321",
            "0x2b87aedf2672376147a71cf09d3b7c776f92e6c52d22a12fe1322bb205892961"
          ],
          "data": "0x0000000000000000000000000000000000000000000000000000000012e687bf000000000000000000000000000000000000000000000000000000004b9a1eff",
          "blockHash": "0x7620d20b03251dff7baa1e813a56d928bb5c79bc1dad17d0139074bfbd28828e",
          "blockNumber": "0x2fd57d1",
          "transactionHash": "0x965b91db053f8709286b9e727dc8279655c470772118cb3dcddb6936ea96efa7",
          "transactionIndex": "0xb4",
          "logIndex": "0x586",
          "removed": false
        }
      ],
      "logsBloom": "0x00000000000000000000000000000800000000000000000000000000000000000000000000000000000000000000000000000000000000000000000000804000000000000000000000000000000000000000000000000000000080000000000000000000000000000000000000000000000000000000000010000040000000000000000000000000000000000000000000000000000000000000000008000000000004000000000000000000000000200000002000000080000000000000040000000000000000000000000000000000000000000000000000000000000000000000000000000000000000000001000010000000000000000000000000000010",
      "type": "0x0",
      "transactionHash": "0x965b91db053f8709286b9e727dc8279655c470772118cb3dcddb6936ea96efa7",
      "transactionIndex": "0xb4",
      "blockHash": "0x7620d20b03251dff7baa1e813a56d928bb5c79bc1dad17d0139074bfbd28828e",
      "blockNumber": "0x2fd57d1",
      "gasUsed": "0x6929e",
      "effectiveGasPrice": "0x5f5e100",
      "from": "0xd7e38800201d6a42c408bf79d8723740c4e7f631",
      "to": "0x8f73b65b4caaf64fba2af91cc5d4a2a1318e5d8c",
      "contractAddress": null
    },
    {
      "status": "0x1",
      "cumulativeGasUsed": "0x24aa656",
      "logs": [
        {
          "address": "0x8f73b65b4caaf64fba2af91cc5d4a2a1318e5d8c",
          "topics": [
            "0xac4b2400f169220b0c0afdde7a0b32e775ba727ea1cb30b35f935cdaab8683ac",
            "0x642b55769bec1f4e0d8687e24c3db885ae446f6fbb124decae96b6c0ea37f4f1"
          ],
          "data": "0x0000000000000000000000008d0d000ee44948fc98c9b98a4fa4921476f08b0d000000000000000000000000a2e3356610840701bdf5611a53974510ae27e2e1000000000000000000000000f3afd82a4071f272f403dc176916141f44e6c750000000000000000000000000fe7dae87ebb11a7beb9f534bb23267992d9cde7c0000000000000000000000000000000000000000000000000b1a2bc2ec500000",
          "blockHash": "0x7620d20b03251dff7baa1e813a56d928bb5c79bc1dad17d0139074bfbd28828e",
          "blockNumber": "0x2fd57d1",
          "transactionHash": "0x85effd0813a48c14ac1388e7d2f137ac7521200d2d4c6966ce114e451522341b",
          "transactionIndex": "0xb5",
          "logIndex": "0x587",
          "removed": false
        },
        {
          "address": "0xfe7dae87ebb11a7beb9f534bb23267992d9cde7c",
          "topics": [
            "0x7120161a7b3d31251e01294ab351ef15a41b91659a36032e4641bb89b121e321",
            "0x642b55769bec1f4e0d8687e24c3db885ae446f6fbb124decae96b6c0ea37f4f1"
          ],
          "data": "0x0000000000000000000000000000000000000000000000000000000012e687bf000000000000000000000000000000000000000000000000000000004b9a1eff",
          "blockHash": "0x7620d20b03251dff7baa1e813a56d928bb5c79bc1dad17d0139074bfbd28828e",
          "blockNumber": "0x2fd57d1",
          "transactionHash": "0x85effd0813a48c14ac1388e7d2f137ac7521200d2d4c6966ce114e451522341b",
          "transactionIndex": "0xb5",
          "logIndex": "0x588",
          "removed": false
        }
      ],
      "logsBloom": "0x00000000000000000000000000000800000000000000000000000000000000000000000000000000000000000000000000800000000000000000000000804000000000000000000000000000000000000000000000000000000080000000000000000000000000000000000000000000000000000000000010000040000000000000000000000000000000000000000000000000000000000000000008000000000400000000000000000000000000000000002000000080000000000000040000000000000000000000000000000000000000000000000000000000000000000000001000000000000000000001000000000000000000000000000000000010",
      "type": "0x0",
      "transactionHash": "0x85effd0813a48c14ac1388e7d2f137ac7521200d2d4c6966ce114e451522341b",
      "transactionIndex": "0xb5",
      "blockHash": "0x7620d20b03251dff7baa1e813a56d928bb5c79bc1dad17d0139074bfbd28828e",
      "blockNumber": "0x2fd57d1",
      "gasUsed": "0x6da59",
      "effectiveGasPrice": "0x5f5e100",
      "from": "0xd7e38800201d6a42c408bf79d8723740c4e7f631",
      "to": "0x8f73b65b4caaf64fba2af91cc5d4a2a1318e5d8c",
      "contractAddress": null
    },
    {
      "status": "0x1",
      "cumulativeGasUsed": "0x251772c",
      "logs": [
        {
          "address": "0x8f73b65b4caaf64fba2af91cc5d4a2a1318e5d8c",
          "topics": [
            "0xac4b2400f169220b0c0afdde7a0b32e775ba727ea1cb30b35f935cdaab8683ac",
            "0x92a0b35f1cdccf6e8b8f07d1ee59568f84222f38eaeef4083a359ceb4468362c"
          ],
          "data": "0x000000000000000000000000bb4cdb9cbd36b01bd1cbaebf2de08d9173bc095c00000000000000000000000026c5e01524d2e6280a48f2c50ff6de7e52e9611c000000000000000000000000f3afd82a4071f272f403dc176916141f44e6c750000000000000000000000000fe7dae87ebb11a7beb9f534bb23267992d9cde7c0000000000000000000000000000000000000000000000000b1a2bc2ec500000",
          "blockHash": "0x7620d20b03251dff7baa1e813a56d928bb5c79bc1dad17d0139074bfbd28828e",
          "blockNumber": "0x2fd57d1",
          "transactionHash": "0x9c71d890500c83c6bd6b6be13794f055ea62aa9e50a05dad5d924984964c5b06",
          "transactionIndex": "0xb6",
          "logIndex": "0x589",
          "removed": false
        },
        {
          "address": "0xfe7dae87ebb11a7beb9f534bb23267992d9cde7c",
          "topics": [
            "0x7120161a7b3d31251e01294ab351ef15a41b91659a36032e4641bb89b121e321",
            "0x92a0b35f1cdccf6e8b8f07d1ee59568f84222f38eaeef4083a359ceb4468362c"
          ],
          "data": "0x0000000000000000000000000000000000000000000000000000000012e687bf000000000000000000000000000000000000000000000000000000004b9a1eff",
          "blockHash": "0x7620d20b03251dff7baa1e813a56d928bb5c79bc1dad17d0139074bfbd28828e",
          "blockNumber": "0x2fd57d1",
          "transactionHash": "0x9c71d890500c83c6bd6b6be13794f055ea62aa9e50a05dad5d924984964c5b06",
          "transactionIndex": "0xb6",
          "logIndex": "0x58a",
          "removed": false
        }
      ],
      "logsBloom": "0x00000000000000000000000000000800000000000000000000000000000000000000000000000000000000000010000000000000000000000000000000804000000000000000000000000000000000000000000000000000000080000000000000000000000000000000000000000000000000400000004010000040000000000000000000000000000000000000000000000000000000000000000008000000000000000000000000000000000000000000002000000080000000000000040000000000000000000000000000000000000000000000000000000000000000000000000000000000000000000001000000000000000000000000000000000010",
      "type": "0x0",
      "transactionHash": "0x9c71d890500c83c6bd6b6be13794f055ea62aa9e50a05dad5d924984964c5b06",
      "transactionIndex": "0xb6",
      "blockHash": "0x7620d20b03251dff7baa1e813a56d928bb5c79bc1dad17d0139074bfbd28828e",
      "blockNumber": "0x2fd57d1",
      "gasUsed": "0x6d0d6",
      "effectiveGasPrice": "0x5f5e100",
      "from": "0xd7e38800201d6a42c408bf79d8723740c4e7f631",
      "to": "0x8f73b65b4caaf64fba2af91cc5d4a2a1318e5d8c",
      "contractAddress": null
    },
    {
      "status": "0x1",
      "cumulativeGasUsed": "0x2584802",
      "logs": [
        {
          "address": "0x8f73b65b4caaf64fba2af91cc5d4a2a1318e5d8c",
          "topics": [
            "0xac4b2400f169220b0c0afdde7a0b32e775ba727ea1cb30b35f935cdaab8683ac",
            "0x7de811eba4fa1cf2f417d5d64ab3f06bae3fb900561963954ac1ae9a5d757fd8"
          ],
          "data": "0x0000000000000000000000007130d2a12b9bcbfae4f2634d864a1ee1ce3ead9c00000000000000000000000026c5e01524d2e6280a48f2c50ff6de7e52e9611c000000000000000000000000f3afd82a4071f272f403dc176916141f44e6c750000000000000000000000000fe7dae87ebb11a7beb9f534bb23267992d9cde7c0000000000000000000000000000000000000000000000000b1a2bc2ec500000",
          "blockHash": "0x7620d20b03251dff7baa1e813a56d928bb5c79bc1dad17d0139074bfbd28828e",
          "blockNumber": "0x2fd57d1",
          "transactionHash": "0x8454cd4c8f4821f4e4c1caa3fc79df518acdc98b347d22e95a2a82747e11ddd7",
          "transactionIndex": "0xb7",
          "logIndex": "0x58b",
          "removed": false
        },
        {
          "address": "0xfe7dae87ebb11a7beb9f534bb23267992d9cde7c",
          "topics": [
            "0x7120161a7b3d31251e01294ab351ef15a41b91659a36032e4641bb89b121e321",
            "0x7de811eba4fa1cf2f417d5d64ab3f06bae3fb900561963954ac1ae9a5d757fd8"
          ],
          "data": "0x0000000000000000000000000000000000000000000000000000000012e687bf000000000000000000000000000000000000000000000000000000004b9a1eff",
          "blockHash": "0x7620d20b03251dff7baa1e813a56d928bb5c79bc1dad17d0139074bfbd28828e",
          "blockNumber": "0x2fd57d1",
          "transactionHash": "0x8454cd4c8f4821f4e4c1caa3fc79df518acdc98b347d22e95a2a82747e11ddd7",
          "transactionIndex": "0xb7",
          "logIndex": "0x58c",
          "removed": false
        }
      ],
      "logsBloom": "0x00000000000000000000000000000800000000000000000000000000000040000000000000000000000000000000000000000000000000000000000000804000000000000000000000000000000000000000000000000000000080000000000000000000000000000000000000000000000000000000000010000040000000000000000000000000000000000000000000000000000000000000000008000000000000000000000000000000000000000000002000000080000000000000040000000000000000000000000000000000000010000000000000000000000000000000000020000000000000000001000000000000000000000000000000000010",
      "type": "0x0",
      "transactionHash": "0x8454cd4c8f4821f4e4c1caa3fc79df518acdc98b347d22e95a2a82747e11ddd7",
      "transactionIndex": "0xb7",
      "blockHash": "0x7620d20b03251dff7baa1e813a56d928bb5c79bc1dad17d0139074bfbd28828e",
      "blockNumber": "0x2fd57d1",
      "gasUsed": "0x6d0d6",
      "effectiveGasPrice": "0x5f5e100",
      "from": "0xd7e38800201d6a42c408bf79d8723740c4e7f631",
      "to": "0x8f73b65b4caaf64fba2af91cc5d4a2a1318e5d8c",
      "contractAddress": null
    },
    {
      "status": "0x1",
      "cumulativeGasUsed": "0x25f0ff4",
      "logs": [
        {
          "address": "0x8f73b65b4caaf64fba2af91cc5d4a2a1318e5d8c",
          "topics": [
            "0xac4b2400f169220b0c0afdde7a0b32e775ba727ea1cb30b35f935cdaab8683ac",
            "0x169a54980294ed1343d1d2bac1f279924a572ab0f2097214672565f06a275d19"
          ],
          "data": "0x00000000000000000000000055d398326f99059ff775485246999027b319795500000000000000000000000026c5e01524d2e6280a48f2c50ff6de7e52e9611c000000000000000000000000f3afd82a4071f272f403dc176916141f44e6c750000000000000000000000000fe7dae87ebb11a7beb9f534bb23267992d9cde7c0000000000000000000000000000000000000000000000000b1a2bc2ec500000",
          "blockHash": "0x7620d20b03251dff7baa1e813a56d928bb5c79bc1dad17d0139074bfbd28828e",
          "blockNumber": "0x2fd57d1",
          "transactionHash": "0x10655edb104f7789a30bc3bbdc1c93ebfd14e95a128f36808888b740f0883cc5",
          "transactionIndex": "0xb8",
          "logIndex": "0x58d",
          "removed": false
        },
        {
          "address": "0xfe7dae87ebb11a7beb9f534bb23267992d9cde7c",
          "topics": [
            "0x7120161a7b3d31251e01294ab351ef15a41b91659a36032e4641bb89b121e321",
            "0x169a54980294ed1343d1d2bac1f279924a572ab0f2097214672565f06a275d19"
          ],
          "data": "0x0000000000000000000000000000000000000000000000000000000012e687bf000000000000000000000000000000000000000000000000000000004b9a1eff",
          "blockHash": "0x7620d20b03251dff7baa1e813a56d928bb5c79bc1dad17d0139074bfbd28828e",
          "blockNumber": "0x2fd57d1",
          "transactionHash": "0x10655edb104f7789a30bc3bbdc1c93ebfd14e95a128f36808888b740f0883cc5",
          "transactionIndex": "0xb8",
          "logIndex": "0x58e",
          "removed": false
        }
      ],
      "logsBloom": "0x00000000000000000000000000000800000000000000000000080000000000000000000000000000000000000000000000000000000000000000000000804000000000000000000000000000000000000000000000000000000080000000000000000000000000000000000000000000000000000000000010000040000000000000000000000000000000000100000000000000000000000000000008000000000000000000000000000000000000000000002008000080000000000000040000000000000000000000000000000000000000000000000000000000000000000000000000000000000000000001000000000000000000000000000000000010",
      "type": "0x0",
      "transactionHash": "0x10655edb104f7789a30bc3bbdc1c93ebfd14e95a128f36808888b740f0883cc5",
      "transactionIndex": "0xb8",
      "blockHash": "0x7620d20b03251dff7baa1e813a56d928bb5c79bc1dad17d0139074bfbd28828e",
      "blockNumber": "0x2fd57d1",
      "gasUsed": "0x6c7f2",
      "effectiveGasPrice": "0x5f5e100",
      "from": "0xd7e38800201d6a42c408bf79d8723740c4e7f631",
      "to": "0x8f73b65b4caaf64fba2af91cc5d4a2a1318e5d8c",
      "contractAddress": null
    },
    {
      "status": "0x1",
      "cumulativeGasUsed": "0x26b3ccc",
      "logs": [
        {
          "address": "0x8f73b65b4caaf64fba2af91cc5d4a2a1318e5d8c",
          "topics": [
            "0xac4b2400f169220b0c0afdde7a0b32e775ba727ea1cb30b35f935cdaab8683ac",
            "0x9161680af48565835df016a2b2f4987a6793a545758d0379d9e0d7479db07973"
          ],
          "data": "0x0000000000000000000000008d0d000ee44948fc98c9b98a4fa4921476f08b0d00000000000000000000000026c5e01524d2e6280a48f2c50ff6de7e52e9611c000000000000000000000000f3afd82a4071f272f403dc176916141f44e6c750000000000000000000000000fe7dae87ebb11a7beb9f534bb23267992d9cde7c0000000000000000000000000000000000000000000000000b1a2bc2ec500000",
          "blockHash": "0x7620d20b03251dff7baa1e813a56d928bb5c79bc1dad17d0139074bfbd28828e",
          "blockNumber": "0x2fd57d1",
          "transactionHash": "0xa45f669caaf709e817333e459730924abb1716d7fb804c587612599e8f2e16f1",
          "transactionIndex": "0xbf",
          "logIndex": "0x596",
          "removed": false
        },
        {
          "address": "0xfe7dae87ebb11a7beb9f534bb23267992d9cde7c",
          "topics": [
            "0x7120161a7b3d31251e01294ab351ef15a41b91659a36032e4641bb89b121e321",
            "0x9161680af48565835df016a2b2f4987a6793a545758d0379d9e0d7479db07973"
          ],
          "data": "0x0000000000000000000000000000000000000000000000000000000012e687bf000000000000000000000000000000000000000000000000000000004b9a1eff",
          "blockHash": "0x7620d20b03251dff7baa1e813a56d928bb5c79bc1dad17d0139074bfbd28828e",
          "blockNumber": "0x2fd57d1",
          "transactionHash": "0xa45f669caaf709e817333e459730924abb1716d7fb804c587612599e8f2e16f1",
          "transactionIndex": "0xbf",
          "logIndex": "0x597",
          "removed": false
        }
      ],
      "logsBloom": "0x00000000000000000000000000000800000000000000000000000000000000000000100000000000000000000000000000000000000000000000000000804000000000000000000000000000000000000000000000000000000080000000000000000000000000000000000000000000000000000000000010000050000000000000000000000000080000000000000000000000000000000000000008000000000000000000000000000000000000000000002000000080000000000000040000000000000000000000000000000000000000000000000000000000000000000000000000000000000000000001000000000000000000000000000000000010",
      "type": "0x0",
      "transactionHash": "0xa45f669caaf709e817333e459730924abb1716d7fb804c587612599e8f2e16f1",
      "transactionIndex": "0xbf",
      "blockHash": "0x7620d20b03251dff7baa1e813a56d928bb5c79bc1dad17d0139074bfbd28828e",
      "blockNumber": "0x2fd57d1",
      "gasUsed": "0x70fad",
      "effectiveGasPrice": "0x5f5e100",
      "from": "0xd7e38800201d6a42c408bf79d8723740c4e7f631",
      "to": "0x8f73b65b4caaf64fba2af91cc5d4a2a1318e5d8c",
      "contractAddress": null
    }
  ],
  "libraries": [],
  "pending": [],
  "returns": {},
  "timestamp": 1747979746,
  "chain": 56,
  "commit": "e00564e"
}