{
  "transactions": [
    {
      "hash": "0x32fc986be7d8df358363bf2e8b3ba0739fefae3fbbbbc5060c31312878352b07",
      "transactionType": "CALL",
      "contractName": null,
      "contractAddress": "0x8f73b65b4caaf64fba2af91cc5d4a2a1318e5d8c",
      "function": "createMarket((address,address,address,address,uint256))",
      "arguments": [
        "(0x8d0D000Ee44948FC98c9B98A4FA4921476f08B0d, 0x5d3a1Ff2b6BAb83b63cd9AD0787074081a52ef34, 0xf3afD82A4071f272F403dC176916141f44E6c750, 0xFe7dAe87Ebb11a7BEB9F534BB23267992d9cDe7c, 915000000000000000)"
      ],
      "transaction": {
        "from": "0xd7e38800201d6a42c408bf79d8723740c4e7f631",
        "to": "0x8f73b65b4caaf64fba2af91cc5d4a2a1318e5d8c",
        "gas": "0x7cb52",
        "value": "0x0",
        "input": "0x8c1358a20000000000000000000000008d0d000ee44948fc98c9b98a4fa4921476f08b0d0000000000000000000000005d3a1ff2b6bab83b63cd9ad0787074081a52ef34000000000000000000000000f3afd82a4071f272f403dc176916141f44e6c750000000000000000000000000fe7dae87ebb11a7beb9f534bb23267992d9cde7c0000000000000000000000000000000000000000000000000cb2bba6f17b8000",
        "nonce": "0x1bd",
        "chainId": "0x38"
      },
      "additionalContracts": [],
      "isFixedGasLimit": false
    },
    {
      "hash": "0xf94730e2f6aebe5fc547640e877d9e4abc304e61ded79c02f7a0c0133dbc9e2c",
      "transactionType": "CALL",
      "contractName": null,
      "contractAddress": "0x8f73b65b4caaf64fba2af91cc5d4a2a1318e5d8c",
      "function": "createMarket((address,address,address,address,uint256))",
      "arguments": [
        "(0x8d0D000Ee44948FC98c9B98A4FA4921476f08B0d, 0x211Cc4DD073734dA055fbF44a2b4667d5E5fE5d2, 0xf3afD82A4071f272F403dC176916141f44E6c750, 0xFe7dAe87Ebb11a7BEB9F534BB23267992d9cDe7c, 915000000000000000)"
      ],
      "transaction": {
        "from": "0xd7e38800201d6a42c408bf79d8723740c4e7f631",
        "to": "0x8f73b65b4caaf64fba2af91cc5d4a2a1318e5d8c",
        "gas": "0x8a16a",
        "value": "0x0",
        "input": "0x8c1358a20000000000000000000000008d0d000ee44948fc98c9b98a4fa4921476f08b0d000000000000000000000000211cc4dd073734da055fbf44a2b4667d5e5fe5d2000000000000000000000000f3afd82a4071f272f403dc176916141f44e6c750000000000000000000000000fe7dae87ebb11a7beb9f534bb23267992d9cde7c0000000000000000000000000000000000000000000000000cb2bba6f17b8000",
        "nonce": "0x1be",
        "chainId": "0x38"
      },
      "additionalContracts": [],
      "isFixedGasLimit": false
    },
    {
      "hash": "0xad042c25498ee823512918d0914c80f18d3fda2e96bfefede9f9ebdc4e32dd68",
      "transactionType": "CALL",
      "contractName": null,
      "contractAddress": "0x8f73b65b4caaf64fba2af91cc5d4a2a1318e5d8c",
      "function": "createMarket((address,address,address,address,uint256))",
      "arguments": [
        "(0x55d398326f99059fF775485246999027B3197955, 0x211Cc4DD073734dA055fbF44a2b4667d5E5fE5d2, 0xf3afD82A4071f272F403dC176916141f44E6c750, 0xFe7dAe87Ebb11a7BEB9F534BB23267992d9cDe7c, 915000000000000000)"
      ],
      "transaction": {
        "from": "0xd7e38800201d6a42c408bf79d8723740c4e7f631",
        "to": "0x8f73b65b4caaf64fba2af91cc5d4a2a1318e5d8c",
        "gas": "0x8ba7a",
        "value": "0x0",
        "input": "0x8c1358a200000000000000000000000055d398326f99059ff775485246999027b3197955000000000000000000000000211cc4dd073734da055fbf44a2b4667d5e5fe5d2000000000000000000000000f3afd82a4071f272f403dc176916141f44e6c750000000000000000000000000fe7dae87ebb11a7beb9f534bb23267992d9cde7c0000000000000000000000000000000000000000000000000cb2bba6f17b8000",
        "nonce": "0x1bf",
        "chainId": "0x38"
      },
      "additionalContracts": [],
      "isFixedGasLimit": false
    }
  ],
  "receipts": [
    {
      "status": "0x1",
      "cumulativeGasUsed": "0xc3e641",
      "logs": [
        {
          "address": "0x8f73b65b4caaf64fba2af91cc5d4a2a1318e5d8c",
          "topics": [
            "0xac4b2400f169220b0c0afdde7a0b32e775ba727ea1cb30b35f935cdaab8683ac",
            "0x5166d134305e09a4605c875f57c6344cc2af34e595942d112e13b5005997055d"
          ],
          "data": "0x0000000000000000000000008d0d000ee44948fc98c9b98a4fa4921476f08b0d0000000000000000000000005d3a1ff2b6bab83b63cd9ad0787074081a52ef34000000000000000000000000f3afd82a4071f272f403dc176916141f44e6c750000000000000000000000000fe7dae87ebb11a7beb9f534bb23267992d9cde7c0000000000000000000000000000000000000000000000000cb2bba6f17b8000",
          "blockHash": "0x73e109edb340ace871f9dbf6d4b2a44a4ef9358f7794a6f0193ab6e2bd364b83",
          "blockNumber": "0x3000068",
          "transactionHash": "0x32fc986be7d8df358363bf2e8b3ba0739fefae3fbbbbc5060c31312878352b07",
          "transactionIndex": "0x54",
          "logIndex": "0x131",
          "removed": false
        },
        {
          "address": "0xfe7dae87ebb11a7beb9f534bb23267992d9cde7c",
          "topics": [
            "0x7120161a7b3d31251e01294ab351ef15a41b91659a36032e4641bb89b121e321",
            "0x5166d134305e09a4605c875f57c6344cc2af34e595942d112e13b5005997055d"
          ],
          "data": "0x0000000000000000000000000000000000000000000000000000000012e687bf000000000000000000000000000000000000000000000000000000004b9a1eff",
          "blockHash": "0x73e109edb340ace871f9dbf6d4b2a44a4ef9358f7794a6f0193ab6e2bd364b83",
          "blockNumber": "0x3000068",
          "transactionHash": "0x32fc986be7d8df358363bf2e8b3ba0739fefae3fbbbbc5060c31312878352b07",
          "transactionIndex": "0x54",
          "logIndex": "0x132",
          "removed": false
        }
      ],
      "logsBloom": "0x00000000000000000000000000000800000000000000000000000000000000000000400000000000000000000000000000000000000000000000000000c04000000000000000000000000000000000000000000000000000000080000000000000000000000000000000000000000000000000000000000010000040000000000000000000000000000000000000000000000000000000000000000008000000000000000000000000000000000000000000002000000080000000000000040000000000000000000000000000000000000000000000000000000000000000000000000000000000000000000001000000000000000000000000400000000010",
      "type": "0x0",
      "transactionHash": "0x32fc986be7d8df358363bf2e8b3ba0739fefae3fbbbbc5060c31312878352b07",
      "transactionIndex": "0x54",
      "blockHash": "0x73e109edb340ace871f9dbf6d4b2a44a4ef9358f7794a6f0193ab6e2bd364b83",
      "blockNumber": "0x3000068",
      "gasUsed": "0x5a494",
      "effectiveGasPrice": "0x5f5e100",
      "from": "0xd7e38800201d6a42c408bf79d8723740c4e7f631",
      "to": "0x8f73b65b4caaf64fba2af91cc5d4a2a1318e5d8c",
      "contractAddress": null
    },
    {
      "status": "0x1",
      "cumulativeGasUsed": "0xca25d5",
      "logs": [
        {
          "address": "0x8f73b65b4caaf64fba2af91cc5d4a2a1318e5d8c",
          "topics": [
            "0xac4b2400f169220b0c0afdde7a0b32e775ba727ea1cb30b35f935cdaab8683ac",
            "0x8358cc1bf5d19d624bca71db95c077420278234cc9710f9d801c2946bb3c95d5"
          ],
          "data": "0x0000000000000000000000008d0d000ee44948fc98c9b98a4fa4921476f08b0d000000000000000000000000211cc4dd073734da055fbf44a2b4667d5e5fe5d2000000000000000000000000f3afd82a4071f272f403dc176916141f44e6c750000000000000000000000000fe7dae87ebb11a7beb9f534bb23267992d9cde7c0000000000000000000000000000000000000000000000000cb2bba6f17b8000",
          "blockHash": "0x73e109edb340ace871f9dbf6d4b2a44a4ef9358f7794a6f0193ab6e2bd364b83",
          "blockNumber": "0x3000068",
          "transactionHash": "0xf94730e2f6aebe5fc547640e877d9e4abc304e61ded79c02f7a0c0133dbc9e2c",
          "transactionIndex": "0x55",
          "logIndex": "0x133",
          "removed": false
        },
        {
          "address": "0xfe7dae87ebb11a7beb9f534bb23267992d9cde7c",
          "topics": [
            "0x7120161a7b3d31251e01294ab351ef15a41b91659a36032e4641bb89b121e321",
            "0x8358cc1bf5d19d624bca71db95c077420278234cc9710f9d801c2946bb3c95d5"
          ],
          "data": "0x0000000000000000000000000000000000000000000000000000000012e687bf000000000000000000000000000000000000000000000000000000004b9a1eff",
          "blockHash": "0x73e109edb340ace871f9dbf6d4b2a44a4ef9358f7794a6f0193ab6e2bd364b83",
          "blockNumber": "0x3000068",
          "transactionHash": "0xf94730e2f6aebe5fc547640e877d9e4abc304e61ded79c02f7a0c0133dbc9e2c",
          "transactionIndex": "0x55",
          "logIndex": "0x134",
          "removed": false
        }
      ],
      "logsBloom": "0x20000020000000000000000000000800000000000000000000000000000000000000000000000000000000000000000000000000000000000000000000804000000000000000000000000000000080000000000000000000000080000000000000000000000000000000000000000000000000000000000010000040000000000000000000000000000000000000000000000000000000000000000008000000000000000000000000000000000000000000002000000080000000000000040000000000000000000000000000000000000000000000000000000000000000000000000000000000000000000001000000000000000000000000000000000010",
      "type": "0x0",
      "transactionHash": "0xf94730e2f6aebe5fc547640e877d9e4abc304e61ded79c02f7a0c0133dbc9e2c",
      "transactionIndex": "0x55",
      "blockHash": "0x73e109edb340ace871f9dbf6d4b2a44a4ef9358f7794a6f0193ab6e2bd364b83",
      "blockNumber": "0x3000068",
      "gasUsed": "0x63f94",
      "effectiveGasPrice": "0x5f5e100",
      "from": "0xd7e38800201d6a42c408bf79d8723740c4e7f631",
      "to": "0x8f73b65b4caaf64fba2af91cc5d4a2a1318e5d8c",
      "contractAddress": null
    },
    {
      "status": "0x1",
      "cumulativeGasUsed": "0xd01dae",
      "logs": [
        {
          "address": "0x8f73b65b4caaf64fba2af91cc5d4a2a1318e5d8c",
          "topics": [
            "0xac4b2400f169220b0c0afdde7a0b32e775ba727ea1cb30b35f935cdaab8683ac",
            "0x8a1fffce64f5b29d59e7ebfd7a927e29acdb932cc73508c9861157eeef9b8e1a"
          ],
          "data": "0x00000000000000000000000055d398326f99059ff775485246999027b3197955000000000000000000000000211cc4dd073734da055fbf44a2b4667d5e5fe5d2000000000000000000000000f3afd82a4071f272f403dc176916141f44e6c750000000000000000000000000fe7dae87ebb11a7beb9f534bb23267992d9cde7c0000000000000000000000000000000000000000000000000cb2bba6f17b8000",
          "blockHash": "0x73e109edb340ace871f9dbf6d4b2a44a4ef9358f7794a6f0193ab6e2bd364b83",
          "blockNumber": "0x3000068",
          "transactionHash": "0xad042c25498ee823512918d0914c80f18d3fda2e96bfefede9f9ebdc4e32dd68",
          "transactionIndex": "0x56",
          "logIndex": "0x135",
          "removed": false
        },
        {
          "address": "0xfe7dae87ebb11a7beb9f534bb23267992d9cde7c",
          "topics": [
            "0x7120161a7b3d31251e01294ab351ef15a41b91659a36032e4641bb89b121e321",
            "0x8a1fffce64f5b29d59e7ebfd7a927e29acdb932cc73508c9861157eeef9b8e1a"
          ],
          "data": "0x0000000000000000000000000000000000000000000000000000000012e687bf000000000000000000000000000000000000000000000000000000004b9a1eff",
          "blockHash": "0x73e109edb340ace871f9dbf6d4b2a44a4ef9358f7794a6f0193ab6e2bd364b83",
          "blockNumber": "0x3000068",
          "transactionHash": "0xad042c25498ee823512918d0914c80f18d3fda2e96bfefede9f9ebdc4e32dd68",
          "transactionIndex": "0x56",
          "logIndex": "0x136",
          "removed": false
        }
      ],
      "logsBloom": "0x00000000000000000000000000000800000000000000000000000000000000000000000000000000000000000000000000000000000000000000000000804000000000000000000000000000000000000000000000000000000080000000000000000000000000000000000000000000000000000000000010000040000000000000000000000000000000800080000000000000000000000000000008000000000000000000000000000000000000000000002000000080000000000000040000000000000000000000000000000000000000400000000000000000000000000000000000000000000000000001000000000000000000000000000000000010",
      "type": "0x0",
      "transactionHash": "0xad042c25498ee823512918d0914c80f18d3fda2e96bfefede9f9ebdc4e32dd68",
      "transactionIndex": "0x56",
      "blockHash": "0x73e109edb340ace871f9dbf6d4b2a44a4ef9358f7794a6f0193ab6e2bd364b83",
      "blockNumber": "0x3000068",
      "gasUsed": "0x5f7d9",
      "effectiveGasPrice": "0x5f5e100",
      "from": "0xd7e38800201d6a42c408bf79d8723740c4e7f631",
      "to": "0x8f73b65b4caaf64fba2af91cc5d4a2a1318e5d8c",
      "contractAddress": null
    }
  ],
  "libraries": [],
  "pending": [],
  "returns": {},
  "timestamp": 1748241180,
  "chain": 56,
  "commit": "9e818ff"
}