{
  "transactions": [
    {
      "hash": "0x25409f75e1715801576ae6d6763978b494473f893f092b196dc7681adcfc09cf",
      "transactionType": "CALL",
      "contractName": null,
      "contractAddress": "0x8f73b65b4caaf64fba2af91cc5d4a2a1318e5d8c",
      "function": "createMarket((address,address,address,address,uint256))",
      "arguments": [
        "(0x8d0D000Ee44948FC98c9B98A4FA4921476f08B0d, 0x55d398326f99059fF775485246999027B3197955, 0xf3afD82A4071f272F403dC176916141f44E6c750, 0xFe7dAe87Ebb11a7BEB9F534BB23267992d9cDe7c, 915000000000000000)"
      ],
      "transaction": {
        "from": "0xd7e38800201d6a42c408bf79d8723740c4e7f631",
        "to": "0x8f73b65b4caaf64fba2af91cc5d4a2a1318e5d8c",
        "gas": "0x81d44",
        "value": "0x0",
        "input": "0x8c1358a20000000000000000000000008d0d000ee44948fc98c9b98a4fa4921476f08b0d00000000000000000000000055d398326f99059ff775485246999027b3197955000000000000000000000000f3afd82a4071f272f403dc176916141f44e6c750000000000000000000000000fe7dae87ebb11a7beb9f534bb23267992d9cde7c0000000000000000000000000000000000000000000000000cb2bba6f17b8000",
        "nonce": "0x190",
        "chainId": "0x38"
      },
      "additionalContracts": [],
      "isFixedGasLimit": false
    },
    {
      "hash": "0xcedc5d1da053bbad4ff8240aeaf73b77a284d57f5cb553a77825d87d6698a102",
      "transactionType": "CALL",
      "contractName": null,
      "contractAddress": "0x8f73b65b4caaf64fba2af91cc5d4a2a1318e5d8c",
      "function": "createMarket((address,address,address,address,uint256))",
      "arguments": [
        "(0x8d0D000Ee44948FC98c9B98A4FA4921476f08B0d, 0x5A110fC00474038f6c02E89C707D638602EA44B5, 0xf3afD82A4071f272F403dC176916141f44E6c750, 0xFe7dAe87Ebb11a7BEB9F534BB23267992d9cDe7c, 915000000000000000)"
      ],
      "transaction": {
        "from": "0xd7e38800201d6a42c408bf79d8723740c4e7f631",
        "to": "0x8f73b65b4caaf64fba2af91cc5d4a2a1318e5d8c",
        "gas": "0x861d2",
        "value": "0x0",
        "input": "0x8c1358a20000000000000000000000008d0d000ee44948fc98c9b98a4fa4921476f08b0d0000000000000000000000005a110fc00474038f6c02e89c707d638602ea44b5000000000000000000000000f3afd82a4071f272f403dc176916141f44e6c750000000000000000000000000fe7dae87ebb11a7beb9f534bb23267992d9cde7c0000000000000000000000000000000000000000000000000cb2bba6f17b8000",
        "nonce": "0x191",
        "chainId": "0x38"
      },
      "additionalContracts": [],
      "isFixedGasLimit": false
    },
    {
      "hash": "0x17c0688beca0d20ef5f79ad554080d374a2cca7334bee02e074bf1f34578f9ba",
      "transactionType": "CALL",
      "contractName": null,
      "contractAddress": "0x8f73b65b4caaf64fba2af91cc5d4a2a1318e5d8c",
      "function": "createMarket((address,address,address,address,uint256))",
      "arguments": [
        "(0x8d0D000Ee44948FC98c9B98A4FA4921476f08B0d, 0x917AF46B3C3c6e1Bb7286B9F59637Fb7C65851Fb, 0xf3afD82A4071f272F403dC176916141f44E6c750, 0xFe7dAe87Ebb11a7BEB9F534BB23267992d9cDe7c, 915000000000000000)"
      ],
      "transaction": {
        "from": "0xd7e38800201d6a42c408bf79d8723740c4e7f631",
        "to": "0x8f73b65b4caaf64fba2af91cc5d4a2a1318e5d8c",
        "gas": "0x8dfcb",
        "value": "0x0",
        "input": "0x8c1358a20000000000000000000000008d0d000ee44948fc98c9b98a4fa4921476f08b0d000000000000000000000000917af46b3c3c6e1bb7286b9f59637fb7c65851fb000000000000000000000000f3afd82a4071f272f403dc176916141f44e6c750000000000000000000000000fe7dae87ebb11a7beb9f534bb23267992d9cde7c0000000000000000000000000000000000000000000000000cb2bba6f17b8000",
        "nonce": "0x192",
        "chainId": "0x38"
      },
      "additionalContracts": [],
      "isFixedGasLimit": false
    },
    {
      "hash": "0x12b648574a07a356bb1707b969e2697aa90b66752ef70ea9b2a9efdd138711ef",
      "transactionType": "CALL",
      "contractName": null,
      "contractAddress": "0x8f73b65b4caaf64fba2af91cc5d4a2a1318e5d8c",
      "function": "createMarket((address,address,address,address,uint256))",
      "arguments": [
        "(0x8d0D000Ee44948FC98c9B98A4FA4921476f08B0d, 0xDD809435ba6c9d6903730f923038801781cA66ce, 0xFd31ADF830Fd68d3E646792917e4dDB1d9AB5665, 0xFe7dAe87Ebb11a7BEB9F534BB23267992d9cDe7c, 915000000000000000)"
      ],
      "transaction": {
        "from": "0xd7e38800201d6a42c408bf79d8723740c4e7f631",
        "to": "0x8f73b65b4caaf64fba2af91cc5d4a2a1318e5d8c",
        "gas": "0x797e4",
        "value": "0x0",
        "input": "0x8c1358a20000000000000000000000008d0d000ee44948fc98c9b98a4fa4921476f08b0d000000000000000000000000dd809435ba6c9d6903730f923038801781ca66ce000000000000000000000000fd31adf830fd68d3e646792917e4ddb1d9ab5665000000000000000000000000fe7dae87ebb11a7beb9f534bb23267992d9cde7c0000000000000000000000000000000000000000000000000cb2bba6f17b8000",
        "nonce": "0x193",
        "chainId": "0x38"
      },
      "additionalContracts": [],
      "isFixedGasLimit": false
    }
  ],
  "receipts": [
    {
      "status": "0x1",
      "cumulativeGasUsed": "0x1d0313f",
      "logs": [
        {
          "address": "0x8f73b65b4caaf64fba2af91cc5d4a2a1318e5d8c",
          "topics": [
            "0xac4b2400f169220b0c0afdde7a0b32e775ba727ea1cb30b35f935cdaab8683ac",
            "0x90607b6f2025dd56756d0e54e04e749f863f3663435949668f9c65eee1ccad7b"
          ],
          "data": "0x0000000000000000000000008d0d000ee44948fc98c9b98a4fa4921476f08b0d00000000000000000000000055d398326f99059ff775485246999027b3197955000000000000000000000000f3afd82a4071f272f403dc176916141f44e6c750000000000000000000000000fe7dae87ebb11a7beb9f534bb23267992d9cde7c0000000000000000000000000000000000000000000000000cb2bba6f17b8000",
          "blockHash": "0xefa7880e4a4623130c39d0fff979c4dc3f60006266ced236a424402179f27503",
          "blockNumber": "0x2f6682b",
          "transactionHash": "0x25409f75e1715801576ae6d6763978b494473f893f092b196dc7681adcfc09cf",
          "transactionIndex": "0xbe",
          "logIndex": "0x48b",
          "removed": false
        },
        {
          "address": "0xfe7dae87ebb11a7beb9f534bb23267992d9cde7c",
          "topics": [
            "0x7120161a7b3d31251e01294ab351ef15a41b91659a36032e4641bb89b121e321",
            "0x90607b6f2025dd56756d0e54e04e749f863f3663435949668f9c65eee1ccad7b"
          ],
          "data": "0x0000000000000000000000000000000000000000000000000000000012e687bf000000000000000000000000000000000000000000000000000000004b9a1eff",
          "blockHash": "0xefa7880e4a4623130c39d0fff979c4dc3f60006266ced236a424402179f27503",
          "blockNumber": "0x2f6682b",
          "transactionHash": "0x25409f75e1715801576ae6d6763978b494473f893f092b196dc7681adcfc09cf",
          "transactionIndex": "0xbe",
          "logIndex": "0x48c",
          "removed": false
        }
      ],
      "logsBloom": "0x00000000000000000000000000000800000000000000000000000000000000000000000000000000000000000000000000000000000000000000000000804000000000000000000000000000000000000000000000000000000080800000000000000000000000000000000000000000000000000000000010000040000000000000000000000000000000000000000000000000000000000000000008000000000000000000000000000000000000000000002000000080000000080000040000000000000000000000000000000000000000000000000000004000000000000000000000000000000000000001000000000000000000000000000000000010",
      "type": "0x0",
      "transactionHash": "0x25409f75e1715801576ae6d6763978b494473f893f092b196dc7681adcfc09cf",
      "transactionIndex": "0xbe",
      "blockHash": "0xefa7880e4a4623130c39d0fff979c4dc3f60006266ced236a424402179f27503",
      "blockNumber": "0x2f6682b",
      "gasUsed": "0x58c5b",
      "effectiveGasPrice": "0x5f5e100",
      "from": "0xd7e38800201d6a42c408bf79d8723740c4e7f631",
      "to": "0x8f73b65b4caaf64fba2af91cc5d4a2a1318e5d8c",
      "contractAddress": null
    },
    {
      "status": "0x1",
      "cumulativeGasUsed": "0x1d5ec7a",
      "logs": [
        {
          "address": "0x8f73b65b4caaf64fba2af91cc5d4a2a1318e5d8c",
          "topics": [
            "0xac4b2400f169220b0c0afdde7a0b32e775ba727ea1cb30b35f935cdaab8683ac",
            "0xb060b526bd2fc99150cff9d6f7e7fab88d5d67e35cf262215f986d62a2fba99e"
          ],
          "data": "0x0000000000000000000000008d0d000ee44948fc98c9b98a4fa4921476f08b0d0000000000000000000000005a110fc00474038f6c02e89c707d638602ea44b5000000000000000000000000f3afd82a4071f272f403dc176916141f44e6c750000000000000000000000000fe7dae87ebb11a7beb9f534bb23267992d9cde7c0000000000000000000000000000000000000000000000000cb2bba6f17b8000",
          "blockHash": "0xefa7880e4a4623130c39d0fff979c4dc3f60006266ced236a424402179f27503",
          "blockNumber": "0x2f6682b",
          "transactionHash": "0xcedc5d1da053bbad4ff8240aeaf73b77a284d57f5cb553a77825d87d6698a102",
          "transactionIndex": "0xbf",
          "logIndex": "0x48d",
          "removed": false
        },
        {
          "address": "0xfe7dae87ebb11a7beb9f534bb23267992d9cde7c",
          "topics": [
            "0x7120161a7b3d31251e01294ab351ef15a41b91659a36032e4641bb89b121e321",
            "0xb060b526bd2fc99150cff9d6f7e7fab88d5d67e35cf262215f986d62a2fba99e"
          ],
          "data": "0x0000000000000000000000000000000000000000000000000000000012e687bf000000000000000000000000000000000000000000000000000000004b9a1eff",
          "blockHash": "0xefa7880e4a4623130c39d0fff979c4dc3f60006266ced236a424402179f27503",
          "blockNumber": "0x2f6682b",
          "transactionHash": "0xcedc5d1da053bbad4ff8240aeaf73b77a284d57f5cb553a77825d87d6698a102",
          "transactionIndex": "0xbf",
          "logIndex": "0x48e",
          "removed": false
        }
      ],
      "logsBloom": "0x00000000000000000000000000800800000000000000000000000000000000000000000000000000000000000000000000000000000000000000000000804000800000000000000000000000000000000000000000000000000080000000000000000000000000000000000000000000000000000000000010000040000000000000000000000000001000000000000000000000000000000000000008000000000000000000000000000000000000000000002000000080000000000000040000000000000000000000000000000000000000000000000000000000000000000000000000000000000000000001000000000000000000000000000000000010",
      "type": "0x0",
      "transactionHash": "0xcedc5d1da053bbad4ff8240aeaf73b77a284d57f5cb553a77825d87d6698a102",
      "transactionIndex": "0xbf",
      "blockHash": "0xefa7880e4a4623130c39d0fff979c4dc3f60006266ced236a424402179f27503",
      "blockNumber": "0x2f6682b",
      "gasUsed": "0x5bb3b",
      "effectiveGasPrice": "0x5f5e100",
      "from": "0xd7e38800201d6a42c408bf79d8723740c4e7f631",
      "to": "0x8f73b65b4caaf64fba2af91cc5d4a2a1318e5d8c",
      "contractAddress": null
    },
    {
      "status": "0x1",
      "cumulativeGasUsed": "0x1dc5938",
      "logs": [
        {
          "address": "0x8f73b65b4caaf64fba2af91cc5d4a2a1318e5d8c",
          "topics": [
            "0xac4b2400f169220b0c0afdde7a0b32e775ba727ea1cb30b35f935cdaab8683ac",
            "0x4f9f51fb2cedc44d94fadafb0ebf56ce429a66e72a1d3a80e8903c7bfe09a233"
          ],
          "data": "0x0000000000000000000000008d0d000ee44948fc98c9b98a4fa4921476f08b0d000000000000000000000000917af46b3c3c6e1bb7286b9f59637fb7c65851fb000000000000000000000000f3afd82a4071f272f403dc176916141f44e6c750000000000000000000000000fe7dae87ebb11a7beb9f534bb23267992d9cde7c0000000000000000000000000000000000000000000000000cb2bba6f17b8000",
          "blockHash": "0xefa7880e4a4623130c39d0fff979c4dc3f60006266ced236a424402179f27503",
          "blockNumber": "0x2f6682b",
          "transactionHash": "0x17c0688beca0d20ef5f79ad554080d374a2cca7334bee02e074bf1f34578f9ba",
          "transactionIndex": "0xc0",
          "logIndex": "0x48f",
          "removed": false
        },
        {
          "address": "0xfe7dae87ebb11a7beb9f534bb23267992d9cde7c",
          "topics": [
            "0x7120161a7b3d31251e01294ab351ef15a41b91659a36032e4641bb89b121e321",
            "0x4f9f51fb2cedc44d94fadafb0ebf56ce429a66e72a1d3a80e8903c7bfe09a233"
          ],
          "data": "0x0000000000000000000000000000000000000000000000000000000012e687bf000000000000000000000000000000000000000000000000000000004b9a1eff",
          "blockHash": "0xefa7880e4a4623130c39d0fff979c4dc3f60006266ced236a424402179f27503",
          "blockNumber": "0x2f6682b",
          "transactionHash": "0x17c0688beca0d20ef5f79ad554080d374a2cca7334bee02e074bf1f34578f9ba",
          "transactionIndex": "0xc0",
          "logIndex": "0x490",
          "removed": false
        }
      ],
      "logsBloom": "0x00000000000000000000000000400800000000000000000000000000000000000000000000000000000000000000000000000000000000000000000000804000000000000000000000000000000000000000000000000000001080000000000000000000000000000000000000000000000000000000000010000040000000100000000000000000000000000000000000000000000000000000000008000000000000000000000000000000000000000000002000000080000000000000040000000000000000000000000000000000000000000000000000000000000000000000000000000000000000000001000000000000000000000000000000000010",
      "type": "0x0",
      "transactionHash": "0x17c0688beca0d20ef5f79ad554080d374a2cca7334bee02e074bf1f34578f9ba",
      "transactionIndex": "0xc0",
      "blockHash": "0xefa7880e4a4623130c39d0fff979c4dc3f60006266ced236a424402179f27503",
      "blockNumber": "0x2f6682b",
      "gasUsed": "0x66cbe",
      "effectiveGasPrice": "0x5f5e100",
      "from": "0xd7e38800201d6a42c408bf79d8723740c4e7f631",
      "to": "0x8f73b65b4caaf64fba2af91cc5d4a2a1318e5d8c",
      "contractAddress": null
    },
    {
      "status": "0x1",
      "cumulativeGasUsed": "0x1e1d890",
      "logs": [
        {
          "address": "0x8f73b65b4caaf64fba2af91cc5d4a2a1318e5d8c",
          "topics": [
            "0xac4b2400f169220b0c0afdde7a0b32e775ba727ea1cb30b35f935cdaab8683ac",
            "0xd6df9bb9ed780d18239e6ddd7c6d17f3c9bee4443149a10ec70bf8ef2a93052f"
          ],
          "data": "0x0000000000000000000000008d0d000ee44948fc98c9b98a4fa4921476f08b0d000000000000000000000000dd809435ba6c9d6903730f923038801781ca66ce000000000000000000000000fd31adf830fd68d3e646792917e4ddb1d9ab5665000000000000000000000000fe7dae87ebb11a7beb9f534bb23267992d9cde7c0000000000000000000000000000000000000000000000000cb2bba6f17b8000",
          "blockHash": "0xefa7880e4a4623130c39d0fff979c4dc3f60006266ced236a424402179f27503",
          "blockNumber": "0x2f6682b",
          "transactionHash": "0x12b648574a07a356bb1707b969e2697aa90b66752ef70ea9b2a9efdd138711ef",
          "transactionIndex": "0xc1",
          "logIndex": "0x491",
          "removed": false
        },
        {
          "address": "0xfe7dae87ebb11a7beb9f534bb23267992d9cde7c",
          "topics": [
            "0x7120161a7b3d31251e01294ab351ef15a41b91659a36032e4641bb89b121e321",
            "0xd6df9bb9ed780d18239e6ddd7c6d17f3c9bee4443149a10ec70bf8ef2a93052f"
          ],
          "data": "0x0000000000000000000000000000000000000000000000000000000012e687bf000000000000000000000000000000000000000000000000000000004b9a1eff",
          "blockHash": "0xefa7880e4a4623130c39d0fff979c4dc3f60006266ced236a424402179f27503",
          "blockNumber": "0x2f6682b",
          "transactionHash": "0x12b648574a07a356bb1707b969e2697aa90b66752ef70ea9b2a9efdd138711ef",
          "transactionIndex": "0xc1",
          "logIndex": "0x492",
          "removed": false
        }
      ],
      "logsBloom": "0x00000000000000000000000000000800000000000000000000000000000000000000000000000000000000000000000000000000000000000000000000804000000000000000000000000000000000000000000000000000000080000000000000000000000000000000000000000000000000000000000010000040000000000000000000000000000000000000000000000000000000000000000008000000000000000000800000000000000000000000002000000080400000000000040000000000040000000000000000000000000000000000000000000000000000000000000000000000000000000001000000000000000000000000000000000010",
      "type": "0x0",
      "transactionHash": "0x12b648574a07a356bb1707b969e2697aa90b66752ef70ea9b2a9efdd138711ef",
      "transactionIndex": "0xc1",
      "blockHash": "0xefa7880e4a4623130c39d0fff979c4dc3f60006266ced236a424402179f27503",
      "blockNumber": "0x2f6682b",
      "gasUsed": "0x57f58",
      "effectiveGasPrice": "0x5f5e100",
      "from": "0xd7e38800201d6a42c408bf79d8723740c4e7f631",
      "to": "0x8f73b65b4caaf64fba2af91cc5d4a2a1318e5d8c",
      "contractAddress": null
    }
  ],
  "libraries": [],
  "pending": [],
  "returns": {},
  "timestamp": 1747297785,
  "chain": 56,
  "commit": "c10e3ed"
}