{
  "transactions": [
    {
      "hash": "0x2c2887a50a3b83a425583539bb4af933edfddee34b1da2be40308953730020b2",
      "transactionType": "CALL",
      "contractName": null,
      "contractAddress": "0x8f73b65b4caaf64fba2af91cc5d4a2a1318e5d8c",
      "function": "createMarket((address,address,address,address,uint256))",
      "arguments": [
        "(0xbb4CdB9CBd36B01bD1cBaEBF2De08d9173bc095c, 0xb84cEC1Ab2af11b530ae0d8594B1493556be49Cd, 0x1a438f71bc56514F47142c96A8f580AB5767aC17, 0xFe7dAe87Ebb11a7BEB9F534BB23267992d9cDe7c, 965000000000000000)"
      ],
      "transaction": {
        "from": "0xd7e38800201d6a42c408bf79d8723740c4e7f631",
        "to": "0x8f73b65b4caaf64fba2af91cc5d4a2a1318e5d8c",
        "gas": "0x7e19c",
        "value": "0x0",
        "input": "0x8c1358a2000000000000000000000000bb4cdb9cbd36b01bd1cbaebf2de08d9173bc095c000000000000000000000000b84cec1ab2af11b530ae0d8594b1493556be49cd0000000000000000000000001a438f71bc56514f47142c96a8f580ab5767ac17000000000000000000000000fe7dae87ebb11a7beb9f534bb23267992d9cde7c0000000000000000000000000000000000000000000000000d645e6320408000",
        "nonce": "0xf5",
        "chainId": "0x38"
      },
      "additionalContracts": [],
      "isFixedGasLimit": false
    },
    {
      "hash": "0xe06ad76c817e825abcf672527f16b9782c8a23f417d50e3cf5221fc297b1ce7b",
      "transactionType": "CALL",
      "contractName": null,
      "contractAddress": "0x8f73b65b4caaf64fba2af91cc5d4a2a1318e5d8c",
      "function": "createMarket((address,address,address,address,uint256))",
      "arguments": [
        "(0x7130d2A12B9BCbFAe4f2634d864A1Ee1Ce3Ead9c, 0xbb4CdB9CBd36B01bD1cBaEBF2De08d9173bc095c, 0xf3afD82A4071f272F403dC176916141f44E6c750, 0xFe7dAe87Ebb11a7BEB9F534BB23267992d9cDe7c, 800000000000000000)"
      ],
      "transaction": {
        "from": "0xd7e38800201d6a42c408bf79d8723740c4e7f631",
        "to": "0x8f73b65b4caaf64fba2af91cc5d4a2a1318e5d8c",
        "gas": "0x877d8",
        "value": "0x0",
        "input": "0x8c1358a20000000000000000000000007130d2a12b9bcbfae4f2634d864a1ee1ce3ead9c000000000000000000000000bb4cdb9cbd36b01bd1cbaebf2de08d9173bc095c000000000000000000000000f3afd82a4071f272f403dc176916141f44e6c750000000000000000000000000fe7dae87ebb11a7beb9f534bb23267992d9cde7c0000000000000000000000000000000000000000000000000b1a2bc2ec500000",
        "nonce": "0xf6",
        "chainId": "0x38"
      },
      "additionalContracts": [],
      "isFixedGasLimit": false
    },
    {
      "hash": "0x724664d50c0bb3e7ea2c2e99479e46800dade279849163cfd1125d5a87eb8a48",
      "transactionType": "CALL",
      "contractName": null,
      "contractAddress": "0x8f73b65b4caaf64fba2af91cc5d4a2a1318e5d8c",
      "function": "createMarket((address,address,address,address,uint256))",
      "arguments": [
        "(0x7130d2A12B9BCbFAe4f2634d864A1Ee1Ce3Ead9c, 0x8d0D000Ee44948FC98c9B98A4FA4921476f08B0d, 0xf3afD82A4071f272F403dC176916141f44E6c750, 0xFe7dAe87Ebb11a7BEB9F534BB23267992d9cDe7c, 800000000000000000)"
      ],
      "transaction": {
        "from": "0xd7e38800201d6a42c408bf79d8723740c4e7f631",
        "to": "0x8f73b65b4caaf64fba2af91cc5d4a2a1318e5d8c",
        "gas": "0x86b80",
        "value": "0x0",
        "input": "0x8c1358a20000000000000000000000007130d2a12b9bcbfae4f2634d864a1ee1ce3ead9c0000000000000000000000008d0d000ee44948fc98c9b98a4fa4921476f08b0d000000000000000000000000f3afd82a4071f272f403dc176916141f44e6c750000000000000000000000000fe7dae87ebb11a7beb9f534bb23267992d9cde7c0000000000000000000000000000000000000000000000000b1a2bc2ec500000",
        "nonce": "0xf7",
        "chainId": "0x38"
      },
      "additionalContracts": [],
      "isFixedGasLimit": false
    },
    {
      "hash": "0x78761e473d4b7a64ad393703908b1d8a3b6f52f61ac9be21bcc42bcfc9278e0b",
      "transactionType": "CALL",
      "contractName": null,
      "contractAddress": "0x8f73b65b4caaf64fba2af91cc5d4a2a1318e5d8c",
      "function": "createMarket((address,address,address,address,uint256))",
      "arguments": [
        "(0x7130d2A12B9BCbFAe4f2634d864A1Ee1Ce3Ead9c, 0x4aae823a6a0b376De6A78e74eCC5b079d38cBCf7, 0xf3afD82A4071f272F403dC176916141f44E6c750, 0xFe7dAe87Ebb11a7BEB9F534BB23267992d9cDe7c, 700000000000000000)"
      ],
      "transaction": {
        "from": "0xd7e38800201d6a42c408bf79d8723740c4e7f631",
        "to": "0x8f73b65b4caaf64fba2af91cc5d4a2a1318e5d8c",
        "gas": "0x7953c",
        "value": "0x0",
        "input": "0x8c1358a20000000000000000000000007130d2a12b9bcbfae4f2634d864a1ee1ce3ead9c0000000000000000000000004aae823a6a0b376de6a78e74ecc5b079d38cbcf7000000000000000000000000f3afd82a4071f272f403dc176916141f44e6c750000000000000000000000000fe7dae87ebb11a7beb9f534bb23267992d9cde7c00000000000000000000000000000000000000000000000009b6e64a8ec60000",
        "nonce": "0xf8",
        "chainId": "0x38"
      },
      "additionalContracts": [],
      "isFixedGasLimit": false
    }
  ],
  "receipts": [
    {
      "status": "0x1",
      "cumulativeGasUsed": "0xfc5477",
      "logs": [
        {
          "address": "0x8f73b65b4caaf64fba2af91cc5d4a2a1318e5d8c",
          "topics": [
            "0xac4b2400f169220b0c0afdde7a0b32e775ba727ea1cb30b35f935cdaab8683ac",
            "0x0e9ce37ed19824e0698b8cf1855bef55cefdc82f37c321c3812d90135f476709"
          ],
          "data": "0x000000000000000000000000bb4cdb9cbd36b01bd1cbaebf2de08d9173bc095c000000000000000000000000b84cec1ab2af11b530ae0d8594b1493556be49cd0000000000000000000000001a438f71bc56514f47142c96a8f580ab5767ac17000000000000000000000000fe7dae87ebb11a7beb9f534bb23267992d9cde7c0000000000000000000000000000000000000000000000000d645e6320408000",
          "blockHash": "0x74ec20771da3f0bd9b9b039d98f7ec8297fd72228034b934281fe0c267630e7c",
          "blockNumber": "0x2e7cef5",
          "transactionHash": "0x2c2887a50a3b83a425583539bb4af933edfddee34b1da2be40308953730020b2",
          "transactionIndex": "0xac",
          "logIndex": "0x1fb",
          "removed": false
        },
        {
          "address": "0xfe7dae87ebb11a7beb9f534bb23267992d9cde7c",
          "topics": [
            "0x7120161a7b3d31251e01294ab351ef15a41b91659a36032e4641bb89b121e321",
            "0x0e9ce37ed19824e0698b8cf1855bef55cefdc82f37c321c3812d90135f476709"
          ],
          "data": "0x0000000000000000000000000000000000000000000000000000000012e687bf000000000000000000000000000000000000000000000000000000004b9a1eff",
          "blockHash": "0x74ec20771da3f0bd9b9b039d98f7ec8297fd72228034b934281fe0c267630e7c",
          "blockNumber": "0x2e7cef5",
          "transactionHash": "0x2c2887a50a3b83a425583539bb4af933edfddee34b1da2be40308953730020b2",
          "transactionIndex": "0xac",
          "logIndex": "0x1fc",
          "removed": false
        }
      ],
      "logsBloom": "0x00000000000000000000000000000800000000000000000000000000000000000000000000000000000000000000200000000000000000000000000000804000000000000000000000000000000000000000000000000000000080000000000000000000000000000000000000000000000000000000000010000040000000000000000000000000000000000000000000000000000000000000000008000000000000000000000000000000000000000000002000000080000000000020040000000000000000000000000000000000000000000000000000000100000000000000000000000000000000000001000000000000000000000000000000000010",
      "type": "0x0",
      "transactionHash": "0x2c2887a50a3b83a425583539bb4af933edfddee34b1da2be40308953730020b2",
      "transactionIndex": "0xac",
      "blockHash": "0x74ec20771da3f0bd9b9b039d98f7ec8297fd72228034b934281fe0c267630e7c",
      "blockNumber": "0x2e7cef5",
      "gasUsed": "0x5b4b7",
      "effectiveGasPrice": "0x3b9aca00",
      "from": "0xd7e38800201d6a42c408bf79d8723740c4e7f631",
      "to": "0x8f73b65b4caaf64fba2af91cc5d4a2a1318e5d8c",
      "contractAddress": null
    },
    {
      "status": "0x1",
      "cumulativeGasUsed": "0x10275f3",
      "logs": [
        {
          "address": "0x8f73b65b4caaf64fba2af91cc5d4a2a1318e5d8c",
          "topics": [
            "0xac4b2400f169220b0c0afdde7a0b32e775ba727ea1cb30b35f935cdaab8683ac",
            "0x869861f50ecec64d1a75a24ebb118071c5e60122ee263e4ad44546d762c818f9"
          ],
          "data": "0x0000000000000000000000007130d2a12b9bcbfae4f2634d864a1ee1ce3ead9c000000000000000000000000bb4cdb9cbd36b01bd1cbaebf2de08d9173bc095c000000000000000000000000f3afd82a4071f272f403dc176916141f44e6c750000000000000000000000000fe7dae87ebb11a7beb9f534bb23267992d9cde7c0000000000000000000000000000000000000000000000000b1a2bc2ec500000",
          "blockHash": "0x74ec20771da3f0bd9b9b039d98f7ec8297fd72228034b934281fe0c267630e7c",
          "blockNumber": "0x2e7cef5",
          "transactionHash": "0xe06ad76c817e825abcf672527f16b9782c8a23f417d50e3cf5221fc297b1ce7b",
          "transactionIndex": "0xad",
          "logIndex": "0x1fd",
          "removed": false
        },
        {
          "address": "0xfe7dae87ebb11a7beb9f534bb23267992d9cde7c",
          "topics": [
            "0x7120161a7b3d31251e01294ab351ef15a41b91659a36032e4641bb89b121e321",
            "0x869861f50ecec64d1a75a24ebb118071c5e60122ee263e4ad44546d762c818f9"
          ],
          "data": "0x0000000000000000000000000000000000000000000000000000000012e687bf000000000000000000000000000000000000000000000000000000004b9a1eff",
          "blockHash": "0x74ec20771da3f0bd9b9b039d98f7ec8297fd72228034b934281fe0c267630e7c",
          "blockNumber": "0x2e7cef5",
          "transactionHash": "0xe06ad76c817e825abcf672527f16b9782c8a23f417d50e3cf5221fc297b1ce7b",
          "transactionIndex": "0xad",
          "logIndex": "0x1fe",
          "removed": false
        }
      ],
      "logsBloom": "0x00000000000000000000000000000800000000000001000000000000008000000000000000000000000000000000000000000000000000000000000000804000000000000000000000000000000000000000000000000000000080000000000000000000000000000000000000000000000000000000000010000040000000000000000000000000000000000000000000000000000000000000000008000000000000000000000000000000001000000000002000000080000000000000040000000000000000000000000000000000000000000000000000000000000000000000000000000000000000000001000000000000000000000000000000000010",
      "type": "0x0",
      "transactionHash": "0xe06ad76c817e825abcf672527f16b9782c8a23f417d50e3cf5221fc297b1ce7b",
      "transactionIndex": "0xad",
      "blockHash": "0x74ec20771da3f0bd9b9b039d98f7ec8297fd72228034b934281fe0c267630e7c",
      "blockNumber": "0x2e7cef5",
      "gasUsed": "0x6217c",
      "effectiveGasPrice": "0x3b9aca00",
      "from": "0xd7e38800201d6a42c408bf79d8723740c4e7f631",
      "to": "0x8f73b65b4caaf64fba2af91cc5d4a2a1318e5d8c",
      "contractAddress": null
    },
    {
      "status": "0x1",
      "cumulativeGasUsed": "0x109e015",
      "logs": [
        {
          "address": "0x8f73b65b4caaf64fba2af91cc5d4a2a1318e5d8c",
          "topics": [
            "0xac4b2400f169220b0c0afdde7a0b32e775ba727ea1cb30b35f935cdaab8683ac",
            "0xf5851e3064736fe04791d094f24bfb1cb1890d402ab66c0c7657edc9f5a64a4a"
          ],
          "data": "0x0000000000000000000000007130d2a12b9bcbfae4f2634d864a1ee1ce3ead9c0000000000000000000000008d0d000ee44948fc98c9b98a4fa4921476f08b0d000000000000000000000000f3afd82a4071f272f403dc176916141f44e6c750000000000000000000000000fe7dae87ebb11a7beb9f534bb23267992d9cde7c0000000000000000000000000000000000000000000000000b1a2bc2ec500000",
          "blockHash": "0x74ec20771da3f0bd9b9b039d98f7ec8297fd72228034b934281fe0c267630e7c",
          "blockNumber": "0x2e7cef5",
          "transactionHash": "0x724664d50c0bb3e7ea2c2e99479e46800dade279849163cfd1125d5a87eb8a48",
          "transactionIndex": "0xb0",
          "logIndex": "0x201",
          "removed": false
        },
        {
          "address": "0xfe7dae87ebb11a7beb9f534bb23267992d9cde7c",
          "topics": [
            "0x7120161a7b3d31251e01294ab351ef15a41b91659a36032e4641bb89b121e321",
            "0xf5851e3064736fe04791d094f24bfb1cb1890d402ab66c0c7657edc9f5a64a4a"
          ],
          "data": "0x0000000000000000000000000000000000000000000000000000000012e687bf000000000000000000000000000000000000000000000000000000004b9a1eff",
          "blockHash": "0x74ec20771da3f0bd9b9b039d98f7ec8297fd72228034b934281fe0c267630e7c",
          "blockNumber": "0x2e7cef5",
          "transactionHash": "0x724664d50c0bb3e7ea2c2e99479e46800dade279849163cfd1125d5a87eb8a48",
          "transactionIndex": "0xb0",
          "logIndex": "0x202",
          "removed": false
        }
      ],
      "logsBloom": "0x00000000000000000000000000000800000000000000000000000000000000000000000000000000000000000000000000000000000000000000000000804000000000000000000000000000000000000000000000000000040080000000000000000000000000000000000000000000000000000000000010000040000000000000000000000000000000000000000000000000000000000000000008000000000000000000000000000000000000000000002000000080000000000000040000000000000000000000000000000000000020000000000000000000000000000000001000000000000000000001000000000000000000000000000000000010",
      "type": "0x0",
      "transactionHash": "0x724664d50c0bb3e7ea2c2e99479e46800dade279849163cfd1125d5a87eb8a48",
      "transactionIndex": "0xb0",
      "blockHash": "0x74ec20771da3f0bd9b9b039d98f7ec8297fd72228034b934281fe0c267630e7c",
      "blockNumber": "0x2e7cef5",
      "gasUsed": "0x6188c",
      "effectiveGasPrice": "0x3b9aca00",
      "from": "0xd7e38800201d6a42c408bf79d8723740c4e7f631",
      "to": "0x8f73b65b4caaf64fba2af91cc5d4a2a1318e5d8c",
      "contractAddress": null
    },
    {
      "status": "0x1",
      "cumulativeGasUsed": "0x10f5d81",
      "logs": [
        {
          "address": "0x8f73b65b4caaf64fba2af91cc5d4a2a1318e5d8c",
          "topics": [
            "0xac4b2400f169220b0c0afdde7a0b32e775ba727ea1cb30b35f935cdaab8683ac",
            "0x4c8c4dc9d93756111b914027d6e712aed1d3d0fa57b26332b476b245723a6b6e"
          ],
          "data": "0x0000000000000000000000007130d2a12b9bcbfae4f2634d864a1ee1ce3ead9c0000000000000000000000004aae823a6a0b376de6a78e74ecc5b079d38cbcf7000000000000000000000000f3afd82a4071f272f403dc176916141f44e6c750000000000000000000000000fe7dae87ebb11a7beb9f534bb23267992d9cde7c00000000000000000000000000000000000000000000000009b6e64a8ec60000",
          "blockHash": "0x74ec20771da3f0bd9b9b039d98f7ec8297fd72228034b934281fe0c267630e7c",
          "blockNumber": "0x2e7cef5",
          "transactionHash": "0x78761e473d4b7a64ad393703908b1d8a3b6f52f61ac9be21bcc42bcfc9278e0b",
          "transactionIndex": "0xb1",
          "logIndex": "0x203",
          "removed": false
        },
        {
          "address": "0xfe7dae87ebb11a7beb9f534bb23267992d9cde7c",
          "topics": [
            "0x7120161a7b3d31251e01294ab351ef15a41b91659a36032e4641bb89b121e321",
            "0x4c8c4dc9d93756111b914027d6e712aed1d3d0fa57b26332b476b245723a6b6e"
          ],
          "data": "0x0000000000000000000000000000000000000000000000000000000012e687bf000000000000000000000000000000000000000000000000000000004b9a1eff",
          "blockHash": "0x74ec20771da3f0bd9b9b039d98f7ec8297fd72228034b934281fe0c267630e7c",
          "blockNumber": "0x2e7cef5",
          "transactionHash": "0x78761e473d4b7a64ad393703908b1d8a3b6f52f61ac9be21bcc42bcfc9278e0b",
          "transactionIndex": "0xb1",
          "logIndex": "0x204",
          "removed": false
        }
      ],
      "logsBloom": "0x00000000000000000000000000000800000000000000000000000000000000000000000000000000000000000000000000000000000000000000000000804000000000000000000000000000000000000000000000000000000080000000000000000000000000000000000000040000000000000000000010000040000000000000000000000000000000000000000000000000000000000000000008000000000000000000000000000000000000000000002000000080000000000000040000000000000000000000000040000000000000000000000000000000000000000000000000000000000000000001000000000000000000000000000000000010",
      "type": "0x0",
      "transactionHash": "0x78761e473d4b7a64ad393703908b1d8a3b6f52f61ac9be21bcc42bcfc9278e0b",
      "transactionIndex": "0xb1",
      "blockHash": "0x74ec20771da3f0bd9b9b039d98f7ec8297fd72228034b934281fe0c267630e7c",
      "blockNumber": "0x2e7cef5",
      "gasUsed": "0x57d6c",
      "effectiveGasPrice": "0x3b9aca00",
      "from": "0xd7e38800201d6a42c408bf79d8723740c4e7f631",
      "to": "0x8f73b65b4caaf64fba2af91cc5d4a2a1318e5d8c",
      "contractAddress": null
    }
  ],
  "libraries": [],
  "pending": [],
  "returns": {},
  "timestamp": 1745821049,
  "chain": 56,
  "commit": "e90476b"
}