{
  "transactions": [
    {
      "hash": "0xcfbf1fe65a562e64ed085507860b0912f191fd4440fd9d2cb2f9bf16459ef5f0",
      "transactionType": "CALL",
      "contractName": null,
      "contractAddress": "0x8f73b65b4caaf64fba2af91cc5d4a2a1318e5d8c",
      "function": "createMarket((address,address,address,address,uint256))",
      "arguments": [
        "(0xbb4CdB9CBd36B01bD1cBaEBF2De08d9173bc095c, 0x80137510979822322193FC997d400D5A6C747bf7, 0xf3afD82A4071f272F403dC176916141f44E6c750, 0xFe7dAe87Ebb11a7BEB9F534BB23267992d9cDe7c, 850000000000000000)"
      ],
      "transaction": {
        "from": "0xd7e38800201d6a42c408bf79d8723740c4e7f631",
        "to": "0x8f73b65b4caaf64fba2af91cc5d4a2a1318e5d8c",
        "gas": "0x94e2b",
        "value": "0x0",
        "input": "0x8c1358a2000000000000000000000000bb4cdb9cbd36b01bd1cbaebf2de08d9173bc095c00000000000000000000000080137510979822322193fc997d400d5a6c747bf7000000000000000000000000f3afd82a4071f272f403dc176916141f44e6c750000000000000000000000000fe7dae87ebb11a7beb9f534bb23267992d9cde7c0000000000000000000000000000000000000000000000000bcbce7f1b150000",
        "nonce": "0x1c0",
        "chainId": "0x38"
      },
      "additionalContracts": [],
      "isFixedGasLimit": false
    }
  ],
  "receipts": [
    {
      "status": "0x1",
      "cumulativeGasUsed": "0x35038cb",
      "logs": [
        {
          "address": "0x8f73b65b4caaf64fba2af91cc5d4a2a1318e5d8c",
          "topics": [
            "0xac4b2400f169220b0c0afdde7a0b32e775ba727ea1cb30b35f935cdaab8683ac",
            "0x639c2f51d8cfc04ecd46dd8be21eaf3f25b259d0c06aee9d3926b2d3207aa22a"
          ],
          "data": "0x000000000000000000000000bb4cdb9cbd36b01bd1cbaebf2de08d9173bc095c00000000000000000000000080137510979822322193fc997d400d5a6c747bf7000000000000000000000000f3afd82a4071f272f403dc176916141f44e6c750000000000000000000000000fe7dae87ebb11a7beb9f534bb23267992d9cde7c0000000000000000000000000000000000000000000000000bcbce7f1b150000",
          "blockHash": "0xfd216af8231d64af69d6996e44023d1347bcd4476c8f8a53aa9d1c23699b50b4",
          "blockNumber": "0x30002f1",
          "transactionHash": "0xcfbf1fe65a562e64ed085507860b0912f191fd4440fd9d2cb2f9bf16459ef5f0",
          "transactionIndex": "0x109",
          "logIndex": "0x7d8",
          "removed": false
        },
        {
          "address": "0xfe7dae87ebb11a7beb9f534bb23267992d9cde7c",
          "topics": [
            "0x7120161a7b3d31251e01294ab351ef15a41b91659a36032e4641bb89b121e321",
            "0x639c2f51d8cfc04ecd46dd8be21eaf3f25b259d0c06aee9d3926b2d3207aa22a"
          ],
          "data": "0x0000000000000000000000000000000000000000000000000000000012e687bf000000000000000000000000000000000000000000000000000000004b9a1eff",
          "blockHash": "0xfd216af8231d64af69d6996e44023d1347bcd4476c8f8a53aa9d1c23699b50b4",
          "blockNumber": "0x30002f1",
          "transactionHash": "0xcfbf1fe65a562e64ed085507860b0912f191fd4440fd9d2cb2f9bf16459ef5f0",
          "transactionIndex": "0x109",
          "logIndex": "0x7d9",
          "removed": false
        }
      ],
      "logsBloom": "0x00000000000000000000000000000800000000004000000000000000000000000000000000000000000000000000000000000000000000000000000000804000000000000000000000000000000000000000000000000000000080000000000000000000000000000000000000000000000000000000000010000040000000000000000000000000000000000000000000000000000000000000002008000000000000000000000000000000000000000000002000000080000000000000040000000000000000000000000000000010000000000000000000000000000000000000000000000000000000000001000000000000000000000000000000000010",
      "type": "0x0",
      "transactionHash": "0xcfbf1fe65a562e64ed085507860b0912f191fd4440fd9d2cb2f9bf16459ef5f0",
      "transactionIndex": "0x109",
      "blockHash": "0xfd216af8231d64af69d6996e44023d1347bcd4476c8f8a53aa9d1c23699b50b4",
      "blockNumber": "0x30002f1",
      "gasUsed": "0x6bca6",
      "effectiveGasPrice": "0x5f5e100",
      "from": "0xd7e38800201d6a42c408bf79d8723740c4e7f631",
      "to": "0x8f73b65b4caaf64fba2af91cc5d4a2a1318e5d8c",
      "contractAddress": null
    }
  ],
  "libraries": [],
  "pending": [],
  "returns": {},
  "timestamp": 1748242154,
  "chain": 56,
  "commit": "86a4d7d"
}