{
  "transactions": [
    {
      "hash": "0x95c1dfbedfef49aea16a35988cdc40e05059b0939c5dd767b17950b8a610e9fc",
      "transactionType": "CALL",
      "contractName": null,
      "contractAddress": "0x8f73b65b4caaf64fba2af91cc5d4a2a1318e5d8c",
      "function": "createMarket((address,address,address,address,uint256))",
      "arguments": [
        "(0x8d0D000Ee44948FC98c9B98A4FA4921476f08B0d, 0x55d398326f99059fF775485246999027B3197955, 0xf3afD82A4071f272F403dC176916141f44E6c750, 0xFe7dAe87Ebb11a7BEB9F534BB23267992d9cDe7c, 915000000000000000)"
      ],
      "transaction": {
        "from": "0xf39fd6e51aad88f6f4ce6ab8827279cfffb92266",
        "to": "0x8f73b65b4caaf64fba2af91cc5d4a2a1318e5d8c",
        "gas": "0x81d44",
        "value": "0x0",
        "input": "0x8c1358a20000000000000000000000008d0d000ee44948fc98c9b98a4fa4921476f08b0d00000000000000000000000055d398326f99059ff775485246999027b3197955000000000000000000000000f3afd82a4071f272f403dc176916141f44e6c750000000000000000000000000fe7dae87ebb11a7beb9f534bb23267992d9cde7c0000000000000000000000000000000000000000000000000cb2bba6f17b8000",
        "nonce": "0x1fb3",
        "chainId": "0x38"
      },
      "additionalContracts": [],
      "isFixedGasLimit": false
    },
    {
      "hash": "0x6271ceefde65c6766b9196e84eefdacf44f47d39cfa8c9a620ff82cd639f992c",
      "transactionType": "CALL",
      "contractName": null,
      "contractAddress": "0x8f73b65b4caaf64fba2af91cc5d4a2a1318e5d8c",
      "function": "createMarket((address,address,address,address,uint256))",
      "arguments": [
        "(0x8d0D000Ee44948FC98c9B98A4FA4921476f08B0d, 0x5A110fC00474038f6c02E89C707D638602EA44B5, 0xf3afD82A4071f272F403dC176916141f44E6c750, 0xFe7dAe87Ebb11a7BEB9F534BB23267992d9cDe7c, 915000000000000000)"
      ],
      "transaction": {
        "from": "0xf39fd6e51aad88f6f4ce6ab8827279cfffb92266",
        "to": "0x8f73b65b4caaf64fba2af91cc5d4a2a1318e5d8c",
        "gas": "0x861d2",
        "value": "0x0",
        "input": "0x8c1358a20000000000000000000000008d0d000ee44948fc98c9b98a4fa4921476f08b0d0000000000000000000000005a110fc00474038f6c02e89c707d638602ea44b5000000000000000000000000f3afd82a4071f272f403dc176916141f44e6c750000000000000000000000000fe7dae87ebb11a7beb9f534bb23267992d9cde7c0000000000000000000000000000000000000000000000000cb2bba6f17b8000",
        "nonce": "0x1fb4",
        "chainId": "0x38"
      },
      "additionalContracts": [],
      "isFixedGasLimit": false
    },
    {
      "hash": "0xb32e20a17720819ec7264d2e327454aad726d91aa9e69ffd9814d44a40c6fd44",
      "transactionType": "CALL",
      "contractName": null,
      "contractAddress": "0x8f73b65b4caaf64fba2af91cc5d4a2a1318e5d8c",
      "function": "createMarket((address,address,address,address,uint256))",
      "arguments": [
        "(0x8d0D000Ee44948FC98c9B98A4FA4921476f08B0d, 0x917AF46B3C3c6e1Bb7286B9F59637Fb7C65851Fb, 0xf3afD82A4071f272F403dC176916141f44E6c750, 0xFe7dAe87Ebb11a7BEB9F534BB23267992d9cDe7c, 915000000000000000)"
      ],
      "transaction": {
        "from": "0xf39fd6e51aad88f6f4ce6ab8827279cfffb92266",
        "to": "0x8f73b65b4caaf64fba2af91cc5d4a2a1318e5d8c",
        "gas": "0x8dfcb",
        "value": "0x0",
        "input": "0x8c1358a20000000000000000000000008d0d000ee44948fc98c9b98a4fa4921476f08b0d000000000000000000000000917af46b3c3c6e1bb7286b9f59637fb7c65851fb000000000000000000000000f3afd82a4071f272f403dc176916141f44e6c750000000000000000000000000fe7dae87ebb11a7beb9f534bb23267992d9cde7c0000000000000000000000000000000000000000000000000cb2bba6f17b8000",
        "nonce": "0x1fb5",
        "chainId": "0x38"
      },
      "additionalContracts": [],
      "isFixedGasLimit": false
    },
    {
      "hash": "0x9824152d6e4af7a3fcea59adab68d068f2918b14f41df4843a62d61b94b78993",
      "transactionType": "CALL",
      "contractName": null,
      "contractAddress": "0x8f73b65b4caaf64fba2af91cc5d4a2a1318e5d8c",
      "function": "createMarket((address,address,address,address,uint256))",
      "arguments": [
        "(0x8d0D000Ee44948FC98c9B98A4FA4921476f08B0d, 0xDD809435ba6c9d6903730f923038801781cA66ce, 0xFd31ADF830Fd68d3E646792917e4dDB1d9AB5665, 0xFe7dAe87Ebb11a7BEB9F534BB23267992d9cDe7c, 915000000000000000)"
      ],
      "transaction": {
        "from": "0xf39fd6e51aad88f6f4ce6ab8827279cfffb92266",
        "to": "0x8f73b65b4caaf64fba2af91cc5d4a2a1318e5d8c",
        "gas": "0x797e4",
        "value": "0x0",
        "input": "0x8c1358a20000000000000000000000008d0d000ee44948fc98c9b98a4fa4921476f08b0d000000000000000000000000dd809435ba6c9d6903730f923038801781ca66ce000000000000000000000000fd31adf830fd68d3e646792917e4ddb1d9ab5665000000000000000000000000fe7dae87ebb11a7beb9f534bb23267992d9cde7c0000000000000000000000000000000000000000000000000cb2bba6f17b8000",
        "nonce": "0x1fb6",
        "chainId": "0x38"
      },
      "additionalContracts": [],
      "isFixedGasLimit": false
    }
  ],
  "receipts": [
    {
      "status": "0x1",
      "cumulativeGasUsed": "0x58c5b",
      "logs": [
        {
          "address": "0x8f73b65b4caaf64fba2af91cc5d4a2a1318e5d8c",
          "topics": [
            "0xac4b2400f169220b0c0afdde7a0b32e775ba727ea1cb30b35f935cdaab8683ac",
            "0x90607b6f2025dd56756d0e54e04e749f863f3663435949668f9c65eee1ccad7b"
          ],
          "data": "0x0000000000000000000000008d0d000ee44948fc98c9b98a4fa4921476f08b0d00000000000000000000000055d398326f99059ff775485246999027b3197955000000000000000000000000f3afd82a4071f272f403dc176916141f44e6c750000000000000000000000000fe7dae87ebb11a7beb9f534bb23267992d9cde7c0000000000000000000000000000000000000000000000000cb2bba6f17b8000",
          "blockHash": "0xc65c0e385e092c5a50aa669b4342a299721998dc907cc9ae317b087c949f3019",
          "blockNumber": "0x2f66526",
          "blockTimestamp": "0x6825a3c2",
          "transactionHash": "0x95c1dfbedfef49aea16a35988cdc40e05059b0939c5dd767b17950b8a610e9fc",
          "transactionIndex": "0x0",
          "logIndex": "0x0",
          "removed": false
        },
        {
          "address": "0xfe7dae87ebb11a7beb9f534bb23267992d9cde7c",
          "topics": [
            "0x7120161a7b3d31251e01294ab351ef15a41b91659a36032e4641bb89b121e321",
            "0x90607b6f2025dd56756d0e54e04e749f863f3663435949668f9c65eee1ccad7b"
          ],
          "data": "0x0000000000000000000000000000000000000000000000000000000012e687bf000000000000000000000000000000000000000000000000000000004b9a1eff",
          "blockHash": "0xc65c0e385e092c5a50aa669b4342a299721998dc907cc9ae317b087c949f3019",
          "blockNumber": "0x2f66526",
          "blockTimestamp": "0x6825a3c2",
          "transactionHash": "0x95c1dfbedfef49aea16a35988cdc40e05059b0939c5dd767b17950b8a610e9fc",
          "transactionIndex": "0x0",
          "logIndex": "0x1",
          "removed": false
        }
      ],
      "logsBloom": "0x00000000000000000000000000000800000000000000000000000000000000000000000000000000000000000000000000000000000000000000000000804000000000000000000000000000000000000000000000000000000080800000000000000000000000000000000000000000000000000000000010000040000000000000000000000000000000000000000000000000000000000000000008000000000000000000000000000000000000000000002000000080000000080000040000000000000000000000000000000000000000000000000000004000000000000000000000000000000000000001000000000000000000000000000000000010",
      "type": "0x0",
      "transactionHash": "0x95c1dfbedfef49aea16a35988cdc40e05059b0939c5dd767b17950b8a610e9fc",
      "transactionIndex": "0x0",
      "blockHash": "0xc65c0e385e092c5a50aa669b4342a299721998dc907cc9ae317b087c949f3019",
      "blockNumber": "0x2f66526",
      "gasUsed": "0x58c5b",
      "effectiveGasPrice": "0x3b9aca00",
      "blobGasPrice": "0x1",
      "from": "0xf39fd6e51aad88f6f4ce6ab8827279cfffb92266",
      "to": "0x8f73b65b4caaf64fba2af91cc5d4a2a1318e5d8c",
      "contractAddress": null
    },
    {
      "status": "0x1",
      "cumulativeGasUsed": "0x5bb3b",
      "logs": [
        {
          "address": "0x8f73b65b4caaf64fba2af91cc5d4a2a1318e5d8c",
          "topics": [
            "0xac4b2400f169220b0c0afdde7a0b32e775ba727ea1cb30b35f935cdaab8683ac",
            "0xb060b526bd2fc99150cff9d6f7e7fab88d5d67e35cf262215f986d62a2fba99e"
          ],
          "data": "0x0000000000000000000000008d0d000ee44948fc98c9b98a4fa4921476f08b0d0000000000000000000000005a110fc00474038f6c02e89c707d638602ea44b5000000000000000000000000f3afd82a4071f272f403dc176916141f44e6c750000000000000000000000000fe7dae87ebb11a7beb9f534bb23267992d9cde7c0000000000000000000000000000000000000000000000000cb2bba6f17b8000",
          "blockHash": "0x0f32ab701685eb1eb6805744eeb2c581bd6d239173067268fbbd814b87fd50f3",
          "blockNumber": "0x2f66527",
          "blockTimestamp": "0x6825a3c3",
          "transactionHash": "0x6271ceefde65c6766b9196e84eefdacf44f47d39cfa8c9a620ff82cd639f992c",
          "transactionIndex": "0x0",
          "logIndex": "0x0",
          "removed": false
        },
        {
          "address": "0xfe7dae87ebb11a7beb9f534bb23267992d9cde7c",
          "topics": [
            "0x7120161a7b3d31251e01294ab351ef15a41b91659a36032e4641bb89b121e321",
            "0xb060b526bd2fc99150cff9d6f7e7fab88d5d67e35cf262215f986d62a2fba99e"
          ],
          "data": "0x0000000000000000000000000000000000000000000000000000000012e687bf000000000000000000000000000000000000000000000000000000004b9a1eff",
          "blockHash": "0x0f32ab701685eb1eb6805744eeb2c581bd6d239173067268fbbd814b87fd50f3",
          "blockNumber": "0x2f66527",
          "blockTimestamp": "0x6825a3c3",
          "transactionHash": "0x6271ceefde65c6766b9196e84eefdacf44f47d39cfa8c9a620ff82cd639f992c",
          "transactionIndex": "0x0",
          "logIndex": "0x1",
          "removed": false
        }
      ],
      "logsBloom": "0x00000000000000000000000000800800000000000000000000000000000000000000000000000000000000000000000000000000000000000000000000804000800000000000000000000000000000000000000000000000000080000000000000000000000000000000000000000000000000000000000010000040000000000000000000000000001000000000000000000000000000000000000008000000000000000000000000000000000000000000002000000080000000000000040000000000000000000000000000000000000000000000000000000000000000000000000000000000000000000001000000000000000000000000000000000010",
      "type": "0x0",
      "transactionHash": "0x6271ceefde65c6766b9196e84eefdacf44f47d39cfa8c9a620ff82cd639f992c",
      "transactionIndex": "0x0",
      "blockHash": "0x0f32ab701685eb1eb6805744eeb2c581bd6d239173067268fbbd814b87fd50f3",
      "blockNumber": "0x2f66527",
      "gasUsed": "0x5bb3b",
      "effectiveGasPrice": "0x3b9aca00",
      "blobGasPrice": "0x1",
      "from": "0xf39fd6e51aad88f6f4ce6ab8827279cfffb92266",
      "to": "0x8f73b65b4caaf64fba2af91cc5d4a2a1318e5d8c",
      "contractAddress": null
    },
    {
      "status": "0x1",
      "cumulativeGasUsed": "0x66cbe",
      "logs": [
        {
          "address": "0x8f73b65b4caaf64fba2af91cc5d4a2a1318e5d8c",
          "topics": [
            "0xac4b2400f169220b0c0afdde7a0b32e775ba727ea1cb30b35f935cdaab8683ac",
            "0x4f9f51fb2cedc44d94fadafb0ebf56ce429a66e72a1d3a80e8903c7bfe09a233"
          ],
          "data": "0x0000000000000000000000008d0d000ee44948fc98c9b98a4fa4921476f08b0d000000000000000000000000917af46b3c3c6e1bb7286b9f59637fb7c65851fb000000000000000000000000f3afd82a4071f272f403dc176916141f44e6c750000000000000000000000000fe7dae87ebb11a7beb9f534bb23267992d9cde7c0000000000000000000000000000000000000000000000000cb2bba6f17b8000",
          "blockHash": "0xf779bd245cd8f7193254f26f5cd93d804a69609f56052518929acc9b1919e636",
          "blockNumber": "0x2f66528",
          "blockTimestamp": "0x6825a3c3",
          "transactionHash": "0xb32e20a17720819ec7264d2e327454aad726d91aa9e69ffd9814d44a40c6fd44",
          "transactionIndex": "0x0",
          "logIndex": "0x0",
          "removed": false
        },
        {
          "address": "0xfe7dae87ebb11a7beb9f534bb23267992d9cde7c",
          "topics": [
            "0x7120161a7b3d31251e01294ab351ef15a41b91659a36032e4641bb89b121e321",
            "0x4f9f51fb2cedc44d94fadafb0ebf56ce429a66e72a1d3a80e8903c7bfe09a233"
          ],
          "data": "0x0000000000000000000000000000000000000000000000000000000012e687bf000000000000000000000000000000000000000000000000000000004b9a1eff",
          "blockHash": "0xf779bd245cd8f7193254f26f5cd93d804a69609f56052518929acc9b1919e636",
          "blockNumber": "0x2f66528",
          "blockTimestamp": "0x6825a3c3",
          "transactionHash": "0xb32e20a17720819ec7264d2e327454aad726d91aa9e69ffd9814d44a40c6fd44",
          "transactionIndex": "0x0",
          "logIndex": "0x1",
          "removed": false
        }
      ],
      "logsBloom": "0x00000000000000000000000000400800000000000000000000000000000000000000000000000000000000000000000000000000000000000000000000804000000000000000000000000000000000000000000000000000001080000000000000000000000000000000000000000000000000000000000010000040000000100000000000000000000000000000000000000000000000000000000008000000000000000000000000000000000000000000002000000080000000000000040000000000000000000000000000000000000000000000000000000000000000000000000000000000000000000001000000000000000000000000000000000010",
      "type": "0x0",
      "transactionHash": "0xb32e20a17720819ec7264d2e327454aad726d91aa9e69ffd9814d44a40c6fd44",
      "transactionIndex": "0x0",
      "blockHash": "0xf779bd245cd8f7193254f26f5cd93d804a69609f56052518929acc9b1919e636",
      "blockNumber": "0x2f66528",
      "gasUsed": "0x66cbe",
      "effectiveGasPrice": "0x3b9aca00",
      "blobGasPrice": "0x1",
      "from": "0xf39fd6e51aad88f6f4ce6ab8827279cfffb92266",
      "to": "0x8f73b65b4caaf64fba2af91cc5d4a2a1318e5d8c",
      "contractAddress": null
    },
    {
      "status": "0x1",
      "cumulativeGasUsed": "0xbec16",
      "logs": [
        {
          "address": "0x8f73b65b4caaf64fba2af91cc5d4a2a1318e5d8c",
          "topics": [
            "0xac4b2400f169220b0c0afdde7a0b32e775ba727ea1cb30b35f935cdaab8683ac",
            "0xd6df9bb9ed780d18239e6ddd7c6d17f3c9bee4443149a10ec70bf8ef2a93052f"
          ],
          "data": "0x0000000000000000000000008d0d000ee44948fc98c9b98a4fa4921476f08b0d000000000000000000000000dd809435ba6c9d6903730f923038801781ca66ce000000000000000000000000fd31adf830fd68d3e646792917e4ddb1d9ab5665000000000000000000000000fe7dae87ebb11a7beb9f534bb23267992d9cde7c0000000000000000000000000000000000000000000000000cb2bba6f17b8000",
          "blockHash": "0xf779bd245cd8f7193254f26f5cd93d804a69609f56052518929acc9b1919e636",
          "blockNumber": "0x2f66528",
          "blockTimestamp": "0x6825a3c3",
          "transactionHash": "0x9824152d6e4af7a3fcea59adab68d068f2918b14f41df4843a62d61b94b78993",
          "transactionIndex": "0x1",
          "logIndex": "0x2",
          "removed": false
        },
        {
          "address": "0xfe7dae87ebb11a7beb9f534bb23267992d9cde7c",
          "topics": [
            "0x7120161a7b3d31251e01294ab351ef15a41b91659a36032e4641bb89b121e321",
            "0xd6df9bb9ed780d18239e6ddd7c6d17f3c9bee4443149a10ec70bf8ef2a93052f"
          ],
          "data": "0x0000000000000000000000000000000000000000000000000000000012e687bf000000000000000000000000000000000000000000000000000000004b9a1eff",
          "blockHash": "0xf779bd245cd8f7193254f26f5cd93d804a69609f56052518929acc9b1919e636",
          "blockNumber": "0x2f66528",
          "blockTimestamp": "0x6825a3c3",
          "transactionHash": "0x9824152d6e4af7a3fcea59adab68d068f2918b14f41df4843a62d61b94b78993",
          "transactionIndex": "0x1",
          "logIndex": "0x3",
          "removed": false
        }
      ],
      "logsBloom": "0x00000000000000000000000000000800000000000000000000000000000000000000000000000000000000000000000000000000000000000000000000804000000000000000000000000000000000000000000000000000000080000000000000000000000000000000000000000000000000000000000010000040000000000000000000000000000000000000000000000000000000000000000008000000000000000000800000000000000000000000002000000080400000000000040000000000040000000000000000000000000000000000000000000000000000000000000000000000000000000001000000000000000000000000000000000010",
      "type": "0x0",
      "transactionHash": "0x9824152d6e4af7a3fcea59adab68d068f2918b14f41df4843a62d61b94b78993",
      "transactionIndex": "0x1",
      "blockHash": "0xf779bd245cd8f7193254f26f5cd93d804a69609f56052518929acc9b1919e636",
      "blockNumber": "0x2f66528",
      "gasUsed": "0x57f58",
      "effectiveGasPrice": "0x3b9aca00",
      "blobGasPrice": "0x1",
      "from": "0xf39fd6e51aad88f6f4ce6ab8827279cfffb92266",
      "to": "0x8f73b65b4caaf64fba2af91cc5d4a2a1318e5d8c",
      "contractAddress": null
    }
  ],
  "libraries": [],
  "pending": [],
  "returns": {},
  "timestamp": 1747297221,
  "chain": 56,
  "commit": "4791325"
}