{
  "transactions": [
    {
      "hash": "0x4de59852d0410d41c7db2479388022490771ae7df020cdd8a6e934ff78a6f87a",
      "transactionType": "CALL",
      "contractName": "TimeLock",
      "contractAddress": "0xa18ae79aeda3e711e0cd64cfe1cd06402d400d61",
      "function": "grantRole(bytes32,address)",
      "arguments": [
        "0xfd643c72710c63c0180259aba6b2d05451e3591a24e58b62239378085726f783",
        "0xEEfebb1546d88EA0909435DF6f615084DD3c5Bd8"
      ],
      "transaction": {
        "from": "0xd7e38800201d6a42c408bf79d8723740c4e7f631",
        "to": "0xa18ae79aeda3e711e0cd64cfe1cd06402d400d61",
        "gas": "0x2423f",
        "value": "0x0",
        "input": "0x2f2ff15dfd643c72710c63c0180259aba6b2d05451e3591a24e58b62239378085726f783000000000000000000000000eefebb1546d88ea0909435df6f615084dd3c5bd8",
        "nonce": "0x53",
        "chainId": "0x1"
      },
      "additionalContracts": [],
      "isFixedGasLimit": false
    },
    {
      "hash": "0x834978093141b7a7fde6adf68bfe197bd96f14773dd5f5ccac06e03de52fb098",
      "transactionType": "CALL",
      "contractName": "TimeLock",
      "contractAddress": "0x375fda2bf66f4ce85eab29ab6407dcd4a4c428ba",
      "function": "grantRole(bytes32,address)",
      "arguments": [
        "0xfd643c72710c63c0180259aba6b2d05451e3591a24e58b62239378085726f783",
        "0xEEfebb1546d88EA0909435DF6f615084DD3c5Bd8"
      ],
      "transaction": {
        "from": "0xd7e38800201d6a42c408bf79d8723740c4e7f631",
        "to": "0x375fda2bf66f4ce85eab29ab6407dcd4a4c428ba",
        "gas": "0x2423f",
        "value": "0x0",
        "input": "0x2f2ff15dfd643c72710c63c0180259aba6b2d05451e3591a24e58b62239378085726f783000000000000000000000000eefebb1546d88ea0909435df6f615084dd3c5bd8",
        "nonce": "0x54",
        "chainId": "0x1"
      },
      "additionalContracts": [],
      "isFixedGasLimit": false
    },
    {
      "hash": "0x02b514f02c6f4281caab2bcd7aa3587b96cc920909dbafe19b606667ea2485a4",
      "transactionType": "CALL",
      "contractName": "TimeLock",
      "contractAddress": "0xa18ae79aeda3e711e0cd64cfe1cd06402d400d61",
      "function": "revokeRole(bytes32,address)",
      "arguments": [
        "0x0000000000000000000000000000000000000000000000000000000000000000",
        "0xd7e38800201D6a42C408Bf79d8723740C4E7f631"
      ],
      "transaction": {
        "from": "0xd7e38800201d6a42c408bf79d8723740c4e7f631",
        "to": "0xa18ae79aeda3e711e0cd64cfe1cd06402d400d61",
        "gas": "0xdba7",
        "value": "0x0",
        "input": "0xd547741f0000000000000000000000000000000000000000000000000000000000000000000000000000000000000000d7e38800201d6a42c408bf79d8723740c4e7f631",
        "nonce": "0x55",
        "chainId": "0x1"
      },
      "additionalContracts": [],
      "isFixedGasLimit": false
    },
    {
      "hash": "0xb8c87c46bc71402729509ed379f4c543601106e501551d4b2d7ad380c0b52b99",
      "transactionType": "CALL",
      "contractName": "TimeLock",
      "contractAddress": "0x375fda2bf66f4ce85eab29ab6407dcd4a4c428ba",
      "function": "revokeRole(bytes32,address)",
      "arguments": [
        "0x0000000000000000000000000000000000000000000000000000000000000000",
        "0xd7e38800201D6a42C408Bf79d8723740C4E7f631"
      ],
      "transaction": {
        "from": "0xd7e38800201d6a42c408bf79d8723740c4e7f631",
        "to": "0x375fda2bf66f4ce85eab29ab6407dcd4a4c428ba",
        "gas": "0xdba7",
        "value": "0x0",
        "input": "0xd547741f0000000000000000000000000000000000000000000000000000000000000000000000000000000000000000d7e38800201d6a42c408bf79d8723740c4e7f631",
        "nonce": "0x56",
        "chainId": "0x1"
      },
      "additionalContracts": [],
      "isFixedGasLimit": false
    }
  ],
  "receipts": [
    {
      "status": "0x1",
      "cumulativeGasUsed": "0x13aa9bf",
      "logs": [
        {
          "address": "0xa18ae79aeda3e711e0cd64cfe1cd06402d400d61",
          "topics": [
            "0x2f8788117e7eff1d82e926ec794901d17c78024a50270940304540a733656f0d",
            "0xfd643c72710c63c0180259aba6b2d05451e3591a24e58b62239378085726f783",
            "0x000000000000000000000000eefebb1546d88ea0909435df6f615084dd3c5bd8",
            "0x000000000000000000000000d7e38800201d6a42c408bf79d8723740c4e7f631"
          ],
          "data": "0x",
          "blockHash": "0xd24334673468ab8aa5f2b198f8579b60c413b9c843ac429aacf210f3cecee3e4",
          "blockNumber": "0x16667ec",
          "blockTimestamp": "0x68de23df",
          "transactionHash": "0x4de59852d0410d41c7db2479388022490771ae7df020cdd8a6e934ff78a6f87a",
          "transactionIndex": "0xc2",
          "logIndex": "0x2b8",
          "removed": false
        }
      ],
      "logsBloom": "0x00000004000000000000000000000000000000000000000000000000000000000000000000000000000800000000000000000000000000000000000000000000000000000000000000000010002000000000000000000000000000000000800000000000000000000000000000000000000000000000000000000000000000000000000000000000000000000000000000010000000000000000000000040000020020000000000000000000000000000000000000000000001000000000000000000000000000000000000000000000000000000000000100000100200000000080000000000000000000040000000000000000000000000000000000000000",
      "type": "0x2",
      "transactionHash": "0x4de59852d0410d41c7db2479388022490771ae7df020cdd8a6e934ff78a6f87a",
      "transactionIndex": "0xc2",
      "blockHash": "0xd24334673468ab8aa5f2b198f8579b60c413b9c843ac429aacf210f3cecee3e4",
      "blockNumber": "0x16667ec",
      "gasUsed": "0x18b62",
      "effectiveGasPrice": "0x11ef104c",
      "from": "0xd7e38800201d6a42c408bf79d8723740c4e7f631",
      "to": "0xa18ae79aeda3e711e0cd64cfe1cd06402d400d61",
      "contractAddress": null
    },
    {
      "status": "0x1",
      "cumulativeGasUsed": "0x13c3521",
      "logs": [
        {
          "address": "0x375fda2bf66f4ce85eab29ab6407dcd4a4c428ba",
          "topics": [
            "0x2f8788117e7eff1d82e926ec794901d17c78024a50270940304540a733656f0d",
            "0xfd643c72710c63c0180259aba6b2d05451e3591a24e58b62239378085726f783",
            "0x000000000000000000000000eefebb1546d88ea0909435df6f615084dd3c5bd8",
            "0x000000000000000000000000d7e38800201d6a42c408bf79d8723740c4e7f631"
          ],
          "data": "0x",
          "blockHash": "0xd24334673468ab8aa5f2b198f8579b60c413b9c843ac429aacf210f3cecee3e4",
          "blockNumber": "0x16667ec",
          "blockTimestamp": "0x68de23df",
          "transactionHash": "0x834978093141b7a7fde6adf68bfe197bd96f14773dd5f5ccac06e03de52fb098",
          "transactionIndex": "0xc3",
          "logIndex": "0x2b9",
          "removed": false
        }
      ],
      "logsBloom": "0x00000004000000000000000000040000000000000000000000000000000000000000000000000000000800000000000000000000000000000000000000000000000000000000000000000010002000000000000000000000000000000000000000000000000000000000000000000000000000000000000000000000000000000000000000010000000000000000000000000000000000000000000000040000020020000000000000000000000000000000000000000000011000000000000000000000000000000000000000000000000000000000000100000100200000000080000000000000000000000000000000000000000000000000000000000000",
      "type": "0x2",
      "transactionHash": "0x834978093141b7a7fde6adf68bfe197bd96f14773dd5f5ccac06e03de52fb098",
      "transactionIndex": "0xc3",
      "blockHash": "0xd24334673468ab8aa5f2b198f8579b60c413b9c843ac429aacf210f3cecee3e4",
      "blockNumber": "0x16667ec",
      "gasUsed": "0x18b62",
      "effectiveGasPrice": "0x11ef104c",
      "from": "0xd7e38800201d6a42c408bf79d8723740c4e7f631",
      "to": "0x375fda2bf66f4ce85eab29ab6407dcd4a4c428ba",
      "contractAddress": null
    },
    {
      "status": "0x1",
      "cumulativeGasUsed": "0x13ccb52",
      "logs": [
        {
          "address": "0xa18ae79aeda3e711e0cd64cfe1cd06402d400d61",
          "topics": [
            "0xf6391f5c32d9c69d2a47ea670b442974b53935d1edc7fd64eb21e047a839171b",
            "0x0000000000000000000000000000000000000000000000000000000000000000",
            "0x000000000000000000000000d7e38800201d6a42c408bf79d8723740c4e7f631",
            "0x000000000000000000000000d7e38800201d6a42c408bf79d8723740c4e7f631"
          ],
          "data": "0x",
          "blockHash": "0xd24334673468ab8aa5f2b198f8579b60c413b9c843ac429aacf210f3cecee3e4",
          "blockNumber": "0x16667ec",
          "blockTimestamp": "0x68de23df",
          "transactionHash": "0x02b514f02c6f4281caab2bcd7aa3587b96cc920909dbafe19b606667ea2485a4",
          "transactionIndex": "0xc4",
          "logIndex": "0x2ba",
          "removed": false
        }
      ],
      "logsBloom": "0x00000000000000000000000000000000000000000000000000000000000000000000000000000000000000000000000000200000000000000000000000000000000000000000000000000000002000000000000000000000000000000000800040000000020000000000000000000800000000000000000000000000000000000000000040000000000000000000000000010000000000000000000000040000000000000000000000000000000000000000000000000000000000000000000000000000000000000000000000000000000000000000000000000000000020000080000000000000000000040000000000000000000000000000000000000000",
      "type": "0x2",
      "transactionHash": "0x02b514f02c6f4281caab2bcd7aa3587b96cc920909dbafe19b606667ea2485a4",
      "transactionIndex": "0xc4",
      "blockHash": "0xd24334673468ab8aa5f2b198f8579b60c413b9c843ac429aacf210f3cecee3e4",
      "blockNumber": "0x16667ec",
      "gasUsed": "0x9631",
      "effectiveGasPrice": "0x11ef104c",
      "from": "0xd7e38800201d6a42c408bf79d8723740c4e7f631",
      "to": "0xa18ae79aeda3e711e0cd64cfe1cd06402d400d61",
      "contractAddress": null
    },
    {
      "status": "0x1",
      "cumulativeGasUsed": "0x13d6183",
      "logs": [
        {
          "address": "0x375fda2bf66f4ce85eab29ab6407dcd4a4c428ba",
          "topics": [
            "0xf6391f5c32d9c69d2a47ea670b442974b53935d1edc7fd64eb21e047a839171b",
            "0x0000000000000000000000000000000000000000000000000000000000000000",
            "0x000000000000000000000000d7e38800201d6a42c408bf79d8723740c4e7f631",
            "0x000000000000000000000000d7e38800201d6a42c408bf79d8723740c4e7f631"
          ],
          "data": "0x",
          "blockHash": "0xd24334673468ab8aa5f2b198f8579b60c413b9c843ac429aacf210f3cecee3e4",
          "blockNumber": "0x16667ec",
          "blockTimestamp": "0x68de23df",
          "transactionHash": "0xb8c87c46bc71402729509ed379f4c543601106e501551d4b2d7ad380c0b52b99",
          "transactionIndex": "0xc5",
          "logIndex": "0x2bb",
          "removed": false
        }
      ],
      "logsBloom": "0x00000000000000000000000000040000000000000000000000000000000000000000000000000000000000000000000000200000000000000000000000000000000000000000000000000000002000000000000000000000000000000000000040000000020000000000000000000800000000000000000000000000000000000000000040010000000000000000000000000000000000000000000000040000000000000000000000000000000000000000000000000000010000000000000000000000000000000000000000000000000000000000000000000000000020000080000000000000000000000000000000000000000000000000000000000000",
      "type": "0x2",
      "transactionHash": "0xb8c87c46bc71402729509ed379f4c543601106e501551d4b2d7ad380c0b52b99",
      "transactionIndex": "0xc5",
      "blockHash": "0xd24334673468ab8aa5f2b198f8579b60c413b9c843ac429aacf210f3cecee3e4",
      "blockNumber": "0x16667ec",
      "gasUsed": "0x9631",
      "effectiveGasPrice": "0x11ef104c",
      "from": "0xd7e38800201d6a42c408bf79d8723740c4e7f631",
      "to": "0x375fda2bf66f4ce85eab29ab6407dcd4a4c428ba",
      "contractAddress": null
    }
  ],
  "libraries": [],
  "pending": [],
  "returns": {},
  "timestamp": 1759388642015,
  "chain": 1,
  "commit": "51561db"
}