{
  "transactions": [
    {
      "hash": "0xbca6675eaab6153c18d201f1aa73ccf3b4bcd2a3443ad5f0de4ed2881cddf969",
      "transactionType": "CALL",
      "contractName": null,
      "contractAddress": "0xe46b8e65006e6450bdd8cb7d3274ab4f76f4c705",
      "function": "setFeeRecipient(address)",
      "arguments": [
        "0xea55952a51ddd771d6eBc45Bd0B512276dd0b866"
      ],
      "transaction": {
        "from": "0xd7e38800201d6a42c408bf79d8723740c4e7f631",
        "to": "0xe46b8e65006e6450bdd8cb7d3274ab4f76f4c705",
        "gas": "0x1552f",
        "value": "0x0",
        "input": "0xe74b981b000000000000000000000000ea55952a51ddd771d6ebc45bd0b512276dd0b866",
        "nonce": "0xfb",
        "chainId": "0x38"
      },
      "additionalContracts": [],
      "isFixedGasLimit": false
    },
    {
      "hash": "0x4909365894fa2451dcd4d42715d63decba94c4f5ebad4444da3c6d8b5ff9b931",
      "transactionType": "CALL",
      "contractName": null,
      "contractAddress": "0xe46b8e65006e6450bdd8cb7d3274ab4f76f4c705",
      "function": "setSkimRecipient(address)",
      "arguments": [
        "0x1d60bBBEF79Fb9540D271Dbb01925380323A8f66"
      ],
      "transaction": {
        "from": "0xd7e38800201d6a42c408bf79d8723740c4e7f631",
        "to": "0xe46b8e65006e6450bdd8cb7d3274ab4f76f4c705",
        "gas": "0x12c5d",
        "value": "0x0",
        "input": "0x2b30997b0000000000000000000000001d60bbbef79fb9540d271dbb01925380323a8f66",
        "nonce": "0xfc",
        "chainId": "0x38"
      },
      "additionalContracts": [],
      "isFixedGasLimit": false
    },
    {
      "hash": "0xcb50016293ae98ae080ef546bdb00903ea3530ef9aadb795ed66bf560313c99d",
      "transactionType": "CALL",
      "contractName": null,
      "contractAddress": "0xe46b8e65006e6450bdd8cb7d3274ab4f76f4c705",
      "function": "grantRole(bytes32,address)",
      "arguments": [
        "0x0aec9b08bc8c2cb62a91f52d33e3d77da4b3f3a63fc8b542a93abe3902ba929c",
        "0xd7e38800201D6a42C408Bf79d8723740C4E7f631"
      ],
      "transaction": {
        "from": "0xd7e38800201d6a42c408bf79d8723740c4e7f631",
        "to": "0xe46b8e65006e6450bdd8cb7d3274ab4f76f4c705",
        "gas": "0x2c19e",
        "value": "0x0",
        "input": "0x2f2ff15d0aec9b08bc8c2cb62a91f52d33e3d77da4b3f3a63fc8b542a93abe3902ba929c000000000000000000000000d7e38800201d6a42c408bf79d8723740c4e7f631",
        "nonce": "0xfd",
        "chainId": "0x38"
      },
      "additionalContracts": [],
      "isFixedGasLimit": false
    },
    {
      "hash": "0x5cd35573bb4e5ce74a49d7615cf56631412f26dac91a662d6945da980b001658",
      "transactionType": "CALL",
      "contractName": null,
      "contractAddress": "0xe46b8e65006e6450bdd8cb7d3274ab4f76f4c705",
      "function": "grantRole(bytes32,address)",
      "arguments": [
        "0xdcac51f5d253e2787a458cfb1d6b8faf248cf16367710f9e3b6bd5644d23f8db",
        "0xd7e38800201D6a42C408Bf79d8723740C4E7f631"
      ],
      "transaction": {
        "from": "0xd7e38800201d6a42c408bf79d8723740c4e7f631",
        "to": "0xe46b8e65006e6450bdd8cb7d3274ab4f76f4c705",
        "gas": "0x2c19e",
        "value": "0x0",
        "input": "0x2f2ff15ddcac51f5d253e2787a458cfb1d6b8faf248cf16367710f9e3b6bd5644d23f8db000000000000000000000000d7e38800201d6a42c408bf79d8723740c4e7f631",
        "nonce": "0xfe",
        "chainId": "0x38"
      },
      "additionalContracts": [],
      "isFixedGasLimit": false
    },
    {
      "hash": "0x4e940408615008774671bf695019ab146764388bf3478b9f991a2dfda22618e5",
      "transactionType": "CALL",
      "contractName": null,
      "contractAddress": "0xe46b8e65006e6450bdd8cb7d3274ab4f76f4c705",
      "function": "setBotRole(address)",
      "arguments": [
        "0x91fC4BA20685339781888eCA3E9E1c12d40F0e13"
      ],
      "transaction": {
        "from": "0xd7e38800201d6a42c408bf79d8723740c4e7f631",
        "to": "0xe46b8e65006e6450bdd8cb7d3274ab4f76f4c705",
        "gas": "0x28c12",
        "value": "0x0",
        "input": "0x74db459800000000000000000000000091fc4ba20685339781888eca3e9e1c12d40f0e13",
        "nonce": "0xff",
        "chainId": "0x38"
      },
      "additionalContracts": [],
      "isFixedGasLimit": false
    },
    {
      "hash": "0xdef8d320f39ec73b2ab35a949cf6951473d5bc7fb3917e6becce061d878a2f70",
      "transactionType": "CALL",
      "contractName": null,
      "contractAddress": "0xe46b8e65006e6450bdd8cb7d3274ab4f76f4c705",
      "function": "setFee(uint256)",
      "arguments": [
        "100000000000000000"
      ],
      "transaction": {
        "from": "0xd7e38800201d6a42c408bf79d8723740c4e7f631",
        "to": "0xe46b8e65006e6450bdd8cb7d3274ab4f76f4c705",
        "gas": "0xe6c1",
        "value": "0x0",
        "input": "0x69fe0e2d000000000000000000000000000000000000000000000000016345785d8a0000",
        "nonce": "0x100",
        "chainId": "0x38"
      },
      "additionalContracts": [],
      "isFixedGasLimit": false
    },
    {
      "hash": "0xeb6c7b136c1dfed955a24ca61329a464c26364fcfef9a93ff9625cbf72c49008",
      "transactionType": "CALL",
      "contractName": null,
      "contractAddress": "0xe46b8e65006e6450bdd8cb7d3274ab4f76f4c705",
      "function": "setCap((address,address,address,address,uint256),uint256)",
      "arguments": [
        "(0x7130d2A12B9BCbFAe4f2634d864A1Ee1Ce3Ead9c, 0xbb4CdB9CBd36B01bD1cBaEBF2De08d9173bc095c, 0xf3afD82A4071f272F403dC176916141f44E6c750, 0xFe7dAe87Ebb11a7BEB9F534BB23267992d9cDe7c, 800000000000000000)",
        "500000000000000000000"
      ],
      "transaction": {
        "from": "0xd7e38800201d6a42c408bf79d8723740c4e7f631",
        "to": "0xe46b8e65006e6450bdd8cb7d3274ab4f76f4c705",
        "gas": "0x2d7af",
        "value": "0x0",
        "input": "0xd3ac290c0000000000000000000000007130d2a12b9bcbfae4f2634d864a1ee1ce3ead9c000000000000000000000000bb4cdb9cbd36b01bd1cbaebf2de08d9173bc095c000000000000000000000000f3afd82a4071f272f403dc176916141f44e6c750000000000000000000000000fe7dae87ebb11a7beb9f534bb23267992d9cde7c0000000000000000000000000000000000000000000000000b1a2bc2ec50000000000000000000000000000000000000000000000000001b1ae4d6e2ef500000",
        "nonce": "0x101",
        "chainId": "0x38"
      },
      "additionalContracts": [],
      "isFixedGasLimit": false
    },
    {
      "hash": "0xb60d8863d23a5c6f9560f83962bbf77e40f6fe97fd94b8f8527337b28a5dd354",
      "transactionType": "CALL",
      "contractName": null,
      "contractAddress": "0xe46b8e65006e6450bdd8cb7d3274ab4f76f4c705",
      "function": "setCap((address,address,address,address,uint256),uint256)",
      "arguments": [
        "(0x7130d2A12B9BCbFAe4f2634d864A1Ee1Ce3Ead9c, 0x8d0D000Ee44948FC98c9B98A4FA4921476f08B0d, 0xf3afD82A4071f272F403dC176916141f44E6c750, 0xFe7dAe87Ebb11a7BEB9F534BB23267992d9cDe7c, 800000000000000000)",
        "300000000000000000000"
      ],
      "transaction": {
        "from": "0xd7e38800201d6a42c408bf79d8723740c4e7f631",
        "to": "0xe46b8e65006e6450bdd8cb7d3274ab4f76f4c705",
        "gas": "0x2aea8",
        "value": "0x0",
        "input": "0xd3ac290c0000000000000000000000007130d2a12b9bcbfae4f2634d864a1ee1ce3ead9c0000000000000000000000008d0d000ee44948fc98c9b98a4fa4921476f08b0d000000000000000000000000f3afd82a4071f272f403dc176916141f44e6c750000000000000000000000000fe7dae87ebb11a7beb9f534bb23267992d9cde7c0000000000000000000000000000000000000000000000000b1a2bc2ec50000000000000000000000000000000000000000000000000001043561a8829300000",
        "nonce": "0x102",
        "chainId": "0x38"
      },
      "additionalContracts": [],
      "isFixedGasLimit": false
    },
    {
      "hash": "0xcbc5130a701ebdbad9214e0931afcc5b0e1b66d94f32e8c1b5591a60701d1285",
      "transactionType": "CALL",
      "contractName": null,
      "contractAddress": "0xe46b8e65006e6450bdd8cb7d3274ab4f76f4c705",
      "function": "setCap((address,address,address,address,uint256),uint256)",
      "arguments": [
        "(0x7130d2A12B9BCbFAe4f2634d864A1Ee1Ce3Ead9c, 0x4aae823a6a0b376De6A78e74eCC5b079d38cBCf7, 0xf3afD82A4071f272F403dC176916141f44E6c750, 0xFe7dAe87Ebb11a7BEB9F534BB23267992d9cDe7c, 700000000000000000)",
        "200000000000000000000"
      ],
      "transaction": {
        "from": "0xd7e38800201d6a42c408bf79d8723740c4e7f631",
        "to": "0xe46b8e65006e6450bdd8cb7d3274ab4f76f4c705",
        "gas": "0x295bb",
        "value": "0x0",
        "input": "0xd3ac290c0000000000000000000000007130d2a12b9bcbfae4f2634d864a1ee1ce3ead9c0000000000000000000000004aae823a6a0b376de6a78e74ecc5b079d38cbcf7000000000000000000000000f3afd82a4071f272f403dc176916141f44e6c750000000000000000000000000fe7dae87ebb11a7beb9f534bb23267992d9cde7c00000000000000000000000000000000000000000000000009b6e64a8ec6000000000000000000000000000000000000000000000000000ad78ebc5ac6200000",
        "nonce": "0x103",
        "chainId": "0x38"
      },
      "additionalContracts": [],
      "isFixedGasLimit": false
    },
    {
      "hash": "0x36797f5d57f78513db2d34bd23587233c944a88bb65316e2d115e279d5cee23b",
      "transactionType": "CALL",
      "contractName": null,
      "contractAddress": "0xe46b8e65006e6450bdd8cb7d3274ab4f76f4c705",
      "function": "setSupplyQueue(bytes32[])",
      "arguments": [
        "[0x869861f50ecec64d1a75a24ebb118071c5e60122ee263e4ad44546d762c818f9, 0xf5851e3064736fe04791d094f24bfb1cb1890d402ab66c0c7657edc9f5a64a4a, 0x4c8c4dc9d93756111b914027d6e712aed1d3d0fa57b26332b476b245723a6b6e]"
      ],
      "transaction": {
        "from": "0xd7e38800201d6a42c408bf79d8723740c4e7f631",
        "to": "0xe46b8e65006e6450bdd8cb7d3274ab4f76f4c705",
        "gas": "0x2bb15",
        "value": "0x0",
        "input": "0x2acc56f900000000000000000000000000000000000000000000000000000000000000200000000000000000000000000000000000000000000000000000000000000003869861f50ecec64d1a75a24ebb118071c5e60122ee263e4ad44546d762c818f9f5851e3064736fe04791d094f24bfb1cb1890d402ab66c0c7657edc9f5a64a4a4c8c4dc9d93756111b914027d6e712aed1d3d0fa57b26332b476b245723a6b6e",
        "nonce": "0x104",
        "chainId": "0x38"
      },
      "additionalContracts": [],
      "isFixedGasLimit": false
    },
    {
      "hash": "0xfea18864a175054050de376425a23aab8cca26df36f738db13f17b0957807028",
      "transactionType": "CALL",
      "contractName": null,
      "contractAddress": "0xe46b8e65006e6450bdd8cb7d3274ab4f76f4c705",
      "function": "updateWithdrawQueue(uint256[])",
      "arguments": [
        "[2, 1, 0]"
      ],
      "transaction": {
        "from": "0xd7e38800201d6a42c408bf79d8723740c4e7f631",
        "to": "0xe46b8e65006e6450bdd8cb7d3274ab4f76f4c705",
        "gas": "0x10c78",
        "value": "0x0",
        "input": "0x41b6783300000000000000000000000000000000000000000000000000000000000000200000000000000000000000000000000000000000000000000000000000000003000000000000000000000000000000000000000000000000000000000000000200000000000000000000000000000000000000000000000000000000000000010000000000000000000000000000000000000000000000000000000000000000",
        "nonce": "0x105",
        "chainId": "0x38"
      },
      "additionalContracts": [],
      "isFixedGasLimit": false
    }
  ],
  "receipts": [
    {
      "status": "0x1",
      "cumulativeGasUsed": "0xa6e848",
      "logs": [
        {
          "address": "0xe46b8e65006e6450bdd8cb7d3274ab4f76f4c705",
          "topics": [
            "0xf66f28b40975dbb933913542c7e6a0f50a1d0f20aa74ea6e0efe65ab616323ec"
          ],
          "data": "0x00000000000000000000000000000000000000000000000000000000000000000000000000000000000000000000000000000000000000000000000000000000",
          "blockHash": "0x1df86a5342c76ce479e1e8c1420c7f2e5d4ddf9e94244f4e3096592f9cb96998",
          "blockNumber": "0x2e7d192",
          "transactionHash": "0xbca6675eaab6153c18d201f1aa73ccf3b4bcd2a3443ad5f0de4ed2881cddf969",
          "transactionIndex": "0x69",
          "logIndex": "0x17c",
          "removed": false
        },
        {
          "address": "0xe46b8e65006e6450bdd8cb7d3274ab4f76f4c705",
          "topics": [
            "0x15c027cc4fd826d986cad358803439f7326d3aa4ed969ff90dbee4bc150f68e9"
          ],
          "data": "0x0000000000000000000000000000000000000000000000000000000000000000",
          "blockHash": "0x1df86a5342c76ce479e1e8c1420c7f2e5d4ddf9e94244f4e3096592f9cb96998",
          "blockNumber": "0x2e7d192",
          "transactionHash": "0xbca6675eaab6153c18d201f1aa73ccf3b4bcd2a3443ad5f0de4ed2881cddf969",
          "transactionIndex": "0x69",
          "logIndex": "0x17d",
          "removed": false
        },
        {
          "address": "0xe46b8e65006e6450bdd8cb7d3274ab4f76f4c705",
          "topics": [
            "0x2e979f80fe4d43055c584cf4a8467c55875ea36728fc37176c05acd784eb7a73",
            "0x000000000000000000000000ea55952a51ddd771d6ebc45bd0b512276dd0b866"
          ],
          "data": "0x",
          "blockHash": "0x1df86a5342c76ce479e1e8c1420c7f2e5d4ddf9e94244f4e3096592f9cb96998",
          "blockNumber": "0x2e7d192",
          "transactionHash": "0xbca6675eaab6153c18d201f1aa73ccf3b4bcd2a3443ad5f0de4ed2881cddf969",
          "transactionIndex": "0x69",
          "logIndex": "0x17e",
          "removed": false
        }
      ],
      "logsBloom": "0x00000000000000000000000000000000000000000000000000000000000000000002000000000000000000000000000000000000000000000000000000000000000000000000000000000000000000000000000000000000000000000000008000000000000000000000000000000000000000000000002000000000000000000408000000000000000000000000000000000000000000000020080000000400000000000020050000000000000000000000100004000000000000000000000000000000000000000000000000000000000000000000000000000000000000010000000000000000008000000000000000000000000000000000000000000000",
      "type": "0x0",
      "transactionHash": "0xbca6675eaab6153c18d201f1aa73ccf3b4bcd2a3443ad5f0de4ed2881cddf969",
      "transactionIndex": "0x69",
      "blockHash": "0x1df86a5342c76ce479e1e8c1420c7f2e5d4ddf9e94244f4e3096592f9cb96998",
      "blockNumber": "0x2e7d192",
      "gasUsed": "0xe94a",
      "effectiveGasPrice": "0x3b9aca00",
      "from": "0xd7e38800201d6a42c408bf79d8723740c4e7f631",
      "to": "0xe46b8e65006e6450bdd8cb7d3274ab4f76f4c705",
      "contractAddress": null
    },
    {
      "status": "0x1",
      "cumulativeGasUsed": "0xa7b5a9",
      "logs": [
        {
          "address": "0xe46b8e65006e6450bdd8cb7d3274ab4f76f4c705",
          "topics": [
            "0x2e7908865670e21b9779422cadf5f1cba271a62bb95c71eaaf615c0a1c48ebee",
            "0x0000000000000000000000001d60bbbef79fb9540d271dbb01925380323a8f66"
          ],
          "data": "0x",
          "blockHash": "0x1df86a5342c76ce479e1e8c1420c7f2e5d4ddf9e94244f4e3096592f9cb96998",
          "blockNumber": "0x2e7d192",
          "transactionHash": "0x4909365894fa2451dcd4d42715d63decba94c4f5ebad4444da3c6d8b5ff9b931",
          "transactionIndex": "0x6a",
          "logIndex": "0x17f",
          "removed": false
        }
      ],
      "logsBloom": "0x00000000000000000000000000000000000000000000000000000000040000000002000000000000000000000000000000000000000000000000000040000000000000000000000000000000000000000000000000000000000000000000008000000000080000000000000000000000000000000000000000080000000000000000000000000000000000000000000000000000000000000000080000000000000000000000000000000000000000000000000000100000000000000000000000000000000000000000000000000000000000000000000000000000000000000000000000080000000000000000000000000000000000000000000000000000",
      "type": "0x0",
      "transactionHash": "0x4909365894fa2451dcd4d42715d63decba94c4f5ebad4444da3c6d8b5ff9b931",
      "transactionIndex": "0x6a",
      "blockHash": "0x1df86a5342c76ce479e1e8c1420c7f2e5d4ddf9e94244f4e3096592f9cb96998",
      "blockNumber": "0x2e7d192",
      "gasUsed": "0xcd61",
      "effectiveGasPrice": "0x3b9aca00",
      "from": "0xd7e38800201d6a42c408bf79d8723740c4e7f631",
      "to": "0xe46b8e65006e6450bdd8cb7d3274ab4f76f4c705",
      "contractAddress": null
    },
    {
      "status": "0x1",
      "cumulativeGasUsed": "0xa99823",
      "logs": [
        {
          "address": "0xe46b8e65006e6450bdd8cb7d3274ab4f76f4c705",
          "topics": [
            "0x2f8788117e7eff1d82e926ec794901d17c78024a50270940304540a733656f0d",
            "0x0aec9b08bc8c2cb62a91f52d33e3d77da4b3f3a63fc8b542a93abe3902ba929c",
            "0x000000000000000000000000d7e38800201d6a42c408bf79d8723740c4e7f631",
            "0x000000000000000000000000d7e38800201d6a42c408bf79d8723740c4e7f631"
          ],
          "data": "0x",
          "blockHash": "0x1df86a5342c76ce479e1e8c1420c7f2e5d4ddf9e94244f4e3096592f9cb96998",
          "blockNumber": "0x2e7d192",
          "transactionHash": "0xcb50016293ae98ae080ef546bdb00903ea3530ef9aadb795ed66bf560313c99d",
          "transactionIndex": "0x6b",
          "logIndex": "0x180",
          "removed": false
        }
      ],
      "logsBloom": "0x00000004000000000000000000000000000000000000000000000000000000000002000000000000000000000000000000000000000000000000000000000000000000000000000000000000002000000000000000000000000000000000008000000000000000000000000000000100000000000000000000040000000000000000000000000000000000000000000000000000000000000000080000040000000000000000000000000000000000000000000000000000001000000000000000000000000000000000000000000100000000000000000100000000000000000080000000000000000000000000000000000000000000000000000000000000",
      "type": "0x0",
      "transactionHash": "0xcb50016293ae98ae080ef546bdb00903ea3530ef9aadb795ed66bf560313c99d",
      "transactionIndex": "0x6b",
      "blockHash": "0x1df86a5342c76ce479e1e8c1420c7f2e5d4ddf9e94244f4e3096592f9cb96998",
      "blockNumber": "0x2e7d192",
      "gasUsed": "0x1e27a",
      "effectiveGasPrice": "0x3b9aca00",
      "from": "0xd7e38800201d6a42c408bf79d8723740c4e7f631",
      "to": "0xe46b8e65006e6450bdd8cb7d3274ab4f76f4c705",
      "contractAddress": null
    },
    {
      "status": "0x1",
      "cumulativeGasUsed": "0xab7a9d",
      "logs": [
        {
          "address": "0xe46b8e65006e6450bdd8cb7d3274ab4f76f4c705",
          "topics": [
            "0x2f8788117e7eff1d82e926ec794901d17c78024a50270940304540a733656f0d",
            "0xdcac51f5d253e2787a458cfb1d6b8faf248cf16367710f9e3b6bd5644d23f8db",
            "0x000000000000000000000000d7e38800201d6a42c408bf79d8723740c4e7f631",
            "0x000000000000000000000000d7e38800201d6a42c408bf79d8723740c4e7f631"
          ],
          "data": "0x",
          "blockHash": "0x1df86a5342c76ce479e1e8c1420c7f2e5d4ddf9e94244f4e3096592f9cb96998",
          "blockNumber": "0x2e7d192",
          "transactionHash": "0x5cd35573bb4e5ce74a49d7615cf56631412f26dac91a662d6945da980b001658",
          "transactionIndex": "0x6c",
          "logIndex": "0x181",
          "removed": false
        }
      ],
      "logsBloom": "0x00000004400000000000000000000000000000000000000000000000000000000002000000000000000000000000000000000000000000000000000000000000000000000000000000000008002000000000000000000000000000000000008000000000000000000000000000000000000000000000000000000000000000000000000000000000000000000000000000000000000000000000080000040000000000000000000000000000000000000000000000000000001000000000000000000000000000000000000000000000000000000000000100000000000000000080000000000000000000000400000000000000000000000000000000000000",
      "type": "0x0",
      "transactionHash": "0x5cd35573bb4e5ce74a49d7615cf56631412f26dac91a662d6945da980b001658",
      "transactionIndex": "0x6c",
      "blockHash": "0x1df86a5342c76ce479e1e8c1420c7f2e5d4ddf9e94244f4e3096592f9cb96998",
      "blockNumber": "0x2e7d192",
      "gasUsed": "0x1e27a",
      "effectiveGasPrice": "0x3b9aca00",
      "from": "0xd7e38800201d6a42c408bf79d8723740c4e7f631",
      "to": "0xe46b8e65006e6450bdd8cb7d3274ab4f76f4c705",
      "contractAddress": null
    },
    {
      "status": "0x1",
      "cumulativeGasUsed": "0xad52b4",
      "logs": [
        {
          "address": "0xe46b8e65006e6450bdd8cb7d3274ab4f76f4c705",
          "topics": [
            "0x2f8788117e7eff1d82e926ec794901d17c78024a50270940304540a733656f0d",
            "0x902cbe3a02736af9827fb6a90bada39e955c0941e08f0c63b3a662a7b17a4e2b",
            "0x00000000000000000000000091fc4ba20685339781888eca3e9e1c12d40f0e13",
            "0x000000000000000000000000d7e38800201d6a42c408bf79d8723740c4e7f631"
          ],
          "data": "0x",
          "blockHash": "0x1df86a5342c76ce479e1e8c1420c7f2e5d4ddf9e94244f4e3096592f9cb96998",
          "blockNumber": "0x2e7d192",
          "transactionHash": "0x4e940408615008774671bf695019ab146764388bf3478b9f991a2dfda22618e5",
          "transactionIndex": "0x6d",
          "logIndex": "0x182",
          "removed": false
        }
      ],
      "logsBloom": "0x00000004000000000000000000000000000000000000000000000000000000000002200000000000000000080000000000000000000000000000000000000000000000000000000000000000002000000000000000000000000000000000008000000000000000000000000000000000000000000000000000000000000000000000000000000000000000000000000000000000000000000000080000040000000000000000000000000040000000000000000000000000001000000000000000000000008000000040000000000000000000000000000100000000000000000080000800000000000000000000000000000000000000000000000000000000",
      "type": "0x0",
      "transactionHash": "0x4e940408615008774671bf695019ab146764388bf3478b9f991a2dfda22618e5",
      "transactionIndex": "0x6d",
      "blockHash": "0x1df86a5342c76ce479e1e8c1420c7f2e5d4ddf9e94244f4e3096592f9cb96998",
      "blockNumber": "0x2e7d192",
      "gasUsed": "0x1d817",
      "effectiveGasPrice": "0x3b9aca00",
      "from": "0xd7e38800201d6a42c408bf79d8723740c4e7f631",
      "to": "0xe46b8e65006e6450bdd8cb7d3274ab4f76f4c705",
      "contractAddress": null
    },
    {
      "status": "0x1",
      "cumulativeGasUsed": "0xadf9c4",
      "logs": [
        {
          "address": "0xe46b8e65006e6450bdd8cb7d3274ab4f76f4c705",
          "topics": [
            "0xf66f28b40975dbb933913542c7e6a0f50a1d0f20aa74ea6e0efe65ab616323ec"
          ],
          "data": "0x00000000000000000000000000000000000000000000000000000000000000000000000000000000000000000000000000000000000000000000000000000000",
          "blockHash": "0x1df86a5342c76ce479e1e8c1420c7f2e5d4ddf9e94244f4e3096592f9cb96998",
          "blockNumber": "0x2e7d192",
          "transactionHash": "0xdef8d320f39ec73b2ab35a949cf6951473d5bc7fb3917e6becce061d878a2f70",
          "transactionIndex": "0x6e",
          "logIndex": "0x183",
          "removed": false
        },
        {
          "address": "0xe46b8e65006e6450bdd8cb7d3274ab4f76f4c705",
          "topics": [
            "0x15c027cc4fd826d986cad358803439f7326d3aa4ed969ff90dbee4bc150f68e9"
          ],
          "data": "0x0000000000000000000000000000000000000000000000000000000000000000",
          "blockHash": "0x1df86a5342c76ce479e1e8c1420c7f2e5d4ddf9e94244f4e3096592f9cb96998",
          "blockNumber": "0x2e7d192",
          "transactionHash": "0xdef8d320f39ec73b2ab35a949cf6951473d5bc7fb3917e6becce061d878a2f70",
          "transactionIndex": "0x6e",
          "logIndex": "0x184",
          "removed": false
        },
        {
          "address": "0xe46b8e65006e6450bdd8cb7d3274ab4f76f4c705",
          "topics": [
            "0x01fe2943baee27f47add82886c2200f910c749c461c9b63c5fe83901a53bdb49",
            "0x000000000000000000000000d7e38800201d6a42c408bf79d8723740c4e7f631"
          ],
          "data": "0x000000000000000000000000000000000000000000000000016345785d8a0000",
          "blockHash": "0x1df86a5342c76ce479e1e8c1420c7f2e5d4ddf9e94244f4e3096592f9cb96998",
          "blockNumber": "0x2e7d192",
          "transactionHash": "0xdef8d320f39ec73b2ab35a949cf6951473d5bc7fb3917e6becce061d878a2f70",
          "transactionIndex": "0x6e",
          "logIndex": "0x185",
          "removed": false
        }
      ],
      "logsBloom": "0x00000000000000000000000000000000000000000000000000000000000000000002000000000000000000000000000002000000000000000000000000000000000000000000000000010000002000000000000000000000000000000000008000000000000000000000000000000000000000000000000000000000000000000008000000000000000000000000000000000000000040000020080000040400000000000020000000000000000000000000100004000000000000000000000000000000000000000000000000000000000000000000000000000000000000000080000000000000000000000000000000000000000000000000000000000000",
      "type": "0x0",
      "transactionHash": "0xdef8d320f39ec73b2ab35a949cf6951473d5bc7fb3917e6becce061d878a2f70",
      "transactionIndex": "0x6e",
      "blockHash": "0x1df86a5342c76ce479e1e8c1420c7f2e5d4ddf9e94244f4e3096592f9cb96998",
      "blockNumber": "0x2e7d192",
      "gasUsed": "0xa710",
      "effectiveGasPrice": "0x3b9aca00",
      "from": "0xd7e38800201d6a42c408bf79d8723740c4e7f631",
      "to": "0xe46b8e65006e6450bdd8cb7d3274ab4f76f4c705",
      "contractAddress": null
    },
    {
      "status": "0x1",
      "cumulativeGasUsed": "0xba5db2",
      "logs": [
        {
          "address": "0xe46b8e65006e6450bdd8cb7d3274ab4f76f4c705",
          "topics": [
            "0x15c027cc4fd826d986cad358803439f7326d3aa4ed969ff90dbee4bc150f68e9"
          ],
          "data": "0x0000000000000000000000000000000000000000000000000000000000000000",
          "blockHash": "0x1df86a5342c76ce479e1e8c1420c7f2e5d4ddf9e94244f4e3096592f9cb96998",
          "blockNumber": "0x2e7d192",
          "transactionHash": "0xeb6c7b136c1dfed955a24ca61329a464c26364fcfef9a93ff9625cbf72c49008",
          "transactionIndex": "0x72",
          "logIndex": "0x1af",
          "removed": false
        },
        {
          "address": "0xe46b8e65006e6450bdd8cb7d3274ab4f76f4c705",
          "topics": [
            "0xe0c2db6b54586be6d7d49943139fccf0dd315ba63e55364a76c73cd8fdba724d",
            "0x000000000000000000000000d7e38800201d6a42c408bf79d8723740c4e7f631"
          ],
          "data": "0x00000000000000000000000000000000000000000000000000000000000000200000000000000000000000000000000000000000000000000000000000000001869861f50ecec64d1a75a24ebb118071c5e60122ee263e4ad44546d762c818f9",
          "blockHash": "0x1df86a5342c76ce479e1e8c1420c7f2e5d4ddf9e94244f4e3096592f9cb96998",
          "blockNumber": "0x2e7d192",
          "transactionHash": "0xeb6c7b136c1dfed955a24ca61329a464c26364fcfef9a93ff9625cbf72c49008",
          "transactionIndex": "0x72",
          "logIndex": "0x1b0",
          "removed": false
        },
        {
          "address": "0xe46b8e65006e6450bdd8cb7d3274ab4f76f4c705",
          "topics": [
            "0xe86b6d3313d3098f4c5f689c935de8fde876a597c185def2cedab85efedac686",
            "0x000000000000000000000000d7e38800201d6a42c408bf79d8723740c4e7f631",
            "0x869861f50ecec64d1a75a24ebb118071c5e60122ee263e4ad44546d762c818f9"
          ],
          "data": "0x00000000000000000000000000000000000000000000001b1ae4d6e2ef500000",
          "blockHash": "0x1df86a5342c76ce479e1e8c1420c7f2e5d4ddf9e94244f4e3096592f9cb96998",
          "blockNumber": "0x2e7d192",
          "transactionHash": "0xeb6c7b136c1dfed955a24ca61329a464c26364fcfef9a93ff9625cbf72c49008",
          "transactionIndex": "0x72",
          "logIndex": "0x1b1",
          "removed": false
        }
      ],
      "logsBloom": "0x00000000000000000000000000000000000000000001000000000000008000000002080000000000000000000000000000000000000000000000000000000000000000000000000000000000002000000000000000000000000000000000008000000000000000000000000000000000004000000000000000001000000000000000000000008000000000000000000000000000000000000020080000040000000000000000000000000000001000000000100004000000000000000000000000000000000000000000000000000000000000000000000000000000000000000080000000000000000000000000040000000000000000000000000000010000",
      "type": "0x0",
      "transactionHash": "0xeb6c7b136c1dfed955a24ca61329a464c26364fcfef9a93ff9625cbf72c49008",
      "transactionIndex": "0x72",
      "blockHash": "0x1df86a5342c76ce479e1e8c1420c7f2e5d4ddf9e94244f4e3096592f9cb96998",
      "blockNumber": "0x2e7d192",
      "gasUsed": "0x20ed5",
      "effectiveGasPrice": "0x3b9aca00",
      "from": "0xd7e38800201d6a42c408bf79d8723740c4e7f631",
      "to": "0xe46b8e65006e6450bdd8cb7d3274ab4f76f4c705",
      "contractAddress": null
    },
    {
      "status": "0x1",
      "cumulativeGasUsed": "0xbc3335",
      "logs": [
        {
          "address": "0xe46b8e65006e6450bdd8cb7d3274ab4f76f4c705",
          "topics": [
            "0x15c027cc4fd826d986cad358803439f7326d3aa4ed969ff90dbee4bc150f68e9"
          ],
          "data": "0x0000000000000000000000000000000000000000000000000000000000000000",
          "blockHash": "0x1df86a5342c76ce479e1e8c1420c7f2e5d4ddf9e94244f4e3096592f9cb96998",
          "blockNumber": "0x2e7d192",
          "transactionHash": "0xb60d8863d23a5c6f9560f83962bbf77e40f6fe97fd94b8f8527337b28a5dd354",
          "transactionIndex": "0x73",
          "logIndex": "0x1b2",
          "removed": false
        },
        {
          "address": "0xe46b8e65006e6450bdd8cb7d3274ab4f76f4c705",
          "topics": [
            "0xe0c2db6b54586be6d7d49943139fccf0dd315ba63e55364a76c73cd8fdba724d",
            "0x000000000000000000000000d7e38800201d6a42c408bf79d8723740c4e7f631"
          ],
          "data": "0x00000000000000000000000000000000000000000000000000000000000000200000000000000000000000000000000000000000000000000000000000000002869861f50ecec64d1a75a24ebb118071c5e60122ee263e4ad44546d762c818f9f5851e3064736fe04791d094f24bfb1cb1890d402ab66c0c7657edc9f5a64a4a",
          "blockHash": "0x1df86a5342c76ce479e1e8c1420c7f2e5d4ddf9e94244f4e3096592f9cb96998",
          "blockNumber": "0x2e7d192",
          "transactionHash": "0xb60d8863d23a5c6f9560f83962bbf77e40f6fe97fd94b8f8527337b28a5dd354",
          "transactionIndex": "0x73",
          "logIndex": "0x1b3",
          "removed": false
        },
        {
          "address": "0xe46b8e65006e6450bdd8cb7d3274ab4f76f4c705",
          "topics": [
            "0xe86b6d3313d3098f4c5f689c935de8fde876a597c185def2cedab85efedac686",
            "0x000000000000000000000000d7e38800201d6a42c408bf79d8723740c4e7f631",
            "0xf5851e3064736fe04791d094f24bfb1cb1890d402ab66c0c7657edc9f5a64a4a"
          ],
          "data": "0x00000000000000000000000000000000000000000000001043561a8829300000",
          "blockHash": "0x1df86a5342c76ce479e1e8c1420c7f2e5d4ddf9e94244f4e3096592f9cb96998",
          "blockNumber": "0x2e7d192",
          "transactionHash": "0xb60d8863d23a5c6f9560f83962bbf77e40f6fe97fd94b8f8527337b28a5dd354",
          "transactionIndex": "0x73",
          "logIndex": "0x1b4",
          "removed": false
        }
      ],
      "logsBloom": "0x00000000000000000000000000000000000000000000000000000000000000000002080000000000000000000000000000000000000000000000000000000000000000000000000000000000002000000000000000000000040000000000008000000000000000000000000000000000004000000000000000001000000000000000000000008000000000000000000000000000000000000020080000040000000000000000000000000000000000000000100004000000000000000000000000000000000000000000000000000000000020000000000000000000000000000080001000000000000000000000040000000000000000000000000000010000",
      "type": "0x0",
      "transactionHash": "0xb60d8863d23a5c6f9560f83962bbf77e40f6fe97fd94b8f8527337b28a5dd354",
      "transactionIndex": "0x73",
      "blockHash": "0x1df86a5342c76ce479e1e8c1420c7f2e5d4ddf9e94244f4e3096592f9cb96998",
      "blockNumber": "0x2e7d192",
      "gasUsed": "0x1d583",
      "effectiveGasPrice": "0x3b9aca00",
      "from": "0xd7e38800201d6a42c408bf79d8723740c4e7f631",
      "to": "0xe46b8e65006e6450bdd8cb7d3274ab4f76f4c705",
      "contractAddress": null
    },
    {
      "status": "0x1",
      "cumulativeGasUsed": "0xbe124a",
      "logs": [
        {
          "address": "0xe46b8e65006e6450bdd8cb7d3274ab4f76f4c705",
          "topics": [
            "0x15c027cc4fd826d986cad358803439f7326d3aa4ed969ff90dbee4bc150f68e9"
          ],
          "data": "0x0000000000000000000000000000000000000000000000000000000000000000",
          "blockHash": "0x1df86a5342c76ce479e1e8c1420c7f2e5d4ddf9e94244f4e3096592f9cb96998",
          "blockNumber": "0x2e7d192",
          "transactionHash": "0xcbc5130a701ebdbad9214e0931afcc5b0e1b66d94f32e8c1b5591a60701d1285",
          "transactionIndex": "0x74",
          "logIndex": "0x1b5",
          "removed": false
        },
        {
          "address": "0xe46b8e65006e6450bdd8cb7d3274ab4f76f4c705",
          "topics": [
            "0xe0c2db6b54586be6d7d49943139fccf0dd315ba63e55364a76c73cd8fdba724d",
            "0x000000000000000000000000d7e38800201d6a42c408bf79d8723740c4e7f631"
          ],
          "data": "0x00000000000000000000000000000000000000000000000000000000000000200000000000000000000000000000000000000000000000000000000000000003869861f50ecec64d1a75a24ebb118071c5e60122ee263e4ad44546d762c818f9f5851e3064736fe04791d094f24bfb1cb1890d402ab66c0c7657edc9f5a64a4a4c8c4dc9d93756111b914027d6e712aed1d3d0fa57b26332b476b245723a6b6e",
          "blockHash": "0x1df86a5342c76ce479e1e8c1420c7f2e5d4ddf9e94244f4e3096592f9cb96998",
          "blockNumber": "0x2e7d192",
          "transactionHash": "0xcbc5130a701ebdbad9214e0931afcc5b0e1b66d94f32e8c1b5591a60701d1285",
          "transactionIndex": "0x74",
          "logIndex": "0x1b6",
          "removed": false
        },
        {
          "address": "0xe46b8e65006e6450bdd8cb7d3274ab4f76f4c705",
          "topics": [
            "0xe86b6d3313d3098f4c5f689c935de8fde876a597c185def2cedab85efedac686",
            "0x000000000000000000000000d7e38800201d6a42c408bf79d8723740c4e7f631",
            "0x4c8c4dc9d93756111b914027d6e712aed1d3d0fa57b26332b476b245723a6b6e"
          ],
          "data": "0x00000000000000000000000000000000000000000000000ad78ebc5ac6200000",
          "blockHash": "0x1df86a5342c76ce479e1e8c1420c7f2e5d4ddf9e94244f4e3096592f9cb96998",
          "blockNumber": "0x2e7d192",
          "transactionHash": "0xcbc5130a701ebdbad9214e0931afcc5b0e1b66d94f32e8c1b5591a60701d1285",
          "transactionIndex": "0x74",
          "logIndex": "0x1b7",
          "removed": false
        }
      ],
      "logsBloom": "0x00000000000000000000000000000000000000000000000000000000000000000002080000000000000000000000000000000000000000000000000000000000000000000000000000000000002000000000000000000000000000000000008000000000000000000000000000040000004000000000000000001040000000000000000000008000000000000000000000000000000000000020080000040000000000000000000000000000000000000000100004000000000000000000000000000000000000000000000040000000000000000000000000000000000000000080000000000000000000000000040000000000000000000000000000010000",
      "type": "0x0",
      "transactionHash": "0xcbc5130a701ebdbad9214e0931afcc5b0e1b66d94f32e8c1b5591a60701d1285",
      "transactionIndex": "0x74",
      "blockHash": "0x1df86a5342c76ce479e1e8c1420c7f2e5d4ddf9e94244f4e3096592f9cb96998",
      "blockNumber": "0x2e7d192",
      "gasUsed": "0x1df15",
      "effectiveGasPrice": "0x3b9aca00",
      "from": "0xd7e38800201d6a42c408bf79d8723740c4e7f631",
      "to": "0xe46b8e65006e6450bdd8cb7d3274ab4f76f4c705",
      "contractAddress": null
    },
    {
      "status": "0x1",
      "cumulativeGasUsed": "0xc9d526",
      "logs": [
        {
          "address": "0xe46b8e65006e6450bdd8cb7d3274ab4f76f4c705",
          "topics": [
            "0x6ce31538fc7fba95714ddc8a275a09252b4b1fb8f33d2550aa58a5f62ad934de",
            "0x000000000000000000000000d7e38800201d6a42c408bf79d8723740c4e7f631"
          ],
          "data": "0x00000000000000000000000000000000000000000000000000000000000000200000000000000000000000000000000000000000000000000000000000000003869861f50ecec64d1a75a24ebb118071c5e60122ee263e4ad44546d762c818f9f5851e3064736fe04791d094f24bfb1cb1890d402ab66c0c7657edc9f5a64a4a4c8c4dc9d93756111b914027d6e712aed1d3d0fa57b26332b476b245723a6b6e",
          "blockHash": "0x1df86a5342c76ce479e1e8c1420c7f2e5d4ddf9e94244f4e3096592f9cb96998",
          "blockNumber": "0x2e7d192",
          "transactionHash": "0x36797f5d57f78513db2d34bd23587233c944a88bb65316e2d115e279d5cee23b",
          "transactionIndex": "0x78",
          "logIndex": "0x1cb",
          "removed": false
        }
      ],
      "logsBloom": "0x00000000000000000000000000000000000000000000000000000000000000000002000000000000000000000000000000000000000000000000000000000000000000000000000000000000002000000000000000000000000000000040008000000000000000000000000000000000000000000000000000000000000000000000000000000000000000000000000000000000000000000000080000040000000000000000000000000000000000000000000000000000080000000000000000000000000000000000000000000000000000000000000000000000000000000080000000000000000000000000000000000000000000000000020000000000",
      "type": "0x0",
      "transactionHash": "0x36797f5d57f78513db2d34bd23587233c944a88bb65316e2d115e279d5cee23b",
      "transactionIndex": "0x78",
      "blockHash": "0x1df86a5342c76ce479e1e8c1420c7f2e5d4ddf9e94244f4e3096592f9cb96998",
      "blockNumber": "0x2e7d192",
      "gasUsed": "0x1fa20",
      "effectiveGasPrice": "0x3b9aca00",
      "from": "0xd7e38800201d6a42c408bf79d8723740c4e7f631",
      "to": "0xe46b8e65006e6450bdd8cb7d3274ab4f76f4c705",
      "contractAddress": null
    },
    {
      "status": "0x1",
      "cumulativeGasUsed": "0xca9785",
      "logs": [
        {
          "address": "0xe46b8e65006e6450bdd8cb7d3274ab4f76f4c705",
          "topics": [
            "0xe0c2db6b54586be6d7d49943139fccf0dd315ba63e55364a76c73cd8fdba724d",
            "0x000000000000000000000000d7e38800201d6a42c408bf79d8723740c4e7f631"
          ],
          "data": "0x000000000000000000000000000000000000000000000000000000000000002000000000000000000000000000000000000000000000000000000000000000034c8c4dc9d93756111b914027d6e712aed1d3d0fa57b26332b476b245723a6b6ef5851e3064736fe04791d094f24bfb1cb1890d402ab66c0c7657edc9f5a64a4a869861f50ecec64d1a75a24ebb118071c5e60122ee263e4ad44546d762c818f9",
          "blockHash": "0x1df86a5342c76ce479e1e8c1420c7f2e5d4ddf9e94244f4e3096592f9cb96998",
          "blockNumber": "0x2e7d192",
          "transactionHash": "0xfea18864a175054050de376425a23aab8cca26df36f738db13f17b0957807028",
          "transactionIndex": "0x79",
          "logIndex": "0x1cc",
          "removed": false
        }
      ],
      "logsBloom": "0x00000000000000000000000000000000000000000000000000000000000000000002080000000000000000000000000000000000000000000000000000000000000000000000000000000000002000000000000000000000000000000000008000000000000000000000000000000000000000000000000000000000000000000000000000000000000000000000000000000000000000000000080000040000000000000000000000000000000000000000000000000000000000000000000000000000000000000000000000000000000000000000000000000000000000000080000000000000000000000000040000000000000000000000000000010000",
      "type": "0x0",
      "transactionHash": "0xfea18864a175054050de376425a23aab8cca26df36f738db13f17b0957807028",
      "transactionIndex": "0x79",
      "blockHash": "0x1df86a5342c76ce479e1e8c1420c7f2e5d4ddf9e94244f4e3096592f9cb96998",
      "blockNumber": "0x2e7d192",
      "gasUsed": "0xc25f",
      "effectiveGasPrice": "0x3b9aca00",
      "from": "0xd7e38800201d6a42c408bf79d8723740c4e7f631",
      "to": "0xe46b8e65006e6450bdd8cb7d3274ab4f76f4c705",
      "contractAddress": null
    }
  ],
  "libraries": [],
  "pending": [],
  "returns": {},
  "timestamp": 1745823058,
  "chain": 56,
  "commit": "2d7c695"
}