{
  "transactions": [
    {
      "hash": "0xa9aa30b2b66de2903b730dd9afb44928646c28eae7f74fe4363ff1671e2ede38",
      "transactionType": "CALL",
      "contractName": null,
      "contractAddress": "0x6d6783c146f2b0b2774c1725297f1845dc502525",
      "function": "setFeeRecipient(address)",
      "arguments": [
        "0x2E2Eed557FAb1d2E11fEA1E1a23FF8f1b23551f3"
      ],
      "transaction": {
        "from": "0xd7e38800201d6a42c408bf79d8723740c4e7f631",
        "to": "0x6d6783c146f2b0b2774c1725297f1845dc502525",
        "gas": "0x14643",
        "value": "0x0",
        "input": "0xe74b981b0000000000000000000000002e2eed557fab1d2e11fea1e1a23ff8f1b23551f3",
        "nonce": "0x118",
        "chainId": "0x38"
      },
      "additionalContracts": [],
      "isFixedGasLimit": false
    },
    {
      "hash": "0xed07a182ab2dbbf0baaec69ef23e09dd0e7541f7774101dd947696b3685db5fa",
      "transactionType": "CALL",
      "contractName": null,
      "contractAddress": "0x6d6783c146f2b0b2774c1725297f1845dc502525",
      "function": "setSkimRecipient(address)",
      "arguments": [
        "0x1d60bBBEF79Fb9540D271Dbb01925380323A8f66"
      ],
      "transaction": {
        "from": "0xd7e38800201d6a42c408bf79d8723740c4e7f631",
        "to": "0x6d6783c146f2b0b2774c1725297f1845dc502525",
        "gas": "0x119d0",
        "value": "0x0",
        "input": "0x2b30997b0000000000000000000000001d60bbbef79fb9540d271dbb01925380323a8f66",
        "nonce": "0x119",
        "chainId": "0x38"
      },
      "additionalContracts": [],
      "isFixedGasLimit": false
    },
    {
      "hash": "0x6f80073b51513e828ae00b45607ad02c9c1357ab44a9fe9c3a73c5fc24bffefd",
      "transactionType": "CALL",
      "contractName": null,
      "contractAddress": "0x6d6783c146f2b0b2774c1725297f1845dc502525",
      "function": "grantRole(bytes32,address)",
      "arguments": [
        "0x0aec9b08bc8c2cb62a91f52d33e3d77da4b3f3a63fc8b542a93abe3902ba929c",
        "0xd7e38800201D6a42C408Bf79d8723740C4E7f631"
      ],
      "transaction": {
        "from": "0xd7e38800201d6a42c408bf79d8723740c4e7f631",
        "to": "0x6d6783c146f2b0b2774c1725297f1845dc502525",
        "gas": "0x29a01",
        "value": "0x0",
        "input": "0x2f2ff15d0aec9b08bc8c2cb62a91f52d33e3d77da4b3f3a63fc8b542a93abe3902ba929c000000000000000000000000d7e38800201d6a42c408bf79d8723740c4e7f631",
        "nonce": "0x11a",
        "chainId": "0x38"
      },
      "additionalContracts": [],
      "isFixedGasLimit": false
    },
    {
      "hash": "0xf72c058ebcc2aecb167bd5cb7a658c15f8d8c6fdd18fa331a0c497e24bad75e3",
      "transactionType": "CALL",
      "contractName": null,
      "contractAddress": "0x6d6783c146f2b0b2774c1725297f1845dc502525",
      "function": "grantRole(bytes32,address)",
      "arguments": [
        "0xdcac51f5d253e2787a458cfb1d6b8faf248cf16367710f9e3b6bd5644d23f8db",
        "0xd7e38800201D6a42C408Bf79d8723740C4E7f631"
      ],
      "transaction": {
        "from": "0xd7e38800201d6a42c408bf79d8723740c4e7f631",
        "to": "0x6d6783c146f2b0b2774c1725297f1845dc502525",
        "gas": "0x29a01",
        "value": "0x0",
        "input": "0x2f2ff15ddcac51f5d253e2787a458cfb1d6b8faf248cf16367710f9e3b6bd5644d23f8db000000000000000000000000d7e38800201d6a42c408bf79d8723740c4e7f631",
        "nonce": "0x11b",
        "chainId": "0x38"
      },
      "additionalContracts": [],
      "isFixedGasLimit": false
    },
    {
      "hash": "0xb8b7bfae11d1dc71aa49679d48e61aca5b9ae9cc808031a87d9a703ded79b685",
      "transactionType": "CALL",
      "contractName": null,
      "contractAddress": "0x6d6783c146f2b0b2774c1725297f1845dc502525",
      "function": "setBotRole(address)",
      "arguments": [
        "0x91fC4BA20685339781888eCA3E9E1c12d40F0e13"
      ],
      "transaction": {
        "from": "0xd7e38800201d6a42c408bf79d8723740c4e7f631",
        "to": "0x6d6783c146f2b0b2774c1725297f1845dc502525",
        "gas": "0x2b322",
        "value": "0x0",
        "input": "0x74db459800000000000000000000000091fc4ba20685339781888eca3e9e1c12d40f0e13",
        "nonce": "0x11c",
        "chainId": "0x38"
      },
      "additionalContracts": [],
      "isFixedGasLimit": false
    },
    {
      "hash": "0xc16b8f22566417bde69515ce427ce139f75297f2c9e1fa811ae621caa8b8677c",
      "transactionType": "CALL",
      "contractName": null,
      "contractAddress": "0x6d6783c146f2b0b2774c1725297f1845dc502525",
      "function": "setFee(uint256)",
      "arguments": [
        "100000000000000000"
      ],
      "transaction": {
        "from": "0xd7e38800201d6a42c408bf79d8723740c4e7f631",
        "to": "0x6d6783c146f2b0b2774c1725297f1845dc502525",
        "gas": "0xe644",
        "value": "0x0",
        "input": "0x69fe0e2d000000000000000000000000000000000000000000000000016345785d8a0000",
        "nonce": "0x11d",
        "chainId": "0x38"
      },
      "additionalContracts": [],
      "isFixedGasLimit": false
    },
    {
      "hash": "0xb68b093d8f911f5c3478d343ecf69e859628c40c4169e15257576b729e981440",
      "transactionType": "CALL",
      "contractName": null,
      "contractAddress": "0x6d6783c146f2b0b2774c1725297f1845dc502525",
      "function": "setCap((address,address,address,address,uint256),uint256)",
      "arguments": [
        "(0x55d398326f99059fF775485246999027B3197955, 0x7130d2A12B9BCbFAe4f2634d864A1Ee1Ce3Ead9c, 0xf3afD82A4071f272F403dC176916141f44E6c750, 0xFe7dAe87Ebb11a7BEB9F534BB23267992d9cDe7c, 800000000000000000)",
        "20000000000000000000000000"
      ],
      "transaction": {
        "from": "0xd7e38800201d6a42c408bf79d8723740c4e7f631",
        "to": "0x6d6783c146f2b0b2774c1725297f1845dc502525",
        "gas": "0x2d9f7",
        "value": "0x0",
        "input": "0xd3ac290c00000000000000000000000055d398326f99059ff775485246999027b31979550000000000000000000000007130d2a12b9bcbfae4f2634d864a1ee1ce3ead9c000000000000000000000000f3afd82a4071f272f403dc176916141f44e6c750000000000000000000000000fe7dae87ebb11a7beb9f534bb23267992d9cde7c0000000000000000000000000000000000000000000000000b1a2bc2ec500000000000000000000000000000000000000000000000108b2a2c28029094000000",
        "nonce": "0x11e",
        "chainId": "0x38"
      },
      "additionalContracts": [],
      "isFixedGasLimit": false
    },
    {
      "hash": "0x649f5cfc7263f7003a7335b6c451cdc0b4386fe99da7e4561d212aa0b16d7443",
      "transactionType": "CALL",
      "contractName": null,
      "contractAddress": "0x6d6783c146f2b0b2774c1725297f1845dc502525",
      "function": "setCap((address,address,address,address,uint256),uint256)",
      "arguments": [
        "(0x55d398326f99059fF775485246999027B3197955, 0x2170Ed0880ac9A755fd29B2688956BD959F933F8, 0xf3afD82A4071f272F403dC176916141f44E6c750, 0xFe7dAe87Ebb11a7BEB9F534BB23267992d9cDe7c, 800000000000000000)",
        "20000000000000000000000000"
      ],
      "transaction": {
        "from": "0xd7e38800201d6a42c408bf79d8723740c4e7f631",
        "to": "0x6d6783c146f2b0b2774c1725297f1845dc502525",
        "gas": "0x28ad9",
        "value": "0x0",
        "input": "0xd3ac290c00000000000000000000000055d398326f99059ff775485246999027b31979550000000000000000000000002170ed0880ac9a755fd29b2688956bd959f933f8000000000000000000000000f3afd82a4071f272f403dc176916141f44e6c750000000000000000000000000fe7dae87ebb11a7beb9f534bb23267992d9cde7c0000000000000000000000000000000000000000000000000b1a2bc2ec500000000000000000000000000000000000000000000000108b2a2c28029094000000",
        "nonce": "0x11f",
        "chainId": "0x38"
      },
      "additionalContracts": [],
      "isFixedGasLimit": false
    },
    {
      "hash": "0xe489021ab61bcbd283b132cff1c0fc7d6817a111cb36c568364f3189eff01e19",
      "transactionType": "CALL",
      "contractName": null,
      "contractAddress": "0x6d6783c146f2b0b2774c1725297f1845dc502525",
      "function": "setCap((address,address,address,address,uint256),uint256)",
      "arguments": [
        "(0x55d398326f99059fF775485246999027B3197955, 0xbb4CdB9CBd36B01bD1cBaEBF2De08d9173bc095c, 0xf3afD82A4071f272F403dC176916141f44E6c750, 0xFe7dAe87Ebb11a7BEB9F534BB23267992d9cDe7c, 800000000000000000)",
        "20000000000000000000000000"
      ],
      "transaction": {
        "from": "0xd7e38800201d6a42c408bf79d8723740c4e7f631",
        "to": "0x6d6783c146f2b0b2774c1725297f1845dc502525",
        "gas": "0x297fd",
        "value": "0x0",
        "input": "0xd3ac290c00000000000000000000000055d398326f99059ff775485246999027b3197955000000000000000000000000bb4cdb9cbd36b01bd1cbaebf2de08d9173bc095c000000000000000000000000f3afd82a4071f272f403dc176916141f44e6c750000000000000000000000000fe7dae87ebb11a7beb9f534bb23267992d9cde7c0000000000000000000000000000000000000000000000000b1a2bc2ec500000000000000000000000000000000000000000000000108b2a2c28029094000000",
        "nonce": "0x120",
        "chainId": "0x38"
      },
      "additionalContracts": [],
      "isFixedGasLimit": false
    },
    {
      "hash": "0x30f541c13e9d9ac2cfef0afc4a48275dc27f9864bb3d2d3aebeca3acbb8aacec",
      "transactionType": "CALL",
      "contractName": null,
      "contractAddress": "0x6d6783c146f2b0b2774c1725297f1845dc502525",
      "function": "setCap((address,address,address,address,uint256),uint256)",
      "arguments": [
        "(0x55d398326f99059fF775485246999027B3197955, 0xB0b84D294e0C75A6abe60171b70edEb2EFd14A1B, 0x21650E416dC6C89486B2E654c86cC2c36c597b58, 0xFe7dAe87Ebb11a7BEB9F534BB23267992d9cDe7c, 800000000000000000)",
        "20000000000000000000000000"
      ],
      "transaction": {
        "from": "0xd7e38800201d6a42c408bf79d8723740c4e7f631",
        "to": "0x6d6783c146f2b0b2774c1725297f1845dc502525",
        "gas": "0x2a521",
        "value": "0x0",
        "input": "0xd3ac290c00000000000000000000000055d398326f99059ff775485246999027b3197955000000000000000000000000b0b84d294e0c75a6abe60171b70edeb2efd14a1b00000000000000000000000021650e416dc6c89486b2e654c86cc2c36c597b58000000000000000000000000fe7dae87ebb11a7beb9f534bb23267992d9cde7c0000000000000000000000000000000000000000000000000b1a2bc2ec500000000000000000000000000000000000000000000000108b2a2c28029094000000",
        "nonce": "0x121",
        "chainId": "0x38"
      },
      "additionalContracts": [],
      "isFixedGasLimit": false
    },
    {
      "hash": "0xfd688e72e0c0b9d54ba05773c9651a610489e7bab0d4017110dd0c3043d94415",
      "transactionType": "CALL",
      "contractName": null,
      "contractAddress": "0x6d6783c146f2b0b2774c1725297f1845dc502525",
      "function": "setSupplyQueue(bytes32[])",
      "arguments": [
        "[0x975f4cf3db16812d995f60e19bec91a96108d47429237acc8d208bc0519c5b19, 0x98736236a21390ea3697d1776974c4adcd7d8fe2961c9296cb744c3627b8b349, 0xe2fac994ce98526fbc986a2f3877efddd114a09f790d679eb1cd978c3e050e55, 0x6350ccd3fe864c1c750f2b5d99b81d1fd712250a650808d2f6e17651b1047e37]"
      ],
      "transaction": {
        "from": "0xd7e38800201d6a42c408bf79d8723740c4e7f631",
        "to": "0x6d6783c146f2b0b2774c1725297f1845dc502525",
        "gas": "0x340d3",
        "value": "0x0",
        "input": "0x2acc56f900000000000000000000000000000000000000000000000000000000000000200000000000000000000000000000000000000000000000000000000000000004975f4cf3db16812d995f60e19bec91a96108d47429237acc8d208bc0519c5b1998736236a21390ea3697d1776974c4adcd7d8fe2961c9296cb744c3627b8b349e2fac994ce98526fbc986a2f3877efddd114a09f790d679eb1cd978c3e050e556350ccd3fe864c1c750f2b5d99b81d1fd712250a650808d2f6e17651b1047e37",
        "nonce": "0x122",
        "chainId": "0x38"
      },
      "additionalContracts": [],
      "isFixedGasLimit": false
    },
    {
      "hash": "0x5faaebf7c3d47e5663a8a0c19e1b1069a6e51f7b3615edcac9313d1b27ff2b6b",
      "transactionType": "CALL",
      "contractName": null,
      "contractAddress": "0x6d6783c146f2b0b2774c1725297f1845dc502525",
      "function": "updateWithdrawQueue(uint256[])",
      "arguments": [
        "[3, 2, 1, 0]"
      ],
      "transaction": {
        "from": "0xd7e38800201d6a42c408bf79d8723740c4e7f631",
        "to": "0x6d6783c146f2b0b2774c1725297f1845dc502525",
        "gas": "0x13ffe",
        "value": "0x0",
        "input": "0x41b67833000000000000000000000000000000000000000000000000000000000000002000000000000000000000000000000000000000000000000000000000000000040000000000000000000000000000000000000000000000000000000000000003000000000000000000000000000000000000000000000000000000000000000200000000000000000000000000000000000000000000000000000000000000010000000000000000000000000000000000000000000000000000000000000000",
        "nonce": "0x123",
        "chainId": "0x38"
      },
      "additionalContracts": [],
      "isFixedGasLimit": false
    }
  ],
  "receipts": [
    {
      "status": "0x1",
      "cumulativeGasUsed": "0x8fe0a0",
      "logs": [
        {
          "address": "0x6d6783c146f2b0b2774c1725297f1845dc502525",
          "topics": [
            "0xf66f28b40975dbb933913542c7e6a0f50a1d0f20aa74ea6e0efe65ab616323ec"
          ],
          "data": "0x00000000000000000000000000000000000000000000000000000000000000000000000000000000000000000000000000000000000000000000000000000000",
          "blockHash": "0x980bb6d3e55dffd8943212f19bf0517f3d1da58a47eb7be0a3577a83f8275436",
          "blockNumber": "0x2ef395f",
          "transactionHash": "0xa9aa30b2b66de2903b730dd9afb44928646c28eae7f74fe4363ff1671e2ede38",
          "transactionIndex": "0x50",
          "logIndex": "0x139",
          "removed": false
        },
        {
          "address": "0x6d6783c146f2b0b2774c1725297f1845dc502525",
          "topics": [
            "0x15c027cc4fd826d986cad358803439f7326d3aa4ed969ff90dbee4bc150f68e9"
          ],
          "data": "0x0000000000000000000000000000000000000000000000000000000000000000",
          "blockHash": "0x980bb6d3e55dffd8943212f19bf0517f3d1da58a47eb7be0a3577a83f8275436",
          "blockNumber": "0x2ef395f",
          "transactionHash": "0xa9aa30b2b66de2903b730dd9afb44928646c28eae7f74fe4363ff1671e2ede38",
          "transactionIndex": "0x50",
          "logIndex": "0x13a",
          "removed": false
        },
        {
          "address": "0x6d6783c146f2b0b2774c1725297f1845dc502525",
          "topics": [
            "0x2e979f80fe4d43055c584cf4a8467c55875ea36728fc37176c05acd784eb7a73",
            "0x0000000000000000000000002e2eed557fab1d2e11fea1e1a23ff8f1b23551f3"
          ],
          "data": "0x",
          "blockHash": "0x980bb6d3e55dffd8943212f19bf0517f3d1da58a47eb7be0a3577a83f8275436",
          "blockNumber": "0x2ef395f",
          "transactionHash": "0xa9aa30b2b66de2903b730dd9afb44928646c28eae7f74fe4363ff1671e2ede38",
          "transactionIndex": "0x50",
          "logIndex": "0x13b",
          "removed": false
        }
      ],
      "logsBloom": "0x00000000000000000000000000000000000000000000000000000000000000000000000000000000000000000000000000000000000000000000000000001200000000000000000000000000000000000000000000000000000000000000000000000000000000000000000000000000000000000000002000000000000000000008000000000000000000000000000000000012000000000020000000000400040000000020010000000000000000000000100004000000000000000000000000000000000000000000000000000000000000000000000000000000000000010000000000000000000000000000000000000000000000000000000000000000",
      "type": "0x0",
      "transactionHash": "0xa9aa30b2b66de2903b730dd9afb44928646c28eae7f74fe4363ff1671e2ede38",
      "transactionIndex": "0x50",
      "blockHash": "0x980bb6d3e55dffd8943212f19bf0517f3d1da58a47eb7be0a3577a83f8275436",
      "blockNumber": "0x2ef395f",
      "gasUsed": "0xec36",
      "effectiveGasPrice": "0x3b9aca00",
      "from": "0xd7e38800201d6a42c408bf79d8723740c4e7f631",
      "to": "0x6d6783c146f2b0b2774c1725297f1845dc502525",
      "contractAddress": null
    },
    {
      "status": "0x1",
      "cumulativeGasUsed": "0x90aca8",
      "logs": [
        {
          "address": "0x6d6783c146f2b0b2774c1725297f1845dc502525",
          "topics": [
            "0x2e7908865670e21b9779422cadf5f1cba271a62bb95c71eaaf615c0a1c48ebee",
            "0x0000000000000000000000001d60bbbef79fb9540d271dbb01925380323a8f66"
          ],
          "data": "0x",
          "blockHash": "0x980bb6d3e55dffd8943212f19bf0517f3d1da58a47eb7be0a3577a83f8275436",
          "blockNumber": "0x2ef395f",
          "transactionHash": "0xed07a182ab2dbbf0baaec69ef23e09dd0e7541f7774101dd947696b3685db5fa",
          "transactionIndex": "0x51",
          "logIndex": "0x13c",
          "removed": false
        }
      ],
      "logsBloom": "0x00000000000000000000000000000000000000000000000000000000040000000000000000000000000000000000000000000000000000000000000040001200000000000000000000000000000000000000000000000000000000000000000000000000080000000000000000000000000000000000000000080000000000000000000000000000000000000000000000000002000000000000000000000000000000000000000000000000000000000000000000100000000000000000000000000000000000000000000000000000000000000000000000000000000000000000000000080000000000000000000000000000000000000000000000000000",
      "type": "0x0",
      "transactionHash": "0xed07a182ab2dbbf0baaec69ef23e09dd0e7541f7774101dd947696b3685db5fa",
      "transactionIndex": "0x51",
      "blockHash": "0x980bb6d3e55dffd8943212f19bf0517f3d1da58a47eb7be0a3577a83f8275436",
      "blockNumber": "0x2ef395f",
      "gasUsed": "0xcc08",
      "effectiveGasPrice": "0x3b9aca00",
      "from": "0xd7e38800201d6a42c408bf79d8723740c4e7f631",
      "to": "0x6d6783c146f2b0b2774c1725297f1845dc502525",
      "contractAddress": null
    },
    {
      "status": "0x1",
      "cumulativeGasUsed": "0x928ed6",
      "logs": [
        {
          "address": "0x6d6783c146f2b0b2774c1725297f1845dc502525",
          "topics": [
            "0x2f8788117e7eff1d82e926ec794901d17c78024a50270940304540a733656f0d",
            "0x0aec9b08bc8c2cb62a91f52d33e3d77da4b3f3a63fc8b542a93abe3902ba929c",
            "0x000000000000000000000000d7e38800201d6a42c408bf79d8723740c4e7f631",
            "0x000000000000000000000000d7e38800201d6a42c408bf79d8723740c4e7f631"
          ],
          "data": "0x",
          "blockHash": "0x980bb6d3e55dffd8943212f19bf0517f3d1da58a47eb7be0a3577a83f8275436",
          "blockNumber": "0x2ef395f",
          "transactionHash": "0x6f80073b51513e828ae00b45607ad02c9c1357ab44a9fe9c3a73c5fc24bffefd",
          "transactionIndex": "0x52",
          "logIndex": "0x13d",
          "removed": false
        }
      ],
      "logsBloom": "0x00000004000000000000000000000000000000000000000000000000000000000000000000000000000000000000000000000000000000000000000000001200000000000000000000000000002000000000000000000000000000000000000000000000000000000000000000000100000000000000000000040000000000000000000000000000000000000000000000000002000000000000000000040000000000000000000000000000000000000000000000000000001000000000000000000000000000000000000000000100000000000000000100000000000000000080000000000000000000000000000000000000000000000000000000000000",
      "type": "0x0",
      "transactionHash": "0x6f80073b51513e828ae00b45607ad02c9c1357ab44a9fe9c3a73c5fc24bffefd",
      "transactionIndex": "0x52",
      "blockHash": "0x980bb6d3e55dffd8943212f19bf0517f3d1da58a47eb7be0a3577a83f8275436",
      "blockNumber": "0x2ef395f",
      "gasUsed": "0x1e22e",
      "effectiveGasPrice": "0x3b9aca00",
      "from": "0xd7e38800201d6a42c408bf79d8723740c4e7f631",
      "to": "0x6d6783c146f2b0b2774c1725297f1845dc502525",
      "contractAddress": null
    },
    {
      "status": "0x1",
      "cumulativeGasUsed": "0x947104",
      "logs": [
        {
          "address": "0x6d6783c146f2b0b2774c1725297f1845dc502525",
          "topics": [
            "0x2f8788117e7eff1d82e926ec794901d17c78024a50270940304540a733656f0d",
            "0xdcac51f5d253e2787a458cfb1d6b8faf248cf16367710f9e3b6bd5644d23f8db",
            "0x000000000000000000000000d7e38800201d6a42c408bf79d8723740c4e7f631",
            "0x000000000000000000000000d7e38800201d6a42c408bf79d8723740c4e7f631"
          ],
          "data": "0x",
          "blockHash": "0x980bb6d3e55dffd8943212f19bf0517f3d1da58a47eb7be0a3577a83f8275436",
          "blockNumber": "0x2ef395f",
          "transactionHash": "0xf72c058ebcc2aecb167bd5cb7a658c15f8d8c6fdd18fa331a0c497e24bad75e3",
          "transactionIndex": "0x53",
          "logIndex": "0x13e",
          "removed": false
        }
      ],
      "logsBloom": "0x00000004400000000000000000000000000000000000000000000000000000000000000000000000000000000000000000000000000000000000000000001200000000000000000000000008002000000000000000000000000000000000000000000000000000000000000000000000000000000000000000000000000000000000000000000000000000000000000000000002000000000000000000040000000000000000000000000000000000000000000000000000001000000000000000000000000000000000000000000000000000000000000100000000000000000080000000000000000000000400000000000000000000000000000000000000",
      "type": "0x0",
      "transactionHash": "0xf72c058ebcc2aecb167bd5cb7a658c15f8d8c6fdd18fa331a0c497e24bad75e3",
      "transactionIndex": "0x53",
      "blockHash": "0x980bb6d3e55dffd8943212f19bf0517f3d1da58a47eb7be0a3577a83f8275436",
      "blockNumber": "0x2ef395f",
      "gasUsed": "0x1e22e",
      "effectiveGasPrice": "0x3b9aca00",
      "from": "0xd7e38800201d6a42c408bf79d8723740c4e7f631",
      "to": "0x6d6783c146f2b0b2774c1725297f1845dc502525",
      "contractAddress": null
    },
    {
      "status": "0x1",
      "cumulativeGasUsed": "0x964996",
      "logs": [
        {
          "address": "0x6d6783c146f2b0b2774c1725297f1845dc502525",
          "topics": [
            "0x2f8788117e7eff1d82e926ec794901d17c78024a50270940304540a733656f0d",
            "0x902cbe3a02736af9827fb6a90bada39e955c0941e08f0c63b3a662a7b17a4e2b",
            "0x00000000000000000000000091fc4ba20685339781888eca3e9e1c12d40f0e13",
            "0x000000000000000000000000d7e38800201d6a42c408bf79d8723740c4e7f631"
          ],
          "data": "0x",
          "blockHash": "0x980bb6d3e55dffd8943212f19bf0517f3d1da58a47eb7be0a3577a83f8275436",
          "blockNumber": "0x2ef395f",
          "transactionHash": "0xb8b7bfae11d1dc71aa49679d48e61aca5b9ae9cc808031a87d9a703ded79b685",
          "transactionIndex": "0x54",
          "logIndex": "0x13f",
          "removed": false
        }
      ],
      "logsBloom": "0x00000004000000000000000000000000000000000000000000000000000000000000200000000000000000080000000000000000000000000000000000001200000000000000000000000000002000000000000000000000000000000000000000000000000000000000000000000000000000000000000000000000000000000000000000000000000000000000000000000002000000000000000000040000000000000000000000000040000000000000000000000000001000000000000000000000008000000040000000000000000000000000000100000000000000000080000800000000000000000000000000000000000000000000000000000000",
      "type": "0x0",
      "transactionHash": "0xb8b7bfae11d1dc71aa49679d48e61aca5b9ae9cc808031a87d9a703ded79b685",
      "transactionIndex": "0x54",
      "blockHash": "0x980bb6d3e55dffd8943212f19bf0517f3d1da58a47eb7be0a3577a83f8275436",
      "blockNumber": "0x2ef395f",
      "gasUsed": "0x1d892",
      "effectiveGasPrice": "0x3b9aca00",
      "from": "0xd7e38800201d6a42c408bf79d8723740c4e7f631",
      "to": "0x6d6783c146f2b0b2774c1725297f1845dc502525",
      "contractAddress": null
    },
    {
      "status": "0x1",
      "cumulativeGasUsed": "0x96f04c",
      "logs": [
        {
          "address": "0x6d6783c146f2b0b2774c1725297f1845dc502525",
          "topics": [
            "0xf66f28b40975dbb933913542c7e6a0f50a1d0f20aa74ea6e0efe65ab616323ec"
          ],
          "data": "0x00000000000000000000000000000000000000000000000000000000000000000000000000000000000000000000000000000000000000000000000000000000",
          "blockHash": "0x980bb6d3e55dffd8943212f19bf0517f3d1da58a47eb7be0a3577a83f8275436",
          "blockNumber": "0x2ef395f",
          "transactionHash": "0xc16b8f22566417bde69515ce427ce139f75297f2c9e1fa811ae621caa8b8677c",
          "transactionIndex": "0x55",
          "logIndex": "0x140",
          "removed": false
        },
        {
          "address": "0x6d6783c146f2b0b2774c1725297f1845dc502525",
          "topics": [
            "0x15c027cc4fd826d986cad358803439f7326d3aa4ed969ff90dbee4bc150f68e9"
          ],
          "data": "0x0000000000000000000000000000000000000000000000000000000000000000",
          "blockHash": "0x980bb6d3e55dffd8943212f19bf0517f3d1da58a47eb7be0a3577a83f8275436",
          "blockNumber": "0x2ef395f",
          "transactionHash": "0xc16b8f22566417bde69515ce427ce139f75297f2c9e1fa811ae621caa8b8677c",
          "transactionIndex": "0x55",
          "logIndex": "0x141",
          "removed": false
        },
        {
          "address": "0x6d6783c146f2b0b2774c1725297f1845dc502525",
          "topics": [
            "0x01fe2943baee27f47add82886c2200f910c749c461c9b63c5fe83901a53bdb49",
            "0x000000000000000000000000d7e38800201d6a42c408bf79d8723740c4e7f631"
          ],
          "data": "0x000000000000000000000000000000000000000000000000016345785d8a0000",
          "blockHash": "0x980bb6d3e55dffd8943212f19bf0517f3d1da58a47eb7be0a3577a83f8275436",
          "blockNumber": "0x2ef395f",
          "transactionHash": "0xc16b8f22566417bde69515ce427ce139f75297f2c9e1fa811ae621caa8b8677c",
          "transactionIndex": "0x55",
          "logIndex": "0x142",
          "removed": false
        }
      ],
      "logsBloom": "0x00000000000000000000000000000000000000000000000000000000000000000000000000000000000000000000000002000000000000000000000000001200000000000000000000010000002000000000000000000000000000000000000000000000000000000000000000000000000000000000000000000000000000000008000000000000000000000000000000000002000040000020000000040400000000000020000000000000000000000000100004000000000000000000000000000000000000000000000000000000000000000000000000000000000000000080000000000000000000000000000000000000000000000000000000000000",
      "type": "0x0",
      "transactionHash": "0xc16b8f22566417bde69515ce427ce139f75297f2c9e1fa811ae621caa8b8677c",
      "transactionIndex": "0x55",
      "blockHash": "0x980bb6d3e55dffd8943212f19bf0517f3d1da58a47eb7be0a3577a83f8275436",
      "blockNumber": "0x2ef395f",
      "gasUsed": "0xa6b6",
      "effectiveGasPrice": "0x3b9aca00",
      "from": "0xd7e38800201d6a42c408bf79d8723740c4e7f631",
      "to": "0x6d6783c146f2b0b2774c1725297f1845dc502525",
      "contractAddress": null
    },
    {
      "status": "0x1",
      "cumulativeGasUsed": "0x9900c8",
      "logs": [
        {
          "address": "0x6d6783c146f2b0b2774c1725297f1845dc502525",
          "topics": [
            "0x15c027cc4fd826d986cad358803439f7326d3aa4ed969ff90dbee4bc150f68e9"
          ],
          "data": "0x0000000000000000000000000000000000000000000000000000000000000000",
          "blockHash": "0x980bb6d3e55dffd8943212f19bf0517f3d1da58a47eb7be0a3577a83f8275436",
          "blockNumber": "0x2ef395f",
          "transactionHash": "0xb68b093d8f911f5c3478d343ecf69e859628c40c4169e15257576b729e981440",
          "transactionIndex": "0x56",
          "logIndex": "0x143",
          "removed": false
        },
        {
          "address": "0x6d6783c146f2b0b2774c1725297f1845dc502525",
          "topics": [
            "0xe0c2db6b54586be6d7d49943139fccf0dd315ba63e55364a76c73cd8fdba724d",
            "0x000000000000000000000000d7e38800201d6a42c408bf79d8723740c4e7f631"
          ],
          "data": "0x00000000000000000000000000000000000000000000000000000000000000200000000000000000000000000000000000000000000000000000000000000001975f4cf3db16812d995f60e19bec91a96108d47429237acc8d208bc0519c5b19",
          "blockHash": "0x980bb6d3e55dffd8943212f19bf0517f3d1da58a47eb7be0a3577a83f8275436",
          "blockNumber": "0x2ef395f",
          "transactionHash": "0xb68b093d8f911f5c3478d343ecf69e859628c40c4169e15257576b729e981440",
          "transactionIndex": "0x56",
          "logIndex": "0x144",
          "removed": false
        },
        {
          "address": "0x6d6783c146f2b0b2774c1725297f1845dc502525",
          "topics": [
            "0xe86b6d3313d3098f4c5f689c935de8fde876a597c185def2cedab85efedac686",
            "0x000000000000000000000000d7e38800201d6a42c408bf79d8723740c4e7f631",
            "0x975f4cf3db16812d995f60e19bec91a96108d47429237acc8d208bc0519c5b19"
          ],
          "data": "0x000000000000000000000000000000000000000000108b2a2c28029094000000",
          "blockHash": "0x980bb6d3e55dffd8943212f19bf0517f3d1da58a47eb7be0a3577a83f8275436",
          "blockNumber": "0x2ef395f",
          "transactionHash": "0xb68b093d8f911f5c3478d343ecf69e859628c40c4169e15257576b729e981440",
          "transactionIndex": "0x56",
          "logIndex": "0x145",
          "removed": false
        }
      ],
      "logsBloom": "0x00000000200000000000000000000000000000000000000000000000000000000000080000000000000000000000000000000080000000000000000000001200000000000000000000000000002000000000000000000000000000000000000000000000000000000000000000000000004001000000000000001000000000000000000000008000000000000000000000000002000000000020000000040000000000000000000000000000000000000000100004000000000000000000000000000000000000000000000000000000000000000000000000000000000000000080000000000000000000000000040000000000000000000000000000010000",
      "type": "0x0",
      "transactionHash": "0xb68b093d8f911f5c3478d343ecf69e859628c40c4169e15257576b729e981440",
      "transactionIndex": "0x56",
      "blockHash": "0x980bb6d3e55dffd8943212f19bf0517f3d1da58a47eb7be0a3577a83f8275436",
      "blockNumber": "0x2ef395f",
      "gasUsed": "0x2107c",
      "effectiveGasPrice": "0x3b9aca00",
      "from": "0xd7e38800201d6a42c408bf79d8723740c4e7f631",
      "to": "0x6d6783c146f2b0b2774c1725297f1845dc502525",
      "contractAddress": null
    },
    {
      "status": "0x1",
      "cumulativeGasUsed": "0xa3fef0",
      "logs": [
        {
          "address": "0x6d6783c146f2b0b2774c1725297f1845dc502525",
          "topics": [
            "0x15c027cc4fd826d986cad358803439f7326d3aa4ed969ff90dbee4bc150f68e9"
          ],
          "data": "0x0000000000000000000000000000000000000000000000000000000000000000",
          "blockHash": "0x980bb6d3e55dffd8943212f19bf0517f3d1da58a47eb7be0a3577a83f8275436",
          "blockNumber": "0x2ef395f",
          "transactionHash": "0x649f5cfc7263f7003a7335b6c451cdc0b4386fe99da7e4561d212aa0b16d7443",
          "transactionIndex": "0x5d",
          "logIndex": "0x155",
          "removed": false
        },
        {
          "address": "0x6d6783c146f2b0b2774c1725297f1845dc502525",
          "topics": [
            "0xe0c2db6b54586be6d7d49943139fccf0dd315ba63e55364a76c73cd8fdba724d",
            "0x000000000000000000000000d7e38800201d6a42c408bf79d8723740c4e7f631"
          ],
          "data": "0x00000000000000000000000000000000000000000000000000000000000000200000000000000000000000000000000000000000000000000000000000000002975f4cf3db16812d995f60e19bec91a96108d47429237acc8d208bc0519c5b1998736236a21390ea3697d1776974c4adcd7d8fe2961c9296cb744c3627b8b349",
          "blockHash": "0x980bb6d3e55dffd8943212f19bf0517f3d1da58a47eb7be0a3577a83f8275436",
          "blockNumber": "0x2ef395f",
          "transactionHash": "0x649f5cfc7263f7003a7335b6c451cdc0b4386fe99da7e4561d212aa0b16d7443",
          "transactionIndex": "0x5d",
          "logIndex": "0x156",
          "removed": false
        },
        {
          "address": "0x6d6783c146f2b0b2774c1725297f1845dc502525",
          "topics": [
            "0xe86b6d3313d3098f4c5f689c935de8fde876a597c185def2cedab85efedac686",
            "0x000000000000000000000000d7e38800201d6a42c408bf79d8723740c4e7f631",
            "0x98736236a21390ea3697d1776974c4adcd7d8fe2961c9296cb744c3627b8b349"
          ],
          "data": "0x000000000000000000000000000000000000000000108b2a2c28029094000000",
          "blockHash": "0x980bb6d3e55dffd8943212f19bf0517f3d1da58a47eb7be0a3577a83f8275436",
          "blockNumber": "0x2ef395f",
          "transactionHash": "0x649f5cfc7263f7003a7335b6c451cdc0b4386fe99da7e4561d212aa0b16d7443",
          "transactionIndex": "0x5d",
          "logIndex": "0x157",
          "removed": false
        }
      ],
      "logsBloom": "0x00000000000000000000000000000000000000000000080000000000000000000000080000000000000000000000000000000000000000000000000000001200000000000000000000000000002000000000000000000000000000000000000000000000000100000000000000000020004000000000000000001000000000000000000000008000000000000000000000000002000000000020000000040000000000000000000000000000000000000000100004000000000000000000000000000000000000000000000000000000000000000000000000000000000000000080000000000000000000000000040000000000000000000000000000010000",
      "type": "0x0",
      "transactionHash": "0x649f5cfc7263f7003a7335b6c451cdc0b4386fe99da7e4561d212aa0b16d7443",
      "transactionIndex": "0x5d",
      "blockHash": "0x980bb6d3e55dffd8943212f19bf0517f3d1da58a47eb7be0a3577a83f8275436",
      "blockNumber": "0x2ef395f",
      "gasUsed": "0x1d734",
      "effectiveGasPrice": "0x3b9aca00",
      "from": "0xd7e38800201d6a42c408bf79d8723740c4e7f631",
      "to": "0x6d6783c146f2b0b2774c1725297f1845dc502525",
      "contractAddress": null
    },
    {
      "status": "0x1",
      "cumulativeGasUsed": "0xa5dfa8",
      "logs": [
        {
          "address": "0x6d6783c146f2b0b2774c1725297f1845dc502525",
          "topics": [
            "0x15c027cc4fd826d986cad358803439f7326d3aa4ed969ff90dbee4bc150f68e9"
          ],
          "data": "0x0000000000000000000000000000000000000000000000000000000000000000",
          "blockHash": "0x980bb6d3e55dffd8943212f19bf0517f3d1da58a47eb7be0a3577a83f8275436",
          "blockNumber": "0x2ef395f",
          "transactionHash": "0xe489021ab61bcbd283b132cff1c0fc7d6817a111cb36c568364f3189eff01e19",
          "transactionIndex": "0x5e",
          "logIndex": "0x158",
          "removed": false
        },
        {
          "address": "0x6d6783c146f2b0b2774c1725297f1845dc502525",
          "topics": [
            "0xe0c2db6b54586be6d7d49943139fccf0dd315ba63e55364a76c73cd8fdba724d",
            "0x000000000000000000000000d7e38800201d6a42c408bf79d8723740c4e7f631"
          ],
          "data": "0x00000000000000000000000000000000000000000000000000000000000000200000000000000000000000000000000000000000000000000000000000000003975f4cf3db16812d995f60e19bec91a96108d47429237acc8d208bc0519c5b1998736236a21390ea3697d1776974c4adcd7d8fe2961c9296cb744c3627b8b349e2fac994ce98526fbc986a2f3877efddd114a09f790d679eb1cd978c3e050e55",
          "blockHash": "0x980bb6d3e55dffd8943212f19bf0517f3d1da58a47eb7be0a3577a83f8275436",
          "blockNumber": "0x2ef395f",
          "transactionHash": "0xe489021ab61bcbd283b132cff1c0fc7d6817a111cb36c568364f3189eff01e19",
          "transactionIndex": "0x5e",
          "logIndex": "0x159",
          "removed": false
        },
        {
          "address": "0x6d6783c146f2b0b2774c1725297f1845dc502525",
          "topics": [
            "0xe86b6d3313d3098f4c5f689c935de8fde876a597c185def2cedab85efedac686",
            "0x000000000000000000000000d7e38800201d6a42c408bf79d8723740c4e7f631",
            "0xe2fac994ce98526fbc986a2f3877efddd114a09f790d679eb1cd978c3e050e55"
          ],
          "data": "0x000000000000000000000000000000000000000000108b2a2c28029094000000",
          "blockHash": "0x980bb6d3e55dffd8943212f19bf0517f3d1da58a47eb7be0a3577a83f8275436",
          "blockNumber": "0x2ef395f",
          "transactionHash": "0xe489021ab61bcbd283b132cff1c0fc7d6817a111cb36c568364f3189eff01e19",
          "transactionIndex": "0x5e",
          "logIndex": "0x15a",
          "removed": false
        }
      ],
      "logsBloom": "0x00000000000000000000000000000000000000000000000000000000000000000000080000000000000000000000000000000000000000000000000000001200000000002000000000000000002000000000000000000000000000000000000000000000000000000000000000000000006000000000000000001000000000000000000000008000000000000000000000000002000000000020000000040000000000000000000000000000000000000000100004000000000000000000000000000000000000000000000000000000000000000000000000000000000000000080000000000000000000000000040004000000000000000000000000010000",
      "type": "0x0",
      "transactionHash": "0xe489021ab61bcbd283b132cff1c0fc7d6817a111cb36c568364f3189eff01e19",
      "transactionIndex": "0x5e",
      "blockHash": "0x980bb6d3e55dffd8943212f19bf0517f3d1da58a47eb7be0a3577a83f8275436",
      "blockNumber": "0x2ef395f",
      "gasUsed": "0x1e0b8",
      "effectiveGasPrice": "0x3b9aca00",
      "from": "0xd7e38800201d6a42c408bf79d8723740c4e7f631",
      "to": "0x6d6783c146f2b0b2774c1725297f1845dc502525",
      "contractAddress": null
    },
    {
      "status": "0x1",
      "cumulativeGasUsed": "0xa7c9e4",
      "logs": [
        {
          "address": "0x6d6783c146f2b0b2774c1725297f1845dc502525",
          "topics": [
            "0x15c027cc4fd826d986cad358803439f7326d3aa4ed969ff90dbee4bc150f68e9"
          ],
          "data": "0x0000000000000000000000000000000000000000000000000000000000000000",
          "blockHash": "0x980bb6d3e55dffd8943212f19bf0517f3d1da58a47eb7be0a3577a83f8275436",
          "blockNumber": "0x2ef395f",
          "transactionHash": "0x30f541c13e9d9ac2cfef0afc4a48275dc27f9864bb3d2d3aebeca3acbb8aacec",
          "transactionIndex": "0x5f",
          "logIndex": "0x15b",
          "removed": false
        },
        {
          "address": "0x6d6783c146f2b0b2774c1725297f1845dc502525",
          "topics": [
            "0xe0c2db6b54586be6d7d49943139fccf0dd315ba63e55364a76c73cd8fdba724d",
            "0x000000000000000000000000d7e38800201d6a42c408bf79d8723740c4e7f631"
          ],
          "data": "0x00000000000000000000000000000000000000000000000000000000000000200000000000000000000000000000000000000000000000000000000000000004975f4cf3db16812d995f60e19bec91a96108d47429237acc8d208bc0519c5b1998736236a21390ea3697d1776974c4adcd7d8fe2961c9296cb744c3627b8b349e2fac994ce98526fbc986a2f3877efddd114a09f790d679eb1cd978c3e050e556350ccd3fe864c1c750f2b5d99b81d1fd712250a650808d2f6e17651b1047e37",
          "blockHash": "0x980bb6d3e55dffd8943212f19bf0517f3d1da58a47eb7be0a3577a83f8275436",
          "blockNumber": "0x2ef395f",
          "transactionHash": "0x30f541c13e9d9ac2cfef0afc4a48275dc27f9864bb3d2d3aebeca3acbb8aacec",
          "transactionIndex": "0x5f",
          "logIndex": "0x15c",
          "removed": false
        },
        {
          "address": "0x6d6783c146f2b0b2774c1725297f1845dc502525",
          "topics": [
            "0xe86b6d3313d3098f4c5f689c935de8fde876a597c185def2cedab85efedac686",
            "0x000000000000000000000000d7e38800201d6a42c408bf79d8723740c4e7f631",
            "0x6350ccd3fe864c1c750f2b5d99b81d1fd712250a650808d2f6e17651b1047e37"
          ],
          "data": "0x000000000000000000000000000000000000000000108b2a2c28029094000000",
          "blockHash": "0x980bb6d3e55dffd8943212f19bf0517f3d1da58a47eb7be0a3577a83f8275436",
          "blockNumber": "0x2ef395f",
          "transactionHash": "0x30f541c13e9d9ac2cfef0afc4a48275dc27f9864bb3d2d3aebeca3acbb8aacec",
          "transactionIndex": "0x5f",
          "logIndex": "0x15d",
          "removed": false
        }
      ],
      "logsBloom": "0x00000000000000000000000000000000000000000000000000000000000000000000080000000000000000000000000000000000000000000000000000001200000000000000000000000000002000000000000000000000000000000010000000000000000000000000000000000000004000000000000000001000000000000000000000008000000000000000000000000002000000000020000000040000000000000000000000000000000000000000100004000040000000000000000000000000000000000000000000000000000000000000000000000040000000000080000000000000000000000000040000000000000000000000000000010000",
      "type": "0x0",
      "transactionHash": "0x30f541c13e9d9ac2cfef0afc4a48275dc27f9864bb3d2d3aebeca3acbb8aacec",
      "transactionIndex": "0x5f",
      "blockHash": "0x980bb6d3e55dffd8943212f19bf0517f3d1da58a47eb7be0a3577a83f8275436",
      "blockNumber": "0x2ef395f",
      "gasUsed": "0x1ea3c",
      "effectiveGasPrice": "0x3b9aca00",
      "from": "0xd7e38800201d6a42c408bf79d8723740c4e7f631",
      "to": "0x6d6783c146f2b0b2774c1725297f1845dc502525",
      "contractAddress": null
    },
    {
      "status": "0x1",
      "cumulativeGasUsed": "0xaa24d8",
      "logs": [
        {
          "address": "0x6d6783c146f2b0b2774c1725297f1845dc502525",
          "topics": [
            "0x6ce31538fc7fba95714ddc8a275a09252b4b1fb8f33d2550aa58a5f62ad934de",
            "0x000000000000000000000000d7e38800201d6a42c408bf79d8723740c4e7f631"
          ],
          "data": "0x00000000000000000000000000000000000000000000000000000000000000200000000000000000000000000000000000000000000000000000000000000004975f4cf3db16812d995f60e19bec91a96108d47429237acc8d208bc0519c5b1998736236a21390ea3697d1776974c4adcd7d8fe2961c9296cb744c3627b8b349e2fac994ce98526fbc986a2f3877efddd114a09f790d679eb1cd978c3e050e556350ccd3fe864c1c750f2b5d99b81d1fd712250a650808d2f6e17651b1047e37",
          "blockHash": "0x980bb6d3e55dffd8943212f19bf0517f3d1da58a47eb7be0a3577a83f8275436",
          "blockNumber": "0x2ef395f",
          "transactionHash": "0xfd688e72e0c0b9d54ba05773c9651a610489e7bab0d4017110dd0c3043d94415",
          "transactionIndex": "0x60",
          "logIndex": "0x15e",
          "removed": false
        }
      ],
      "logsBloom": "0x00000000000000000000000000000000000000000000000000000000000000000000000000000000000000000000000000000000000000000000000000001200000000000000000000000000002000000000000000000000000000000040000000000000000000000000000000000000000000000000000000000000000000000000000000000000000000000000000000000002000000000000000000040000000000000000000000000000000000000000000000000000080000000000000000000000000000000000000000000000000000000000000000000000000000000080000000000000000000000000000000000000000000000000020000000000",
      "type": "0x0",
      "transactionHash": "0xfd688e72e0c0b9d54ba05773c9651a610489e7bab0d4017110dd0c3043d94415",
      "transactionIndex": "0x60",
      "blockHash": "0x980bb6d3e55dffd8943212f19bf0517f3d1da58a47eb7be0a3577a83f8275436",
      "blockNumber": "0x2ef395f",
      "gasUsed": "0x25af4",
      "effectiveGasPrice": "0x3b9aca00",
      "from": "0xd7e38800201d6a42c408bf79d8723740c4e7f631",
      "to": "0x6d6783c146f2b0b2774c1725297f1845dc502525",
      "contractAddress": null
    },
    {
      "status": "0x1",
      "cumulativeGasUsed": "0xab0c84",
      "logs": [
        {
          "address": "0x6d6783c146f2b0b2774c1725297f1845dc502525",
          "topics": [
            "0xe0c2db6b54586be6d7d49943139fccf0dd315ba63e55364a76c73cd8fdba724d",
            "0x000000000000000000000000d7e38800201d6a42c408bf79d8723740c4e7f631"
          ],
          "data": "0x000000000000000000000000000000000000000000000000000000000000002000000000000000000000000000000000000000000000000000000000000000046350ccd3fe864c1c750f2b5d99b81d1fd712250a650808d2f6e17651b1047e37e2fac994ce98526fbc986a2f3877efddd114a09f790d679eb1cd978c3e050e5598736236a21390ea3697d1776974c4adcd7d8fe2961c9296cb744c3627b8b349975f4cf3db16812d995f60e19bec91a96108d47429237acc8d208bc0519c5b19",
          "blockHash": "0x980bb6d3e55dffd8943212f19bf0517f3d1da58a47eb7be0a3577a83f8275436",
          "blockNumber": "0x2ef395f",
          "transactionHash": "0x5faaebf7c3d47e5663a8a0c19e1b1069a6e51f7b3615edcac9313d1b27ff2b6b",
          "transactionIndex": "0x61",
          "logIndex": "0x15f",
          "removed": false
        }
      ],
      "logsBloom": "0x00000000000000000000000000000000000000000000000000000000000000000000080000000000000000000000000000000000000000000000000000001200000000000000000000000000002000000000000000000000000000000000000000000000000000000000000000000000000000000000000000000000000000000000000000000000000000000000000000000002000000000000000000040000000000000000000000000000000000000000000000000000000000000000000000000000000000000000000000000000000000000000000000000000000000000080000000000000000000000000040000000000000000000000000000010000",
      "type": "0x0",
      "transactionHash": "0x5faaebf7c3d47e5663a8a0c19e1b1069a6e51f7b3615edcac9313d1b27ff2b6b",
      "transactionIndex": "0x61",
      "blockHash": "0x980bb6d3e55dffd8943212f19bf0517f3d1da58a47eb7be0a3577a83f8275436",
      "blockNumber": "0x2ef395f",
      "gasUsed": "0xe7ac",
      "effectiveGasPrice": "0x3b9aca00",
      "from": "0xd7e38800201d6a42c408bf79d8723740c4e7f631",
      "to": "0x6d6783c146f2b0b2774c1725297f1845dc502525",
      "contractAddress": null
    }
  ],
  "libraries": [],
  "pending": [],
  "returns": {},
  "timestamp": 1746591417,
  "chain": 56,
  "commit": "758ada6"
}