{
  "transactions": [
    {
      "hash": "0xc5f100c525386da3719d2fe861336f3fb46001fe1d812c26abcd9459cf306ea7",
      "transactionType": "CALL",
      "contractName": null,
      "contractAddress": "0x384729e442b7636709896e9a3bef63ef70c22fb0",
      "function": "setFeeRecipient(address)",
      "arguments": [
        "0x2E2Eed557FAb1d2E11fEA1E1a23FF8f1b23551f3"
      ],
      "transaction": {
        "from": "0xd7e38800201d6a42c408bf79d8723740c4e7f631",
        "to": "0x384729e442b7636709896e9a3bef63ef70c22fb0",
        "gas": "0x15a36",
        "value": "0x0",
        "input": "0xe74b981b0000000000000000000000002e2eed557fab1d2e11fea1e1a23ff8f1b23551f3",
        "nonce": "0x41c",
        "chainId": "0x38"
      },
      "additionalContracts": [],
      "isFixedGasLimit": false
    },
    {
      "hash": "0x500b78fbf8e494263e1076902e7da2a7201e349d8fd840f1dc1fd7f26c96a7d5",
      "transactionType": "CALL",
      "contractName": null,
      "contractAddress": "0x384729e442b7636709896e9a3bef63ef70c22fb0",
      "function": "setSkimRecipient(address)",
      "arguments": [
        "0x1d60bBBEF79Fb9540D271Dbb01925380323A8f66"
      ],
      "transaction": {
        "from": "0xd7e38800201d6a42c408bf79d8723740c4e7f631",
        "to": "0x384729e442b7636709896e9a3bef63ef70c22fb0",
        "gas": "0x12ac5",
        "value": "0x0",
        "input": "0x2b30997b0000000000000000000000001d60bbbef79fb9540d271dbb01925380323a8f66",
        "nonce": "0x41d",
        "chainId": "0x38"
      },
      "additionalContracts": [],
      "isFixedGasLimit": false
    },
    {
      "hash": "0x64e4ceee0c9f24b1efeb479226e71ada3617722b6a94af3efce97281ab820388",
      "transactionType": "CALL",
      "contractName": null,
      "contractAddress": "0x384729e442b7636709896e9a3bef63ef70c22fb0",
      "function": "grantRole(bytes32,address)",
      "arguments": [
        "0x0aec9b08bc8c2cb62a91f52d33e3d77da4b3f3a63fc8b542a93abe3902ba929c",
        "0xd7e38800201D6a42C408Bf79d8723740C4E7f631"
      ],
      "transaction": {
        "from": "0xd7e38800201d6a42c408bf79d8723740c4e7f631",
        "to": "0x384729e442b7636709896e9a3bef63ef70c22fb0",
        "gas": "0x29a70",
        "value": "0x0",
        "input": "0x2f2ff15d0aec9b08bc8c2cb62a91f52d33e3d77da4b3f3a63fc8b542a93abe3902ba929c000000000000000000000000d7e38800201d6a42c408bf79d8723740c4e7f631",
        "nonce": "0x41e",
        "chainId": "0x38"
      },
      "additionalContracts": [],
      "isFixedGasLimit": false
    },
    {
      "hash": "0xa81e49715f3abd178f437dd8a689cb6f0417ab385d925ff953b4fec99e90636b",
      "transactionType": "CALL",
      "contractName": null,
      "contractAddress": "0x384729e442b7636709896e9a3bef63ef70c22fb0",
      "function": "grantRole(bytes32,address)",
      "arguments": [
        "0xdcac51f5d253e2787a458cfb1d6b8faf248cf16367710f9e3b6bd5644d23f8db",
        "0xd7e38800201D6a42C408Bf79d8723740C4E7f631"
      ],
      "transaction": {
        "from": "0xd7e38800201d6a42c408bf79d8723740c4e7f631",
        "to": "0x384729e442b7636709896e9a3bef63ef70c22fb0",
        "gas": "0x29a70",
        "value": "0x0",
        "input": "0x2f2ff15ddcac51f5d253e2787a458cfb1d6b8faf248cf16367710f9e3b6bd5644d23f8db000000000000000000000000d7e38800201d6a42c408bf79d8723740c4e7f631",
        "nonce": "0x41f",
        "chainId": "0x38"
      },
      "additionalContracts": [],
      "isFixedGasLimit": false
    },
    {
      "hash": "0xaf1115a5ff182a072a89097e915a7ae8669ed5c6da16084d2b0795bf8c033d8f",
      "transactionType": "CALL",
      "contractName": null,
      "contractAddress": "0x384729e442b7636709896e9a3bef63ef70c22fb0",
      "function": "setBotRole(address)",
      "arguments": [
        "0x91fC4BA20685339781888eCA3E9E1c12d40F0e13"
      ],
      "transaction": {
        "from": "0xd7e38800201d6a42c408bf79d8723740c4e7f631",
        "to": "0x384729e442b7636709896e9a3bef63ef70c22fb0",
        "gas": "0x28d75",
        "value": "0x0",
        "input": "0x74db459800000000000000000000000091fc4ba20685339781888eca3e9e1c12d40f0e13",
        "nonce": "0x420",
        "chainId": "0x38"
      },
      "additionalContracts": [],
      "isFixedGasLimit": false
    },
    {
      "hash": "0xb47ab0dfa38456a2111bfdf8bebb2aa2ff4ebc98679748013807f943512a0bd2",
      "transactionType": "CALL",
      "contractName": null,
      "contractAddress": "0x384729e442b7636709896e9a3bef63ef70c22fb0",
      "function": "setFee(uint256)",
      "arguments": [
        "100000000000000000"
      ],
      "transaction": {
        "from": "0xd7e38800201d6a42c408bf79d8723740c4e7f631",
        "to": "0x384729e442b7636709896e9a3bef63ef70c22fb0",
        "gas": "0xf491",
        "value": "0x0",
        "input": "0x69fe0e2d000000000000000000000000000000000000000000000000016345785d8a0000",
        "nonce": "0x421",
        "chainId": "0x38"
      },
      "additionalContracts": [],
      "isFixedGasLimit": false
    },
    {
      "hash": "0xc817fe022dfc0b7494f55b49baf3a3b0e67d1c1e976d5124398a1dac226872a7",
      "transactionType": "CALL",
      "contractName": null,
      "contractAddress": "0x384729e442b7636709896e9a3bef63ef70c22fb0",
      "function": "setCap((address,address,address,address,uint256),uint256)",
      "arguments": [
        "(0x84575b87395c970F1F48E87d87a8dB36Ed653716, 0x7130d2A12B9BCbFAe4f2634d864A1Ee1Ce3Ead9c, 0xf3afD82A4071f272F403dC176916141f44E6c750, 0xFe7dAe87Ebb11a7BEB9F534BB23267992d9cDe7c, 500000000000000000)",
        "5000000000000000000000000"
      ],
      "transaction": {
        "from": "0xd7e38800201d6a42c408bf79d8723740c4e7f631",
        "to": "0x384729e442b7636709896e9a3bef63ef70c22fb0",
        "gas": "0x2dc3c",
        "value": "0x0",
        "input": "0xd3ac290c00000000000000000000000084575b87395c970f1f48e87d87a8db36ed6537160000000000000000000000007130d2a12b9bcbfae4f2634d864a1ee1ce3ead9c000000000000000000000000f3afd82a4071f272f403dc176916141f44e6c750000000000000000000000000fe7dae87ebb11a7beb9f534bb23267992d9cde7c00000000000000000000000000000000000000000000000006f05b59d3b200000000000000000000000000000000000000000000000422ca8b0a00a425000000",
        "nonce": "0x422",
        "chainId": "0x38"
      },
      "additionalContracts": [],
      "isFixedGasLimit": false
    },
    {
      "hash": "0x7292719e644b21a1e74a940c8dbf0513420bab1f329e1f786d935b5663b80dfa",
      "transactionType": "CALL",
      "contractName": null,
      "contractAddress": "0x384729e442b7636709896e9a3bef63ef70c22fb0",
      "function": "setCap((address,address,address,address,uint256),uint256)",
      "arguments": [
        "(0x84575b87395c970F1F48E87d87a8dB36Ed653716, 0x000Ae314E2A2172a039B26378814C252734f556A, 0xf3afD82A4071f272F403dC176916141f44E6c750, 0xFe7dAe87Ebb11a7BEB9F534BB23267992d9cDe7c, 500000000000000000)",
        "2000000000000000000000000"
      ],
      "transaction": {
        "from": "0xd7e38800201d6a42c408bf79d8723740c4e7f631",
        "to": "0x384729e442b7636709896e9a3bef63ef70c22fb0",
        "gas": "0x28d1c",
        "value": "0x0",
        "input": "0xd3ac290c00000000000000000000000084575b87395c970f1f48e87d87a8db36ed653716000000000000000000000000000ae314e2a2172a039b26378814c252734f556a000000000000000000000000f3afd82a4071f272f403dc176916141f44e6c750000000000000000000000000fe7dae87ebb11a7beb9f534bb23267992d9cde7c00000000000000000000000000000000000000000000000006f05b59d3b2000000000000000000000000000000000000000000000001a784379d99db42000000",
        "nonce": "0x423",
        "chainId": "0x38"
      },
      "additionalContracts": [],
      "isFixedGasLimit": false
    },
    {
      "hash": "0x03f378f42a3c5b50970513c59e936cbe1c013f73a267e741d510a92084cc4231",
      "transactionType": "CALL",
      "contractName": null,
      "contractAddress": "0x384729e442b7636709896e9a3bef63ef70c22fb0",
      "function": "setCap((address,address,address,address,uint256),uint256)",
      "arguments": [
        "(0x84575b87395c970F1F48E87d87a8dB36Ed653716, 0x55d398326f99059fF775485246999027B3197955, 0xf3afD82A4071f272F403dC176916141f44E6c750, 0xFe7dAe87Ebb11a7BEB9F534BB23267992d9cDe7c, 500000000000000000)",
        "5000000000000000000000000"
      ],
      "transaction": {
        "from": "0xd7e38800201d6a42c408bf79d8723740c4e7f631",
        "to": "0x384729e442b7636709896e9a3bef63ef70c22fb0",
        "gas": "0x29a41",
        "value": "0x0",
        "input": "0xd3ac290c00000000000000000000000084575b87395c970f1f48e87d87a8db36ed65371600000000000000000000000055d398326f99059ff775485246999027b3197955000000000000000000000000f3afd82a4071f272f403dc176916141f44e6c750000000000000000000000000fe7dae87ebb11a7beb9f534bb23267992d9cde7c00000000000000000000000000000000000000000000000006f05b59d3b200000000000000000000000000000000000000000000000422ca8b0a00a425000000",
        "nonce": "0x424",
        "chainId": "0x38"
      },
      "additionalContracts": [],
      "isFixedGasLimit": false
    },
    {
      "hash": "0x45b6f1fbacb49eb136469fa81f776999551c5237c1ceed9cffcf85067d176db6",
      "transactionType": "CALL",
      "contractName": null,
      "contractAddress": "0x384729e442b7636709896e9a3bef63ef70c22fb0",
      "function": "setSupplyQueue(bytes32[])",
      "arguments": [
        "[0xc86061ee3f8e87c888e5f1866f9cf32905b841a54d55326fd773da8b7f37bb05, 0x2cbed3b86d3cad6fb2d7163287f28561d6f6c90f58513746ef34962c83e80451, 0x855f3e05048664c2332b8e2d8eba4f860fb130ff5b51ded4b7b8cac8784d5ec4]"
      ],
      "transaction": {
        "from": "0xd7e38800201d6a42c408bf79d8723740c4e7f631",
        "to": "0x384729e442b7636709896e9a3bef63ef70c22fb0",
        "gas": "0x2b868",
        "value": "0x0",
        "input": "0x2acc56f900000000000000000000000000000000000000000000000000000000000000200000000000000000000000000000000000000000000000000000000000000003c86061ee3f8e87c888e5f1866f9cf32905b841a54d55326fd773da8b7f37bb052cbed3b86d3cad6fb2d7163287f28561d6f6c90f58513746ef34962c83e80451855f3e05048664c2332b8e2d8eba4f860fb130ff5b51ded4b7b8cac8784d5ec4",
        "nonce": "0x425",
        "chainId": "0x38"
      },
      "additionalContracts": [],
      "isFixedGasLimit": false
    }
  ],
  "receipts": [
    {
      "status": "0x1",
      "cumulativeGasUsed": "0x195c2ef",
      "logs": [
        {
          "address": "0x384729e442b7636709896e9a3bef63ef70c22fb0",
          "topics": [
            "0xf66f28b40975dbb933913542c7e6a0f50a1d0f20aa74ea6e0efe65ab616323ec"
          ],
          "data": "0x00000000000000000000000000000000000000000000000000000000000000000000000000000000000000000000000000000000000000000000000000000000",
          "blockHash": "0x889c1d6c1034b03cd77cf73f8a0f1ea0bacf206561c6042648808a18fadbfc58",
          "blockNumber": "0x3f0300f",
          "transactionHash": "0xc5f100c525386da3719d2fe861336f3fb46001fe1d812c26abcd9459cf306ea7",
          "transactionIndex": "0x8a",
          "logIndex": "0x432",
          "removed": false
        },
        {
          "address": "0x384729e442b7636709896e9a3bef63ef70c22fb0",
          "topics": [
            "0x15c027cc4fd826d986cad358803439f7326d3aa4ed969ff90dbee4bc150f68e9"
          ],
          "data": "0x0000000000000000000000000000000000000000000000000000000000000000",
          "blockHash": "0x889c1d6c1034b03cd77cf73f8a0f1ea0bacf206561c6042648808a18fadbfc58",
          "blockNumber": "0x3f0300f",
          "transactionHash": "0xc5f100c525386da3719d2fe861336f3fb46001fe1d812c26abcd9459cf306ea7",
          "transactionIndex": "0x8a",
          "logIndex": "0x433",
          "removed": false
        },
        {
          "address": "0x384729e442b7636709896e9a3bef63ef70c22fb0",
          "topics": [
            "0x2e979f80fe4d43055c584cf4a8467c55875ea36728fc37176c05acd784eb7a73",
            "0x0000000000000000000000002e2eed557fab1d2e11fea1e1a23ff8f1b23551f3"
          ],
          "data": "0x",
          "blockHash": "0x889c1d6c1034b03cd77cf73f8a0f1ea0bacf206561c6042648808a18fadbfc58",
          "blockNumber": "0x3f0300f",
          "transactionHash": "0xc5f100c525386da3719d2fe861336f3fb46001fe1d812c26abcd9459cf306ea7",
          "transactionIndex": "0x8a",
          "logIndex": "0x434",
          "removed": false
        }
      ],
      "logsBloom": "0x00000000000000000000000000000000000000000000000000000000000000000000000000000000000000000000000000000000000000000000000000000000000000000000000000000000000000000000000000000000000000000000000000000000000001000000000000000000000000000000002000000000000000000008000000000000000000000000000000000012000000000020000000000400040000000020010000000000000000000000100004000000000000000000000000000000000000000000000000000000000000000000000000000000000000810000000100000000000000000000000000000000000000000000000000000000",
      "type": "0x2",
      "transactionHash": "0xc5f100c525386da3719d2fe861336f3fb46001fe1d812c26abcd9459cf306ea7",
      "transactionIndex": "0x8a",
      "blockHash": "0x889c1d6c1034b03cd77cf73f8a0f1ea0bacf206561c6042648808a18fadbfc58",
      "blockNumber": "0x3f0300f",
      "gasUsed": "0xecba",
      "effectiveGasPrice": "0x301a740",
      "from": "0xd7e38800201d6a42c408bf79d8723740c4e7f631",
      "to": "0x384729e442b7636709896e9a3bef63ef70c22fb0",
      "contractAddress": null
    },
    {
      "status": "0x1",
      "cumulativeGasUsed": "0x1968f39",
      "logs": [
        {
          "address": "0x384729e442b7636709896e9a3bef63ef70c22fb0",
          "topics": [
            "0x2e7908865670e21b9779422cadf5f1cba271a62bb95c71eaaf615c0a1c48ebee",
            "0x0000000000000000000000001d60bbbef79fb9540d271dbb01925380323a8f66"
          ],
          "data": "0x",
          "blockHash": "0x889c1d6c1034b03cd77cf73f8a0f1ea0bacf206561c6042648808a18fadbfc58",
          "blockNumber": "0x3f0300f",
          "transactionHash": "0x500b78fbf8e494263e1076902e7da2a7201e349d8fd840f1dc1fd7f26c96a7d5",
          "transactionIndex": "0x8b",
          "logIndex": "0x435",
          "removed": false
        }
      ],
      "logsBloom": "0x00000000000000000000000000000000000000000000000000000000040000000000000000000000000000000000000000000000000000000000000040000000000000000000000000000000000000000000000000000000000000000000000000000000080001000000000000000000000000000000000000080000000000000000000000000000000000000000000000000000000000000000000000000000000000000000000000000000000000000000000000100000000000000000000000000000000000000000000000000000000000000000000000000000000000800000000100080000000000000000000000000000000000000000000000000000",
      "type": "0x2",
      "transactionHash": "0x500b78fbf8e494263e1076902e7da2a7201e349d8fd840f1dc1fd7f26c96a7d5",
      "transactionIndex": "0x8b",
      "blockHash": "0x889c1d6c1034b03cd77cf73f8a0f1ea0bacf206561c6042648808a18fadbfc58",
      "blockNumber": "0x3f0300f",
      "gasUsed": "0xcc4a",
      "effectiveGasPrice": "0x301a740",
      "from": "0xd7e38800201d6a42c408bf79d8723740c4e7f631",
      "to": "0x384729e442b7636709896e9a3bef63ef70c22fb0",
      "contractAddress": null
    },
    {
      "status": "0x1",
      "cumulativeGasUsed": "0x19871b7",
      "logs": [
        {
          "address": "0x384729e442b7636709896e9a3bef63ef70c22fb0",
          "topics": [
            "0x2f8788117e7eff1d82e926ec794901d17c78024a50270940304540a733656f0d",
            "0x0aec9b08bc8c2cb62a91f52d33e3d77da4b3f3a63fc8b542a93abe3902ba929c",
            "0x000000000000000000000000d7e38800201d6a42c408bf79d8723740c4e7f631",
            "0x000000000000000000000000d7e38800201d6a42c408bf79d8723740c4e7f631"
          ],
          "data": "0x",
          "blockHash": "0x889c1d6c1034b03cd77cf73f8a0f1ea0bacf206561c6042648808a18fadbfc58",
          "blockNumber": "0x3f0300f",
          "transactionHash": "0x64e4ceee0c9f24b1efeb479226e71ada3617722b6a94af3efce97281ab820388",
          "transactionIndex": "0x8c",
          "logIndex": "0x436",
          "removed": false
        }
      ],
      "logsBloom": "0x00000004000000000000000000000000000000000000000000000000000000000000000000000000000000000000000000000000000000000000000000000000000000000000000000000000002000000000000000000000000000000000000000000000000001000000000000000100000000000000000000040000000000000000000000000000000000000000000000000000000000000000000000040000000000000000000000000000000000000000000000000000001000000000000000000000000000000000000000000100000000000000000100000000000000800080000100000000000000000000000000000000000000000000000000000000",
      "type": "0x2",
      "transactionHash": "0x64e4ceee0c9f24b1efeb479226e71ada3617722b6a94af3efce97281ab820388",
      "transactionIndex": "0x8c",
      "blockHash": "0x889c1d6c1034b03cd77cf73f8a0f1ea0bacf206561c6042648808a18fadbfc58",
      "blockNumber": "0x3f0300f",
      "gasUsed": "0x1e27e",
      "effectiveGasPrice": "0x301a740",
      "from": "0xd7e38800201d6a42c408bf79d8723740c4e7f631",
      "to": "0x384729e442b7636709896e9a3bef63ef70c22fb0",
      "contractAddress": null
    },
    {
      "status": "0x1",
      "cumulativeGasUsed": "0x19a5435",
      "logs": [
        {
          "address": "0x384729e442b7636709896e9a3bef63ef70c22fb0",
          "topics": [
            "0x2f8788117e7eff1d82e926ec794901d17c78024a50270940304540a733656f0d",
            "0xdcac51f5d253e2787a458cfb1d6b8faf248cf16367710f9e3b6bd5644d23f8db",
            "0x000000000000000000000000d7e38800201d6a42c408bf79d8723740c4e7f631",
            "0x000000000000000000000000d7e38800201d6a42c408bf79d8723740c4e7f631"
          ],
          "data": "0x",
          "blockHash": "0x889c1d6c1034b03cd77cf73f8a0f1ea0bacf206561c6042648808a18fadbfc58",
          "blockNumber": "0x3f0300f",
          "transactionHash": "0xa81e49715f3abd178f437dd8a689cb6f0417ab385d925ff953b4fec99e90636b",
          "transactionIndex": "0x8d",
          "logIndex": "0x437",
          "removed": false
        }
      ],
      "logsBloom": "0x00000004400000000000000000000000000000000000000000000000000000000000000000000000000000000000000000000000000000000000000000000000000000000000000000000008002000000000000000000000000000000000000000000000000001000000000000000000000000000000000000000000000000000000000000000000000000000000000000000000000000000000000000040000000000000000000000000000000000000000000000000000001000000000000000000000000000000000000000000000000000000000000100000000000000800080000100000000000000000400000000000000000000000000000000000000",
      "type": "0x2",
      "transactionHash": "0xa81e49715f3abd178f437dd8a689cb6f0417ab385d925ff953b4fec99e90636b",
      "transactionIndex": "0x8d",
      "blockHash": "0x889c1d6c1034b03cd77cf73f8a0f1ea0bacf206561c6042648808a18fadbfc58",
      "blockNumber": "0x3f0300f",
      "gasUsed": "0x1e27e",
      "effectiveGasPrice": "0x301a740",
      "from": "0xd7e38800201d6a42c408bf79d8723740c4e7f631",
      "to": "0x384729e442b7636709896e9a3bef63ef70c22fb0",
      "contractAddress": null
    },
    {
      "status": "0x1",
      "cumulativeGasUsed": "0x19c2d4d",
      "logs": [
        {
          "address": "0x384729e442b7636709896e9a3bef63ef70c22fb0",
          "topics": [
            "0x2f8788117e7eff1d82e926ec794901d17c78024a50270940304540a733656f0d",
            "0x902cbe3a02736af9827fb6a90bada39e955c0941e08f0c63b3a662a7b17a4e2b",
            "0x00000000000000000000000091fc4ba20685339781888eca3e9e1c12d40f0e13",
            "0x000000000000000000000000d7e38800201d6a42c408bf79d8723740c4e7f631"
          ],
          "data": "0x",
          "blockHash": "0x889c1d6c1034b03cd77cf73f8a0f1ea0bacf206561c6042648808a18fadbfc58",
          "blockNumber": "0x3f0300f",
          "transactionHash": "0xaf1115a5ff182a072a89097e915a7ae8669ed5c6da16084d2b0795bf8c033d8f",
          "transactionIndex": "0x8e",
          "logIndex": "0x438",
          "removed": false
        }
      ],
      "logsBloom": "0x00000004000000000000000000000000000000000000000000000000000000000000200000000000000000080000000000000000000000000000000000000000000000000000000000000000002000000000000000000000000000000000000000000000000001000000000000000000000000000000000000000000000000000000000000000000000000000000000000000000000000000000000000040000000000000000000000000040000000000000000000000000001000000000000000000000008000000040000000000000000000000000000100000000000000800080000900000000000000000000000000000000000000000000000000000000",
      "type": "0x2",
      "transactionHash": "0xaf1115a5ff182a072a89097e915a7ae8669ed5c6da16084d2b0795bf8c033d8f",
      "transactionIndex": "0x8e",
      "blockHash": "0x889c1d6c1034b03cd77cf73f8a0f1ea0bacf206561c6042648808a18fadbfc58",
      "blockNumber": "0x3f0300f",
      "gasUsed": "0x1d918",
      "effectiveGasPrice": "0x301a740",
      "from": "0xd7e38800201d6a42c408bf79d8723740c4e7f631",
      "to": "0x384729e442b7636709896e9a3bef63ef70c22fb0",
      "contractAddress": null
    },
    {
      "status": "0x1",
      "cumulativeGasUsed": "0x19cd487",
      "logs": [
        {
          "address": "0x384729e442b7636709896e9a3bef63ef70c22fb0",
          "topics": [
            "0xf66f28b40975dbb933913542c7e6a0f50a1d0f20aa74ea6e0efe65ab616323ec"
          ],
          "data": "0x00000000000000000000000000000000000000000000000000000000000000000000000000000000000000000000000000000000000000000000000000000000",
          "blockHash": "0x889c1d6c1034b03cd77cf73f8a0f1ea0bacf206561c6042648808a18fadbfc58",
          "blockNumber": "0x3f0300f",
          "transactionHash": "0xb47ab0dfa38456a2111bfdf8bebb2aa2ff4ebc98679748013807f943512a0bd2",
          "transactionIndex": "0x8f",
          "logIndex": "0x439",
          "removed": false
        },
        {
          "address": "0x384729e442b7636709896e9a3bef63ef70c22fb0",
          "topics": [
            "0x15c027cc4fd826d986cad358803439f7326d3aa4ed969ff90dbee4bc150f68e9"
          ],
          "data": "0x0000000000000000000000000000000000000000000000000000000000000000",
          "blockHash": "0x889c1d6c1034b03cd77cf73f8a0f1ea0bacf206561c6042648808a18fadbfc58",
          "blockNumber": "0x3f0300f",
          "transactionHash": "0xb47ab0dfa38456a2111bfdf8bebb2aa2ff4ebc98679748013807f943512a0bd2",
          "transactionIndex": "0x8f",
          "logIndex": "0x43a",
          "removed": false
        },
        {
          "address": "0x384729e442b7636709896e9a3bef63ef70c22fb0",
          "topics": [
            "0x01fe2943baee27f47add82886c2200f910c749c461c9b63c5fe83901a53bdb49",
            "0x000000000000000000000000d7e38800201d6a42c408bf79d8723740c4e7f631"
          ],
          "data": "0x000000000000000000000000000000000000000000000000016345785d8a0000",
          "blockHash": "0x889c1d6c1034b03cd77cf73f8a0f1ea0bacf206561c6042648808a18fadbfc58",
          "blockNumber": "0x3f0300f",
          "transactionHash": "0xb47ab0dfa38456a2111bfdf8bebb2aa2ff4ebc98679748013807f943512a0bd2",
          "transactionIndex": "0x8f",
          "logIndex": "0x43b",
          "removed": false
        }
      ],
      "logsBloom": "0x00000000000000000000000000000000000000000000000000000000000000000000000000000000000000000000000002000000000000000000000000000000000000000000000000010000002000000000000000000000000000000000000000000000000001000000000000000000000000000000000000000000000000000008000000000000000000000000000000000000000040000020000000040400000000000020000000000000000000000000100004000000000000000000000000000000000000000000000000000000000000000000000000000000000000800080000100000000000000000000000000000000000000000000000000000000",
      "type": "0x2",
      "transactionHash": "0xb47ab0dfa38456a2111bfdf8bebb2aa2ff4ebc98679748013807f943512a0bd2",
      "transactionIndex": "0x8f",
      "blockHash": "0x889c1d6c1034b03cd77cf73f8a0f1ea0bacf206561c6042648808a18fadbfc58",
      "blockNumber": "0x3f0300f",
      "gasUsed": "0xa73a",
      "effectiveGasPrice": "0x301a740",
      "from": "0xd7e38800201d6a42c408bf79d8723740c4e7f631",
      "to": "0x384729e442b7636709896e9a3bef63ef70c22fb0",
      "contractAddress": null
    },
    {
      "status": "0x1",
      "cumulativeGasUsed": "0x19ee6a7",
      "logs": [
        {
          "address": "0x384729e442b7636709896e9a3bef63ef70c22fb0",
          "topics": [
            "0x15c027cc4fd826d986cad358803439f7326d3aa4ed969ff90dbee4bc150f68e9"
          ],
          "data": "0x0000000000000000000000000000000000000000000000000000000000000000",
          "blockHash": "0x889c1d6c1034b03cd77cf73f8a0f1ea0bacf206561c6042648808a18fadbfc58",
          "blockNumber": "0x3f0300f",
          "transactionHash": "0xc817fe022dfc0b7494f55b49baf3a3b0e67d1c1e976d5124398a1dac226872a7",
          "transactionIndex": "0x90",
          "logIndex": "0x43c",
          "removed": false
        },
        {
          "address": "0x384729e442b7636709896e9a3bef63ef70c22fb0",
          "topics": [
            "0xe0c2db6b54586be6d7d49943139fccf0dd315ba63e55364a76c73cd8fdba724d",
            "0x000000000000000000000000d7e38800201d6a42c408bf79d8723740c4e7f631"
          ],
          "data": "0x00000000000000000000000000000000000000000000000000000000000000200000000000000000000000000000000000000000000000000000000000000001c86061ee3f8e87c888e5f1866f9cf32905b841a54d55326fd773da8b7f37bb05",
          "blockHash": "0x889c1d6c1034b03cd77cf73f8a0f1ea0bacf206561c6042648808a18fadbfc58",
          "blockNumber": "0x3f0300f",
          "transactionHash": "0xc817fe022dfc0b7494f55b49baf3a3b0e67d1c1e976d5124398a1dac226872a7",
          "transactionIndex": "0x90",
          "logIndex": "0x43d",
          "removed": false
        },
        {
          "address": "0x384729e442b7636709896e9a3bef63ef70c22fb0",
          "topics": [
            "0xe86b6d3313d3098f4c5f689c935de8fde876a597c185def2cedab85efedac686",
            "0x000000000000000000000000d7e38800201d6a42c408bf79d8723740c4e7f631",
            "0xc86061ee3f8e87c888e5f1866f9cf32905b841a54d55326fd773da8b7f37bb05"
          ],
          "data": "0x0000000000000000000000000000000000000000000422ca8b0a00a425000000",
          "blockHash": "0x889c1d6c1034b03cd77cf73f8a0f1ea0bacf206561c6042648808a18fadbfc58",
          "blockNumber": "0x3f0300f",
          "transactionHash": "0xc817fe022dfc0b7494f55b49baf3a3b0e67d1c1e976d5124398a1dac226872a7",
          "transactionIndex": "0x90",
          "logIndex": "0x43e",
          "removed": false
        }
      ],
      "logsBloom": "0x00000000800000000000000000000000000000000000020000002000000000000000080000000000000000000000000000000000000000000000000000000000000000000000000000000000002000000000000000000000000000000000000000000000000001000000000000000000004000000000000000001000000000000000000000008000000000000000000000000000000000000020000000040000000000000000000000000000000000000000100004000000000000000000000000000000000000000000000000000000000000000000000000000000000000800080000100000000000000000000040000000000000000000000000000010000",
      "type": "0x2",
      "transactionHash": "0xc817fe022dfc0b7494f55b49baf3a3b0e67d1c1e976d5124398a1dac226872a7",
      "transactionIndex": "0x90",
      "blockHash": "0x889c1d6c1034b03cd77cf73f8a0f1ea0bacf206561c6042648808a18fadbfc58",
      "blockNumber": "0x3f0300f",
      "gasUsed": "0x21220",
      "effectiveGasPrice": "0x301a740",
      "from": "0xd7e38800201d6a42c408bf79d8723740c4e7f631",
      "to": "0x384729e442b7636709896e9a3bef63ef70c22fb0",
      "contractAddress": null
    },
    {
      "status": "0x1",
      "cumulativeGasUsed": "0x1a0bf7f",
      "logs": [
        {
          "address": "0x384729e442b7636709896e9a3bef63ef70c22fb0",
          "topics": [
            "0x15c027cc4fd826d986cad358803439f7326d3aa4ed969ff90dbee4bc150f68e9"
          ],
          "data": "0x0000000000000000000000000000000000000000000000000000000000000000",
          "blockHash": "0x889c1d6c1034b03cd77cf73f8a0f1ea0bacf206561c6042648808a18fadbfc58",
          "blockNumber": "0x3f0300f",
          "transactionHash": "0x7292719e644b21a1e74a940c8dbf0513420bab1f329e1f786d935b5663b80dfa",
          "transactionIndex": "0x91",
          "logIndex": "0x43f",
          "removed": false
        },
        {
          "address": "0x384729e442b7636709896e9a3bef63ef70c22fb0",
          "topics": [
            "0xe0c2db6b54586be6d7d49943139fccf0dd315ba63e55364a76c73cd8fdba724d",
            "0x000000000000000000000000d7e38800201d6a42c408bf79d8723740c4e7f631"
          ],
          "data": "0x00000000000000000000000000000000000000000000000000000000000000200000000000000000000000000000000000000000000000000000000000000002c86061ee3f8e87c888e5f1866f9cf32905b841a54d55326fd773da8b7f37bb052cbed3b86d3cad6fb2d7163287f28561d6f6c90f58513746ef34962c83e80451",
          "blockHash": "0x889c1d6c1034b03cd77cf73f8a0f1ea0bacf206561c6042648808a18fadbfc58",
          "blockNumber": "0x3f0300f",
          "transactionHash": "0x7292719e644b21a1e74a940c8dbf0513420bab1f329e1f786d935b5663b80dfa",
          "transactionIndex": "0x91",
          "logIndex": "0x440",
          "removed": false
        },
        {
          "address": "0x384729e442b7636709896e9a3bef63ef70c22fb0",
          "topics": [
            "0xe86b6d3313d3098f4c5f689c935de8fde876a597c185def2cedab85efedac686",
            "0x000000000000000000000000d7e38800201d6a42c408bf79d8723740c4e7f631",
            "0x2cbed3b86d3cad6fb2d7163287f28561d6f6c90f58513746ef34962c83e80451"
          ],
          "data": "0x00000000000000000000000000000000000000000001a784379d99db42000000",
          "blockHash": "0x889c1d6c1034b03cd77cf73f8a0f1ea0bacf206561c6042648808a18fadbfc58",
          "blockNumber": "0x3f0300f",
          "transactionHash": "0x7292719e644b21a1e74a940c8dbf0513420bab1f329e1f786d935b5663b80dfa",
          "transactionIndex": "0x91",
          "logIndex": "0x441",
          "removed": false
        }
      ],
      "logsBloom": "0x00000000000000000000000000000000000000000000000000000000000000000000080000000000000000000000000008000000000000000000000000000000000000000000000000000000002100000000000000000000000000000000000000000000000001000000000000000000004000000000000000001000000000000000000000008000000000000000000000000000000000000020000000040000000000000000000000000000000000000000100004000000000000000000000000000000000000000000000000000000000000000000001000000000000000800080000100000000000000000000040000000000000000000000000000010000",
      "type": "0x2",
      "transactionHash": "0x7292719e644b21a1e74a940c8dbf0513420bab1f329e1f786d935b5663b80dfa",
      "transactionIndex": "0x91",
      "blockHash": "0x889c1d6c1034b03cd77cf73f8a0f1ea0bacf206561c6042648808a18fadbfc58",
      "blockNumber": "0x3f0300f",
      "gasUsed": "0x1d8d8",
      "effectiveGasPrice": "0x301a740",
      "from": "0xd7e38800201d6a42c408bf79d8723740c4e7f631",
      "to": "0x384729e442b7636709896e9a3bef63ef70c22fb0",
      "contractAddress": null
    },
    {
      "status": "0x1",
      "cumulativeGasUsed": "0x1a2a1db",
      "logs": [
        {
          "address": "0x384729e442b7636709896e9a3bef63ef70c22fb0",
          "topics": [
            "0x15c027cc4fd826d986cad358803439f7326d3aa4ed969ff90dbee4bc150f68e9"
          ],
          "data": "0x0000000000000000000000000000000000000000000000000000000000000000",
          "blockHash": "0x889c1d6c1034b03cd77cf73f8a0f1ea0bacf206561c6042648808a18fadbfc58",
          "blockNumber": "0x3f0300f",
          "transactionHash": "0x03f378f42a3c5b50970513c59e936cbe1c013f73a267e741d510a92084cc4231",
          "transactionIndex": "0x92",
          "logIndex": "0x442",
          "removed": false
        },
        {
          "address": "0x384729e442b7636709896e9a3bef63ef70c22fb0",
          "topics": [
            "0xe0c2db6b54586be6d7d49943139fccf0dd315ba63e55364a76c73cd8fdba724d",
            "0x000000000000000000000000d7e38800201d6a42c408bf79d8723740c4e7f631"
          ],
          "data": "0x00000000000000000000000000000000000000000000000000000000000000200000000000000000000000000000000000000000000000000000000000000003c86061ee3f8e87c888e5f1866f9cf32905b841a54d55326fd773da8b7f37bb052cbed3b86d3cad6fb2d7163287f28561d6f6c90f58513746ef34962c83e80451855f3e05048664c2332b8e2d8eba4f860fb130ff5b51ded4b7b8cac8784d5ec4",
          "blockHash": "0x889c1d6c1034b03cd77cf73f8a0f1ea0bacf206561c6042648808a18fadbfc58",
          "blockNumber": "0x3f0300f",
          "transactionHash": "0x03f378f42a3c5b50970513c59e936cbe1c013f73a267e741d510a92084cc4231",
          "transactionIndex": "0x92",
          "logIndex": "0x443",
          "removed": false
        },
        {
          "address": "0x384729e442b7636709896e9a3bef63ef70c22fb0",
          "topics": [
            "0xe86b6d3313d3098f4c5f689c935de8fde876a597c185def2cedab85efedac686",
            "0x000000000000000000000000d7e38800201d6a42c408bf79d8723740c4e7f631",
            "0x855f3e05048664c2332b8e2d8eba4f860fb130ff5b51ded4b7b8cac8784d5ec4"
          ],
          "data": "0x0000000000000000000000000000000000000000000422ca8b0a00a425000000",
          "blockHash": "0x889c1d6c1034b03cd77cf73f8a0f1ea0bacf206561c6042648808a18fadbfc58",
          "blockNumber": "0x3f0300f",
          "transactionHash": "0x03f378f42a3c5b50970513c59e936cbe1c013f73a267e741d510a92084cc4231",
          "transactionIndex": "0x92",
          "logIndex": "0x444",
          "removed": false
        }
      ],
      "logsBloom": "0x00020000000000000000000000000000000000000000000000000000000000000000080000000004000000000000000000000000000000000000000000000000000000000000000000000000002000000000000000000000000000000000000000000000000001000000000000000000004000000000000000001000000000000000000000008000000000000000000000000000000000000020200000040000000000000000000000000000000000000000100004000000000000000000000000000000000000000000000000000000000000000000000000000000000000800080000100000000000000000000040000000000000000000000000000010000",
      "type": "0x2",
      "transactionHash": "0x03f378f42a3c5b50970513c59e936cbe1c013f73a267e741d510a92084cc4231",
      "transactionIndex": "0x92",
      "blockHash": "0x889c1d6c1034b03cd77cf73f8a0f1ea0bacf206561c6042648808a18fadbfc58",
      "blockNumber": "0x3f0300f",
      "gasUsed": "0x1e25c",
      "effectiveGasPrice": "0x301a740",
      "from": "0xd7e38800201d6a42c408bf79d8723740c4e7f631",
      "to": "0x384729e442b7636709896e9a3bef63ef70c22fb0",
      "contractAddress": null
    },
    {
      "status": "0x1",
      "cumulativeGasUsed": "0x1a49a0b",
      "logs": [
        {
          "address": "0x384729e442b7636709896e9a3bef63ef70c22fb0",
          "topics": [
            "0x6ce31538fc7fba95714ddc8a275a09252b4b1fb8f33d2550aa58a5f62ad934de",
            "0x000000000000000000000000d7e38800201d6a42c408bf79d8723740c4e7f631"
          ],
          "data": "0x00000000000000000000000000000000000000000000000000000000000000200000000000000000000000000000000000000000000000000000000000000003c86061ee3f8e87c888e5f1866f9cf32905b841a54d55326fd773da8b7f37bb052cbed3b86d3cad6fb2d7163287f28561d6f6c90f58513746ef34962c83e80451855f3e05048664c2332b8e2d8eba4f860fb130ff5b51ded4b7b8cac8784d5ec4",
          "blockHash": "0x889c1d6c1034b03cd77cf73f8a0f1ea0bacf206561c6042648808a18fadbfc58",
          "blockNumber": "0x3f0300f",
          "transactionHash": "0x45b6f1fbacb49eb136469fa81f776999551c5237c1ceed9cffcf85067d176db6",
          "transactionIndex": "0x93",
          "logIndex": "0x445",
          "removed": false
        }
      ],
      "logsBloom": "0x00000000000000000000000000000000000000000000000000000000000000000000000000000000000000000000000000000000000000000000000000000000000000000000000000000000002000000000000000000000000000000040000000000000000001000000000000000000000000000000000000000000000000000000000000000000000000000000000000000000000000000000000000040000000000000000000000000000000000000000000000000000080000000000000000000000000000000000000000000000000000000000000000000000000000800080000100000000000000000000000000000000000000000000020000000000",
      "type": "0x2",
      "transactionHash": "0x45b6f1fbacb49eb136469fa81f776999551c5237c1ceed9cffcf85067d176db6",
      "transactionIndex": "0x93",
      "blockHash": "0x889c1d6c1034b03cd77cf73f8a0f1ea0bacf206561c6042648808a18fadbfc58",
      "blockNumber": "0x3f0300f",
      "gasUsed": "0x1f830",
      "effectiveGasPrice": "0x301a740",
      "from": "0xd7e38800201d6a42c408bf79d8723740c4e7f631",
      "to": "0x384729e442b7636709896e9a3bef63ef70c22fb0",
      "contractAddress": null
    }
  ],
  "libraries": [],
  "pending": [],
  "returns": {},
  "timestamp": 1761555290748,
  "chain": 56,
  "commit": "04b3e5e"
}