{
  "transactions": [
    {
      "hash": "0xbb76e3c56e49b938e8766402e2318cf587f799775d09375af7d250648707ae72",
      "transactionType": "CALL",
      "contractName": null,
      "contractAddress": "0x8f73b65b4caaf64fba2af91cc5d4a2a1318e5d8c",
      "function": "createMarket((address,address,address,address,uint256))",
      "arguments": [
        "(0x8d0D000Ee44948FC98c9B98A4FA4921476f08B0d, 0x0EA46a4C257071352b57E9F6d054fC137F6E14b9, 0x301B8285cc11357BD4FbFa98d56591e1320BcD6c, 0xFe7dAe87Ebb11a7BEB9F534BB23267992d9cDe7c, 900000000000000000)"
      ],
      "transaction": {
        "from": "0xd7e38800201d6a42c408bf79d8723740c4e7f631",
        "to": "0x8f73b65b4caaf64fba2af91cc5d4a2a1318e5d8c",
        "gas": "0x8e946",
        "value": "0x0",
        "input": "0x8c1358a20000000000000000000000008d0d000ee44948fc98c9b98a4fa4921476f08b0d0000000000000000000000000ea46a4c257071352b57e9f6d054fc137f6e14b9000000000000000000000000301b8285cc11357bd4fbfa98d56591e1320bcd6c000000000000000000000000fe7dae87ebb11a7beb9f534bb23267992d9cde7c0000000000000000000000000000000000000000000000000c7d713b49da0000",
        "nonce": "0x64b",
        "chainId": "0x38"
      },
      "additionalContracts": [],
      "isFixedGasLimit": false
    },
    {
      "hash": "0x8be6afc6f7291e7125cd5d7b36fc9f8f9ca9794188ebb11b4ae73fd62dff48a0",
      "transactionType": "CALL",
      "contractName": null,
      "contractAddress": "0x8f73b65b4caaf64fba2af91cc5d4a2a1318e5d8c",
      "function": "createMarket((address,address,address,address,uint256))",
      "arguments": [
        "(0x55d398326f99059fF775485246999027B3197955, 0x0EA46a4C257071352b57E9F6d054fC137F6E14b9, 0x6606cC0A12EA21002c39C3ee018F0Bdb9A2A39B2, 0xFe7dAe87Ebb11a7BEB9F534BB23267992d9cDe7c, 900000000000000000)"
      ],
      "transaction": {
        "from": "0xd7e38800201d6a42c408bf79d8723740c4e7f631",
        "to": "0x8f73b65b4caaf64fba2af91cc5d4a2a1318e5d8c",
        "gas": "0x7e6d4",
        "value": "0x0",
        "input": "0x8c1358a200000000000000000000000055d398326f99059ff775485246999027b31979550000000000000000000000000ea46a4c257071352b57e9f6d054fc137f6e14b90000000000000000000000006606cc0a12ea21002c39c3ee018f0bdb9a2a39b2000000000000000000000000fe7dae87ebb11a7beb9f534bb23267992d9cde7c0000000000000000000000000000000000000000000000000c7d713b49da0000",
        "nonce": "0x64c",
        "chainId": "0x38"
      },
      "additionalContracts": [],
      "isFixedGasLimit": false
    },
    {
      "hash": "0x70d5b146a690adf0dfb4a214cacefb388a5a3aed7cce600aa5b029ad2674791b",
      "transactionType": "CALL",
      "contractName": null,
      "contractAddress": "0x8f73b65b4caaf64fba2af91cc5d4a2a1318e5d8c",
      "function": "createMarket((address,address,address,address,uint256))",
      "arguments": [
        "(0xcE24439F2D9C6a2289F741120FE202248B666666, 0x0EA46a4C257071352b57E9F6d054fC137F6E14b9, 0x64f9de3C60bf5ff2e8BC824781F1Dfb7A8766F76, 0xFe7dAe87Ebb11a7BEB9F534BB23267992d9cDe7c, 900000000000000000)"
      ],
      "transaction": {
        "from": "0xd7e38800201d6a42c408bf79d8723740c4e7f631",
        "to": "0x8f73b65b4caaf64fba2af91cc5d4a2a1318e5d8c",
        "gas": "0x86a9a",
        "value": "0x0",
        "input": "0x8c1358a2000000000000000000000000ce24439f2d9c6a2289f741120fe202248b6666660000000000000000000000000ea46a4c257071352b57e9f6d054fc137f6e14b900000000000000000000000064f9de3c60bf5ff2e8bc824781f1dfb7a8766f76000000000000000000000000fe7dae87ebb11a7beb9f534bb23267992d9cde7c0000000000000000000000000000000000000000000000000c7d713b49da0000",
        "nonce": "0x64d",
        "chainId": "0x38"
      },
      "additionalContracts": [],
      "isFixedGasLimit": false
    }
  ],
  "receipts": [
    {
      "status": "0x1",
      "cumulativeGasUsed": "0x51f7bf",
      "logs": [
        {
          "address": "0x8f73b65b4caaf64fba2af91cc5d4a2a1318e5d8c",
          "topics": [
            "0xac4b2400f169220b0c0afdde7a0b32e775ba727ea1cb30b35f935cdaab8683ac",
            "0x4bb83ece770d2254218e0e86b1d4fdc503dc9726fb53e269f206cec5b7cd250c"
          ],
          "data": "0x0000000000000000000000008d0d000ee44948fc98c9b98a4fa4921476f08b0d0000000000000000000000000ea46a4c257071352b57e9f6d054fc137f6e14b9000000000000000000000000301b8285cc11357bd4fbfa98d56591e1320bcd6c000000000000000000000000fe7dae87ebb11a7beb9f534bb23267992d9cde7c0000000000000000000000000000000000000000000000000c7d713b49da0000",
          "blockHash": "0x31aceb00fce1fe846a438f767dc8f33a5a61001d977aab5b8409fdaa48e21eb3",
          "blockNumber": "0x4b5dece",
          "blockTimestamp": "0x6981b468",
          "transactionHash": "0x8be6afc6f7291e7125cd5d7b36fc9f8f9ca9794188ebb11b4ae73fd62dff48a0",
          "transactionIndex": "0x35",
          "logIndex": "0x7f",
          "removed": false
        },
        {
          "address": "0xfe7dae87ebb11a7beb9f534bb23267992d9cde7c",
          "topics": [
            "0x7120161a7b3d31251e01294ab351ef15a41b91659a36032e4641bb89b121e321",
            "0x4bb83ece770d2254218e0e86b1d4fdc503dc9726fb53e269f206cec5b7cd250c"
          ],
          "data": "0x0000000000000000000000000000000000000000000000000000000012e687bf000000000000000000000000000000000000000000000000000000004b9a1eff",
          "blockHash": "0x31aceb00fce1fe846a438f767dc8f33a5a61001d977aab5b8409fdaa48e21eb3",
          "blockNumber": "0x4b5dece",
          "blockTimestamp": "0x6981b468",
          "transactionHash": "0x8be6afc6f7291e7125cd5d7b36fc9f8f9ca9794188ebb11b4ae73fd62dff48a0",
          "transactionIndex": "0x35",
          "logIndex": "0x80",
          "removed": false
        }
      ],
      "logsBloom": "0x00000000000000000000000000000800000000000000000000000000000000000000000000000000000000000000000000000000000000000000000000804000000000000000000000000000000000000000000000000000000080000000000000000000000000000000000000020000000000000000000010000040000000000000000000000000000000000000000000000000000000000000000008000000000000000000000000000000000000000000002000000080000000400000040000000000000000000010000000000000000000000000000000000000000000000000000000000000000000000001000000000000000000000000000000000010",
      "type": "0x2",
      "transactionHash": "0x8be6afc6f7291e7125cd5d7b36fc9f8f9ca9794188ebb11b4ae73fd62dff48a0",
      "transactionIndex": "0x35",
      "blockHash": "0x31aceb00fce1fe846a438f767dc8f33a5a61001d977aab5b8409fdaa48e21eb3",
      "blockNumber": "0x4b5dece",
      "gasUsed": "0x617d9",
      "effectiveGasPrice": "0x2faf080",
      "from": "0xd7e38800201d6a42c408bf79d8723740c4e7f631",
      "to": "0x8f73b65b4caaf64fba2af91cc5d4a2a1318e5d8c",
      "contractAddress": null
    },
    {
      "status": "0x1",
      "cumulativeGasUsed": "0x575ee1",
      "logs": [
        {
          "address": "0x8f73b65b4caaf64fba2af91cc5d4a2a1318e5d8c",
          "topics": [
            "0xac4b2400f169220b0c0afdde7a0b32e775ba727ea1cb30b35f935cdaab8683ac",
            "0x0ff603ab5cf4b44e603ec8109acf7b84f36133278b9f20ca404d216e593d0964"
          ],
          "data": "0x00000000000000000000000055d398326f99059ff775485246999027b31979550000000000000000000000000ea46a4c257071352b57e9f6d054fc137f6e14b90000000000000000000000006606cc0a12ea21002c39c3ee018f0bdb9a2a39b2000000000000000000000000fe7dae87ebb11a7beb9f534bb23267992d9cde7c0000000000000000000000000000000000000000000000000c7d713b49da0000",
          "blockHash": "0x31aceb00fce1fe846a438f767dc8f33a5a61001d977aab5b8409fdaa48e21eb3",
          "blockNumber": "0x4b5dece",
          "blockTimestamp": "0x6981b468",
          "transactionHash": "0x70d5b146a690adf0dfb4a214cacefb388a5a3aed7cce600aa5b029ad2674791b",
          "transactionIndex": "0x36",
          "logIndex": "0x81",
          "removed": false
        },
        {
          "address": "0xfe7dae87ebb11a7beb9f534bb23267992d9cde7c",
          "topics": [
            "0x7120161a7b3d31251e01294ab351ef15a41b91659a36032e4641bb89b121e321",
            "0x0ff603ab5cf4b44e603ec8109acf7b84f36133278b9f20ca404d216e593d0964"
          ],
          "data": "0x0000000000000000000000000000000000000000000000000000000012e687bf000000000000000000000000000000000000000000000000000000004b9a1eff",
          "blockHash": "0x31aceb00fce1fe846a438f767dc8f33a5a61001d977aab5b8409fdaa48e21eb3",
          "blockNumber": "0x4b5dece",
          "blockTimestamp": "0x6981b468",
          "transactionHash": "0x70d5b146a690adf0dfb4a214cacefb388a5a3aed7cce600aa5b029ad2674791b",
          "transactionIndex": "0x36",
          "logIndex": "0x82",
          "removed": false
        }
      ],
      "logsBloom": "0x00000000000000000000000000000800000000000000000000000000000000000000000000000000000000000000000000000020000000000000000000804000000000000000000000000000000000000000000000000000000080000000000000000004000000000000000000000000000000000000000010000040000000000000000000000000000000000000000040000000000000000000000008000000000000000000000000000000000000000000002000000080000000000000040000000000000000000000000000000000000000000000000000000000000000000000000000000000000000000001000000000000000000000000000000000010",
      "type": "0x2",
      "transactionHash": "0x70d5b146a690adf0dfb4a214cacefb388a5a3aed7cce600aa5b029ad2674791b",
      "transactionIndex": "0x36",
      "blockHash": "0x31aceb00fce1fe846a438f767dc8f33a5a61001d977aab5b8409fdaa48e21eb3",
      "blockNumber": "0x4b5dece",
      "gasUsed": "0x56722",
      "effectiveGasPrice": "0x2faf080",
      "from": "0xd7e38800201d6a42c408bf79d8723740c4e7f631",
      "to": "0x8f73b65b4caaf64fba2af91cc5d4a2a1318e5d8c",
      "contractAddress": null
    },
    {
      "status": "0x1",
      "cumulativeGasUsed": "0x5d76c6",
      "logs": [
        {
          "address": "0x8f73b65b4caaf64fba2af91cc5d4a2a1318e5d8c",
          "topics": [
            "0xac4b2400f169220b0c0afdde7a0b32e775ba727ea1cb30b35f935cdaab8683ac",
            "0x62bd656d4c1896dec061ceab413bedf3a1cc713c5134bbd6c6d58099cae07284"
          ],
          "data": "0x000000000000000000000000ce24439f2d9c6a2289f741120fe202248b6666660000000000000000000000000ea46a4c257071352b57e9f6d054fc137f6e14b900000000000000000000000064f9de3c60bf5ff2e8bc824781f1dfb7a8766f76000000000000000000000000fe7dae87ebb11a7beb9f534bb23267992d9cde7c0000000000000000000000000000000000000000000000000c7d713b49da0000",
          "blockHash": "0x31aceb00fce1fe846a438f767dc8f33a5a61001d977aab5b8409fdaa48e21eb3",
          "blockNumber": "0x4b5dece",
          "blockTimestamp": "0x6981b468",
          "transactionHash": "0xbb76e3c56e49b938e8766402e2318cf587f799775d09375af7d250648707ae72",
          "transactionIndex": "0x37",
          "logIndex": "0x83",
          "removed": false
        },
        {
          "address": "0xfe7dae87ebb11a7beb9f534bb23267992d9cde7c",
          "topics": [
            "0x7120161a7b3d31251e01294ab351ef15a41b91659a36032e4641bb89b121e321",
            "0x62bd656d4c1896dec061ceab413bedf3a1cc713c5134bbd6c6d58099cae07284"
          ],
          "data": "0x0000000000000000000000000000000000000000000000000000000012e687bf000000000000000000000000000000000000000000000000000000004b9a1eff",
          "blockHash": "0x31aceb00fce1fe846a438f767dc8f33a5a61001d977aab5b8409fdaa48e21eb3",
          "blockNumber": "0x4b5dece",
          "blockTimestamp": "0x6981b468",
          "transactionHash": "0xbb76e3c56e49b938e8766402e2318cf587f799775d09375af7d250648707ae72",
          "transactionIndex": "0x37",
          "logIndex": "0x84",
          "removed": false
        }
      ],
      "logsBloom": "0x00000000000000000000000000000800000000000000000000000000000000000000000000000000000000000000000000100000000000000000000000804000000000000000000000000000000000000000000000000000000080000000000000000000000000000000000000000000000000000000000010000040000000000000000000000000000000000000000000000000000000000000000008000000000000000000000000000080000000000000002000000080000000000000040000000400000000000000000000000000000000000000000000000000000000000000000000000000000000000001000000000000000000000000000000000010",
      "type": "0x2",
      "transactionHash": "0xbb76e3c56e49b938e8766402e2318cf587f799775d09375af7d250648707ae72",
      "transactionIndex": "0x37",
      "blockHash": "0x31aceb00fce1fe846a438f767dc8f33a5a61001d977aab5b8409fdaa48e21eb3",
      "blockNumber": "0x4b5dece",
      "gasUsed": "0x617e5",
      "effectiveGasPrice": "0x2faf080",
      "from": "0xd7e38800201d6a42c408bf79d8723740c4e7f631",
      "to": "0x8f73b65b4caaf64fba2af91cc5d4a2a1318e5d8c",
      "contractAddress": null
    }
  ],
  "libraries": [],
  "pending": [],
  "returns": {},
  "timestamp": 1770108009928,
  "chain": 56,
  "commit": "5f0dfc8"
}