{
  "transactions": [
    {
      "hash": "0xac4b9f5f3f9781ddba19b194bb17da7234428064934b6867fbcb60ce9e856367",
      "transactionType": "CALL",
      "contractName": null,
      "contractAddress": "0x367384c54756a25340c63057d87ea22d47fd5701",
      "function": "grantRole(bytes32,address)",
      "arguments": [
        "0x0000000000000000000000000000000000000000000000000000000000000000",
        "0x07D274a68393E8b8a2CCf19A2ce4Ba3518735253"
      ],
      "transaction": {
        "from": "0xd7e38800201d6a42c408bf79d8723740c4e7f631",
        "to": "0x367384c54756a25340c63057d87ea22d47fd5701",
        "gas": "0x25dce",
        "value": "0x0",
        "input": "0x2f2ff15d000000000000000000000000000000000000000000000000000000000000000000000000000000000000000007d274a68393e8b8a2ccf19a2ce4ba3518735253",
        "nonce": "0x19f",
        "chainId": "0x38"
      },
      "additionalContracts": [],
      "isFixedGasLimit": false
    },
    {
      "hash": "0xdf20d5a2ae748594965bc184dbb1d8d8537528457a41cb0b0e65ca35621e06a7",
      "transactionType": "CALL",
      "contractName": null,
      "contractAddress": "0x367384c54756a25340c63057d87ea22d47fd5701",
      "function": "grantRole(bytes32,address)",
      "arguments": [
        "0xaf290d8680820aad922855f39b306097b20e28774d6c1ad35a20325630c3a02c",
        "0x8d388136d578dCD791D081c6042284CED6d9B0c6"
      ],
      "transaction": {
        "from": "0xd7e38800201d6a42c408bf79d8723740c4e7f631",
        "to": "0x367384c54756a25340c63057d87ea22d47fd5701",
        "gas": "0x25fff",
        "value": "0x0",
        "input": "0x2f2ff15daf290d8680820aad922855f39b306097b20e28774d6c1ad35a20325630c3a02c0000000000000000000000008d388136d578dcd791d081c6042284ced6d9b0c6",
        "nonce": "0x1a0",
        "chainId": "0x38"
      },
      "additionalContracts": [],
      "isFixedGasLimit": false
    },
    {
      "hash": "0x9976e142cddc69a48013415f40100a902fdf43260a173f0a5071f03d0134d3bb",
      "transactionType": "CALL",
      "contractName": null,
      "contractAddress": "0x367384c54756a25340c63057d87ea22d47fd5701",
      "function": "revokeRole(bytes32,address)",
      "arguments": [
        "0xaf290d8680820aad922855f39b306097b20e28774d6c1ad35a20325630c3a02c",
        "0xd7e38800201D6a42C408Bf79d8723740C4E7f631"
      ],
      "transaction": {
        "from": "0xd7e38800201d6a42c408bf79d8723740c4e7f631",
        "to": "0x367384c54756a25340c63057d87ea22d47fd5701",
        "gas": "0x12c8f",
        "value": "0x0",
        "input": "0xd547741faf290d8680820aad922855f39b306097b20e28774d6c1ad35a20325630c3a02c000000000000000000000000d7e38800201d6a42c408bf79d8723740c4e7f631",
        "nonce": "0x1a1",
        "chainId": "0x38"
      },
      "additionalContracts": [],
      "isFixedGasLimit": false
    },
    {
      "hash": "0x3757025380d9ef81fd16bf697e5cf114d39b7e3c79db5fee60fa2fd224aca121",
      "transactionType": "CALL",
      "contractName": null,
      "contractAddress": "0x367384c54756a25340c63057d87ea22d47fd5701",
      "function": "revokeRole(bytes32,address)",
      "arguments": [
        "0x0000000000000000000000000000000000000000000000000000000000000000",
        "0xd7e38800201D6a42C408Bf79d8723740C4E7f631"
      ],
      "transaction": {
        "from": "0xd7e38800201d6a42c408bf79d8723740c4e7f631",
        "to": "0x367384c54756a25340c63057d87ea22d47fd5701",
        "gas": "0x11192",
        "value": "0x0",
        "input": "0xd547741f0000000000000000000000000000000000000000000000000000000000000000000000000000000000000000d7e38800201d6a42c408bf79d8723740c4e7f631",
        "nonce": "0x1a2",
        "chainId": "0x38"
      },
      "additionalContracts": [],
      "isFixedGasLimit": false
    },
    {
      "hash": "0x73b767c473b5915a8f56ce25f47c20da0634bb328d8cd874d5d15ea2c98ad2c7",
      "transactionType": "CALL",
      "contractName": null,
      "contractAddress": "0x501be17cca1d8a009753da271d6714c18c1a35c9",
      "function": "grantRole(bytes32,address)",
      "arguments": [
        "0x0000000000000000000000000000000000000000000000000000000000000000",
        "0x07D274a68393E8b8a2CCf19A2ce4Ba3518735253"
      ],
      "transaction": {
        "from": "0xd7e38800201d6a42c408bf79d8723740c4e7f631",
        "to": "0x501be17cca1d8a009753da271d6714c18c1a35c9",
        "gas": "0x25dce",
        "value": "0x0",
        "input": "0x2f2ff15d000000000000000000000000000000000000000000000000000000000000000000000000000000000000000007d274a68393e8b8a2ccf19a2ce4ba3518735253",
        "nonce": "0x1a3",
        "chainId": "0x38"
      },
      "additionalContracts": [],
      "isFixedGasLimit": false
    },
    {
      "hash": "0x59aa583d752330774859454c6f02f99a317ebb778217b618bf3e252f5d3142e6",
      "transactionType": "CALL",
      "contractName": null,
      "contractAddress": "0x501be17cca1d8a009753da271d6714c18c1a35c9",
      "function": "grantRole(bytes32,address)",
      "arguments": [
        "0xaf290d8680820aad922855f39b306097b20e28774d6c1ad35a20325630c3a02c",
        "0x8d388136d578dCD791D081c6042284CED6d9B0c6"
      ],
      "transaction": {
        "from": "0xd7e38800201d6a42c408bf79d8723740c4e7f631",
        "to": "0x501be17cca1d8a009753da271d6714c18c1a35c9",
        "gas": "0x25fff",
        "value": "0x0",
        "input": "0x2f2ff15daf290d8680820aad922855f39b306097b20e28774d6c1ad35a20325630c3a02c0000000000000000000000008d388136d578dcd791d081c6042284ced6d9b0c6",
        "nonce": "0x1a4",
        "chainId": "0x38"
      },
      "additionalContracts": [],
      "isFixedGasLimit": false
    },
    {
      "hash": "0xd79fbefa2229352b01950a5875d395833684cfc7b34d10df3348567036ddf78e",
      "transactionType": "CALL",
      "contractName": null,
      "contractAddress": "0x501be17cca1d8a009753da271d6714c18c1a35c9",
      "function": "revokeRole(bytes32,address)",
      "arguments": [
        "0xaf290d8680820aad922855f39b306097b20e28774d6c1ad35a20325630c3a02c",
        "0xd7e38800201D6a42C408Bf79d8723740C4E7f631"
      ],
      "transaction": {
        "from": "0xd7e38800201d6a42c408bf79d8723740c4e7f631",
        "to": "0x501be17cca1d8a009753da271d6714c18c1a35c9",
        "gas": "0x12c8f",
        "value": "0x0",
        "input": "0xd547741faf290d8680820aad922855f39b306097b20e28774d6c1ad35a20325630c3a02c000000000000000000000000d7e38800201d6a42c408bf79d8723740c4e7f631",
        "nonce": "0x1a5",
        "chainId": "0x38"
      },
      "additionalContracts": [],
      "isFixedGasLimit": false
    },
    {
      "hash": "0x81d305e6df65ba8adfadd6f7dd93ea77766ebcd9ff058b1e72714a32ac21fe84",
      "transactionType": "CALL",
      "contractName": null,
      "contractAddress": "0x501be17cca1d8a009753da271d6714c18c1a35c9",
      "function": "revokeRole(bytes32,address)",
      "arguments": [
        "0x0000000000000000000000000000000000000000000000000000000000000000",
        "0xd7e38800201D6a42C408Bf79d8723740C4E7f631"
      ],
      "transaction": {
        "from": "0xd7e38800201d6a42c408bf79d8723740c4e7f631",
        "to": "0x501be17cca1d8a009753da271d6714c18c1a35c9",
        "gas": "0x11192",
        "value": "0x0",
        "input": "0xd547741f0000000000000000000000000000000000000000000000000000000000000000000000000000000000000000d7e38800201d6a42c408bf79d8723740c4e7f631",
        "nonce": "0x1a6",
        "chainId": "0x38"
      },
      "additionalContracts": [],
      "isFixedGasLimit": false
    }
  ],
  "receipts": [
    {
      "status": "0x1",
      "cumulativeGasUsed": "0x22d9a92",
      "logs": [
        {
          "address": "0x367384c54756a25340c63057d87ea22d47fd5701",
          "topics": [
            "0x2f8788117e7eff1d82e926ec794901d17c78024a50270940304540a733656f0d",
            "0x0000000000000000000000000000000000000000000000000000000000000000",
            "0x00000000000000000000000007d274a68393e8b8a2ccf19a2ce4ba3518735253",
            "0x000000000000000000000000d7e38800201d6a42c408bf79d8723740c4e7f631"
          ],
          "data": "0x",
          "blockHash": "0x488ce455d7b584593df44edb53f03701bb42462085f9cb9fcb6a1e2da6c4b767",
          "blockNumber": "0x2fa0e0c",
          "transactionHash": "0xac4b9f5f3f9781ddba19b194bb17da7234428064934b6867fbcb60ce9e856367",
          "transactionIndex": "0xbe",
          "logIndex": "0x63c",
          "removed": false
        }
      ],
      "logsBloom": "0x00000004000000000000000000000000000000000000000000000000000000000000000000000000000000008000000000000000000000000000000000000000000000000000000000000000002000000000000000000000000000000000000000000004020000000000000000000800000000000000000000000000000000000000040000000000000000000000000000200000000000000000000000040000000000000000000000000000000000000000000000000008001000000000000000000000000000000000000000000000000000000000000110000000000020000080000000000000000000000000000000000000000000000000000000000000",
      "type": "0x0",
      "transactionHash": "0xac4b9f5f3f9781ddba19b194bb17da7234428064934b6867fbcb60ce9e856367",
      "transactionIndex": "0xbe",
      "blockHash": "0x488ce455d7b584593df44edb53f03701bb42462085f9cb9fcb6a1e2da6c4b767",
      "blockNumber": "0x2fa0e0c",
      "gasUsed": "0x19e3a",
      "effectiveGasPrice": "0x5f5e100",
      "from": "0xd7e38800201d6a42c408bf79d8723740c4e7f631",
      "to": "0x367384c54756a25340c63057d87ea22d47fd5701",
      "contractAddress": null
    },
    {
      "status": "0x1",
      "cumulativeGasUsed": "0x22f3a4c",
      "logs": [
        {
          "address": "0x367384c54756a25340c63057d87ea22d47fd5701",
          "topics": [
            "0x2f8788117e7eff1d82e926ec794901d17c78024a50270940304540a733656f0d",
            "0xaf290d8680820aad922855f39b306097b20e28774d6c1ad35a20325630c3a02c",
            "0x0000000000000000000000008d388136d578dcd791d081c6042284ced6d9b0c6",
            "0x000000000000000000000000d7e38800201d6a42c408bf79d8723740c4e7f631"
          ],
          "data": "0x",
          "blockHash": "0x488ce455d7b584593df44edb53f03701bb42462085f9cb9fcb6a1e2da6c4b767",
          "blockNumber": "0x2fa0e0c",
          "transactionHash": "0xdf20d5a2ae748594965bc184dbb1d8d8537528457a41cb0b0e65ca35621e06a7",
          "transactionIndex": "0xbf",
          "logIndex": "0x63d",
          "removed": false
        }
      ],
      "logsBloom": "0x00000004000000000000000000000000000000000000000000000000000000004000000000000000000000008000000000000000000000000000000800000000000000000000000000000000002000008000000000000000000000000000000000000000000000000000000000000000000000000000000000000000004000000000040000000000000000000000000000000000000000000000000000040000000000000000000000000000000000000000000000000008001000000000000000000000000000000000000000010000000002000000000100000000000000000080000000000000000000000000000000000000000000000000000000000000",
      "type": "0x0",
      "transactionHash": "0xdf20d5a2ae748594965bc184dbb1d8d8537528457a41cb0b0e65ca35621e06a7",
      "transactionIndex": "0xbf",
      "blockHash": "0x488ce455d7b584593df44edb53f03701bb42462085f9cb9fcb6a1e2da6c4b767",
      "blockNumber": "0x2fa0e0c",
      "gasUsed": "0x19fba",
      "effectiveGasPrice": "0x5f5e100",
      "from": "0xd7e38800201d6a42c408bf79d8723740c4e7f631",
      "to": "0x367384c54756a25340c63057d87ea22d47fd5701",
      "contractAddress": null
    },
    {
      "status": "0x1",
      "cumulativeGasUsed": "0x23007cf",
      "logs": [
        {
          "address": "0x367384c54756a25340c63057d87ea22d47fd5701",
          "topics": [
            "0xf6391f5c32d9c69d2a47ea670b442974b53935d1edc7fd64eb21e047a839171b",
            "0xaf290d8680820aad922855f39b306097b20e28774d6c1ad35a20325630c3a02c",
            "0x000000000000000000000000d7e38800201d6a42c408bf79d8723740c4e7f631",
            "0x000000000000000000000000d7e38800201d6a42c408bf79d8723740c4e7f631"
          ],
          "data": "0x",
          "blockHash": "0x488ce455d7b584593df44edb53f03701bb42462085f9cb9fcb6a1e2da6c4b767",
          "blockNumber": "0x2fa0e0c",
          "transactionHash": "0x9976e142cddc69a48013415f40100a902fdf43260a173f0a5071f03d0134d3bb",
          "transactionIndex": "0xc0",
          "logIndex": "0x63e",
          "removed": false
        }
      ],
      "logsBloom": "0x00000000000000000000000000000000000000000000000000000000000000000000000000000000000000008000000000200000000000000000000800000000000000000000000000000000002000008000000000000000000000000000000040000000000000000000000000000000000000000000000000000000004000000000040040000000000000000000000000000000000000000000000000040000000000000000000000000000000000000000000000000008000000000000000000000000000000000000000000000000000000000000000000000000000000000080000000000000000000000000000000000000000000000000000000000000",
      "type": "0x0",
      "transactionHash": "0x9976e142cddc69a48013415f40100a902fdf43260a173f0a5071f03d0134d3bb",
      "transactionIndex": "0xc0",
      "blockHash": "0x488ce455d7b584593df44edb53f03701bb42462085f9cb9fcb6a1e2da6c4b767",
      "blockNumber": "0x2fa0e0c",
      "gasUsed": "0xcd83",
      "effectiveGasPrice": "0x5f5e100",
      "from": "0xd7e38800201d6a42c408bf79d8723740c4e7f631",
      "to": "0x367384c54756a25340c63057d87ea22d47fd5701",
      "contractAddress": null
    },
    {
      "status": "0x1",
      "cumulativeGasUsed": "0x230cddf",
      "logs": [
        {
          "address": "0x367384c54756a25340c63057d87ea22d47fd5701",
          "topics": [
            "0xf6391f5c32d9c69d2a47ea670b442974b53935d1edc7fd64eb21e047a839171b",
            "0x0000000000000000000000000000000000000000000000000000000000000000",
            "0x000000000000000000000000d7e38800201d6a42c408bf79d8723740c4e7f631",
            "0x000000000000000000000000d7e38800201d6a42c408bf79d8723740c4e7f631"
          ],
          "data": "0x",
          "blockHash": "0x488ce455d7b584593df44edb53f03701bb42462085f9cb9fcb6a1e2da6c4b767",
          "blockNumber": "0x2fa0e0c",
          "transactionHash": "0x3757025380d9ef81fd16bf697e5cf114d39b7e3c79db5fee60fa2fd224aca121",
          "transactionIndex": "0xc1",
          "logIndex": "0x63f",
          "removed": false
        }
      ],
      "logsBloom": "0x00000000000000000000000000000000000000000000000000000000000000000000000000000000000000008000000000200000000000000000000000000000000000000000000000000000002000000000000000000000000000000000000040000000020000000000000000000800000000000000000000000000000000000000040040000000000000000000000000000000000000000000000000040000000000000000000000000000000000000000000000000008000000000000000000000000000000000000000000000000000000000000000000000000000020000080000000000000000000000000000000000000000000000000000000000000",
      "type": "0x0",
      "transactionHash": "0x3757025380d9ef81fd16bf697e5cf114d39b7e3c79db5fee60fa2fd224aca121",
      "transactionIndex": "0xc1",
      "blockHash": "0x488ce455d7b584593df44edb53f03701bb42462085f9cb9fcb6a1e2da6c4b767",
      "blockNumber": "0x2fa0e0c",
      "gasUsed": "0xc610",
      "effectiveGasPrice": "0x5f5e100",
      "from": "0xd7e38800201d6a42c408bf79d8723740c4e7f631",
      "to": "0x367384c54756a25340c63057d87ea22d47fd5701",
      "contractAddress": null
    },
    {
      "status": "0x1",
      "cumulativeGasUsed": "0x2326c19",
      "logs": [
        {
          "address": "0x501be17cca1d8a009753da271d6714c18c1a35c9",
          "topics": [
            "0x2f8788117e7eff1d82e926ec794901d17c78024a50270940304540a733656f0d",
            "0x0000000000000000000000000000000000000000000000000000000000000000",
            "0x00000000000000000000000007d274a68393e8b8a2ccf19a2ce4ba3518735253",
            "0x000000000000000000000000d7e38800201d6a42c408bf79d8723740c4e7f631"
          ],
          "data": "0x",
          "blockHash": "0x488ce455d7b584593df44edb53f03701bb42462085f9cb9fcb6a1e2da6c4b767",
          "blockNumber": "0x2fa0e0c",
          "transactionHash": "0x73b767c473b5915a8f56ce25f47c20da0634bb328d8cd874d5d15ea2c98ad2c7",
          "transactionIndex": "0xc2",
          "logIndex": "0x640",
          "removed": false
        }
      ],
      "logsBloom": "0x00000004000000000000000000000000000000000000000000000000000000000000000000000000000000000000000000000000000000000000000000000000000000000000000000000000002000000000000000200000000000000000000000000004020000000000000000000800000000000000000000000000000000000000000000000000000000000000000000a00000000000000000000000040000000000000000000000000000000000000000000000000000001000000000000000002000000000000000000000000000000000000000000110000000000020000080000000000000000000000000000000000000000000000000000000000000",
      "type": "0x0",
      "transactionHash": "0x73b767c473b5915a8f56ce25f47c20da0634bb328d8cd874d5d15ea2c98ad2c7",
      "transactionIndex": "0xc2",
      "blockHash": "0x488ce455d7b584593df44edb53f03701bb42462085f9cb9fcb6a1e2da6c4b767",
      "blockNumber": "0x2fa0e0c",
      "gasUsed": "0x19e3a",
      "effectiveGasPrice": "0x5f5e100",
      "from": "0xd7e38800201d6a42c408bf79d8723740c4e7f631",
      "to": "0x501be17cca1d8a009753da271d6714c18c1a35c9",
      "contractAddress": null
    },
    {
      "status": "0x1",
      "cumulativeGasUsed": "0x2340bd3",
      "logs": [
        {
          "address": "0x501be17cca1d8a009753da271d6714c18c1a35c9",
          "topics": [
            "0x2f8788117e7eff1d82e926ec794901d17c78024a50270940304540a733656f0d",
            "0xaf290d8680820aad922855f39b306097b20e28774d6c1ad35a20325630c3a02c",
            "0x0000000000000000000000008d388136d578dcd791d081c6042284ced6d9b0c6",
            "0x000000000000000000000000d7e38800201d6a42c408bf79d8723740c4e7f631"
          ],
          "data": "0x",
          "blockHash": "0x488ce455d7b584593df44edb53f03701bb42462085f9cb9fcb6a1e2da6c4b767",
          "blockNumber": "0x2fa0e0c",
          "transactionHash": "0x59aa583d752330774859454c6f02f99a317ebb778217b618bf3e252f5d3142e6",
          "transactionIndex": "0xc3",
          "logIndex": "0x641",
          "removed": false
        }
      ],
      "logsBloom": "0x00000004000000000000000000000000000000000000000000000000000000004000000000000000000000000000000000000000000000000000000800000000000000000000000000000000002000008000000000200000000000000000000000000000000000000000000000000000000000000000000000000000004000000000000000000000000000000000000000800000000000000000000000040000000000000000000000000000000000000000000000000000001000000000000000002000000000000000000000010000000002000000000100000000000000000080000000000000000000000000000000000000000000000000000000000000",
      "type": "0x0",
      "transactionHash": "0x59aa583d752330774859454c6f02f99a317ebb778217b618bf3e252f5d3142e6",
      "transactionIndex": "0xc3",
      "blockHash": "0x488ce455d7b584593df44edb53f03701bb42462085f9cb9fcb6a1e2da6c4b767",
      "blockNumber": "0x2fa0e0c",
      "gasUsed": "0x19fba",
      "effectiveGasPrice": "0x5f5e100",
      "from": "0xd7e38800201d6a42c408bf79d8723740c4e7f631",
      "to": "0x501be17cca1d8a009753da271d6714c18c1a35c9",
      "contractAddress": null
    },
    {
      "status": "0x1",
      "cumulativeGasUsed": "0x234d956",
      "logs": [
        {
          "address": "0x501be17cca1d8a009753da271d6714c18c1a35c9",
          "topics": [
            "0xf6391f5c32d9c69d2a47ea670b442974b53935d1edc7fd64eb21e047a839171b",
            "0xaf290d8680820aad922855f39b306097b20e28774d6c1ad35a20325630c3a02c",
            "0x000000000000000000000000d7e38800201d6a42c408bf79d8723740c4e7f631",
            "0x000000000000000000000000d7e38800201d6a42c408bf79d8723740c4e7f631"
          ],
          "data": "0x",
          "blockHash": "0x488ce455d7b584593df44edb53f03701bb42462085f9cb9fcb6a1e2da6c4b767",
          "blockNumber": "0x2fa0e0c",
          "transactionHash": "0xd79fbefa2229352b01950a5875d395833684cfc7b34d10df3348567036ddf78e",
          "transactionIndex": "0xc4",
          "logIndex": "0x642",
          "removed": false
        }
      ],
      "logsBloom": "0x00000000000000000000000000000000000000000000000000000000000000000000000000000000000000000000000000200000000000000000000800000000000000000000000000000000002000008000000000200000000000000000000040000000000000000000000000000000000000000000000000000000004000000000000040000000000000000000000000800000000000000000000000040000000000000000000000000000000000000000000000000000000000000000000000002000000000000000000000000000000000000000000000000000000000000080000000000000000000000000000000000000000000000000000000000000",
      "type": "0x0",
      "transactionHash": "0xd79fbefa2229352b01950a5875d395833684cfc7b34d10df3348567036ddf78e",
      "transactionIndex": "0xc4",
      "blockHash": "0x488ce455d7b584593df44edb53f03701bb42462085f9cb9fcb6a1e2da6c4b767",
      "blockNumber": "0x2fa0e0c",
      "gasUsed": "0xcd83",
      "effectiveGasPrice": "0x5f5e100",
      "from": "0xd7e38800201d6a42c408bf79d8723740c4e7f631",
      "to": "0x501be17cca1d8a009753da271d6714c18c1a35c9",
      "contractAddress": null
    },
    {
      "status": "0x1",
      "cumulativeGasUsed": "0x23691c8",
      "logs": [
        {
          "address": "0x501be17cca1d8a009753da271d6714c18c1a35c9",
          "topics": [
            "0xf6391f5c32d9c69d2a47ea670b442974b53935d1edc7fd64eb21e047a839171b",
            "0x0000000000000000000000000000000000000000000000000000000000000000",
            "0x000000000000000000000000d7e38800201d6a42c408bf79d8723740c4e7f631",
            "0x000000000000000000000000d7e38800201d6a42c408bf79d8723740c4e7f631"
          ],
          "data": "0x",
          "blockHash": "0x488ce455d7b584593df44edb53f03701bb42462085f9cb9fcb6a1e2da6c4b767",
          "blockNumber": "0x2fa0e0c",
          "transactionHash": "0x81d305e6df65ba8adfadd6f7dd93ea77766ebcd9ff058b1e72714a32ac21fe84",
          "transactionIndex": "0xc6",
          "logIndex": "0x643",
          "removed": false
        }
      ],
      "logsBloom": "0x00000000000000000000000000000000000000000000000000000000000000000000000000000000000000000000000000200000000000000000000000000000000000000000000000000000002000000000000000200000000000000000000040000000020000000000000000000800000000000000000000000000000000000000000040000000000000000000000000800000000000000000000000040000000000000000000000000000000000000000000000000000000000000000000000002000000000000000000000000000000000000000000000000000000020000080000000000000000000000000000000000000000000000000000000000000",
      "type": "0x0",
      "transactionHash": "0x81d305e6df65ba8adfadd6f7dd93ea77766ebcd9ff058b1e72714a32ac21fe84",
      "transactionIndex": "0xc6",
      "blockHash": "0x488ce455d7b584593df44edb53f03701bb42462085f9cb9fcb6a1e2da6c4b767",
      "blockNumber": "0x2fa0e0c",
      "gasUsed": "0xc610",
      "effectiveGasPrice": "0x5f5e100",
      "from": "0xd7e38800201d6a42c408bf79d8723740c4e7f631",
      "to": "0x501be17cca1d8a009753da271d6714c18c1a35c9",
      "contractAddress": null
    }
  ],
  "libraries": [],
  "pending": [],
  "returns": {},
  "timestamp": 1747656420,
  "chain": 56,
  "commit": "af26d3c"
}