{
  "transactions": [
    {
      "hash": "0x90de78f39f70b3773908afd9bbe9d6a47e07a4a5acd31837942998175a6a9fd7",
      "transactionType": "CALL",
      "contractName": null,
      "contractAddress": "0x6f4d7532a402d76f552e1f047ff7e23bfe1a9f03",
      "function": "grantRole(bytes32,address)",
      "arguments": [
        "0x0000000000000000000000000000000000000000000000000000000000000000",
        "0x07D274a68393E8b8a2CCf19A2ce4Ba3518735253"
      ],
      "transaction": {
        "from": "0xd7e38800201d6a42c408bf79d8723740c4e7f631",
        "to": "0x6f4d7532a402d76f552e1f047ff7e23bfe1a9f03",
        "gas": "0x25cb6",
        "value": "0x0",
        "input": "0x2f2ff15d000000000000000000000000000000000000000000000000000000000000000000000000000000000000000007d274a68393e8b8a2ccf19a2ce4ba3518735253",
        "nonce": "0x464",
        "chainId": "0x38"
      },
      "additionalContracts": [],
      "isFixedGasLimit": false
    },
    {
      "hash": "0x0452e62b7a15a9d142295630c8b2351898e5280831a9f602884ebfbf2d708072",
      "transactionType": "CALL",
      "contractName": null,
      "contractAddress": "0x6f4d7532a402d76f552e1f047ff7e23bfe1a9f03",
      "function": "revokeRole(bytes32,address)",
      "arguments": [
        "0x0000000000000000000000000000000000000000000000000000000000000000",
        "0xd7e38800201D6a42C408Bf79d8723740C4E7f631"
      ],
      "transaction": {
        "from": "0xd7e38800201d6a42c408bf79d8723740c4e7f631",
        "to": "0x6f4d7532a402d76f552e1f047ff7e23bfe1a9f03",
        "gas": "0x112b8",
        "value": "0x0",
        "input": "0xd547741f0000000000000000000000000000000000000000000000000000000000000000000000000000000000000000d7e38800201d6a42c408bf79d8723740c4e7f631",
        "nonce": "0x465",
        "chainId": "0x38"
      },
      "additionalContracts": [],
      "isFixedGasLimit": false
    },
    {
      "hash": "0xa0c7d932f3f4ece1134725dacdfd664f9068196be93a1e1a5dd9e8e0f664c194",
      "transactionType": "CALL",
      "contractName": "ERC1967Proxy",
      "contractAddress": "0x719f6445cdac08b84611d0f19d733f57214bcfee",
      "function": null,
      "arguments": null,
      "transaction": {
        "from": "0xd7e38800201d6a42c408bf79d8723740c4e7f631",
        "to": "0x719f6445cdac08b84611d0f19d733f57214bcfee",
        "gas": "0x25cb6",
        "value": "0x0",
        "input": "0x2f2ff15d000000000000000000000000000000000000000000000000000000000000000000000000000000000000000007d274a68393e8b8a2ccf19a2ce4ba3518735253",
        "nonce": "0x466",
        "chainId": "0x38"
      },
      "additionalContracts": [],
      "isFixedGasLimit": false
    },
    {
      "hash": "0xb829fa50a96351bc7500739d6f94d784409c0b0ae19b6d0f3c813083b26da7a3",
      "transactionType": "CALL",
      "contractName": "ERC1967Proxy",
      "contractAddress": "0x719f6445cdac08b84611d0f19d733f57214bcfee",
      "function": null,
      "arguments": null,
      "transaction": {
        "from": "0xd7e38800201d6a42c408bf79d8723740c4e7f631",
        "to": "0x719f6445cdac08b84611d0f19d733f57214bcfee",
        "gas": "0x112b8",
        "value": "0x0",
        "input": "0xd547741f0000000000000000000000000000000000000000000000000000000000000000000000000000000000000000d7e38800201d6a42c408bf79d8723740c4e7f631",
        "nonce": "0x467",
        "chainId": "0x38"
      },
      "additionalContracts": [],
      "isFixedGasLimit": false
    }
  ],
  "receipts": [
    {
      "status": "0x1",
      "cumulativeGasUsed": "0x1aa823c",
      "logs": [
        {
          "address": "0x6f4d7532a402d76f552e1f047ff7e23bfe1a9f03",
          "topics": [
            "0x2f8788117e7eff1d82e926ec794901d17c78024a50270940304540a733656f0d",
            "0x0000000000000000000000000000000000000000000000000000000000000000",
            "0x00000000000000000000000007d274a68393e8b8a2ccf19a2ce4ba3518735253",
            "0x000000000000000000000000d7e38800201d6a42c408bf79d8723740c4e7f631"
          ],
          "data": "0x",
          "blockHash": "0x5add4337aeb9f77c24d3f08604b4870ef3dd744aa8ede1e62da03df3be81360f",
          "blockNumber": "0x3f92e50",
          "transactionHash": "0x90de78f39f70b3773908afd9bbe9d6a47e07a4a5acd31837942998175a6a9fd7",
          "transactionIndex": "0x85",
          "logIndex": "0x3d1",
          "removed": false
        }
      ],
      "logsBloom": "0x00000004000000000000000000000000000000000000000000000000000000000000000000000000000000000000000000000000000000000000000000000000000000000000000000000000002000000000000000000000000000000000000000000004020000000000000000000800000000000000000000000000000000000020000000000000000000000000000000200000000000000000000000040000000000000100000000000000000000000000000000000000001000000000000000000000000000000000000000000000000000000000000110000000000020000080000000000000000000000000000000000000000040000000000000000000",
      "type": "0x2",
      "transactionHash": "0x90de78f39f70b3773908afd9bbe9d6a47e07a4a5acd31837942998175a6a9fd7",
      "transactionIndex": "0x85",
      "blockHash": "0x5add4337aeb9f77c24d3f08604b4870ef3dd744aa8ede1e62da03df3be81360f",
      "blockNumber": "0x3f92e50",
      "gasUsed": "0x19d7b",
      "effectiveGasPrice": "0x2faf080",
      "from": "0xd7e38800201d6a42c408bf79d8723740c4e7f631",
      "to": "0x6f4d7532a402d76f552e1f047ff7e23bfe1a9f03",
      "contractAddress": null
    },
    {
      "status": "0x1",
      "cumulativeGasUsed": "0x1ab4921",
      "logs": [
        {
          "address": "0x6f4d7532a402d76f552e1f047ff7e23bfe1a9f03",
          "topics": [
            "0xf6391f5c32d9c69d2a47ea670b442974b53935d1edc7fd64eb21e047a839171b",
            "0x0000000000000000000000000000000000000000000000000000000000000000",
            "0x000000000000000000000000d7e38800201d6a42c408bf79d8723740c4e7f631",
            "0x000000000000000000000000d7e38800201d6a42c408bf79d8723740c4e7f631"
          ],
          "data": "0x",
          "blockHash": "0x5add4337aeb9f77c24d3f08604b4870ef3dd744aa8ede1e62da03df3be81360f",
          "blockNumber": "0x3f92e50",
          "transactionHash": "0x0452e62b7a15a9d142295630c8b2351898e5280831a9f602884ebfbf2d708072",
          "transactionIndex": "0x86",
          "logIndex": "0x3d2",
          "removed": false
        }
      ],
      "logsBloom": "0x00000000000000000000000000000000000000000000000000000000000000000000000000000000000000000000000000200000000000000000000000000000000000000000000000000000002000000000000000000000000000000000000040000000020000000000000000000800000000000000000000000000000000000020000040000000000000000000000000000000000000000000000000040000000000000100000000000000000000000000000000000000000000000000000000000000000000000000000000000000000000000000000000000000000020000080000000000000000000000000000000000000000040000000000000000000",
      "type": "0x2",
      "transactionHash": "0x0452e62b7a15a9d142295630c8b2351898e5280831a9f602884ebfbf2d708072",
      "transactionIndex": "0x86",
      "blockHash": "0x5add4337aeb9f77c24d3f08604b4870ef3dd744aa8ede1e62da03df3be81360f",
      "blockNumber": "0x3f92e50",
      "gasUsed": "0xc6e5",
      "effectiveGasPrice": "0x2faf080",
      "from": "0xd7e38800201d6a42c408bf79d8723740c4e7f631",
      "to": "0x6f4d7532a402d76f552e1f047ff7e23bfe1a9f03",
      "contractAddress": null
    },
    {
      "status": "0x1",
      "cumulativeGasUsed": "0x1ace69c",
      "logs": [
        {
          "address": "0x719f6445cdac08b84611d0f19d733f57214bcfee",
          "topics": [
            "0x2f8788117e7eff1d82e926ec794901d17c78024a50270940304540a733656f0d",
            "0x0000000000000000000000000000000000000000000000000000000000000000",
            "0x00000000000000000000000007d274a68393e8b8a2ccf19a2ce4ba3518735253",
            "0x000000000000000000000000d7e38800201d6a42c408bf79d8723740c4e7f631"
          ],
          "data": "0x",
          "blockHash": "0x5add4337aeb9f77c24d3f08604b4870ef3dd744aa8ede1e62da03df3be81360f",
          "blockNumber": "0x3f92e50",
          "transactionHash": "0xa0c7d932f3f4ece1134725dacdfd664f9068196be93a1e1a5dd9e8e0f664c194",
          "transactionIndex": "0x87",
          "logIndex": "0x3d3",
          "removed": false
        }
      ],
      "logsBloom": "0x00000004000000000000000000000000000000000000000000000000000000000000000000000000000000000000000000000000000000000000000000000000000000000000000000000000002000080000000000000000000000000000000000000004020000000000000000000800000000000000000000000000000000000000000000000000000000000000000100200000000000000000000000040000000000000000000000000000000000000000000000000000001000000000000000000000000000000000000000000000000000000000000110000020000020000080000000000000000000000000000000000000000000000000000000000000",
      "type": "0x2",
      "transactionHash": "0xa0c7d932f3f4ece1134725dacdfd664f9068196be93a1e1a5dd9e8e0f664c194",
      "transactionIndex": "0x87",
      "blockHash": "0x5add4337aeb9f77c24d3f08604b4870ef3dd744aa8ede1e62da03df3be81360f",
      "blockNumber": "0x3f92e50",
      "gasUsed": "0x19d7b",
      "effectiveGasPrice": "0x2faf080",
      "from": "0xd7e38800201d6a42c408bf79d8723740c4e7f631",
      "to": "0x719f6445cdac08b84611d0f19d733f57214bcfee",
      "contractAddress": null
    },
    {
      "status": "0x1",
      "cumulativeGasUsed": "0x1adad81",
      "logs": [
        {
          "address": "0x719f6445cdac08b84611d0f19d733f57214bcfee",
          "topics": [
            "0xf6391f5c32d9c69d2a47ea670b442974b53935d1edc7fd64eb21e047a839171b",
            "0x0000000000000000000000000000000000000000000000000000000000000000",
            "0x000000000000000000000000d7e38800201d6a42c408bf79d8723740c4e7f631",
            "0x000000000000000000000000d7e38800201d6a42c408bf79d8723740c4e7f631"
          ],
          "data": "0x",
          "blockHash": "0x5add4337aeb9f77c24d3f08604b4870ef3dd744aa8ede1e62da03df3be81360f",
          "blockNumber": "0x3f92e50",
          "transactionHash": "0xb829fa50a96351bc7500739d6f94d784409c0b0ae19b6d0f3c813083b26da7a3",
          "transactionIndex": "0x88",
          "logIndex": "0x3d4",
          "removed": false
        }
      ],
      "logsBloom": "0x00000000000000000000000000000000000000000000000000000000000000000000000000000000000000000000000000200000000000000000000000000000000000000000000000000000002000080000000000000000000000000000000040000000020000000000000000000800000000000000000000000000000000000000000040000000000000000000000100000000000000000000000000040000000000000000000000000000000000000000000000000000000000000000000000000000000000000000000000000000000000000000000000000020000020000080000000000000000000000000000000000000000000000000000000000000",
      "type": "0x2",
      "transactionHash": "0xb829fa50a96351bc7500739d6f94d784409c0b0ae19b6d0f3c813083b26da7a3",
      "transactionIndex": "0x88",
      "blockHash": "0x5add4337aeb9f77c24d3f08604b4870ef3dd744aa8ede1e62da03df3be81360f",
      "blockNumber": "0x3f92e50",
      "gasUsed": "0xc6e5",
      "effectiveGasPrice": "0x2faf080",
      "from": "0xd7e38800201d6a42c408bf79d8723740c4e7f631",
      "to": "0x719f6445cdac08b84611d0f19d733f57214bcfee",
      "contractAddress": null
    }
  ],
  "libraries": [],
  "pending": [],
  "returns": {},
  "timestamp": 1761997393709,
  "chain": 56,
  "commit": "6919a34"
}