{
  "transactions": [
    {
      "hash": "0x836e5429f885f8bb4fe0da78c688e9ec2304735f247bef43c5ecf297b23cef36",
      "transactionType": "CALL",
      "contractName": null,
      "contractAddress": "0xe46b8e65006e6450bdd8cb7d3274ab4f76f4c705",
      "function": "grantRole(bytes32,address)",
      "arguments": [
        "0x0000000000000000000000000000000000000000000000000000000000000000",
        "0x07D274a68393E8b8a2CCf19A2ce4Ba3518735253"
      ],
      "transaction": {
        "from": "0xd7e38800201d6a42c408bf79d8723740c4e7f631",
        "to": "0xe46b8e65006e6450bdd8cb7d3274ab4f76f4c705",
        "gas": "0x25dce",
        "value": "0x0",
        "input": "0x2f2ff15d000000000000000000000000000000000000000000000000000000000000000000000000000000000000000007d274a68393e8b8a2ccf19a2ce4ba3518735253",
        "nonce": "0x106",
        "chainId": "0x38"
      },
      "additionalContracts": [],
      "isFixedGasLimit": false
    },
    {
      "hash": "0xaf223d6ec251896961e6368af3c6cbc6f74c346c1b4c552535754fc530d83d3e",
      "transactionType": "CALL",
      "contractName": null,
      "contractAddress": "0xe46b8e65006e6450bdd8cb7d3274ab4f76f4c705",
      "function": "grantRole(bytes32,address)",
      "arguments": [
        "0xaf290d8680820aad922855f39b306097b20e28774d6c1ad35a20325630c3a02c",
        "0x2e2807F88C381Cb0CC55c808a751fC1E3fcCbb85"
      ],
      "transaction": {
        "from": "0xd7e38800201d6a42c408bf79d8723740c4e7f631",
        "to": "0xe46b8e65006e6450bdd8cb7d3274ab4f76f4c705",
        "gas": "0x25fff",
        "value": "0x0",
        "input": "0x2f2ff15daf290d8680820aad922855f39b306097b20e28774d6c1ad35a20325630c3a02c0000000000000000000000002e2807f88c381cb0cc55c808a751fc1e3fccbb85",
        "nonce": "0x107",
        "chainId": "0x38"
      },
      "additionalContracts": [],
      "isFixedGasLimit": false
    },
    {
      "hash": "0xabee20e549a67afffa78d645af5f8a2835df809adb03f6fd149bad63be8267c0",
      "transactionType": "CALL",
      "contractName": null,
      "contractAddress": "0xe46b8e65006e6450bdd8cb7d3274ab4f76f4c705",
      "function": "grantRole(bytes32,address)",
      "arguments": [
        "0xdcac51f5d253e2787a458cfb1d6b8faf248cf16367710f9e3b6bd5644d23f8db",
        "0x85CE862C5BB61938FFcc97DA4A80C8aaE43C6A27"
      ],
      "transaction": {
        "from": "0xd7e38800201d6a42c408bf79d8723740c4e7f631",
        "to": "0xe46b8e65006e6450bdd8cb7d3274ab4f76f4c705",
        "gas": "0x25fff",
        "value": "0x0",
        "input": "0x2f2ff15ddcac51f5d253e2787a458cfb1d6b8faf248cf16367710f9e3b6bd5644d23f8db00000000000000000000000085ce862c5bb61938ffcc97da4a80c8aae43c6a27",
        "nonce": "0x108",
        "chainId": "0x38"
      },
      "additionalContracts": [],
      "isFixedGasLimit": false
    },
    {
      "hash": "0x5e1291cbb7629e32cebdb7df9bcdc12f5c63fa1c6476a90de27f925ab7ab2eb7",
      "transactionType": "CALL",
      "contractName": null,
      "contractAddress": "0xe46b8e65006e6450bdd8cb7d3274ab4f76f4c705",
      "function": "grantRole(bytes32,address)",
      "arguments": [
        "0x0aec9b08bc8c2cb62a91f52d33e3d77da4b3f3a63fc8b542a93abe3902ba929c",
        "0x2e2807F88C381Cb0CC55c808a751fC1E3fcCbb85"
      ],
      "transaction": {
        "from": "0xd7e38800201d6a42c408bf79d8723740c4e7f631",
        "to": "0xe46b8e65006e6450bdd8cb7d3274ab4f76f4c705",
        "gas": "0x25fff",
        "value": "0x0",
        "input": "0x2f2ff15d0aec9b08bc8c2cb62a91f52d33e3d77da4b3f3a63fc8b542a93abe3902ba929c0000000000000000000000002e2807f88c381cb0cc55c808a751fc1e3fccbb85",
        "nonce": "0x109",
        "chainId": "0x38"
      },
      "additionalContracts": [],
      "isFixedGasLimit": false
    },
    {
      "hash": "0x46ae3a00aebf93e2567f7c4d223de8dd62ea10abcdc4b0d081483369390ea9a9",
      "transactionType": "CALL",
      "contractName": null,
      "contractAddress": "0xe46b8e65006e6450bdd8cb7d3274ab4f76f4c705",
      "function": "revokeRole(bytes32,address)",
      "arguments": [
        "0x0aec9b08bc8c2cb62a91f52d33e3d77da4b3f3a63fc8b542a93abe3902ba929c",
        "0xd7e38800201D6a42C408Bf79d8723740C4E7f631"
      ],
      "transaction": {
        "from": "0xd7e38800201d6a42c408bf79d8723740c4e7f631",
        "to": "0xe46b8e65006e6450bdd8cb7d3274ab4f76f4c705",
        "gas": "0x11bde",
        "value": "0x0",
        "input": "0xd547741f0aec9b08bc8c2cb62a91f52d33e3d77da4b3f3a63fc8b542a93abe3902ba929c000000000000000000000000d7e38800201d6a42c408bf79d8723740c4e7f631",
        "nonce": "0x10a",
        "chainId": "0x38"
      },
      "additionalContracts": [],
      "isFixedGasLimit": false
    },
    {
      "hash": "0x92109265a498f018e846ea87fade862234cf5bf829ff27f6f880d0a6e071d5f2",
      "transactionType": "CALL",
      "contractName": null,
      "contractAddress": "0xe46b8e65006e6450bdd8cb7d3274ab4f76f4c705",
      "function": "revokeRole(bytes32,address)",
      "arguments": [
        "0xdcac51f5d253e2787a458cfb1d6b8faf248cf16367710f9e3b6bd5644d23f8db",
        "0xd7e38800201D6a42C408Bf79d8723740C4E7f631"
      ],
      "transaction": {
        "from": "0xd7e38800201d6a42c408bf79d8723740c4e7f631",
        "to": "0xe46b8e65006e6450bdd8cb7d3274ab4f76f4c705",
        "gas": "0x11bde",
        "value": "0x0",
        "input": "0xd547741fdcac51f5d253e2787a458cfb1d6b8faf248cf16367710f9e3b6bd5644d23f8db000000000000000000000000d7e38800201d6a42c408bf79d8723740c4e7f631",
        "nonce": "0x10b",
        "chainId": "0x38"
      },
      "additionalContracts": [],
      "isFixedGasLimit": false
    },
    {
      "hash": "0x340e46106b21c775f9065d2a0a2a9eebae6678924df0f0bf2c6baff66e77c8d2",
      "transactionType": "CALL",
      "contractName": null,
      "contractAddress": "0xe46b8e65006e6450bdd8cb7d3274ab4f76f4c705",
      "function": "revokeRole(bytes32,address)",
      "arguments": [
        "0xaf290d8680820aad922855f39b306097b20e28774d6c1ad35a20325630c3a02c",
        "0xd7e38800201D6a42C408Bf79d8723740C4E7f631"
      ],
      "transaction": {
        "from": "0xd7e38800201d6a42c408bf79d8723740c4e7f631",
        "to": "0xe46b8e65006e6450bdd8cb7d3274ab4f76f4c705",
        "gas": "0x11bde",
        "value": "0x0",
        "input": "0xd547741faf290d8680820aad922855f39b306097b20e28774d6c1ad35a20325630c3a02c000000000000000000000000d7e38800201d6a42c408bf79d8723740c4e7f631",
        "nonce": "0x10c",
        "chainId": "0x38"
      },
      "additionalContracts": [],
      "isFixedGasLimit": false
    },
    {
      "hash": "0x68218ef1448ff0b37ccce4ed05d4c270a9c54099c69f95e7b699603bbd7b8c27",
      "transactionType": "CALL",
      "contractName": null,
      "contractAddress": "0xe46b8e65006e6450bdd8cb7d3274ab4f76f4c705",
      "function": "revokeRole(bytes32,address)",
      "arguments": [
        "0x0000000000000000000000000000000000000000000000000000000000000000",
        "0xd7e38800201D6a42C408Bf79d8723740C4E7f631"
      ],
      "transaction": {
        "from": "0xd7e38800201d6a42c408bf79d8723740c4e7f631",
        "to": "0xe46b8e65006e6450bdd8cb7d3274ab4f76f4c705",
        "gas": "0x11192",
        "value": "0x0",
        "input": "0xd547741f0000000000000000000000000000000000000000000000000000000000000000000000000000000000000000d7e38800201d6a42c408bf79d8723740c4e7f631",
        "nonce": "0x10d",
        "chainId": "0x38"
      },
      "additionalContracts": [],
      "isFixedGasLimit": false
    }
  ],
  "receipts": [
    {
      "status": "0x1",
      "cumulativeGasUsed": "0xf5cc72",
      "logs": [
        {
          "address": "0xe46b8e65006e6450bdd8cb7d3274ab4f76f4c705",
          "topics": [
            "0x2f8788117e7eff1d82e926ec794901d17c78024a50270940304540a733656f0d",
            "0x0000000000000000000000000000000000000000000000000000000000000000",
            "0x00000000000000000000000007d274a68393e8b8a2ccf19a2ce4ba3518735253",
            "0x000000000000000000000000d7e38800201d6a42c408bf79d8723740c4e7f631"
          ],
          "data": "0x",
          "blockHash": "0xc45c0a958dc8d986b7e8bb08de8945488deb84d66f625f10db39e1f36c10d043",
          "blockNumber": "0x2e7d947",
          "transactionHash": "0x836e5429f885f8bb4fe0da78c688e9ec2304735f247bef43c5ecf297b23cef36",
          "transactionIndex": "0x82",
          "logIndex": "0x245",
          "removed": false
        }
      ],
      "logsBloom": "0x00000004000000000000000000000000000000000000000000000000000000000002000000000000000000000000000000000000000000000000000000000000000000000000000000000000002000000000000000000000000000000000008000000004020000000000000000000800000000000000000000000000000000000000000000000000000000000000000000200000000000000000080000040000000000000000000000000000000000000000000000000000001000000000000000000000000000000000000000000000000000000000000110000000000020000080000000000000000000000000000000000000000000000000000000000000",
      "type": "0x0",
      "transactionHash": "0x836e5429f885f8bb4fe0da78c688e9ec2304735f247bef43c5ecf297b23cef36",
      "transactionIndex": "0x82",
      "blockHash": "0xc45c0a958dc8d986b7e8bb08de8945488deb84d66f625f10db39e1f36c10d043",
      "blockNumber": "0x2e7d947",
      "gasUsed": "0x19e3a",
      "effectiveGasPrice": "0x3b9aca00",
      "from": "0xd7e38800201d6a42c408bf79d8723740c4e7f631",
      "to": "0xe46b8e65006e6450bdd8cb7d3274ab4f76f4c705",
      "contractAddress": null
    },
    {
      "status": "0x1",
      "cumulativeGasUsed": "0xf76c2c",
      "logs": [
        {
          "address": "0xe46b8e65006e6450bdd8cb7d3274ab4f76f4c705",
          "topics": [
            "0x2f8788117e7eff1d82e926ec794901d17c78024a50270940304540a733656f0d",
            "0xaf290d8680820aad922855f39b306097b20e28774d6c1ad35a20325630c3a02c",
            "0x0000000000000000000000002e2807f88c381cb0cc55c808a751fc1e3fccbb85",
            "0x000000000000000000000000d7e38800201d6a42c408bf79d8723740c4e7f631"
          ],
          "data": "0x",
          "blockHash": "0xc45c0a958dc8d986b7e8bb08de8945488deb84d66f625f10db39e1f36c10d043",
          "blockNumber": "0x2e7d947",
          "transactionHash": "0xaf223d6ec251896961e6368af3c6cbc6f74c346c1b4c552535754fc530d83d3e",
          "transactionIndex": "0x83",
          "logIndex": "0x246",
          "removed": false
        }
      ],
      "logsBloom": "0x00000004000000000000000000400000000000000000000000000000000000000002000000000000000000000000000000000000000000000000000800000000000000000000000000000000002000008000000000000000000000000000008000000000000000000000000000000000000000000000000000000000004000000000000000000000000000000000000000200000000000000000080000040000000000000000000000000000000000000000000000000000001000000000000000000000000000000000000000000000000000000000000100000000000000000080000000000000000000000000000000000000080000000000000000000000",
      "type": "0x0",
      "transactionHash": "0xaf223d6ec251896961e6368af3c6cbc6f74c346c1b4c552535754fc530d83d3e",
      "transactionIndex": "0x83",
      "blockHash": "0xc45c0a958dc8d986b7e8bb08de8945488deb84d66f625f10db39e1f36c10d043",
      "blockNumber": "0x2e7d947",
      "gasUsed": "0x19fba",
      "effectiveGasPrice": "0x3b9aca00",
      "from": "0xd7e38800201d6a42c408bf79d8723740c4e7f631",
      "to": "0xe46b8e65006e6450bdd8cb7d3274ab4f76f4c705",
      "contractAddress": null
    },
    {
      "status": "0x1",
      "cumulativeGasUsed": "0xf90be6",
      "logs": [
        {
          "address": "0xe46b8e65006e6450bdd8cb7d3274ab4f76f4c705",
          "topics": [
            "0x2f8788117e7eff1d82e926ec794901d17c78024a50270940304540a733656f0d",
            "0xdcac51f5d253e2787a458cfb1d6b8faf248cf16367710f9e3b6bd5644d23f8db",
            "0x00000000000000000000000085ce862c5bb61938ffcc97da4a80c8aae43c6a27",
            "0x000000000000000000000000d7e38800201d6a42c408bf79d8723740c4e7f631"
          ],
          "data": "0x",
          "blockHash": "0xc45c0a958dc8d986b7e8bb08de8945488deb84d66f625f10db39e1f36c10d043",
          "blockNumber": "0x2e7d947",
          "transactionHash": "0xabee20e549a67afffa78d645af5f8a2835df809adb03f6fd149bad63be8267c0",
          "transactionIndex": "0x84",
          "logIndex": "0x247",
          "removed": false
        }
      ],
      "logsBloom": "0x00000004400000000000000000000000000000000000000000000000000000000002000000000000000000000100000000000000000000000000000000000000000000000000000000000008002000000000000000000000000000000000008000000000000000000000000000000000000000000000000000000000000000000000000000000000000000000000000000000000000010000002080000040000000000000000000000000000000000000000000000000000001000000000000000000000000000000000000000000000000000000000000100000000000000000080000000000000000000000400000000000000000000000000000000000000",
      "type": "0x0",
      "transactionHash": "0xabee20e549a67afffa78d645af5f8a2835df809adb03f6fd149bad63be8267c0",
      "transactionIndex": "0x84",
      "blockHash": "0xc45c0a958dc8d986b7e8bb08de8945488deb84d66f625f10db39e1f36c10d043",
      "blockNumber": "0x2e7d947",
      "gasUsed": "0x19fba",
      "effectiveGasPrice": "0x3b9aca00",
      "from": "0xd7e38800201d6a42c408bf79d8723740c4e7f631",
      "to": "0xe46b8e65006e6450bdd8cb7d3274ab4f76f4c705",
      "contractAddress": null
    },
    {
      "status": "0x1",
      "cumulativeGasUsed": "0xfaaba0",
      "logs": [
        {
          "address": "0xe46b8e65006e6450bdd8cb7d3274ab4f76f4c705",
          "topics": [
            "0x2f8788117e7eff1d82e926ec794901d17c78024a50270940304540a733656f0d",
            "0x0aec9b08bc8c2cb62a91f52d33e3d77da4b3f3a63fc8b542a93abe3902ba929c",
            "0x0000000000000000000000002e2807f88c381cb0cc55c808a751fc1e3fccbb85",
            "0x000000000000000000000000d7e38800201d6a42c408bf79d8723740c4e7f631"
          ],
          "data": "0x",
          "blockHash": "0xc45c0a958dc8d986b7e8bb08de8945488deb84d66f625f10db39e1f36c10d043",
          "blockNumber": "0x2e7d947",
          "transactionHash": "0x5e1291cbb7629e32cebdb7df9bcdc12f5c63fa1c6476a90de27f925ab7ab2eb7",
          "transactionIndex": "0x85",
          "logIndex": "0x248",
          "removed": false
        }
      ],
      "logsBloom": "0x00000004000000000000000000400000000000000000000000000000000000000002000000000000000000000000000000000000000000000000000000000000000000000000000000000000002000000000000000000000000000000000008000000000000000000000000000000100000000000000000000040000000000000000000000000000000000000000000000200000000000000000080000040000000000000000000000000000000000000000000000000000001000000000000000000000000000000000000000000100000000000000000100000000000000000080000000000000000000000000000000000000080000000000000000000000",
      "type": "0x0",
      "transactionHash": "0x5e1291cbb7629e32cebdb7df9bcdc12f5c63fa1c6476a90de27f925ab7ab2eb7",
      "transactionIndex": "0x85",
      "blockHash": "0xc45c0a958dc8d986b7e8bb08de8945488deb84d66f625f10db39e1f36c10d043",
      "blockNumber": "0x2e7d947",
      "gasUsed": "0x19fba",
      "effectiveGasPrice": "0x3b9aca00",
      "from": "0xd7e38800201d6a42c408bf79d8723740c4e7f631",
      "to": "0xe46b8e65006e6450bdd8cb7d3274ab4f76f4c705",
      "contractAddress": null
    },
    {
      "status": "0x1",
      "cumulativeGasUsed": "0xfb7924",
      "logs": [
        {
          "address": "0xe46b8e65006e6450bdd8cb7d3274ab4f76f4c705",
          "topics": [
            "0xf6391f5c32d9c69d2a47ea670b442974b53935d1edc7fd64eb21e047a839171b",
            "0x0aec9b08bc8c2cb62a91f52d33e3d77da4b3f3a63fc8b542a93abe3902ba929c",
            "0x000000000000000000000000d7e38800201d6a42c408bf79d8723740c4e7f631",
            "0x000000000000000000000000d7e38800201d6a42c408bf79d8723740c4e7f631"
          ],
          "data": "0x",
          "blockHash": "0xc45c0a958dc8d986b7e8bb08de8945488deb84d66f625f10db39e1f36c10d043",
          "blockNumber": "0x2e7d947",
          "transactionHash": "0x46ae3a00aebf93e2567f7c4d223de8dd62ea10abcdc4b0d081483369390ea9a9",
          "transactionIndex": "0x86",
          "logIndex": "0x249",
          "removed": false
        }
      ],
      "logsBloom": "0x00000000000000000000000000000000000000000000000000000000000000000002000000000000000000000000000000200000000000000000000000000000000000000000000000000000002000000000000000000000000000000000008040000000000000000000000000000100000000000000000000040000000000000000000040000000000000000000000000000000000000000000080000040000000000000000000000000000000000000000000000000000000000000000000000000000000000000000000000000100000000000000000000000000000000000080000000000000000000000000000000000000000000000000000000000000",
      "type": "0x0",
      "transactionHash": "0x46ae3a00aebf93e2567f7c4d223de8dd62ea10abcdc4b0d081483369390ea9a9",
      "transactionIndex": "0x86",
      "blockHash": "0xc45c0a958dc8d986b7e8bb08de8945488deb84d66f625f10db39e1f36c10d043",
      "blockNumber": "0x2e7d947",
      "gasUsed": "0xcd84",
      "effectiveGasPrice": "0x3b9aca00",
      "from": "0xd7e38800201d6a42c408bf79d8723740c4e7f631",
      "to": "0xe46b8e65006e6450bdd8cb7d3274ab4f76f4c705",
      "contractAddress": null
    },
    {
      "status": "0x1",
      "cumulativeGasUsed": "0x1025c9a",
      "logs": [
        {
          "address": "0xe46b8e65006e6450bdd8cb7d3274ab4f76f4c705",
          "topics": [
            "0xf6391f5c32d9c69d2a47ea670b442974b53935d1edc7fd64eb21e047a839171b",
            "0xdcac51f5d253e2787a458cfb1d6b8faf248cf16367710f9e3b6bd5644d23f8db",
            "0x000000000000000000000000d7e38800201d6a42c408bf79d8723740c4e7f631",
            "0x000000000000000000000000d7e38800201d6a42c408bf79d8723740c4e7f631"
          ],
          "data": "0x",
          "blockHash": "0xc45c0a958dc8d986b7e8bb08de8945488deb84d66f625f10db39e1f36c10d043",
          "blockNumber": "0x2e7d947",
          "transactionHash": "0x92109265a498f018e846ea87fade862234cf5bf829ff27f6f880d0a6e071d5f2",
          "transactionIndex": "0x8a",
          "logIndex": "0x252",
          "removed": false
        }
      ],
      "logsBloom": "0x00000000400000000000000000000000000000000000000000000000000000000002000000000000000000000000000000200000000000000000000000000000000000000000000000000008002000000000000000000000000000000000008040000000000000000000000000000000000000000000000000000000000000000000000040000000000000000000000000000000000000000000080000040000000000000000000000000000000000000000000000000000000000000000000000000000000000000000000000000000000000000000000000000000000000000080000000000000000000000400000000000000000000000000000000000000",
      "type": "0x0",
      "transactionHash": "0x92109265a498f018e846ea87fade862234cf5bf829ff27f6f880d0a6e071d5f2",
      "transactionIndex": "0x8a",
      "blockHash": "0xc45c0a958dc8d986b7e8bb08de8945488deb84d66f625f10db39e1f36c10d043",
      "blockNumber": "0x2e7d947",
      "gasUsed": "0xcd84",
      "effectiveGasPrice": "0x3b9aca00",
      "from": "0xd7e38800201d6a42c408bf79d8723740c4e7f631",
      "to": "0xe46b8e65006e6450bdd8cb7d3274ab4f76f4c705",
      "contractAddress": null
    },
    {
      "status": "0x1",
      "cumulativeGasUsed": "0x1032a1e",
      "logs": [
        {
          "address": "0xe46b8e65006e6450bdd8cb7d3274ab4f76f4c705",
          "topics": [
            "0xf6391f5c32d9c69d2a47ea670b442974b53935d1edc7fd64eb21e047a839171b",
            "0xaf290d8680820aad922855f39b306097b20e28774d6c1ad35a20325630c3a02c",
            "0x000000000000000000000000d7e38800201d6a42c408bf79d8723740c4e7f631",
            "0x000000000000000000000000d7e38800201d6a42c408bf79d8723740c4e7f631"
          ],
          "data": "0x",
          "blockHash": "0xc45c0a958dc8d986b7e8bb08de8945488deb84d66f625f10db39e1f36c10d043",
          "blockNumber": "0x2e7d947",
          "transactionHash": "0x340e46106b21c775f9065d2a0a2a9eebae6678924df0f0bf2c6baff66e77c8d2",
          "transactionIndex": "0x8b",
          "logIndex": "0x253",
          "removed": false
        }
      ],
      "logsBloom": "0x00000000000000000000000000000000000000000000000000000000000000000002000000000000000000000000000000200000000000000000000800000000000000000000000000000000002000008000000000000000000000000000008040000000000000000000000000000000000000000000000000000000004000000000000040000000000000000000000000000000000000000000080000040000000000000000000000000000000000000000000000000000000000000000000000000000000000000000000000000000000000000000000000000000000000000080000000000000000000000000000000000000000000000000000000000000",
      "type": "0x0",
      "transactionHash": "0x340e46106b21c775f9065d2a0a2a9eebae6678924df0f0bf2c6baff66e77c8d2",
      "transactionIndex": "0x8b",
      "blockHash": "0xc45c0a958dc8d986b7e8bb08de8945488deb84d66f625f10db39e1f36c10d043",
      "blockNumber": "0x2e7d947",
      "gasUsed": "0xcd84",
      "effectiveGasPrice": "0x3b9aca00",
      "from": "0xd7e38800201d6a42c408bf79d8723740c4e7f631",
      "to": "0xe46b8e65006e6450bdd8cb7d3274ab4f76f4c705",
      "contractAddress": null
    },
    {
      "status": "0x1",
      "cumulativeGasUsed": "0x103f02e",
      "logs": [
        {
          "address": "0xe46b8e65006e6450bdd8cb7d3274ab4f76f4c705",
          "topics": [
            "0xf6391f5c32d9c69d2a47ea670b442974b53935d1edc7fd64eb21e047a839171b",
            "0x0000000000000000000000000000000000000000000000000000000000000000",
            "0x000000000000000000000000d7e38800201d6a42c408bf79d8723740c4e7f631",
            "0x000000000000000000000000d7e38800201d6a42c408bf79d8723740c4e7f631"
          ],
          "data": "0x",
          "blockHash": "0xc45c0a958dc8d986b7e8bb08de8945488deb84d66f625f10db39e1f36c10d043",
          "blockNumber": "0x2e7d947",
          "transactionHash": "0x68218ef1448ff0b37ccce4ed05d4c270a9c54099c69f95e7b699603bbd7b8c27",
          "transactionIndex": "0x8c",
          "logIndex": "0x254",
          "removed": false
        }
      ],
      "logsBloom": "0x00000000000000000000000000000000000000000000000000000000000000000002000000000000000000000000000000200000000000000000000000000000000000000000000000000000002000000000000000000000000000000000008040000000020000000000000000000800000000000000000000000000000000000000000040000000000000000000000000000000000000000000080000040000000000000000000000000000000000000000000000000000000000000000000000000000000000000000000000000000000000000000000000000000000020000080000000000000000000000000000000000000000000000000000000000000",
      "type": "0x0",
      "transactionHash": "0x68218ef1448ff0b37ccce4ed05d4c270a9c54099c69f95e7b699603bbd7b8c27",
      "transactionIndex": "0x8c",
      "blockHash": "0xc45c0a958dc8d986b7e8bb08de8945488deb84d66f625f10db39e1f36c10d043",
      "blockNumber": "0x2e7d947",
      "gasUsed": "0xc610",
      "effectiveGasPrice": "0x3b9aca00",
      "from": "0xd7e38800201d6a42c408bf79d8723740c4e7f631",
      "to": "0xe46b8e65006e6450bdd8cb7d3274ab4f76f4c705",
      "contractAddress": null
    }
  ],
  "libraries": [],
  "pending": [],
  "returns": {},
  "timestamp": 1745828976,
  "chain": 56,
  "commit": "84909ee"
}