{
  "transactions": [
    {
      "hash": "0x5b053428da74284310b19daed930eda138eca64a00284af887cf128116ef7970",
      "transactionType": "CALL",
      "contractName": null,
      "contractAddress": "0x384729e442b7636709896e9a3bef63ef70c22fb0",
      "function": "grantRole(bytes32,address)",
      "arguments": [
        "0x0000000000000000000000000000000000000000000000000000000000000000",
        "0x07D274a68393E8b8a2CCf19A2ce4Ba3518735253"
      ],
      "transaction": {
        "from": "0xd7e38800201d6a42c408bf79d8723740c4e7f631",
        "to": "0x384729e442b7636709896e9a3bef63ef70c22fb0",
        "gas": "0x23c2a",
        "value": "0x0",
        "input": "0x2f2ff15d000000000000000000000000000000000000000000000000000000000000000000000000000000000000000007d274a68393e8b8a2ccf19a2ce4ba3518735253",
        "nonce": "0x426",
        "chainId": "0x38"
      },
      "additionalContracts": [],
      "isFixedGasLimit": false
    },
    {
      "hash": "0x11bf4b08a8051296187c20a90984c97e3f51da385dda8f6854558638694116a8",
      "transactionType": "CALL",
      "contractName": null,
      "contractAddress": "0x384729e442b7636709896e9a3bef63ef70c22fb0",
      "function": "grantRole(bytes32,address)",
      "arguments": [
        "0xaf290d8680820aad922855f39b306097b20e28774d6c1ad35a20325630c3a02c",
        "0x2e2807F88C381Cb0CC55c808a751fC1E3fcCbb85"
      ],
      "transaction": {
        "from": "0xd7e38800201d6a42c408bf79d8723740c4e7f631",
        "to": "0x384729e442b7636709896e9a3bef63ef70c22fb0",
        "gas": "0x23e3d",
        "value": "0x0",
        "input": "0x2f2ff15daf290d8680820aad922855f39b306097b20e28774d6c1ad35a20325630c3a02c0000000000000000000000002e2807f88c381cb0cc55c808a751fc1e3fccbb85",
        "nonce": "0x427",
        "chainId": "0x38"
      },
      "additionalContracts": [],
      "isFixedGasLimit": false
    },
    {
      "hash": "0x2ddcb9e98fe4ac675a199f070cc9727b2bada9616deaa0d59c886b7eec68a801",
      "transactionType": "CALL",
      "contractName": null,
      "contractAddress": "0x384729e442b7636709896e9a3bef63ef70c22fb0",
      "function": "grantRole(bytes32,address)",
      "arguments": [
        "0xdcac51f5d253e2787a458cfb1d6b8faf248cf16367710f9e3b6bd5644d23f8db",
        "0x85CE862C5BB61938FFcc97DA4A80C8aaE43C6A27"
      ],
      "transaction": {
        "from": "0xd7e38800201d6a42c408bf79d8723740c4e7f631",
        "to": "0x384729e442b7636709896e9a3bef63ef70c22fb0",
        "gas": "0x23e3d",
        "value": "0x0",
        "input": "0x2f2ff15ddcac51f5d253e2787a458cfb1d6b8faf248cf16367710f9e3b6bd5644d23f8db00000000000000000000000085ce862c5bb61938ffcc97da4a80c8aae43c6a27",
        "nonce": "0x428",
        "chainId": "0x38"
      },
      "additionalContracts": [],
      "isFixedGasLimit": false
    },
    {
      "hash": "0x57ffa075bd561d8e0abcd9d3c0868a65835f5127cc136e25d2de5c38519ad180",
      "transactionType": "CALL",
      "contractName": null,
      "contractAddress": "0x384729e442b7636709896e9a3bef63ef70c22fb0",
      "function": "grantRole(bytes32,address)",
      "arguments": [
        "0xdcac51f5d253e2787a458cfb1d6b8faf248cf16367710f9e3b6bd5644d23f8db",
        "0x0e21985e453177336bD7A22F4928F6689a100043"
      ],
      "transaction": {
        "from": "0xd7e38800201d6a42c408bf79d8723740c4e7f631",
        "to": "0x384729e442b7636709896e9a3bef63ef70c22fb0",
        "gas": "0x25ff4",
        "value": "0x0",
        "input": "0x2f2ff15ddcac51f5d253e2787a458cfb1d6b8faf248cf16367710f9e3b6bd5644d23f8db0000000000000000000000000e21985e453177336bd7a22f4928f6689a100043",
        "nonce": "0x429",
        "chainId": "0x38"
      },
      "additionalContracts": [],
      "isFixedGasLimit": false
    },
    {
      "hash": "0x890b4bd219b9362476bd267883227c0da4bea5e3c3e7104af99ee7e93a0b9505",
      "transactionType": "CALL",
      "contractName": null,
      "contractAddress": "0x384729e442b7636709896e9a3bef63ef70c22fb0",
      "function": "grantRole(bytes32,address)",
      "arguments": [
        "0x0aec9b08bc8c2cb62a91f52d33e3d77da4b3f3a63fc8b542a93abe3902ba929c",
        "0x2e2807F88C381Cb0CC55c808a751fC1E3fcCbb85"
      ],
      "transaction": {
        "from": "0xd7e38800201d6a42c408bf79d8723740c4e7f631",
        "to": "0x384729e442b7636709896e9a3bef63ef70c22fb0",
        "gas": "0x23e3d",
        "value": "0x0",
        "input": "0x2f2ff15d0aec9b08bc8c2cb62a91f52d33e3d77da4b3f3a63fc8b542a93abe3902ba929c0000000000000000000000002e2807f88c381cb0cc55c808a751fc1e3fccbb85",
        "nonce": "0x42a",
        "chainId": "0x38"
      },
      "additionalContracts": [],
      "isFixedGasLimit": false
    },
    {
      "hash": "0x0ee8dfa5bcb22361639580f566ddd3b83a470f618d4a943537de0716cb1fa889",
      "transactionType": "CALL",
      "contractName": null,
      "contractAddress": "0x384729e442b7636709896e9a3bef63ef70c22fb0",
      "function": "revokeRole(bytes32,address)",
      "arguments": [
        "0x0aec9b08bc8c2cb62a91f52d33e3d77da4b3f3a63fc8b542a93abe3902ba929c",
        "0xd7e38800201D6a42C408Bf79d8723740C4E7f631"
      ],
      "transaction": {
        "from": "0xd7e38800201d6a42c408bf79d8723740c4e7f631",
        "to": "0x384729e442b7636709896e9a3bef63ef70c22fb0",
        "gas": "0x12104",
        "value": "0x0",
        "input": "0xd547741f0aec9b08bc8c2cb62a91f52d33e3d77da4b3f3a63fc8b542a93abe3902ba929c000000000000000000000000d7e38800201d6a42c408bf79d8723740c4e7f631",
        "nonce": "0x42b",
        "chainId": "0x38"
      },
      "additionalContracts": [],
      "isFixedGasLimit": false
    },
    {
      "hash": "0xf85cded7635bcea74106473eeae8b88defa5c3984a087f36b52959886ab1efa9",
      "transactionType": "CALL",
      "contractName": null,
      "contractAddress": "0x384729e442b7636709896e9a3bef63ef70c22fb0",
      "function": "revokeRole(bytes32,address)",
      "arguments": [
        "0xdcac51f5d253e2787a458cfb1d6b8faf248cf16367710f9e3b6bd5644d23f8db",
        "0xd7e38800201D6a42C408Bf79d8723740C4E7f631"
      ],
      "transaction": {
        "from": "0xd7e38800201d6a42c408bf79d8723740c4e7f631",
        "to": "0x384729e442b7636709896e9a3bef63ef70c22fb0",
        "gas": "0x12104",
        "value": "0x0",
        "input": "0xd547741fdcac51f5d253e2787a458cfb1d6b8faf248cf16367710f9e3b6bd5644d23f8db000000000000000000000000d7e38800201d6a42c408bf79d8723740c4e7f631",
        "nonce": "0x42c",
        "chainId": "0x38"
      },
      "additionalContracts": [],
      "isFixedGasLimit": false
    },
    {
      "hash": "0x3e8985249fe038b042b380bc76fa5b2cfce28dbcd5409090b76e78b38650e5f4",
      "transactionType": "CALL",
      "contractName": null,
      "contractAddress": "0x384729e442b7636709896e9a3bef63ef70c22fb0",
      "function": "revokeRole(bytes32,address)",
      "arguments": [
        "0xaf290d8680820aad922855f39b306097b20e28774d6c1ad35a20325630c3a02c",
        "0xd7e38800201D6a42C408Bf79d8723740C4E7f631"
      ],
      "transaction": {
        "from": "0xd7e38800201d6a42c408bf79d8723740c4e7f631",
        "to": "0x384729e442b7636709896e9a3bef63ef70c22fb0",
        "gas": "0x12104",
        "value": "0x0",
        "input": "0xd547741faf290d8680820aad922855f39b306097b20e28774d6c1ad35a20325630c3a02c000000000000000000000000d7e38800201d6a42c408bf79d8723740c4e7f631",
        "nonce": "0x42d",
        "chainId": "0x38"
      },
      "additionalContracts": [],
      "isFixedGasLimit": false
    },
    {
      "hash": "0xba174b4f4655f3362547a2cfd7194ba805fbaf5817359d67b6a7f7e95c0e1bda",
      "transactionType": "CALL",
      "contractName": null,
      "contractAddress": "0x384729e442b7636709896e9a3bef63ef70c22fb0",
      "function": "revokeRole(bytes32,address)",
      "arguments": [
        "0x0000000000000000000000000000000000000000000000000000000000000000",
        "0xd7e38800201D6a42C408Bf79d8723740C4E7f631"
      ],
      "transaction": {
        "from": "0xd7e38800201d6a42c408bf79d8723740c4e7f631",
        "to": "0x384729e442b7636709896e9a3bef63ef70c22fb0",
        "gas": "0x116ba",
        "value": "0x0",
        "input": "0xd547741f0000000000000000000000000000000000000000000000000000000000000000000000000000000000000000d7e38800201d6a42c408bf79d8723740c4e7f631",
        "nonce": "0x42e",
        "chainId": "0x38"
      },
      "additionalContracts": [],
      "isFixedGasLimit": false
    }
  ],
  "receipts": [
    {
      "status": "0x1",
      "cumulativeGasUsed": "0x1043951",
      "logs": [
        {
          "address": "0x384729e442b7636709896e9a3bef63ef70c22fb0",
          "topics": [
            "0x2f8788117e7eff1d82e926ec794901d17c78024a50270940304540a733656f0d",
            "0x0000000000000000000000000000000000000000000000000000000000000000",
            "0x00000000000000000000000007d274a68393e8b8a2ccf19a2ce4ba3518735253",
            "0x000000000000000000000000d7e38800201d6a42c408bf79d8723740c4e7f631"
          ],
          "data": "0x",
          "blockHash": "0xb78fea1d8d8fd843e90ce5aa5598f74ec9391ed3780b6a4f215aebb65c3c8502",
          "blockNumber": "0x3f17823",
          "transactionHash": "0x5b053428da74284310b19daed930eda138eca64a00284af887cf128116ef7970",
          "transactionIndex": "0x81",
          "logIndex": "0x1ea",
          "removed": false
        }
      ],
      "logsBloom": "0x00000004000000000000000000000000000000000000000000000000000000000000000000000000000000000000000000000000000000000000000000000000000000000000000000000000002000000000000000000000000000000000000000000004020001000000000000000800000000000000000000000000000000000000000000000000000000000000000000200000000000000000000000040000000000000000000000000000000000000000000000000000001000000000000000000000000000000000000000000000000000000000000110000000000020800080000100000000000000000000000000000000000000000000000000000000",
      "type": "0x2",
      "transactionHash": "0x5b053428da74284310b19daed930eda138eca64a00284af887cf128116ef7970",
      "transactionIndex": "0x81",
      "blockHash": "0xb78fea1d8d8fd843e90ce5aa5598f74ec9391ed3780b6a4f215aebb65c3c8502",
      "blockNumber": "0x3f17823",
      "gasUsed": "0x19e3e",
      "effectiveGasPrice": "0x2faf080",
      "from": "0xd7e38800201d6a42c408bf79d8723740c4e7f631",
      "to": "0x384729e442b7636709896e9a3bef63ef70c22fb0",
      "contractAddress": null
    },
    {
      "status": "0x1",
      "cumulativeGasUsed": "0x105d90f",
      "logs": [
        {
          "address": "0x384729e442b7636709896e9a3bef63ef70c22fb0",
          "topics": [
            "0x2f8788117e7eff1d82e926ec794901d17c78024a50270940304540a733656f0d",
            "0xaf290d8680820aad922855f39b306097b20e28774d6c1ad35a20325630c3a02c",
            "0x0000000000000000000000002e2807f88c381cb0cc55c808a751fc1e3fccbb85",
            "0x000000000000000000000000d7e38800201d6a42c408bf79d8723740c4e7f631"
          ],
          "data": "0x",
          "blockHash": "0xb78fea1d8d8fd843e90ce5aa5598f74ec9391ed3780b6a4f215aebb65c3c8502",
          "blockNumber": "0x3f17823",
          "transactionHash": "0x11bf4b08a8051296187c20a90984c97e3f51da385dda8f6854558638694116a8",
          "transactionIndex": "0x82",
          "logIndex": "0x1eb",
          "removed": false
        }
      ],
      "logsBloom": "0x00000004000000000000000000400000000000000000000000000000000000000000000000000000000000000000000000000000000000000000000800000000000000000000000000000000002000008000000000000000000000000000000000000000000001000000000000000000000000000000000000000000004000000000000000000000000000000000000000200000000000000000000000040000000000000000000000000000000000000000000000000000001000000000000000000000000000000000000000000000000000000000000100000000000000800080000100000000000000000000000000000000080000000000000000000000",
      "type": "0x2",
      "transactionHash": "0x11bf4b08a8051296187c20a90984c97e3f51da385dda8f6854558638694116a8",
      "transactionIndex": "0x82",
      "blockHash": "0xb78fea1d8d8fd843e90ce5aa5598f74ec9391ed3780b6a4f215aebb65c3c8502",
      "blockNumber": "0x3f17823",
      "gasUsed": "0x19fbe",
      "effectiveGasPrice": "0x2faf080",
      "from": "0xd7e38800201d6a42c408bf79d8723740c4e7f631",
      "to": "0x384729e442b7636709896e9a3bef63ef70c22fb0",
      "contractAddress": null
    },
    {
      "status": "0x1",
      "cumulativeGasUsed": "0x10778cd",
      "logs": [
        {
          "address": "0x384729e442b7636709896e9a3bef63ef70c22fb0",
          "topics": [
            "0x2f8788117e7eff1d82e926ec794901d17c78024a50270940304540a733656f0d",
            "0xdcac51f5d253e2787a458cfb1d6b8faf248cf16367710f9e3b6bd5644d23f8db",
            "0x00000000000000000000000085ce862c5bb61938ffcc97da4a80c8aae43c6a27",
            "0x000000000000000000000000d7e38800201d6a42c408bf79d8723740c4e7f631"
          ],
          "data": "0x",
          "blockHash": "0xb78fea1d8d8fd843e90ce5aa5598f74ec9391ed3780b6a4f215aebb65c3c8502",
          "blockNumber": "0x3f17823",
          "transactionHash": "0x2ddcb9e98fe4ac675a199f070cc9727b2bada9616deaa0d59c886b7eec68a801",
          "transactionIndex": "0x83",
          "logIndex": "0x1ec",
          "removed": false
        }
      ],
      "logsBloom": "0x00000004400000000000000000000000000000000000000000000000000000000000000000000000000000000100000000000000000000000000000000000000000000000000000000000008002000000000000000000000000000000000000000000000000001000000000000000000000000000000000000000000000000000000000000000000000000000000000000000000000010000002000000040000000000000000000000000000000000000000000000000000001000000000000000000000000000000000000000000000000000000000000100000000000000800080000100000000000000000400000000000000000000000000000000000000",
      "type": "0x2",
      "transactionHash": "0x2ddcb9e98fe4ac675a199f070cc9727b2bada9616deaa0d59c886b7eec68a801",
      "transactionIndex": "0x83",
      "blockHash": "0xb78fea1d8d8fd843e90ce5aa5598f74ec9391ed3780b6a4f215aebb65c3c8502",
      "blockNumber": "0x3f17823",
      "gasUsed": "0x19fbe",
      "effectiveGasPrice": "0x2faf080",
      "from": "0xd7e38800201d6a42c408bf79d8723740c4e7f631",
      "to": "0x384729e442b7636709896e9a3bef63ef70c22fb0",
      "contractAddress": null
    },
    {
      "status": "0x1",
      "cumulativeGasUsed": "0x109187f",
      "logs": [
        {
          "address": "0x384729e442b7636709896e9a3bef63ef70c22fb0",
          "topics": [
            "0x2f8788117e7eff1d82e926ec794901d17c78024a50270940304540a733656f0d",
            "0xdcac51f5d253e2787a458cfb1d6b8faf248cf16367710f9e3b6bd5644d23f8db",
            "0x0000000000000000000000000e21985e453177336bd7a22f4928f6689a100043",
            "0x000000000000000000000000d7e38800201d6a42c408bf79d8723740c4e7f631"
          ],
          "data": "0x",
          "blockHash": "0xb78fea1d8d8fd843e90ce5aa5598f74ec9391ed3780b6a4f215aebb65c3c8502",
          "blockNumber": "0x3f17823",
          "transactionHash": "0x57ffa075bd561d8e0abcd9d3c0868a65835f5127cc136e25d2de5c38519ad180",
          "transactionIndex": "0x84",
          "logIndex": "0x1ed",
          "removed": false
        }
      ],
      "logsBloom": "0x00000004400000000000000000002000000000000000000000000001000000000000000000000000000000000000000000000000000000000000000000000000000000000000000000000008002000000000000000000000000000000000000000000000000001000000000000000000000000000000000000000000000000000000000000000000000000000000000000000000000000000000000000040000000000000000000000000000000000000000040000000000001000000000000000000000000000000000000000000000000000000000000100000000000000800080000100000000000000000400000000000000000000000000000000000000",
      "type": "0x2",
      "transactionHash": "0x57ffa075bd561d8e0abcd9d3c0868a65835f5127cc136e25d2de5c38519ad180",
      "transactionIndex": "0x84",
      "blockHash": "0xb78fea1d8d8fd843e90ce5aa5598f74ec9391ed3780b6a4f215aebb65c3c8502",
      "blockNumber": "0x3f17823",
      "gasUsed": "0x19fb2",
      "effectiveGasPrice": "0x2faf080",
      "from": "0xd7e38800201d6a42c408bf79d8723740c4e7f631",
      "to": "0x384729e442b7636709896e9a3bef63ef70c22fb0",
      "contractAddress": null
    },
    {
      "status": "0x1",
      "cumulativeGasUsed": "0x10ab83d",
      "logs": [
        {
          "address": "0x384729e442b7636709896e9a3bef63ef70c22fb0",
          "topics": [
            "0x2f8788117e7eff1d82e926ec794901d17c78024a50270940304540a733656f0d",
            "0x0aec9b08bc8c2cb62a91f52d33e3d77da4b3f3a63fc8b542a93abe3902ba929c",
            "0x0000000000000000000000002e2807f88c381cb0cc55c808a751fc1e3fccbb85",
            "0x000000000000000000000000d7e38800201d6a42c408bf79d8723740c4e7f631"
          ],
          "data": "0x",
          "blockHash": "0xb78fea1d8d8fd843e90ce5aa5598f74ec9391ed3780b6a4f215aebb65c3c8502",
          "blockNumber": "0x3f17823",
          "transactionHash": "0x890b4bd219b9362476bd267883227c0da4bea5e3c3e7104af99ee7e93a0b9505",
          "transactionIndex": "0x85",
          "logIndex": "0x1ee",
          "removed": false
        }
      ],
      "logsBloom": "0x00000004000000000000000000400000000000000000000000000000000000000000000000000000000000000000000000000000000000000000000000000000000000000000000000000000002000000000000000000000000000000000000000000000000001000000000000000100000000000000000000040000000000000000000000000000000000000000000000200000000000000000000000040000000000000000000000000000000000000000000000000000001000000000000000000000000000000000000000000100000000000000000100000000000000800080000100000000000000000000000000000000080000000000000000000000",
      "type": "0x2",
      "transactionHash": "0x890b4bd219b9362476bd267883227c0da4bea5e3c3e7104af99ee7e93a0b9505",
      "transactionIndex": "0x85",
      "blockHash": "0xb78fea1d8d8fd843e90ce5aa5598f74ec9391ed3780b6a4f215aebb65c3c8502",
      "blockNumber": "0x3f17823",
      "gasUsed": "0x19fbe",
      "effectiveGasPrice": "0x2faf080",
      "from": "0xd7e38800201d6a42c408bf79d8723740c4e7f631",
      "to": "0x384729e442b7636709896e9a3bef63ef70c22fb0",
      "contractAddress": null
    },
    {
      "status": "0x1",
      "cumulativeGasUsed": "0x10b897c",
      "logs": [
        {
          "address": "0x384729e442b7636709896e9a3bef63ef70c22fb0",
          "topics": [
            "0xf6391f5c32d9c69d2a47ea670b442974b53935d1edc7fd64eb21e047a839171b",
            "0x0aec9b08bc8c2cb62a91f52d33e3d77da4b3f3a63fc8b542a93abe3902ba929c",
            "0x000000000000000000000000d7e38800201d6a42c408bf79d8723740c4e7f631",
            "0x000000000000000000000000d7e38800201d6a42c408bf79d8723740c4e7f631"
          ],
          "data": "0x",
          "blockHash": "0xb78fea1d8d8fd843e90ce5aa5598f74ec9391ed3780b6a4f215aebb65c3c8502",
          "blockNumber": "0x3f17823",
          "transactionHash": "0x0ee8dfa5bcb22361639580f566ddd3b83a470f618d4a943537de0716cb1fa889",
          "transactionIndex": "0x86",
          "logIndex": "0x1ef",
          "removed": false
        }
      ],
      "logsBloom": "0x00000000000000000000000000000000000000000000000000000000000000000000000000000000000000000000000000200000000000000000000000000000000000000000000000000000002000000000000000000000000000000000000040000000000001000000000000000100000000000000000000040000000000000000000040000000000000000000000000000000000000000000000000040000000000000000000000000000000000000000000000000000000000000000000000000000000000000000000000000100000000000000000000000000000000800080000100000000000000000000000000000000000000000000000000000000",
      "type": "0x2",
      "transactionHash": "0x0ee8dfa5bcb22361639580f566ddd3b83a470f618d4a943537de0716cb1fa889",
      "transactionIndex": "0x86",
      "blockHash": "0xb78fea1d8d8fd843e90ce5aa5598f74ec9391ed3780b6a4f215aebb65c3c8502",
      "blockNumber": "0x3f17823",
      "gasUsed": "0xd13f",
      "effectiveGasPrice": "0x2faf080",
      "from": "0xd7e38800201d6a42c408bf79d8723740c4e7f631",
      "to": "0x384729e442b7636709896e9a3bef63ef70c22fb0",
      "contractAddress": null
    },
    {
      "status": "0x1",
      "cumulativeGasUsed": "0x10c5abb",
      "logs": [
        {
          "address": "0x384729e442b7636709896e9a3bef63ef70c22fb0",
          "topics": [
            "0xf6391f5c32d9c69d2a47ea670b442974b53935d1edc7fd64eb21e047a839171b",
            "0xdcac51f5d253e2787a458cfb1d6b8faf248cf16367710f9e3b6bd5644d23f8db",
            "0x000000000000000000000000d7e38800201d6a42c408bf79d8723740c4e7f631",
            "0x000000000000000000000000d7e38800201d6a42c408bf79d8723740c4e7f631"
          ],
          "data": "0x",
          "blockHash": "0xb78fea1d8d8fd843e90ce5aa5598f74ec9391ed3780b6a4f215aebb65c3c8502",
          "blockNumber": "0x3f17823",
          "transactionHash": "0xf85cded7635bcea74106473eeae8b88defa5c3984a087f36b52959886ab1efa9",
          "transactionIndex": "0x87",
          "logIndex": "0x1f0",
          "removed": false
        }
      ],
      "logsBloom": "0x00000000400000000000000000000000000000000000000000000000000000000000000000000000000000000000000000200000000000000000000000000000000000000000000000000008002000000000000000000000000000000000000040000000000001000000000000000000000000000000000000000000000000000000000040000000000000000000000000000000000000000000000000040000000000000000000000000000000000000000000000000000000000000000000000000000000000000000000000000000000000000000000000000000000000800080000100000000000000000400000000000000000000000000000000000000",
      "type": "0x2",
      "transactionHash": "0xf85cded7635bcea74106473eeae8b88defa5c3984a087f36b52959886ab1efa9",
      "transactionIndex": "0x87",
      "blockHash": "0xb78fea1d8d8fd843e90ce5aa5598f74ec9391ed3780b6a4f215aebb65c3c8502",
      "blockNumber": "0x3f17823",
      "gasUsed": "0xd13f",
      "effectiveGasPrice": "0x2faf080",
      "from": "0xd7e38800201d6a42c408bf79d8723740c4e7f631",
      "to": "0x384729e442b7636709896e9a3bef63ef70c22fb0",
      "contractAddress": null
    },
    {
      "status": "0x1",
      "cumulativeGasUsed": "0x1224723",
      "logs": [
        {
          "address": "0x384729e442b7636709896e9a3bef63ef70c22fb0",
          "topics": [
            "0xf6391f5c32d9c69d2a47ea670b442974b53935d1edc7fd64eb21e047a839171b",
            "0xaf290d8680820aad922855f39b306097b20e28774d6c1ad35a20325630c3a02c",
            "0x000000000000000000000000d7e38800201d6a42c408bf79d8723740c4e7f631",
            "0x000000000000000000000000d7e38800201d6a42c408bf79d8723740c4e7f631"
          ],
          "data": "0x",
          "blockHash": "0x7d5317fa906f32dcf0a11d63ec4bcae69092e10421cfd18a83ee30456b0228ed",
          "blockNumber": "0x3f17824",
          "transactionHash": "0x3e8985249fe038b042b380bc76fa5b2cfce28dbcd5409090b76e78b38650e5f4",
          "transactionIndex": "0x75",
          "logIndex": "0x1ef",
          "removed": false
        }
      ],
      "logsBloom": "0x00000000000000000000000000000000000000000000000000000000000000000000000000000000000000000000000000200000000000000000000800000000000000000000000000000000002000008000000000000000000000000000000040000000000001000000000000000000000000000000000000000000004000000000000040000000000000000000000000000000000000000000000000040000000000000000000000000000000000000000000000000000000000000000000000000000000000000000000000000000000000000000000000000000000000800080000100000000000000000000000000000000000000000000000000000000",
      "type": "0x2",
      "transactionHash": "0x3e8985249fe038b042b380bc76fa5b2cfce28dbcd5409090b76e78b38650e5f4",
      "transactionIndex": "0x75",
      "blockHash": "0x7d5317fa906f32dcf0a11d63ec4bcae69092e10421cfd18a83ee30456b0228ed",
      "blockNumber": "0x3f17824",
      "gasUsed": "0xd13f",
      "effectiveGasPrice": "0x2faf080",
      "from": "0xd7e38800201d6a42c408bf79d8723740c4e7f631",
      "to": "0x384729e442b7636709896e9a3bef63ef70c22fb0",
      "contractAddress": null
    },
    {
      "status": "0x1",
      "cumulativeGasUsed": "0x12310ef",
      "logs": [
        {
          "address": "0x384729e442b7636709896e9a3bef63ef70c22fb0",
          "topics": [
            "0xf6391f5c32d9c69d2a47ea670b442974b53935d1edc7fd64eb21e047a839171b",
            "0x0000000000000000000000000000000000000000000000000000000000000000",
            "0x000000000000000000000000d7e38800201d6a42c408bf79d8723740c4e7f631",
            "0x000000000000000000000000d7e38800201d6a42c408bf79d8723740c4e7f631"
          ],
          "data": "0x",
          "blockHash": "0x7d5317fa906f32dcf0a11d63ec4bcae69092e10421cfd18a83ee30456b0228ed",
          "blockNumber": "0x3f17824",
          "transactionHash": "0xba174b4f4655f3362547a2cfd7194ba805fbaf5817359d67b6a7f7e95c0e1bda",
          "transactionIndex": "0x76",
          "logIndex": "0x1f0",
          "removed": false
        }
      ],
      "logsBloom": "0x00000000000000000000000000000000000000000000000000000000000000000000000000000000000000000000000000200000000000000000000000000000000000000000000000000000002000000000000000000000000000000000000040000000020001000000000000000800000000000000000000000000000000000000000040000000000000000000000000000000000000000000000000040000000000000000000000000000000000000000000000000000000000000000000000000000000000000000000000000000000000000000000000000000000020800080000100000000000000000000000000000000000000000000000000000000",
      "type": "0x2",
      "transactionHash": "0xba174b4f4655f3362547a2cfd7194ba805fbaf5817359d67b6a7f7e95c0e1bda",
      "transactionIndex": "0x76",
      "blockHash": "0x7d5317fa906f32dcf0a11d63ec4bcae69092e10421cfd18a83ee30456b0228ed",
      "blockNumber": "0x3f17824",
      "gasUsed": "0xc9cc",
      "effectiveGasPrice": "0x2faf080",
      "from": "0xd7e38800201d6a42c408bf79d8723740c4e7f631",
      "to": "0x384729e442b7636709896e9a3bef63ef70c22fb0",
      "contractAddress": null
    }
  ],
  "libraries": [],
  "pending": [],
  "returns": {},
  "timestamp": 1761618287080,
  "chain": 56,
  "commit": "04b3e5e"
}