{
  "transactions": [
    {
      "hash": "0x9de671818bbf9c47a8863ff004bee93a492f2b1412655273696d272325c63a94",
      "transactionType": "CALL",
      "contractName": null,
      "contractAddress": "0x6d6783c146f2b0b2774c1725297f1845dc502525",
      "function": "grantRole(bytes32,address)",
      "arguments": [
        "0x0000000000000000000000000000000000000000000000000000000000000000",
        "0x07D274a68393E8b8a2CCf19A2ce4Ba3518735253"
      ],
      "transaction": {
        "from": "0xd7e38800201d6a42c408bf79d8723740c4e7f631",
        "to": "0x6d6783c146f2b0b2774c1725297f1845dc502525",
        "gas": "0x23bbc",
        "value": "0x0",
        "input": "0x2f2ff15d000000000000000000000000000000000000000000000000000000000000000000000000000000000000000007d274a68393e8b8a2ccf19a2ce4ba3518735253",
        "nonce": "0x124",
        "chainId": "0x38"
      },
      "additionalContracts": [],
      "isFixedGasLimit": false
    },
    {
      "hash": "0x471b2cfa52d071d1fc88dbea3131b4b377ef2f589efd9d1013087150f0bc0312",
      "transactionType": "CALL",
      "contractName": null,
      "contractAddress": "0x6d6783c146f2b0b2774c1725297f1845dc502525",
      "function": "grantRole(bytes32,address)",
      "arguments": [
        "0xaf290d8680820aad922855f39b306097b20e28774d6c1ad35a20325630c3a02c",
        "0x2e2807F88C381Cb0CC55c808a751fC1E3fcCbb85"
      ],
      "transaction": {
        "from": "0xd7e38800201d6a42c408bf79d8723740c4e7f631",
        "to": "0x6d6783c146f2b0b2774c1725297f1845dc502525",
        "gas": "0x23dce",
        "value": "0x0",
        "input": "0x2f2ff15daf290d8680820aad922855f39b306097b20e28774d6c1ad35a20325630c3a02c0000000000000000000000002e2807f88c381cb0cc55c808a751fc1e3fccbb85",
        "nonce": "0x125",
        "chainId": "0x38"
      },
      "additionalContracts": [],
      "isFixedGasLimit": false
    },
    {
      "hash": "0xac2537b84d3bca3ed60fb0e43b7c8f7c6cb4767750c9cb580db44d3f07a6d4ee",
      "transactionType": "CALL",
      "contractName": null,
      "contractAddress": "0x6d6783c146f2b0b2774c1725297f1845dc502525",
      "function": "grantRole(bytes32,address)",
      "arguments": [
        "0xdcac51f5d253e2787a458cfb1d6b8faf248cf16367710f9e3b6bd5644d23f8db",
        "0x85CE862C5BB61938FFcc97DA4A80C8aaE43C6A27"
      ],
      "transaction": {
        "from": "0xd7e38800201d6a42c408bf79d8723740c4e7f631",
        "to": "0x6d6783c146f2b0b2774c1725297f1845dc502525",
        "gas": "0x23dce",
        "value": "0x0",
        "input": "0x2f2ff15ddcac51f5d253e2787a458cfb1d6b8faf248cf16367710f9e3b6bd5644d23f8db00000000000000000000000085ce862c5bb61938ffcc97da4a80c8aae43c6a27",
        "nonce": "0x126",
        "chainId": "0x38"
      },
      "additionalContracts": [],
      "isFixedGasLimit": false
    },
    {
      "hash": "0xbfbd594f53e0aae9dd818439484c5e8a68989e6c343622e69f58cd2610d93492",
      "transactionType": "CALL",
      "contractName": null,
      "contractAddress": "0x6d6783c146f2b0b2774c1725297f1845dc502525",
      "function": "grantRole(bytes32,address)",
      "arguments": [
        "0x0aec9b08bc8c2cb62a91f52d33e3d77da4b3f3a63fc8b542a93abe3902ba929c",
        "0x2e2807F88C381Cb0CC55c808a751fC1E3fcCbb85"
      ],
      "transaction": {
        "from": "0xd7e38800201d6a42c408bf79d8723740c4e7f631",
        "to": "0x6d6783c146f2b0b2774c1725297f1845dc502525",
        "gas": "0x23dce",
        "value": "0x0",
        "input": "0x2f2ff15d0aec9b08bc8c2cb62a91f52d33e3d77da4b3f3a63fc8b542a93abe3902ba929c0000000000000000000000002e2807f88c381cb0cc55c808a751fc1e3fccbb85",
        "nonce": "0x127",
        "chainId": "0x38"
      },
      "additionalContracts": [],
      "isFixedGasLimit": false
    },
    {
      "hash": "0x32af2b0d73f3a1ee4c6f681613992f507fc4fc4db6ece383210e0da3d1b15d63",
      "transactionType": "CALL",
      "contractName": null,
      "contractAddress": "0x6d6783c146f2b0b2774c1725297f1845dc502525",
      "function": "revokeRole(bytes32,address)",
      "arguments": [
        "0x0aec9b08bc8c2cb62a91f52d33e3d77da4b3f3a63fc8b542a93abe3902ba929c",
        "0xd7e38800201D6a42C408Bf79d8723740C4E7f631"
      ],
      "transaction": {
        "from": "0xd7e38800201d6a42c408bf79d8723740c4e7f631",
        "to": "0x6d6783c146f2b0b2774c1725297f1845dc502525",
        "gas": "0x12065",
        "value": "0x0",
        "input": "0xd547741f0aec9b08bc8c2cb62a91f52d33e3d77da4b3f3a63fc8b542a93abe3902ba929c000000000000000000000000d7e38800201d6a42c408bf79d8723740c4e7f631",
        "nonce": "0x128",
        "chainId": "0x38"
      },
      "additionalContracts": [],
      "isFixedGasLimit": false
    },
    {
      "hash": "0x1b0b88c0ba656f666b61c5ec739ad480329670f26a01508ac732e9202d48bddd",
      "transactionType": "CALL",
      "contractName": null,
      "contractAddress": "0x6d6783c146f2b0b2774c1725297f1845dc502525",
      "function": "revokeRole(bytes32,address)",
      "arguments": [
        "0xdcac51f5d253e2787a458cfb1d6b8faf248cf16367710f9e3b6bd5644d23f8db",
        "0xd7e38800201D6a42C408Bf79d8723740C4E7f631"
      ],
      "transaction": {
        "from": "0xd7e38800201d6a42c408bf79d8723740c4e7f631",
        "to": "0x6d6783c146f2b0b2774c1725297f1845dc502525",
        "gas": "0x12065",
        "value": "0x0",
        "input": "0xd547741fdcac51f5d253e2787a458cfb1d6b8faf248cf16367710f9e3b6bd5644d23f8db000000000000000000000000d7e38800201d6a42c408bf79d8723740c4e7f631",
        "nonce": "0x129",
        "chainId": "0x38"
      },
      "additionalContracts": [],
      "isFixedGasLimit": false
    },
    {
      "hash": "0x45798532825542965b620f9cc65075df2fee07b3691b240b0a78c8b1bd9ccd47",
      "transactionType": "CALL",
      "contractName": null,
      "contractAddress": "0x6d6783c146f2b0b2774c1725297f1845dc502525",
      "function": "revokeRole(bytes32,address)",
      "arguments": [
        "0xaf290d8680820aad922855f39b306097b20e28774d6c1ad35a20325630c3a02c",
        "0xd7e38800201D6a42C408Bf79d8723740C4E7f631"
      ],
      "transaction": {
        "from": "0xd7e38800201d6a42c408bf79d8723740c4e7f631",
        "to": "0x6d6783c146f2b0b2774c1725297f1845dc502525",
        "gas": "0x12065",
        "value": "0x0",
        "input": "0xd547741faf290d8680820aad922855f39b306097b20e28774d6c1ad35a20325630c3a02c000000000000000000000000d7e38800201d6a42c408bf79d8723740c4e7f631",
        "nonce": "0x12a",
        "chainId": "0x38"
      },
      "additionalContracts": [],
      "isFixedGasLimit": false
    },
    {
      "hash": "0x89715d111977914c1f6b0bdd15bf29f4df891adc306ea0b6c675f4c129e1093d",
      "transactionType": "CALL",
      "contractName": null,
      "contractAddress": "0x6d6783c146f2b0b2774c1725297f1845dc502525",
      "function": "revokeRole(bytes32,address)",
      "arguments": [
        "0x0000000000000000000000000000000000000000000000000000000000000000",
        "0xd7e38800201D6a42C408Bf79d8723740C4E7f631"
      ],
      "transaction": {
        "from": "0xd7e38800201d6a42c408bf79d8723740c4e7f631",
        "to": "0x6d6783c146f2b0b2774c1725297f1845dc502525",
        "gas": "0x1161a",
        "value": "0x0",
        "input": "0xd547741f0000000000000000000000000000000000000000000000000000000000000000000000000000000000000000d7e38800201d6a42c408bf79d8723740c4e7f631",
        "nonce": "0x12b",
        "chainId": "0x38"
      },
      "additionalContracts": [],
      "isFixedGasLimit": false
    }
  ],
  "receipts": [
    {
      "status": "0x1",
      "cumulativeGasUsed": "0xcaa455",
      "logs": [
        {
          "address": "0x6d6783c146f2b0b2774c1725297f1845dc502525",
          "topics": [
            "0x2f8788117e7eff1d82e926ec794901d17c78024a50270940304540a733656f0d",
            "0x0000000000000000000000000000000000000000000000000000000000000000",
            "0x00000000000000000000000007d274a68393e8b8a2ccf19a2ce4ba3518735253",
            "0x000000000000000000000000d7e38800201d6a42c408bf79d8723740c4e7f631"
          ],
          "data": "0x",
          "blockHash": "0xd52d289116d25bdd22fd94d1b8d09336053cce2ddbe6a8eefc78aa50a5fca29a",
          "blockNumber": "0x2ef7ecc",
          "transactionHash": "0x9de671818bbf9c47a8863ff004bee93a492f2b1412655273696d272325c63a94",
          "transactionIndex": "0x53",
          "logIndex": "0x1b8",
          "removed": false
        }
      ],
      "logsBloom": "0x00000004000000000000000000000000000000000000000000000000000000000000000000000000000000000000000000000000000000000000000000001200000000000000000000000000002000000000000000000000000000000000000000000004020000000000000000000800000000000000000000000000000000000000000000000000000000000000000000200002000000000000000000040000000000000000000000000000000000000000000000000000001000000000000000000000000000000000000000000000000000000000000110000000000020000080000000000000000000000000000000000000000000000000000000000000",
      "type": "0x0",
      "transactionHash": "0x9de671818bbf9c47a8863ff004bee93a492f2b1412655273696d272325c63a94",
      "transactionIndex": "0x53",
      "blockHash": "0xd52d289116d25bdd22fd94d1b8d09336053cce2ddbe6a8eefc78aa50a5fca29a",
      "blockNumber": "0x2ef7ecc",
      "gasUsed": "0x19dee",
      "effectiveGasPrice": "0x3b9aca00",
      "from": "0xd7e38800201d6a42c408bf79d8723740c4e7f631",
      "to": "0x6d6783c146f2b0b2774c1725297f1845dc502525",
      "contractAddress": null
    },
    {
      "status": "0x1",
      "cumulativeGasUsed": "0xcc43c3",
      "logs": [
        {
          "address": "0x6d6783c146f2b0b2774c1725297f1845dc502525",
          "topics": [
            "0x2f8788117e7eff1d82e926ec794901d17c78024a50270940304540a733656f0d",
            "0xaf290d8680820aad922855f39b306097b20e28774d6c1ad35a20325630c3a02c",
            "0x0000000000000000000000002e2807f88c381cb0cc55c808a751fc1e3fccbb85",
            "0x000000000000000000000000d7e38800201d6a42c408bf79d8723740c4e7f631"
          ],
          "data": "0x",
          "blockHash": "0xd52d289116d25bdd22fd94d1b8d09336053cce2ddbe6a8eefc78aa50a5fca29a",
          "blockNumber": "0x2ef7ecc",
          "transactionHash": "0x471b2cfa52d071d1fc88dbea3131b4b377ef2f589efd9d1013087150f0bc0312",
          "transactionIndex": "0x54",
          "logIndex": "0x1b9",
          "removed": false
        }
      ],
      "logsBloom": "0x00000004000000000000000000400000000000000000000000000000000000000000000000000000000000000000000000000000000000000000000800001200000000000000000000000000002000008000000000000000000000000000000000000000000000000000000000000000000000000000000000000000004000000000000000000000000000000000000000200002000000000000000000040000000000000000000000000000000000000000000000000000001000000000000000000000000000000000000000000000000000000000000100000000000000000080000000000000000000000000000000000000080000000000000000000000",
      "type": "0x0",
      "transactionHash": "0x471b2cfa52d071d1fc88dbea3131b4b377ef2f589efd9d1013087150f0bc0312",
      "transactionIndex": "0x54",
      "blockHash": "0xd52d289116d25bdd22fd94d1b8d09336053cce2ddbe6a8eefc78aa50a5fca29a",
      "blockNumber": "0x2ef7ecc",
      "gasUsed": "0x19f6e",
      "effectiveGasPrice": "0x3b9aca00",
      "from": "0xd7e38800201d6a42c408bf79d8723740c4e7f631",
      "to": "0x6d6783c146f2b0b2774c1725297f1845dc502525",
      "contractAddress": null
    },
    {
      "status": "0x1",
      "cumulativeGasUsed": "0xcde331",
      "logs": [
        {
          "address": "0x6d6783c146f2b0b2774c1725297f1845dc502525",
          "topics": [
            "0x2f8788117e7eff1d82e926ec794901d17c78024a50270940304540a733656f0d",
            "0xdcac51f5d253e2787a458cfb1d6b8faf248cf16367710f9e3b6bd5644d23f8db",
            "0x00000000000000000000000085ce862c5bb61938ffcc97da4a80c8aae43c6a27",
            "0x000000000000000000000000d7e38800201d6a42c408bf79d8723740c4e7f631"
          ],
          "data": "0x",
          "blockHash": "0xd52d289116d25bdd22fd94d1b8d09336053cce2ddbe6a8eefc78aa50a5fca29a",
          "blockNumber": "0x2ef7ecc",
          "transactionHash": "0xac2537b84d3bca3ed60fb0e43b7c8f7c6cb4767750c9cb580db44d3f07a6d4ee",
          "transactionIndex": "0x55",
          "logIndex": "0x1ba",
          "removed": false
        }
      ],
      "logsBloom": "0x00000004400000000000000000000000000000000000000000000000000000000000000000000000000000000100000000000000000000000000000000001200000000000000000000000008002000000000000000000000000000000000000000000000000000000000000000000000000000000000000000000000000000000000000000000000000000000000000000000002000010000002000000040000000000000000000000000000000000000000000000000000001000000000000000000000000000000000000000000000000000000000000100000000000000000080000000000000000000000400000000000000000000000000000000000000",
      "type": "0x0",
      "transactionHash": "0xac2537b84d3bca3ed60fb0e43b7c8f7c6cb4767750c9cb580db44d3f07a6d4ee",
      "transactionIndex": "0x55",
      "blockHash": "0xd52d289116d25bdd22fd94d1b8d09336053cce2ddbe6a8eefc78aa50a5fca29a",
      "blockNumber": "0x2ef7ecc",
      "gasUsed": "0x19f6e",
      "effectiveGasPrice": "0x3b9aca00",
      "from": "0xd7e38800201d6a42c408bf79d8723740c4e7f631",
      "to": "0x6d6783c146f2b0b2774c1725297f1845dc502525",
      "contractAddress": null
    },
    {
      "status": "0x1",
      "cumulativeGasUsed": "0xcf829f",
      "logs": [
        {
          "address": "0x6d6783c146f2b0b2774c1725297f1845dc502525",
          "topics": [
            "0x2f8788117e7eff1d82e926ec794901d17c78024a50270940304540a733656f0d",
            "0x0aec9b08bc8c2cb62a91f52d33e3d77da4b3f3a63fc8b542a93abe3902ba929c",
            "0x0000000000000000000000002e2807f88c381cb0cc55c808a751fc1e3fccbb85",
            "0x000000000000000000000000d7e38800201d6a42c408bf79d8723740c4e7f631"
          ],
          "data": "0x",
          "blockHash": "0xd52d289116d25bdd22fd94d1b8d09336053cce2ddbe6a8eefc78aa50a5fca29a",
          "blockNumber": "0x2ef7ecc",
          "transactionHash": "0xbfbd594f53e0aae9dd818439484c5e8a68989e6c343622e69f58cd2610d93492",
          "transactionIndex": "0x56",
          "logIndex": "0x1bb",
          "removed": false
        }
      ],
      "logsBloom": "0x00000004000000000000000000400000000000000000000000000000000000000000000000000000000000000000000000000000000000000000000000001200000000000000000000000000002000000000000000000000000000000000000000000000000000000000000000000100000000000000000000040000000000000000000000000000000000000000000000200002000000000000000000040000000000000000000000000000000000000000000000000000001000000000000000000000000000000000000000000100000000000000000100000000000000000080000000000000000000000000000000000000080000000000000000000000",
      "type": "0x0",
      "transactionHash": "0xbfbd594f53e0aae9dd818439484c5e8a68989e6c343622e69f58cd2610d93492",
      "transactionIndex": "0x56",
      "blockHash": "0xd52d289116d25bdd22fd94d1b8d09336053cce2ddbe6a8eefc78aa50a5fca29a",
      "blockNumber": "0x2ef7ecc",
      "gasUsed": "0x19f6e",
      "effectiveGasPrice": "0x3b9aca00",
      "from": "0xd7e38800201d6a42c408bf79d8723740c4e7f631",
      "to": "0x6d6783c146f2b0b2774c1725297f1845dc502525",
      "contractAddress": null
    },
    {
      "status": "0x1",
      "cumulativeGasUsed": "0xd0536b",
      "logs": [
        {
          "address": "0x6d6783c146f2b0b2774c1725297f1845dc502525",
          "topics": [
            "0xf6391f5c32d9c69d2a47ea670b442974b53935d1edc7fd64eb21e047a839171b",
            "0x0aec9b08bc8c2cb62a91f52d33e3d77da4b3f3a63fc8b542a93abe3902ba929c",
            "0x000000000000000000000000d7e38800201d6a42c408bf79d8723740c4e7f631",
            "0x000000000000000000000000d7e38800201d6a42c408bf79d8723740c4e7f631"
          ],
          "data": "0x",
          "blockHash": "0xd52d289116d25bdd22fd94d1b8d09336053cce2ddbe6a8eefc78aa50a5fca29a",
          "blockNumber": "0x2ef7ecc",
          "transactionHash": "0x32af2b0d73f3a1ee4c6f681613992f507fc4fc4db6ece383210e0da3d1b15d63",
          "transactionIndex": "0x57",
          "logIndex": "0x1bc",
          "removed": false
        }
      ],
      "logsBloom": "0x00000000000000000000000000000000000000000000000000000000000000000000000000000000000000000000000000200000000000000000000000001200000000000000000000000000002000000000000000000000000000000000000040000000000000000000000000000100000000000000000000040000000000000000000040000000000000000000000000000002000000000000000000040000000000000000000000000000000000000000000000000000000000000000000000000000000000000000000000000100000000000000000000000000000000000080000000000000000000000000000000000000000000000000000000000000",
      "type": "0x0",
      "transactionHash": "0x32af2b0d73f3a1ee4c6f681613992f507fc4fc4db6ece383210e0da3d1b15d63",
      "transactionIndex": "0x57",
      "blockHash": "0xd52d289116d25bdd22fd94d1b8d09336053cce2ddbe6a8eefc78aa50a5fca29a",
      "blockNumber": "0x2ef7ecc",
      "gasUsed": "0xd0cc",
      "effectiveGasPrice": "0x3b9aca00",
      "from": "0xd7e38800201d6a42c408bf79d8723740c4e7f631",
      "to": "0x6d6783c146f2b0b2774c1725297f1845dc502525",
      "contractAddress": null
    },
    {
      "status": "0x1",
      "cumulativeGasUsed": "0xd12437",
      "logs": [
        {
          "address": "0x6d6783c146f2b0b2774c1725297f1845dc502525",
          "topics": [
            "0xf6391f5c32d9c69d2a47ea670b442974b53935d1edc7fd64eb21e047a839171b",
            "0xdcac51f5d253e2787a458cfb1d6b8faf248cf16367710f9e3b6bd5644d23f8db",
            "0x000000000000000000000000d7e38800201d6a42c408bf79d8723740c4e7f631",
            "0x000000000000000000000000d7e38800201d6a42c408bf79d8723740c4e7f631"
          ],
          "data": "0x",
          "blockHash": "0xd52d289116d25bdd22fd94d1b8d09336053cce2ddbe6a8eefc78aa50a5fca29a",
          "blockNumber": "0x2ef7ecc",
          "transactionHash": "0x1b0b88c0ba656f666b61c5ec739ad480329670f26a01508ac732e9202d48bddd",
          "transactionIndex": "0x58",
          "logIndex": "0x1bd",
          "removed": false
        }
      ],
      "logsBloom": "0x00000000400000000000000000000000000000000000000000000000000000000000000000000000000000000000000000200000000000000000000000001200000000000000000000000008002000000000000000000000000000000000000040000000000000000000000000000000000000000000000000000000000000000000000040000000000000000000000000000002000000000000000000040000000000000000000000000000000000000000000000000000000000000000000000000000000000000000000000000000000000000000000000000000000000000080000000000000000000000400000000000000000000000000000000000000",
      "type": "0x0",
      "transactionHash": "0x1b0b88c0ba656f666b61c5ec739ad480329670f26a01508ac732e9202d48bddd",
      "transactionIndex": "0x58",
      "blockHash": "0xd52d289116d25bdd22fd94d1b8d09336053cce2ddbe6a8eefc78aa50a5fca29a",
      "blockNumber": "0x2ef7ecc",
      "gasUsed": "0xd0cc",
      "effectiveGasPrice": "0x3b9aca00",
      "from": "0xd7e38800201d6a42c408bf79d8723740c4e7f631",
      "to": "0x6d6783c146f2b0b2774c1725297f1845dc502525",
      "contractAddress": null
    },
    {
      "status": "0x1",
      "cumulativeGasUsed": "0xd1f503",
      "logs": [
        {
          "address": "0x6d6783c146f2b0b2774c1725297f1845dc502525",
          "topics": [
            "0xf6391f5c32d9c69d2a47ea670b442974b53935d1edc7fd64eb21e047a839171b",
            "0xaf290d8680820aad922855f39b306097b20e28774d6c1ad35a20325630c3a02c",
            "0x000000000000000000000000d7e38800201d6a42c408bf79d8723740c4e7f631",
            "0x000000000000000000000000d7e38800201d6a42c408bf79d8723740c4e7f631"
          ],
          "data": "0x",
          "blockHash": "0xd52d289116d25bdd22fd94d1b8d09336053cce2ddbe6a8eefc78aa50a5fca29a",
          "blockNumber": "0x2ef7ecc",
          "transactionHash": "0x45798532825542965b620f9cc65075df2fee07b3691b240b0a78c8b1bd9ccd47",
          "transactionIndex": "0x59",
          "logIndex": "0x1be",
          "removed": false
        }
      ],
      "logsBloom": "0x00000000000000000000000000000000000000000000000000000000000000000000000000000000000000000000000000200000000000000000000800001200000000000000000000000000002000008000000000000000000000000000000040000000000000000000000000000000000000000000000000000000004000000000000040000000000000000000000000000002000000000000000000040000000000000000000000000000000000000000000000000000000000000000000000000000000000000000000000000000000000000000000000000000000000000080000000000000000000000000000000000000000000000000000000000000",
      "type": "0x0",
      "transactionHash": "0x45798532825542965b620f9cc65075df2fee07b3691b240b0a78c8b1bd9ccd47",
      "transactionIndex": "0x59",
      "blockHash": "0xd52d289116d25bdd22fd94d1b8d09336053cce2ddbe6a8eefc78aa50a5fca29a",
      "blockNumber": "0x2ef7ecc",
      "gasUsed": "0xd0cc",
      "effectiveGasPrice": "0x3b9aca00",
      "from": "0xd7e38800201d6a42c408bf79d8723740c4e7f631",
      "to": "0x6d6783c146f2b0b2774c1725297f1845dc502525",
      "contractAddress": null
    },
    {
      "status": "0x1",
      "cumulativeGasUsed": "0xd2be5b",
      "logs": [
        {
          "address": "0x6d6783c146f2b0b2774c1725297f1845dc502525",
          "topics": [
            "0xf6391f5c32d9c69d2a47ea670b442974b53935d1edc7fd64eb21e047a839171b",
            "0x0000000000000000000000000000000000000000000000000000000000000000",
            "0x000000000000000000000000d7e38800201d6a42c408bf79d8723740c4e7f631",
            "0x000000000000000000000000d7e38800201d6a42c408bf79d8723740c4e7f631"
          ],
          "data": "0x",
          "blockHash": "0xd52d289116d25bdd22fd94d1b8d09336053cce2ddbe6a8eefc78aa50a5fca29a",
          "blockNumber": "0x2ef7ecc",
          "transactionHash": "0x89715d111977914c1f6b0bdd15bf29f4df891adc306ea0b6c675f4c129e1093d",
          "transactionIndex": "0x5a",
          "logIndex": "0x1bf",
          "removed": false
        }
      ],
      "logsBloom": "0x00000000000000000000000000000000000000000000000000000000000000000000000000000000000000000000000000200000000000000000000000001200000000000000000000000000002000000000000000000000000000000000000040000000020000000000000000000800000000000000000000000000000000000000000040000000000000000000000000000002000000000000000000040000000000000000000000000000000000000000000000000000000000000000000000000000000000000000000000000000000000000000000000000000000020000080000000000000000000000000000000000000000000000000000000000000",
      "type": "0x0",
      "transactionHash": "0x89715d111977914c1f6b0bdd15bf29f4df891adc306ea0b6c675f4c129e1093d",
      "transactionIndex": "0x5a",
      "blockHash": "0xd52d289116d25bdd22fd94d1b8d09336053cce2ddbe6a8eefc78aa50a5fca29a",
      "blockNumber": "0x2ef7ecc",
      "gasUsed": "0xc958",
      "effectiveGasPrice": "0x3b9aca00",
      "from": "0xd7e38800201d6a42c408bf79d8723740c4e7f631",
      "to": "0x6d6783c146f2b0b2774c1725297f1845dc502525",
      "contractAddress": null
    }
  ],
  "libraries": [],
  "pending": [],
  "returns": {},
  "timestamp": 1746618080,
  "chain": 56,
  "commit": "6524960"
}