{
  "transactions": [
    {
      "hash": "0x8dba433ab79f21b37fd43b53419fe931f70e7237069e4111a20302e6a1dfc728",
      "transactionType": "CALL",
      "contractName": null,
      "contractAddress": "0x6402d64f035e18f9834591d3b994dfe41a0f162d",
      "function": "grantRole(bytes32,address)",
      "arguments": [
        "0x0000000000000000000000000000000000000000000000000000000000000000",
        "0x07D274a68393E8b8a2CCf19A2ce4Ba3518735253"
      ],
      "transaction": {
        "from": "0xd7e38800201d6a42c408bf79d8723740c4e7f631",
        "to": "0x6402d64f035e18f9834591d3b994dfe41a0f162d",
        "gas": "0x23bbc",
        "value": "0x0",
        "input": "0x2f2ff15d000000000000000000000000000000000000000000000000000000000000000000000000000000000000000007d274a68393e8b8a2ccf19a2ce4ba3518735253",
        "nonce": "0x182",
        "chainId": "0x38"
      },
      "additionalContracts": [],
      "isFixedGasLimit": false
    },
    {
      "hash": "0x3c04dca5b164f10e650de757c3a1ec5eefa5f409fc93519107a48e94b55f8572",
      "transactionType": "CALL",
      "contractName": null,
      "contractAddress": "0x6402d64f035e18f9834591d3b994dfe41a0f162d",
      "function": "grantRole(bytes32,address)",
      "arguments": [
        "0xaf290d8680820aad922855f39b306097b20e28774d6c1ad35a20325630c3a02c",
        "0x2162C6F603E178cE219798DA20b2451A66B05Da8"
      ],
      "transaction": {
        "from": "0xd7e38800201d6a42c408bf79d8723740c4e7f631",
        "to": "0x6402d64f035e18f9834591d3b994dfe41a0f162d",
        "gas": "0x23dce",
        "value": "0x0",
        "input": "0x2f2ff15daf290d8680820aad922855f39b306097b20e28774d6c1ad35a20325630c3a02c0000000000000000000000002162c6f603e178ce219798da20b2451a66b05da8",
        "nonce": "0x183",
        "chainId": "0x38"
      },
      "additionalContracts": [],
      "isFixedGasLimit": false
    },
    {
      "hash": "0x0d28279d64e5880fefde3d1eac3a5a5f8737f20b3ba6909e21e522c0f9a55baa",
      "transactionType": "CALL",
      "contractName": null,
      "contractAddress": "0x6402d64f035e18f9834591d3b994dfe41a0f162d",
      "function": "grantRole(bytes32,address)",
      "arguments": [
        "0xdcac51f5d253e2787a458cfb1d6b8faf248cf16367710f9e3b6bd5644d23f8db",
        "0x6293e97900aA987Cf3Cbd419e0D5Ba43ebfA91c1"
      ],
      "transaction": {
        "from": "0xd7e38800201d6a42c408bf79d8723740c4e7f631",
        "to": "0x6402d64f035e18f9834591d3b994dfe41a0f162d",
        "gas": "0x25f7f",
        "value": "0x0",
        "input": "0x2f2ff15ddcac51f5d253e2787a458cfb1d6b8faf248cf16367710f9e3b6bd5644d23f8db0000000000000000000000006293e97900aa987cf3cbd419e0d5ba43ebfa91c1",
        "nonce": "0x184",
        "chainId": "0x38"
      },
      "additionalContracts": [],
      "isFixedGasLimit": false
    },
    {
      "hash": "0x906da32579254a071a87e530883f1d78316c9bd41341e8318acbfc2f0797716a",
      "transactionType": "CALL",
      "contractName": null,
      "contractAddress": "0x6402d64f035e18f9834591d3b994dfe41a0f162d",
      "function": "grantRole(bytes32,address)",
      "arguments": [
        "0x0aec9b08bc8c2cb62a91f52d33e3d77da4b3f3a63fc8b542a93abe3902ba929c",
        "0x2162C6F603E178cE219798DA20b2451A66B05Da8"
      ],
      "transaction": {
        "from": "0xd7e38800201d6a42c408bf79d8723740c4e7f631",
        "to": "0x6402d64f035e18f9834591d3b994dfe41a0f162d",
        "gas": "0x23dce",
        "value": "0x0",
        "input": "0x2f2ff15d0aec9b08bc8c2cb62a91f52d33e3d77da4b3f3a63fc8b542a93abe3902ba929c0000000000000000000000002162c6f603e178ce219798da20b2451a66b05da8",
        "nonce": "0x185",
        "chainId": "0x38"
      },
      "additionalContracts": [],
      "isFixedGasLimit": false
    },
    {
      "hash": "0x3f3db9aefdd87cf6e104b1e541f582316a9f361e2a5b3569568825c12d06049c",
      "transactionType": "CALL",
      "contractName": null,
      "contractAddress": "0x6402d64f035e18f9834591d3b994dfe41a0f162d",
      "function": "revokeRole(bytes32,address)",
      "arguments": [
        "0x0aec9b08bc8c2cb62a91f52d33e3d77da4b3f3a63fc8b542a93abe3902ba929c",
        "0xd7e38800201D6a42C408Bf79d8723740C4E7f631"
      ],
      "transaction": {
        "from": "0xd7e38800201d6a42c408bf79d8723740c4e7f631",
        "to": "0x6402d64f035e18f9834591d3b994dfe41a0f162d",
        "gas": "0x12065",
        "value": "0x0",
        "input": "0xd547741f0aec9b08bc8c2cb62a91f52d33e3d77da4b3f3a63fc8b542a93abe3902ba929c000000000000000000000000d7e38800201d6a42c408bf79d8723740c4e7f631",
        "nonce": "0x186",
        "chainId": "0x38"
      },
      "additionalContracts": [],
      "isFixedGasLimit": false
    },
    {
      "hash": "0x8d7e5937d1c28e65ac5bfeaa4e89acbbb9807d8c9f578a7beb72954791aade92",
      "transactionType": "CALL",
      "contractName": null,
      "contractAddress": "0x6402d64f035e18f9834591d3b994dfe41a0f162d",
      "function": "revokeRole(bytes32,address)",
      "arguments": [
        "0xdcac51f5d253e2787a458cfb1d6b8faf248cf16367710f9e3b6bd5644d23f8db",
        "0xd7e38800201D6a42C408Bf79d8723740C4E7f631"
      ],
      "transaction": {
        "from": "0xd7e38800201d6a42c408bf79d8723740c4e7f631",
        "to": "0x6402d64f035e18f9834591d3b994dfe41a0f162d",
        "gas": "0x12065",
        "value": "0x0",
        "input": "0xd547741fdcac51f5d253e2787a458cfb1d6b8faf248cf16367710f9e3b6bd5644d23f8db000000000000000000000000d7e38800201d6a42c408bf79d8723740c4e7f631",
        "nonce": "0x187",
        "chainId": "0x38"
      },
      "additionalContracts": [],
      "isFixedGasLimit": false
    },
    {
      "hash": "0xe2a61290e59768221e48851ffe880b937804c9500b57003c20454d9f6eb9ef1d",
      "transactionType": "CALL",
      "contractName": null,
      "contractAddress": "0x6402d64f035e18f9834591d3b994dfe41a0f162d",
      "function": "revokeRole(bytes32,address)",
      "arguments": [
        "0xaf290d8680820aad922855f39b306097b20e28774d6c1ad35a20325630c3a02c",
        "0xd7e38800201D6a42C408Bf79d8723740C4E7f631"
      ],
      "transaction": {
        "from": "0xd7e38800201d6a42c408bf79d8723740c4e7f631",
        "to": "0x6402d64f035e18f9834591d3b994dfe41a0f162d",
        "gas": "0x12065",
        "value": "0x0",
        "input": "0xd547741faf290d8680820aad922855f39b306097b20e28774d6c1ad35a20325630c3a02c000000000000000000000000d7e38800201d6a42c408bf79d8723740c4e7f631",
        "nonce": "0x188",
        "chainId": "0x38"
      },
      "additionalContracts": [],
      "isFixedGasLimit": false
    },
    {
      "hash": "0x5e0c8d9a3d763b1e34db3d35efe364b27c2ff013a654bf2c9840a7d4253b57a2",
      "transactionType": "CALL",
      "contractName": null,
      "contractAddress": "0x6402d64f035e18f9834591d3b994dfe41a0f162d",
      "function": "revokeRole(bytes32,address)",
      "arguments": [
        "0x0000000000000000000000000000000000000000000000000000000000000000",
        "0xd7e38800201D6a42C408Bf79d8723740C4E7f631"
      ],
      "transaction": {
        "from": "0xd7e38800201d6a42c408bf79d8723740c4e7f631",
        "to": "0x6402d64f035e18f9834591d3b994dfe41a0f162d",
        "gas": "0x1161a",
        "value": "0x0",
        "input": "0xd547741f0000000000000000000000000000000000000000000000000000000000000000000000000000000000000000d7e38800201d6a42c408bf79d8723740c4e7f631",
        "nonce": "0x189",
        "chainId": "0x38"
      },
      "additionalContracts": [],
      "isFixedGasLimit": false
    }
  ],
  "receipts": [
    {
      "status": "0x1",
      "cumulativeGasUsed": "0xfb6daf",
      "logs": [
        {
          "address": "0x6402d64f035e18f9834591d3b994dfe41a0f162d",
          "topics": [
            "0x2f8788117e7eff1d82e926ec794901d17c78024a50270940304540a733656f0d",
            "0x0000000000000000000000000000000000000000000000000000000000000000",
            "0x00000000000000000000000007d274a68393e8b8a2ccf19a2ce4ba3518735253",
            "0x000000000000000000000000d7e38800201d6a42c408bf79d8723740c4e7f631"
          ],
          "data": "0x",
          "blockHash": "0xa0fe889772dbdacb25a418a21e71ade9abe2e10b2d709e905a4a26dd574219da",
          "blockNumber": "0x2f5a75a",
          "transactionHash": "0x8dba433ab79f21b37fd43b53419fe931f70e7237069e4111a20302e6a1dfc728",
          "transactionIndex": "0x8c",
          "logIndex": "0x199",
          "removed": false
        }
      ],
      "logsBloom": "0x00000004000000000000000000000000000000000000000000000000000000000000000000000000000000000000000000000000000000000000000000000000000000000000000000000000002000000000000000000000000000000000000000000004020000000200000400000800000000000000000000000000000000000000000000000000000000000000000000200000000000000000000000040000000000000000000000000000000000000000000000000000001000000000000000000000000000000000000000000000000000000000000110000000000020000080000000000000000000000000000000000000000000000000000000004000",
      "type": "0x0",
      "transactionHash": "0x8dba433ab79f21b37fd43b53419fe931f70e7237069e4111a20302e6a1dfc728",
      "transactionIndex": "0x8c",
      "blockHash": "0xa0fe889772dbdacb25a418a21e71ade9abe2e10b2d709e905a4a26dd574219da",
      "blockNumber": "0x2f5a75a",
      "gasUsed": "0x19dee",
      "effectiveGasPrice": "0x5f5e100",
      "from": "0xd7e38800201d6a42c408bf79d8723740c4e7f631",
      "to": "0x6402d64f035e18f9834591d3b994dfe41a0f162d",
      "contractAddress": null
    },
    {
      "status": "0x1",
      "cumulativeGasUsed": "0xfd0d1d",
      "logs": [
        {
          "address": "0x6402d64f035e18f9834591d3b994dfe41a0f162d",
          "topics": [
            "0x2f8788117e7eff1d82e926ec794901d17c78024a50270940304540a733656f0d",
            "0xaf290d8680820aad922855f39b306097b20e28774d6c1ad35a20325630c3a02c",
            "0x0000000000000000000000002162c6f603e178ce219798da20b2451a66b05da8",
            "0x000000000000000000000000d7e38800201d6a42c408bf79d8723740c4e7f631"
          ],
          "data": "0x",
          "blockHash": "0xa0fe889772dbdacb25a418a21e71ade9abe2e10b2d709e905a4a26dd574219da",
          "blockNumber": "0x2f5a75a",
          "transactionHash": "0x3c04dca5b164f10e650de757c3a1ec5eefa5f409fc93519107a48e94b55f8572",
          "transactionIndex": "0x8d",
          "logIndex": "0x19a",
          "removed": false
        }
      ],
      "logsBloom": "0x00000004000000000000000000000000000000000000000000000000000000000000000000000000000000000000000000000000000000000000000800000000000000000000000000000000002000008000000000000000000000000000000000000000000000000210000400000000000000000000000000000800004000000000080000000000000000000000000000000000000000000000000000040000000000000000000000000000000000000000000000000000001000000000000000000000000000000000000000000000000000000000000100000000000000000080000000000000000000000000000000000000000000000000000000004000",
      "type": "0x0",
      "transactionHash": "0x3c04dca5b164f10e650de757c3a1ec5eefa5f409fc93519107a48e94b55f8572",
      "transactionIndex": "0x8d",
      "blockHash": "0xa0fe889772dbdacb25a418a21e71ade9abe2e10b2d709e905a4a26dd574219da",
      "blockNumber": "0x2f5a75a",
      "gasUsed": "0x19f6e",
      "effectiveGasPrice": "0x5f5e100",
      "from": "0xd7e38800201d6a42c408bf79d8723740c4e7f631",
      "to": "0x6402d64f035e18f9834591d3b994dfe41a0f162d",
      "contractAddress": null
    },
    {
      "status": "0x1",
      "cumulativeGasUsed": "0xfeac7f",
      "logs": [
        {
          "address": "0x6402d64f035e18f9834591d3b994dfe41a0f162d",
          "topics": [
            "0x2f8788117e7eff1d82e926ec794901d17c78024a50270940304540a733656f0d",
            "0xdcac51f5d253e2787a458cfb1d6b8faf248cf16367710f9e3b6bd5644d23f8db",
            "0x0000000000000000000000006293e97900aa987cf3cbd419e0d5ba43ebfa91c1",
            "0x000000000000000000000000d7e38800201d6a42c408bf79d8723740c4e7f631"
          ],
          "data": "0x",
          "blockHash": "0xa0fe889772dbdacb25a418a21e71ade9abe2e10b2d709e905a4a26dd574219da",
          "blockNumber": "0x2f5a75a",
          "transactionHash": "0x0d28279d64e5880fefde3d1eac3a5a5f8737f20b3ba6909e21e522c0f9a55baa",
          "transactionIndex": "0x8e",
          "logIndex": "0x19b",
          "removed": false
        }
      ],
      "logsBloom": "0x00000004400000000000000000000000000000000000000000000000000000000000000000000000000000000000000000000000000000000000000000000000000000000000000020000008002000000000000000000000000000000000000000000000000000000200000400000000000000000000000000000000000000000000000100000000000000000000000000000000000000000000000000040000000000000000000000000000000000000000000000000000001000000000000000000000000000000000000000000000000000000000000100000000000000000080000000004000000000000400000000000000000000000000000000004000",
      "type": "0x0",
      "transactionHash": "0x0d28279d64e5880fefde3d1eac3a5a5f8737f20b3ba6909e21e522c0f9a55baa",
      "transactionIndex": "0x8e",
      "blockHash": "0xa0fe889772dbdacb25a418a21e71ade9abe2e10b2d709e905a4a26dd574219da",
      "blockNumber": "0x2f5a75a",
      "gasUsed": "0x19f62",
      "effectiveGasPrice": "0x5f5e100",
      "from": "0xd7e38800201d6a42c408bf79d8723740c4e7f631",
      "to": "0x6402d64f035e18f9834591d3b994dfe41a0f162d",
      "contractAddress": null
    },
    {
      "status": "0x1",
      "cumulativeGasUsed": "0x1004bed",
      "logs": [
        {
          "address": "0x6402d64f035e18f9834591d3b994dfe41a0f162d",
          "topics": [
            "0x2f8788117e7eff1d82e926ec794901d17c78024a50270940304540a733656f0d",
            "0x0aec9b08bc8c2cb62a91f52d33e3d77da4b3f3a63fc8b542a93abe3902ba929c",
            "0x0000000000000000000000002162c6f603e178ce219798da20b2451a66b05da8",
            "0x000000000000000000000000d7e38800201d6a42c408bf79d8723740c4e7f631"
          ],
          "data": "0x",
          "blockHash": "0xa0fe889772dbdacb25a418a21e71ade9abe2e10b2d709e905a4a26dd574219da",
          "blockNumber": "0x2f5a75a",
          "transactionHash": "0x906da32579254a071a87e530883f1d78316c9bd41341e8318acbfc2f0797716a",
          "transactionIndex": "0x8f",
          "logIndex": "0x19c",
          "removed": false
        }
      ],
      "logsBloom": "0x00000004000000000000000000000000000000000000000000000000000000000000000000000000000000000000000000000000000000000000000000000000000000000000000000000000002000000000000000000000000000000000000000000000000000000210000400000100000000000000000000040800000000000000080000000000000000000000000000000000000000000000000000040000000000000000000000000000000000000000000000000000001000000000000000000000000000000000000000000100000000000000000100000000000000000080000000000000000000000000000000000000000000000000000000004000",
      "type": "0x0",
      "transactionHash": "0x906da32579254a071a87e530883f1d78316c9bd41341e8318acbfc2f0797716a",
      "transactionIndex": "0x8f",
      "blockHash": "0xa0fe889772dbdacb25a418a21e71ade9abe2e10b2d709e905a4a26dd574219da",
      "blockNumber": "0x2f5a75a",
      "gasUsed": "0x19f6e",
      "effectiveGasPrice": "0x5f5e100",
      "from": "0xd7e38800201d6a42c408bf79d8723740c4e7f631",
      "to": "0x6402d64f035e18f9834591d3b994dfe41a0f162d",
      "contractAddress": null
    },
    {
      "status": "0x1",
      "cumulativeGasUsed": "0x1011cb9",
      "logs": [
        {
          "address": "0x6402d64f035e18f9834591d3b994dfe41a0f162d",
          "topics": [
            "0xf6391f5c32d9c69d2a47ea670b442974b53935d1edc7fd64eb21e047a839171b",
            "0x0aec9b08bc8c2cb62a91f52d33e3d77da4b3f3a63fc8b542a93abe3902ba929c",
            "0x000000000000000000000000d7e38800201d6a42c408bf79d8723740c4e7f631",
            "0x000000000000000000000000d7e38800201d6a42c408bf79d8723740c4e7f631"
          ],
          "data": "0x",
          "blockHash": "0xa0fe889772dbdacb25a418a21e71ade9abe2e10b2d709e905a4a26dd574219da",
          "blockNumber": "0x2f5a75a",
          "transactionHash": "0x3f3db9aefdd87cf6e104b1e541f582316a9f361e2a5b3569568825c12d06049c",
          "transactionIndex": "0x90",
          "logIndex": "0x19d",
          "removed": false
        }
      ],
      "logsBloom": "0x00000000000000000000000000000000000000000000000000000000000000000000000000000000000000000000000000200000000000000000000000000000000000000000000000000000002000000000000000000000000000000000000040000000000000000200000400000100000000000000000000040000000000000000000040000000000000000000000000000000000000000000000000040000000000000000000000000000000000000000000000000000000000000000000000000000000000000000000000000100000000000000000000000000000000000080000000000000000000000000000000000000000000000000000000004000",
      "type": "0x0",
      "transactionHash": "0x3f3db9aefdd87cf6e104b1e541f582316a9f361e2a5b3569568825c12d06049c",
      "transactionIndex": "0x90",
      "blockHash": "0xa0fe889772dbdacb25a418a21e71ade9abe2e10b2d709e905a4a26dd574219da",
      "blockNumber": "0x2f5a75a",
      "gasUsed": "0xd0cc",
      "effectiveGasPrice": "0x5f5e100",
      "from": "0xd7e38800201d6a42c408bf79d8723740c4e7f631",
      "to": "0x6402d64f035e18f9834591d3b994dfe41a0f162d",
      "contractAddress": null
    },
    {
      "status": "0x1",
      "cumulativeGasUsed": "0x101ed85",
      "logs": [
        {
          "address": "0x6402d64f035e18f9834591d3b994dfe41a0f162d",
          "topics": [
            "0xf6391f5c32d9c69d2a47ea670b442974b53935d1edc7fd64eb21e047a839171b",
            "0xdcac51f5d253e2787a458cfb1d6b8faf248cf16367710f9e3b6bd5644d23f8db",
            "0x000000000000000000000000d7e38800201d6a42c408bf79d8723740c4e7f631",
            "0x000000000000000000000000d7e38800201d6a42c408bf79d8723740c4e7f631"
          ],
          "data": "0x",
          "blockHash": "0xa0fe889772dbdacb25a418a21e71ade9abe2e10b2d709e905a4a26dd574219da",
          "blockNumber": "0x2f5a75a",
          "transactionHash": "0x8d7e5937d1c28e65ac5bfeaa4e89acbbb9807d8c9f578a7beb72954791aade92",
          "transactionIndex": "0x91",
          "logIndex": "0x19e",
          "removed": false
        }
      ],
      "logsBloom": "0x00000000400000000000000000000000000000000000000000000000000000000000000000000000000000000000000000200000000000000000000000000000000000000000000000000008002000000000000000000000000000000000000040000000000000000200000400000000000000000000000000000000000000000000000040000000000000000000000000000000000000000000000000040000000000000000000000000000000000000000000000000000000000000000000000000000000000000000000000000000000000000000000000000000000000000080000000000000000000000400000000000000000000000000000000004000",
      "type": "0x0",
      "transactionHash": "0x8d7e5937d1c28e65ac5bfeaa4e89acbbb9807d8c9f578a7beb72954791aade92",
      "transactionIndex": "0x91",
      "blockHash": "0xa0fe889772dbdacb25a418a21e71ade9abe2e10b2d709e905a4a26dd574219da",
      "blockNumber": "0x2f5a75a",
      "gasUsed": "0xd0cc",
      "effectiveGasPrice": "0x5f5e100",
      "from": "0xd7e38800201d6a42c408bf79d8723740c4e7f631",
      "to": "0x6402d64f035e18f9834591d3b994dfe41a0f162d",
      "contractAddress": null
    },
    {
      "status": "0x1",
      "cumulativeGasUsed": "0x102be51",
      "logs": [
        {
          "address": "0x6402d64f035e18f9834591d3b994dfe41a0f162d",
          "topics": [
            "0xf6391f5c32d9c69d2a47ea670b442974b53935d1edc7fd64eb21e047a839171b",
            "0xaf290d8680820aad922855f39b306097b20e28774d6c1ad35a20325630c3a02c",
            "0x000000000000000000000000d7e38800201d6a42c408bf79d8723740c4e7f631",
            "0x000000000000000000000000d7e38800201d6a42c408bf79d8723740c4e7f631"
          ],
          "data": "0x",
          "blockHash": "0xa0fe889772dbdacb25a418a21e71ade9abe2e10b2d709e905a4a26dd574219da",
          "blockNumber": "0x2f5a75a",
          "transactionHash": "0xe2a61290e59768221e48851ffe880b937804c9500b57003c20454d9f6eb9ef1d",
          "transactionIndex": "0x92",
          "logIndex": "0x19f",
          "removed": false
        }
      ],
      "logsBloom": "0x00000000000000000000000000000000000000000000000000000000000000000000000000000000000000000000000000200000000000000000000800000000000000000000000000000000002000008000000000000000000000000000000040000000000000000200000400000000000000000000000000000000004000000000000040000000000000000000000000000000000000000000000000040000000000000000000000000000000000000000000000000000000000000000000000000000000000000000000000000000000000000000000000000000000000000080000000000000000000000000000000000000000000000000000000004000",
      "type": "0x0",
      "transactionHash": "0xe2a61290e59768221e48851ffe880b937804c9500b57003c20454d9f6eb9ef1d",
      "transactionIndex": "0x92",
      "blockHash": "0xa0fe889772dbdacb25a418a21e71ade9abe2e10b2d709e905a4a26dd574219da",
      "blockNumber": "0x2f5a75a",
      "gasUsed": "0xd0cc",
      "effectiveGasPrice": "0x5f5e100",
      "from": "0xd7e38800201d6a42c408bf79d8723740c4e7f631",
      "to": "0x6402d64f035e18f9834591d3b994dfe41a0f162d",
      "contractAddress": null
    },
    {
      "status": "0x1",
      "cumulativeGasUsed": "0x1186e42",
      "logs": [
        {
          "address": "0x6402d64f035e18f9834591d3b994dfe41a0f162d",
          "topics": [
            "0xf6391f5c32d9c69d2a47ea670b442974b53935d1edc7fd64eb21e047a839171b",
            "0x0000000000000000000000000000000000000000000000000000000000000000",
            "0x000000000000000000000000d7e38800201d6a42c408bf79d8723740c4e7f631",
            "0x000000000000000000000000d7e38800201d6a42c408bf79d8723740c4e7f631"
          ],
          "data": "0x",
          "blockHash": "0xa0fe889772dbdacb25a418a21e71ade9abe2e10b2d709e905a4a26dd574219da",
          "blockNumber": "0x2f5a75a",
          "transactionHash": "0x5e0c8d9a3d763b1e34db3d35efe364b27c2ff013a654bf2c9840a7d4253b57a2",
          "transactionIndex": "0xa0",
          "logIndex": "0x1c0",
          "removed": false
        }
      ],
      "logsBloom": "0x00000000000000000000000000000000000000000000000000000000000000000000000000000000000000000000000000200000000000000000000000000000000000000000000000000000002000000000000000000000000000000000000040000000020000000200000400000800000000000000000000000000000000000000000040000000000000000000000000000000000000000000000000040000000000000000000000000000000000000000000000000000000000000000000000000000000000000000000000000000000000000000000000000000000020000080000000000000000000000000000000000000000000000000000000004000",
      "type": "0x0",
      "transactionHash": "0x5e0c8d9a3d763b1e34db3d35efe364b27c2ff013a654bf2c9840a7d4253b57a2",
      "transactionIndex": "0xa0",
      "blockHash": "0xa0fe889772dbdacb25a418a21e71ade9abe2e10b2d709e905a4a26dd574219da",
      "blockNumber": "0x2f5a75a",
      "gasUsed": "0xc958",
      "effectiveGasPrice": "0x5f5e100",
      "from": "0xd7e38800201d6a42c408bf79d8723740c4e7f631",
      "to": "0x6402d64f035e18f9834591d3b994dfe41a0f162d",
      "contractAddress": null
    }
  ],
  "libraries": [],
  "pending": [],
  "returns": {},
  "timestamp": 1747223630,
  "chain": 56,
  "commit": "4791325"
}