{
  "transactions": [
    {
      "hash": "0xfdeceb1cddefde8350ed61d61eb6bf1a552479191169f467632a32ab2f45513b",
      "transactionType": "CALL",
      "contractName": null,
      "contractAddress": "0xd5cfc0f894ba77e95e3325aa53eb3e6cbbb5a81e",
      "function": "grantRole(bytes32,address)",
      "arguments": [
        "0x0000000000000000000000000000000000000000000000000000000000000000",
        "0x07D274a68393E8b8a2CCf19A2ce4Ba3518735253"
      ],
      "transaction": {
        "from": "0xd7e38800201d6a42c408bf79d8723740c4e7f631",
        "to": "0xd5cfc0f894ba77e95e3325aa53eb3e6cbbb5a81e",
        "gas": "0x23bbc",
        "value": "0x0",
        "input": "0x2f2ff15d000000000000000000000000000000000000000000000000000000000000000000000000000000000000000007d274a68393e8b8a2ccf19a2ce4ba3518735253",
        "nonce": "0x17a",
        "chainId": "0x38"
      },
      "additionalContracts": [],
      "isFixedGasLimit": false
    },
    {
      "hash": "0x918ff26a48e082bd9716c2898e1530213d752578466b9fdd7897388cbec7fc2d",
      "transactionType": "CALL",
      "contractName": null,
      "contractAddress": "0xd5cfc0f894ba77e95e3325aa53eb3e6cbbb5a81e",
      "function": "grantRole(bytes32,address)",
      "arguments": [
        "0xaf290d8680820aad922855f39b306097b20e28774d6c1ad35a20325630c3a02c",
        "0x2162C6F603E178cE219798DA20b2451A66B05Da8"
      ],
      "transaction": {
        "from": "0xd7e38800201d6a42c408bf79d8723740c4e7f631",
        "to": "0xd5cfc0f894ba77e95e3325aa53eb3e6cbbb5a81e",
        "gas": "0x23dce",
        "value": "0x0",
        "input": "0x2f2ff15daf290d8680820aad922855f39b306097b20e28774d6c1ad35a20325630c3a02c0000000000000000000000002162c6f603e178ce219798da20b2451a66b05da8",
        "nonce": "0x17b",
        "chainId": "0x38"
      },
      "additionalContracts": [],
      "isFixedGasLimit": false
    },
    {
      "hash": "0xde4ab6d5508f0d28b7e8ec65cbceb1942e451a59481b500d026fd92115396caf",
      "transactionType": "CALL",
      "contractName": null,
      "contractAddress": "0xd5cfc0f894ba77e95e3325aa53eb3e6cbbb5a81e",
      "function": "grantRole(bytes32,address)",
      "arguments": [
        "0xdcac51f5d253e2787a458cfb1d6b8faf248cf16367710f9e3b6bd5644d23f8db",
        "0x6293e97900aA987Cf3Cbd419e0D5Ba43ebfA91c1"
      ],
      "transaction": {
        "from": "0xd7e38800201d6a42c408bf79d8723740c4e7f631",
        "to": "0xd5cfc0f894ba77e95e3325aa53eb3e6cbbb5a81e",
        "gas": "0x25f7f",
        "value": "0x0",
        "input": "0x2f2ff15ddcac51f5d253e2787a458cfb1d6b8faf248cf16367710f9e3b6bd5644d23f8db0000000000000000000000006293e97900aa987cf3cbd419e0d5ba43ebfa91c1",
        "nonce": "0x17c",
        "chainId": "0x38"
      },
      "additionalContracts": [],
      "isFixedGasLimit": false
    },
    {
      "hash": "0xd7501d5c25ef3524fdef73d2d6da969123ac374aba5c04447afd47e287affec0",
      "transactionType": "CALL",
      "contractName": null,
      "contractAddress": "0xd5cfc0f894ba77e95e3325aa53eb3e6cbbb5a81e",
      "function": "grantRole(bytes32,address)",
      "arguments": [
        "0x0aec9b08bc8c2cb62a91f52d33e3d77da4b3f3a63fc8b542a93abe3902ba929c",
        "0x2162C6F603E178cE219798DA20b2451A66B05Da8"
      ],
      "transaction": {
        "from": "0xd7e38800201d6a42c408bf79d8723740c4e7f631",
        "to": "0xd5cfc0f894ba77e95e3325aa53eb3e6cbbb5a81e",
        "gas": "0x23dce",
        "value": "0x0",
        "input": "0x2f2ff15d0aec9b08bc8c2cb62a91f52d33e3d77da4b3f3a63fc8b542a93abe3902ba929c0000000000000000000000002162c6f603e178ce219798da20b2451a66b05da8",
        "nonce": "0x17d",
        "chainId": "0x38"
      },
      "additionalContracts": [],
      "isFixedGasLimit": false
    },
    {
      "hash": "0x6f7d0fd681765686e94913b366f0eea57637876641f62c29f0af0f64b2362c49",
      "transactionType": "CALL",
      "contractName": null,
      "contractAddress": "0xd5cfc0f894ba77e95e3325aa53eb3e6cbbb5a81e",
      "function": "revokeRole(bytes32,address)",
      "arguments": [
        "0x0aec9b08bc8c2cb62a91f52d33e3d77da4b3f3a63fc8b542a93abe3902ba929c",
        "0xd7e38800201D6a42C408Bf79d8723740C4E7f631"
      ],
      "transaction": {
        "from": "0xd7e38800201d6a42c408bf79d8723740c4e7f631",
        "to": "0xd5cfc0f894ba77e95e3325aa53eb3e6cbbb5a81e",
        "gas": "0x12065",
        "value": "0x0",
        "input": "0xd547741f0aec9b08bc8c2cb62a91f52d33e3d77da4b3f3a63fc8b542a93abe3902ba929c000000000000000000000000d7e38800201d6a42c408bf79d8723740c4e7f631",
        "nonce": "0x17e",
        "chainId": "0x38"
      },
      "additionalContracts": [],
      "isFixedGasLimit": false
    },
    {
      "hash": "0xcad8263af79f8022573dbe81b79a268f4189fa4d0aa15484efc6c2b843bcc2be",
      "transactionType": "CALL",
      "contractName": null,
      "contractAddress": "0xd5cfc0f894ba77e95e3325aa53eb3e6cbbb5a81e",
      "function": "revokeRole(bytes32,address)",
      "arguments": [
        "0xdcac51f5d253e2787a458cfb1d6b8faf248cf16367710f9e3b6bd5644d23f8db",
        "0xd7e38800201D6a42C408Bf79d8723740C4E7f631"
      ],
      "transaction": {
        "from": "0xd7e38800201d6a42c408bf79d8723740c4e7f631",
        "to": "0xd5cfc0f894ba77e95e3325aa53eb3e6cbbb5a81e",
        "gas": "0x12065",
        "value": "0x0",
        "input": "0xd547741fdcac51f5d253e2787a458cfb1d6b8faf248cf16367710f9e3b6bd5644d23f8db000000000000000000000000d7e38800201d6a42c408bf79d8723740c4e7f631",
        "nonce": "0x17f",
        "chainId": "0x38"
      },
      "additionalContracts": [],
      "isFixedGasLimit": false
    },
    {
      "hash": "0x04d92398033c79cc22d0a9cdfd4519d474de30cccef819594f9c10f36365e598",
      "transactionType": "CALL",
      "contractName": null,
      "contractAddress": "0xd5cfc0f894ba77e95e3325aa53eb3e6cbbb5a81e",
      "function": "revokeRole(bytes32,address)",
      "arguments": [
        "0xaf290d8680820aad922855f39b306097b20e28774d6c1ad35a20325630c3a02c",
        "0xd7e38800201D6a42C408Bf79d8723740C4E7f631"
      ],
      "transaction": {
        "from": "0xd7e38800201d6a42c408bf79d8723740c4e7f631",
        "to": "0xd5cfc0f894ba77e95e3325aa53eb3e6cbbb5a81e",
        "gas": "0x12065",
        "value": "0x0",
        "input": "0xd547741faf290d8680820aad922855f39b306097b20e28774d6c1ad35a20325630c3a02c000000000000000000000000d7e38800201d6a42c408bf79d8723740c4e7f631",
        "nonce": "0x180",
        "chainId": "0x38"
      },
      "additionalContracts": [],
      "isFixedGasLimit": false
    },
    {
      "hash": "0xb8b3e3941548c99c3c30723885491b25e994af3a9cfb31059cf74ede4212fa2e",
      "transactionType": "CALL",
      "contractName": null,
      "contractAddress": "0xd5cfc0f894ba77e95e3325aa53eb3e6cbbb5a81e",
      "function": "revokeRole(bytes32,address)",
      "arguments": [
        "0x0000000000000000000000000000000000000000000000000000000000000000",
        "0xd7e38800201D6a42C408Bf79d8723740C4E7f631"
      ],
      "transaction": {
        "from": "0xd7e38800201d6a42c408bf79d8723740c4e7f631",
        "to": "0xd5cfc0f894ba77e95e3325aa53eb3e6cbbb5a81e",
        "gas": "0x1161a",
        "value": "0x0",
        "input": "0xd547741f0000000000000000000000000000000000000000000000000000000000000000000000000000000000000000d7e38800201d6a42c408bf79d8723740c4e7f631",
        "nonce": "0x181",
        "chainId": "0x38"
      },
      "additionalContracts": [],
      "isFixedGasLimit": false
    }
  ],
  "receipts": [
    {
      "status": "0x1",
      "cumulativeGasUsed": "0x150a8c5",
      "logs": [
        {
          "address": "0xd5cfc0f894ba77e95e3325aa53eb3e6cbbb5a81e",
          "topics": [
            "0x2f8788117e7eff1d82e926ec794901d17c78024a50270940304540a733656f0d",
            "0x0000000000000000000000000000000000000000000000000000000000000000",
            "0x00000000000000000000000007d274a68393e8b8a2ccf19a2ce4ba3518735253",
            "0x000000000000000000000000d7e38800201d6a42c408bf79d8723740c4e7f631"
          ],
          "data": "0x",
          "blockHash": "0x09bc923e881539f8abf8c789dc3cea95ba8da4b38248df65662bd7cf7b99f9bf",
          "blockNumber": "0x2f5a71b",
          "transactionHash": "0xfdeceb1cddefde8350ed61d61eb6bf1a552479191169f467632a32ab2f45513b",
          "transactionIndex": "0x80",
          "logIndex": "0x332",
          "removed": false
        }
      ],
      "logsBloom": "0x00000004000000000000040000000000000000000000000000000000000000000000000000000000000000000000000200000000000000000000040000000000000000000000000000000000002000000000000000000000000000000000000000000004020000000000000000000800000000000000000000000000000000000000000000000000000000000000000000200000000000000000000000040000000000000000000000000000000000000000000000000000001000000000000000000000000000000000000000000000000000000000000110000000000020000080000000000000000000000000000000000000000000000000000000000000",
      "type": "0x0",
      "transactionHash": "0xfdeceb1cddefde8350ed61d61eb6bf1a552479191169f467632a32ab2f45513b",
      "transactionIndex": "0x80",
      "blockHash": "0x09bc923e881539f8abf8c789dc3cea95ba8da4b38248df65662bd7cf7b99f9bf",
      "blockNumber": "0x2f5a71b",
      "gasUsed": "0x19dee",
      "effectiveGasPrice": "0x5f5e100",
      "from": "0xd7e38800201d6a42c408bf79d8723740c4e7f631",
      "to": "0xd5cfc0f894ba77e95e3325aa53eb3e6cbbb5a81e",
      "contractAddress": null
    },
    {
      "status": "0x1",
      "cumulativeGasUsed": "0x1524833",
      "logs": [
        {
          "address": "0xd5cfc0f894ba77e95e3325aa53eb3e6cbbb5a81e",
          "topics": [
            "0x2f8788117e7eff1d82e926ec794901d17c78024a50270940304540a733656f0d",
            "0xaf290d8680820aad922855f39b306097b20e28774d6c1ad35a20325630c3a02c",
            "0x0000000000000000000000002162c6f603e178ce219798da20b2451a66b05da8",
            "0x000000000000000000000000d7e38800201d6a42c408bf79d8723740c4e7f631"
          ],
          "data": "0x",
          "blockHash": "0x09bc923e881539f8abf8c789dc3cea95ba8da4b38248df65662bd7cf7b99f9bf",
          "blockNumber": "0x2f5a71b",
          "transactionHash": "0x918ff26a48e082bd9716c2898e1530213d752578466b9fdd7897388cbec7fc2d",
          "transactionIndex": "0x81",
          "logIndex": "0x333",
          "removed": false
        }
      ],
      "logsBloom": "0x00000004000000000000040000000000000000000000000000000000000000000000000000000000000000000000000200000000000000000000040800000000000000000000000000000000002000008000000000000000000000000000000000000000000000000010000000000000000000000000000000000800004000000000080000000000000000000000000000000000000000000000000000040000000000000000000000000000000000000000000000000000001000000000000000000000000000000000000000000000000000000000000100000000000000000080000000000000000000000000000000000000000000000000000000000000",
      "type": "0x0",
      "transactionHash": "0x918ff26a48e082bd9716c2898e1530213d752578466b9fdd7897388cbec7fc2d",
      "transactionIndex": "0x81",
      "blockHash": "0x09bc923e881539f8abf8c789dc3cea95ba8da4b38248df65662bd7cf7b99f9bf",
      "blockNumber": "0x2f5a71b",
      "gasUsed": "0x19f6e",
      "effectiveGasPrice": "0x5f5e100",
      "from": "0xd7e38800201d6a42c408bf79d8723740c4e7f631",
      "to": "0xd5cfc0f894ba77e95e3325aa53eb3e6cbbb5a81e",
      "contractAddress": null
    },
    {
      "status": "0x1",
      "cumulativeGasUsed": "0x153e795",
      "logs": [
        {
          "address": "0xd5cfc0f894ba77e95e3325aa53eb3e6cbbb5a81e",
          "topics": [
            "0x2f8788117e7eff1d82e926ec794901d17c78024a50270940304540a733656f0d",
            "0xdcac51f5d253e2787a458cfb1d6b8faf248cf16367710f9e3b6bd5644d23f8db",
            "0x0000000000000000000000006293e97900aa987cf3cbd419e0d5ba43ebfa91c1",
            "0x000000000000000000000000d7e38800201d6a42c408bf79d8723740c4e7f631"
          ],
          "data": "0x",
          "blockHash": "0x09bc923e881539f8abf8c789dc3cea95ba8da4b38248df65662bd7cf7b99f9bf",
          "blockNumber": "0x2f5a71b",
          "transactionHash": "0xde4ab6d5508f0d28b7e8ec65cbceb1942e451a59481b500d026fd92115396caf",
          "transactionIndex": "0x82",
          "logIndex": "0x334",
          "removed": false
        }
      ],
      "logsBloom": "0x00000004400000000000040000000000000000000000000000000000000000000000000000000000000000000000000200000000000000000000040000000000000000000000000020000008002000000000000000000000000000000000000000000000000000000000000000000000000000000000000000000000000000000000000100000000000000000000000000000000000000000000000000040000000000000000000000000000000000000000000000000000001000000000000000000000000000000000000000000000000000000000000100000000000000000080000000004000000000000400000000000000000000000000000000000000",
      "type": "0x0",
      "transactionHash": "0xde4ab6d5508f0d28b7e8ec65cbceb1942e451a59481b500d026fd92115396caf",
      "transactionIndex": "0x82",
      "blockHash": "0x09bc923e881539f8abf8c789dc3cea95ba8da4b38248df65662bd7cf7b99f9bf",
      "blockNumber": "0x2f5a71b",
      "gasUsed": "0x19f62",
      "effectiveGasPrice": "0x5f5e100",
      "from": "0xd7e38800201d6a42c408bf79d8723740c4e7f631",
      "to": "0xd5cfc0f894ba77e95e3325aa53eb3e6cbbb5a81e",
      "contractAddress": null
    },
    {
      "status": "0x1",
      "cumulativeGasUsed": "0x1558703",
      "logs": [
        {
          "address": "0xd5cfc0f894ba77e95e3325aa53eb3e6cbbb5a81e",
          "topics": [
            "0x2f8788117e7eff1d82e926ec794901d17c78024a50270940304540a733656f0d",
            "0x0aec9b08bc8c2cb62a91f52d33e3d77da4b3f3a63fc8b542a93abe3902ba929c",
            "0x0000000000000000000000002162c6f603e178ce219798da20b2451a66b05da8",
            "0x000000000000000000000000d7e38800201d6a42c408bf79d8723740c4e7f631"
          ],
          "data": "0x",
          "blockHash": "0x09bc923e881539f8abf8c789dc3cea95ba8da4b38248df65662bd7cf7b99f9bf",
          "blockNumber": "0x2f5a71b",
          "transactionHash": "0xd7501d5c25ef3524fdef73d2d6da969123ac374aba5c04447afd47e287affec0",
          "transactionIndex": "0x83",
          "logIndex": "0x335",
          "removed": false
        }
      ],
      "logsBloom": "0x00000004000000000000040000000000000000000000000000000000000000000000000000000000000000000000000200000000000000000000040000000000000000000000000000000000002000000000000000000000000000000000000000000000000000000010000000000100000000000000000000040800000000000000080000000000000000000000000000000000000000000000000000040000000000000000000000000000000000000000000000000000001000000000000000000000000000000000000000000100000000000000000100000000000000000080000000000000000000000000000000000000000000000000000000000000",
      "type": "0x0",
      "transactionHash": "0xd7501d5c25ef3524fdef73d2d6da969123ac374aba5c04447afd47e287affec0",
      "transactionIndex": "0x83",
      "blockHash": "0x09bc923e881539f8abf8c789dc3cea95ba8da4b38248df65662bd7cf7b99f9bf",
      "blockNumber": "0x2f5a71b",
      "gasUsed": "0x19f6e",
      "effectiveGasPrice": "0x5f5e100",
      "from": "0xd7e38800201d6a42c408bf79d8723740c4e7f631",
      "to": "0xd5cfc0f894ba77e95e3325aa53eb3e6cbbb5a81e",
      "contractAddress": null
    },
    {
      "status": "0x1",
      "cumulativeGasUsed": "0x15657cf",
      "logs": [
        {
          "address": "0xd5cfc0f894ba77e95e3325aa53eb3e6cbbb5a81e",
          "topics": [
            "0xf6391f5c32d9c69d2a47ea670b442974b53935d1edc7fd64eb21e047a839171b",
            "0x0aec9b08bc8c2cb62a91f52d33e3d77da4b3f3a63fc8b542a93abe3902ba929c",
            "0x000000000000000000000000d7e38800201d6a42c408bf79d8723740c4e7f631",
            "0x000000000000000000000000d7e38800201d6a42c408bf79d8723740c4e7f631"
          ],
          "data": "0x",
          "blockHash": "0x09bc923e881539f8abf8c789dc3cea95ba8da4b38248df65662bd7cf7b99f9bf",
          "blockNumber": "0x2f5a71b",
          "transactionHash": "0x6f7d0fd681765686e94913b366f0eea57637876641f62c29f0af0f64b2362c49",
          "transactionIndex": "0x84",
          "logIndex": "0x336",
          "removed": false
        }
      ],
      "logsBloom": "0x00000000000000000000040000000000000000000000000000000000000000000000000000000000000000000000000200200000000000000000040000000000000000000000000000000000002000000000000000000000000000000000000040000000000000000000000000000100000000000000000000040000000000000000000040000000000000000000000000000000000000000000000000040000000000000000000000000000000000000000000000000000000000000000000000000000000000000000000000000100000000000000000000000000000000000080000000000000000000000000000000000000000000000000000000000000",
      "type": "0x0",
      "transactionHash": "0x6f7d0fd681765686e94913b366f0eea57637876641f62c29f0af0f64b2362c49",
      "transactionIndex": "0x84",
      "blockHash": "0x09bc923e881539f8abf8c789dc3cea95ba8da4b38248df65662bd7cf7b99f9bf",
      "blockNumber": "0x2f5a71b",
      "gasUsed": "0xd0cc",
      "effectiveGasPrice": "0x5f5e100",
      "from": "0xd7e38800201d6a42c408bf79d8723740c4e7f631",
      "to": "0xd5cfc0f894ba77e95e3325aa53eb3e6cbbb5a81e",
      "contractAddress": null
    },
    {
      "status": "0x1",
      "cumulativeGasUsed": "0x157289b",
      "logs": [
        {
          "address": "0xd5cfc0f894ba77e95e3325aa53eb3e6cbbb5a81e",
          "topics": [
            "0xf6391f5c32d9c69d2a47ea670b442974b53935d1edc7fd64eb21e047a839171b",
            "0xdcac51f5d253e2787a458cfb1d6b8faf248cf16367710f9e3b6bd5644d23f8db",
            "0x000000000000000000000000d7e38800201d6a42c408bf79d8723740c4e7f631",
            "0x000000000000000000000000d7e38800201d6a42c408bf79d8723740c4e7f631"
          ],
          "data": "0x",
          "blockHash": "0x09bc923e881539f8abf8c789dc3cea95ba8da4b38248df65662bd7cf7b99f9bf",
          "blockNumber": "0x2f5a71b",
          "transactionHash": "0xcad8263af79f8022573dbe81b79a268f4189fa4d0aa15484efc6c2b843bcc2be",
          "transactionIndex": "0x85",
          "logIndex": "0x337",
          "removed": false
        }
      ],
      "logsBloom": "0x00000000400000000000040000000000000000000000000000000000000000000000000000000000000000000000000200200000000000000000040000000000000000000000000000000008002000000000000000000000000000000000000040000000000000000000000000000000000000000000000000000000000000000000000040000000000000000000000000000000000000000000000000040000000000000000000000000000000000000000000000000000000000000000000000000000000000000000000000000000000000000000000000000000000000000080000000000000000000000400000000000000000000000000000000000000",
      "type": "0x0",
      "transactionHash": "0xcad8263af79f8022573dbe81b79a268f4189fa4d0aa15484efc6c2b843bcc2be",
      "transactionIndex": "0x85",
      "blockHash": "0x09bc923e881539f8abf8c789dc3cea95ba8da4b38248df65662bd7cf7b99f9bf",
      "blockNumber": "0x2f5a71b",
      "gasUsed": "0xd0cc",
      "effectiveGasPrice": "0x5f5e100",
      "from": "0xd7e38800201d6a42c408bf79d8723740c4e7f631",
      "to": "0xd5cfc0f894ba77e95e3325aa53eb3e6cbbb5a81e",
      "contractAddress": null
    },
    {
      "status": "0x1",
      "cumulativeGasUsed": "0x157f967",
      "logs": [
        {
          "address": "0xd5cfc0f894ba77e95e3325aa53eb3e6cbbb5a81e",
          "topics": [
            "0xf6391f5c32d9c69d2a47ea670b442974b53935d1edc7fd64eb21e047a839171b",
            "0xaf290d8680820aad922855f39b306097b20e28774d6c1ad35a20325630c3a02c",
            "0x000000000000000000000000d7e38800201d6a42c408bf79d8723740c4e7f631",
            "0x000000000000000000000000d7e38800201d6a42c408bf79d8723740c4e7f631"
          ],
          "data": "0x",
          "blockHash": "0x09bc923e881539f8abf8c789dc3cea95ba8da4b38248df65662bd7cf7b99f9bf",
          "blockNumber": "0x2f5a71b",
          "transactionHash": "0x04d92398033c79cc22d0a9cdfd4519d474de30cccef819594f9c10f36365e598",
          "transactionIndex": "0x86",
          "logIndex": "0x338",
          "removed": false
        }
      ],
      "logsBloom": "0x00000000000000000000040000000000000000000000000000000000000000000000000000000000000000000000000200200000000000000000040800000000000000000000000000000000002000008000000000000000000000000000000040000000000000000000000000000000000000000000000000000000004000000000000040000000000000000000000000000000000000000000000000040000000000000000000000000000000000000000000000000000000000000000000000000000000000000000000000000000000000000000000000000000000000000080000000000000000000000000000000000000000000000000000000000000",
      "type": "0x0",
      "transactionHash": "0x04d92398033c79cc22d0a9cdfd4519d474de30cccef819594f9c10f36365e598",
      "transactionIndex": "0x86",
      "blockHash": "0x09bc923e881539f8abf8c789dc3cea95ba8da4b38248df65662bd7cf7b99f9bf",
      "blockNumber": "0x2f5a71b",
      "gasUsed": "0xd0cc",
      "effectiveGasPrice": "0x5f5e100",
      "from": "0xd7e38800201d6a42c408bf79d8723740c4e7f631",
      "to": "0xd5cfc0f894ba77e95e3325aa53eb3e6cbbb5a81e",
      "contractAddress": null
    },
    {
      "status": "0x1",
      "cumulativeGasUsed": "0x15914c7",
      "logs": [
        {
          "address": "0xd5cfc0f894ba77e95e3325aa53eb3e6cbbb5a81e",
          "topics": [
            "0xf6391f5c32d9c69d2a47ea670b442974b53935d1edc7fd64eb21e047a839171b",
            "0x0000000000000000000000000000000000000000000000000000000000000000",
            "0x000000000000000000000000d7e38800201d6a42c408bf79d8723740c4e7f631",
            "0x000000000000000000000000d7e38800201d6a42c408bf79d8723740c4e7f631"
          ],
          "data": "0x",
          "blockHash": "0x09bc923e881539f8abf8c789dc3cea95ba8da4b38248df65662bd7cf7b99f9bf",
          "blockNumber": "0x2f5a71b",
          "transactionHash": "0xb8b3e3941548c99c3c30723885491b25e994af3a9cfb31059cf74ede4212fa2e",
          "transactionIndex": "0x88",
          "logIndex": "0x339",
          "removed": false
        }
      ],
      "logsBloom": "0x00000000000000000000040000000000000000000000000000000000000000000000000000000000000000000000000200200000000000000000040000000000000000000000000000000000002000000000000000000000000000000000000040000000020000000000000000000800000000000000000000000000000000000000000040000000000000000000000000000000000000000000000000040000000000000000000000000000000000000000000000000000000000000000000000000000000000000000000000000000000000000000000000000000000020000080000000000000000000000000000000000000000000000000000000000000",
      "type": "0x0",
      "transactionHash": "0xb8b3e3941548c99c3c30723885491b25e994af3a9cfb31059cf74ede4212fa2e",
      "transactionIndex": "0x88",
      "blockHash": "0x09bc923e881539f8abf8c789dc3cea95ba8da4b38248df65662bd7cf7b99f9bf",
      "blockNumber": "0x2f5a71b",
      "gasUsed": "0xc958",
      "effectiveGasPrice": "0x5f5e100",
      "from": "0xd7e38800201d6a42c408bf79d8723740c4e7f631",
      "to": "0xd5cfc0f894ba77e95e3325aa53eb3e6cbbb5a81e",
      "contractAddress": null
    }
  ],
  "libraries": [],
  "pending": [],
  "returns": {},
  "timestamp": 1747223534,
  "chain": 56,
  "commit": "4791325"
}