{
  "transactions": [
    {
      "hash": "0x39b39bae1b296acfc4173d06d5ec38bc146cd7c0aeb566be9d16aebf407e3b6d",
      "transactionType": "CALL",
      "contractName": "ERC1967Proxy",
      "contractAddress": "0xa5f53ca56d87d7d4fec508665d23f29bfb2749db",
      "function": null,
      "arguments": null,
      "transaction": {
        "from": "0xd7e38800201d6a42c408bf79d8723740c4e7f631",
        "to": "0xa5f53ca56d87d7d4fec508665d23f29bfb2749db",
        "gas": "0x23ad3",
        "value": "0x0",
        "input": "0x2f2ff15d000000000000000000000000000000000000000000000000000000000000000000000000000000000000000007d274a68393e8b8a2ccf19a2ce4ba3518735253",
        "nonce": "0x468",
        "chainId": "0x38"
      },
      "additionalContracts": [],
      "isFixedGasLimit": false
    },
    {
      "hash": "0x676f184362086309f58a347264224e18af5afec1f1a482d005a80383fc74984d",
      "transactionType": "CALL",
      "contractName": "ERC1967Proxy",
      "contractAddress": "0xa5f53ca56d87d7d4fec508665d23f29bfb2749db",
      "function": null,
      "arguments": null,
      "transaction": {
        "from": "0xd7e38800201d6a42c408bf79d8723740c4e7f631",
        "to": "0xa5f53ca56d87d7d4fec508665d23f29bfb2749db",
        "gas": "0x1133f",
        "value": "0x0",
        "input": "0xd547741f0000000000000000000000000000000000000000000000000000000000000000000000000000000000000000d7e38800201d6a42c408bf79d8723740c4e7f631",
        "nonce": "0x469",
        "chainId": "0x38"
      },
      "additionalContracts": [],
      "isFixedGasLimit": false
    },
    {
      "hash": "0x22688b69b9cd18dddbbc24c644cc0b4ec882b0fe4bcbc2091d0178dde2e7acc6",
      "transactionType": "CALL",
      "contractName": null,
      "contractAddress": "0xc3be83de4b19afc4f6021ea5011b75a3542024de",
      "function": "grantRole(bytes32,address)",
      "arguments": [
        "0x0000000000000000000000000000000000000000000000000000000000000000",
        "0x07D274a68393E8b8a2CCf19A2ce4Ba3518735253"
      ],
      "transaction": {
        "from": "0xd7e38800201d6a42c408bf79d8723740c4e7f631",
        "to": "0xc3be83de4b19afc4f6021ea5011b75a3542024de",
        "gas": "0x23ad3",
        "value": "0x0",
        "input": "0x2f2ff15d000000000000000000000000000000000000000000000000000000000000000000000000000000000000000007d274a68393e8b8a2ccf19a2ce4ba3518735253",
        "nonce": "0x46a",
        "chainId": "0x38"
      },
      "additionalContracts": [],
      "isFixedGasLimit": false
    },
    {
      "hash": "0x4c6ea0573922b12c37bb73f0e42cf467a6d20ed23369f52057746a46780398e2",
      "transactionType": "CALL",
      "contractName": null,
      "contractAddress": "0xc3be83de4b19afc4f6021ea5011b75a3542024de",
      "function": "revokeRole(bytes32,address)",
      "arguments": [
        "0x0000000000000000000000000000000000000000000000000000000000000000",
        "0xd7e38800201D6a42C408Bf79d8723740C4E7f631"
      ],
      "transaction": {
        "from": "0xd7e38800201d6a42c408bf79d8723740c4e7f631",
        "to": "0xc3be83de4b19afc4f6021ea5011b75a3542024de",
        "gas": "0x1133f",
        "value": "0x0",
        "input": "0xd547741f0000000000000000000000000000000000000000000000000000000000000000000000000000000000000000d7e38800201d6a42c408bf79d8723740c4e7f631",
        "nonce": "0x46b",
        "chainId": "0x38"
      },
      "additionalContracts": [],
      "isFixedGasLimit": false
    }
  ],
  "receipts": [
    {
      "status": "0x1",
      "cumulativeGasUsed": "0x112e1e6",
      "logs": [
        {
          "address": "0xa5f53ca56d87d7d4fec508665d23f29bfb2749db",
          "topics": [
            "0x2f8788117e7eff1d82e926ec794901d17c78024a50270940304540a733656f0d",
            "0x0000000000000000000000000000000000000000000000000000000000000000",
            "0x00000000000000000000000007d274a68393e8b8a2ccf19a2ce4ba3518735253",
            "0x000000000000000000000000d7e38800201d6a42c408bf79d8723740c4e7f631"
          ],
          "data": "0x",
          "blockHash": "0x47784faf775b4e13b6c556b0b2fae2dbf51566eb8a24a9b84456e5142012ff1e",
          "blockNumber": "0x3f93369",
          "transactionHash": "0x39b39bae1b296acfc4173d06d5ec38bc146cd7c0aeb566be9d16aebf407e3b6d",
          "transactionIndex": "0x79",
          "logIndex": "0x24f",
          "removed": false
        }
      ],
      "logsBloom": "0x00000004000000000000000000000000000000000000000000000000000000000000000000000000000000000000000000000000000000000000200000000000000000000000000000000000002000000000000000000000000000000000000000000004020000000000000000000800000000000000000000000000000000000000000000000000000000000000000000200000000000000000000000140000000000000000000000000000000000000000000000000000001000200000000000000000000000000000000000000000000000000000000110000000000020000080000000000000000000000000000000000000000000000000000000000000",
      "type": "0x2",
      "transactionHash": "0x39b39bae1b296acfc4173d06d5ec38bc146cd7c0aeb566be9d16aebf407e3b6d",
      "transactionIndex": "0x79",
      "blockHash": "0x47784faf775b4e13b6c556b0b2fae2dbf51566eb8a24a9b84456e5142012ff1e",
      "blockNumber": "0x3f93369",
      "gasUsed": "0x19d45",
      "effectiveGasPrice": "0x2faf083",
      "from": "0xd7e38800201d6a42c408bf79d8723740c4e7f631",
      "to": "0xa5f53ca56d87d7d4fec508665d23f29bfb2749db",
      "contractAddress": null
    },
    {
      "status": "0x1",
      "cumulativeGasUsed": "0x113a92d",
      "logs": [
        {
          "address": "0xa5f53ca56d87d7d4fec508665d23f29bfb2749db",
          "topics": [
            "0xf6391f5c32d9c69d2a47ea670b442974b53935d1edc7fd64eb21e047a839171b",
            "0x0000000000000000000000000000000000000000000000000000000000000000",
            "0x000000000000000000000000d7e38800201d6a42c408bf79d8723740c4e7f631",
            "0x000000000000000000000000d7e38800201d6a42c408bf79d8723740c4e7f631"
          ],
          "data": "0x",
          "blockHash": "0x47784faf775b4e13b6c556b0b2fae2dbf51566eb8a24a9b84456e5142012ff1e",
          "blockNumber": "0x3f93369",
          "transactionHash": "0x676f184362086309f58a347264224e18af5afec1f1a482d005a80383fc74984d",
          "transactionIndex": "0x7a",
          "logIndex": "0x250",
          "removed": false
        }
      ],
      "logsBloom": "0x00000000000000000000000000000000000000000000000000000000000000000000000000000000000000000000000000200000000000000000200000000000000000000000000000000000002000000000000000000000000000000000000040000000020000000000000000000800000000000000000000000000000000000000000040000000000000000000000000000000000000000000000000140000000000000000000000000000000000000000000000000000000000200000000000000000000000000000000000000000000000000000000000000000000020000080000000000000000000000000000000000000000000000000000000000000",
      "type": "0x2",
      "transactionHash": "0x676f184362086309f58a347264224e18af5afec1f1a482d005a80383fc74984d",
      "transactionIndex": "0x7a",
      "blockHash": "0x47784faf775b4e13b6c556b0b2fae2dbf51566eb8a24a9b84456e5142012ff1e",
      "blockNumber": "0x3f93369",
      "gasUsed": "0xc747",
      "effectiveGasPrice": "0x2faf083",
      "from": "0xd7e38800201d6a42c408bf79d8723740c4e7f631",
      "to": "0xa5f53ca56d87d7d4fec508665d23f29bfb2749db",
      "contractAddress": null
    },
    {
      "status": "0x1",
      "cumulativeGasUsed": "0x1154672",
      "logs": [
        {
          "address": "0xc3be83de4b19afc4f6021ea5011b75a3542024de",
          "topics": [
            "0x2f8788117e7eff1d82e926ec794901d17c78024a50270940304540a733656f0d",
            "0x0000000000000000000000000000000000000000000000000000000000000000",
            "0x00000000000000000000000007d274a68393e8b8a2ccf19a2ce4ba3518735253",
            "0x000000000000000000000000d7e38800201d6a42c408bf79d8723740c4e7f631"
          ],
          "data": "0x",
          "blockHash": "0x47784faf775b4e13b6c556b0b2fae2dbf51566eb8a24a9b84456e5142012ff1e",
          "blockNumber": "0x3f93369",
          "transactionHash": "0x22688b69b9cd18dddbbc24c644cc0b4ec882b0fe4bcbc2091d0178dde2e7acc6",
          "transactionIndex": "0x7b",
          "logIndex": "0x251",
          "removed": false
        }
      ],
      "logsBloom": "0x00000004000000000000000000000000000000000000000000000000000000000000000000000000000000000000000000000000000000000000000000000000000000000000000000000000002000000000000000000000000000000000000000000004020000000000000000000800000000000000000000000000000000800000004000000000000000000000000000200000000000000000000000040000000000000000000000000000000000000000000000000000001000000000000000000000000000000000000000000000000002000000000110000000000020000080000000000000000000000000000000000000000000000000000000000000",
      "type": "0x2",
      "transactionHash": "0x22688b69b9cd18dddbbc24c644cc0b4ec882b0fe4bcbc2091d0178dde2e7acc6",
      "transactionIndex": "0x7b",
      "blockHash": "0x47784faf775b4e13b6c556b0b2fae2dbf51566eb8a24a9b84456e5142012ff1e",
      "blockNumber": "0x3f93369",
      "gasUsed": "0x19d45",
      "effectiveGasPrice": "0x2faf083",
      "from": "0xd7e38800201d6a42c408bf79d8723740c4e7f631",
      "to": "0xc3be83de4b19afc4f6021ea5011b75a3542024de",
      "contractAddress": null
    },
    {
      "status": "0x1",
      "cumulativeGasUsed": "0x1160db9",
      "logs": [
        {
          "address": "0xc3be83de4b19afc4f6021ea5011b75a3542024de",
          "topics": [
            "0xf6391f5c32d9c69d2a47ea670b442974b53935d1edc7fd64eb21e047a839171b",
            "0x0000000000000000000000000000000000000000000000000000000000000000",
            "0x000000000000000000000000d7e38800201d6a42c408bf79d8723740c4e7f631",
            "0x000000000000000000000000d7e38800201d6a42c408bf79d8723740c4e7f631"
          ],
          "data": "0x",
          "blockHash": "0x47784faf775b4e13b6c556b0b2fae2dbf51566eb8a24a9b84456e5142012ff1e",
          "blockNumber": "0x3f93369",
          "transactionHash": "0x4c6ea0573922b12c37bb73f0e42cf467a6d20ed23369f52057746a46780398e2",
          "transactionIndex": "0x7c",
          "logIndex": "0x252",
          "removed": false
        }
      ],
      "logsBloom": "0x00000000000000000000000000000000000000000000000000000000000000000000000000000000000000000000000000200000000000000000000000000000000000000000000000000000002000000000000000000000000000000000000040000000020000000000000000000800000000000000000000000000000000800000004040000000000000000000000000000000000000000000000000040000000000000000000000000000000000000000000000000000000000000000000000000000000000000000000000000000000002000000000000000000000020000080000000000000000000000000000000000000000000000000000000000000",
      "type": "0x2",
      "transactionHash": "0x4c6ea0573922b12c37bb73f0e42cf467a6d20ed23369f52057746a46780398e2",
      "transactionIndex": "0x7c",
      "blockHash": "0x47784faf775b4e13b6c556b0b2fae2dbf51566eb8a24a9b84456e5142012ff1e",
      "blockNumber": "0x3f93369",
      "gasUsed": "0xc747",
      "effectiveGasPrice": "0x2faf083",
      "from": "0xd7e38800201d6a42c408bf79d8723740c4e7f631",
      "to": "0xc3be83de4b19afc4f6021ea5011b75a3542024de",
      "contractAddress": null
    }
  ],
  "libraries": [],
  "pending": [],
  "returns": {},
  "timestamp": 1761998372316,
  "chain": 56,
  "commit": "6919a34"
}