{
  "transactions": [
    {
      "hash": "0x772c9f83f4ee02fe15738dfc2e4f5a65df7ef8679f9c718ce671dff7f8649374",
      "transactionType": "CALL",
      "contractName": null,
      "contractAddress": "0x33f7a980a246f9b8fea2254e3065576e127d4d5f",
      "function": "grantRole(bytes32,address)",
      "arguments": [
        "0x0000000000000000000000000000000000000000000000000000000000000000",
        "0x07D274a68393E8b8a2CCf19A2ce4Ba3518735253"
      ],
      "transaction": {
        "from": "0xd7e38800201d6a42c408bf79d8723740c4e7f631",
        "to": "0x33f7a980a246f9b8fea2254e3065576e127d4d5f",
        "gas": "0x23c44",
        "value": "0x0",
        "input": "0x2f2ff15d000000000000000000000000000000000000000000000000000000000000000000000000000000000000000007d274a68393e8b8a2ccf19a2ce4ba3518735253",
        "nonce": "0x1ab",
        "chainId": "0x38"
      },
      "additionalContracts": [],
      "isFixedGasLimit": false
    },
    {
      "hash": "0xd59eb41610d309466bc52a0f88b0207ba8b6f885f36e2c2cc641c8491bb2f29b",
      "transactionType": "CALL",
      "contractName": null,
      "contractAddress": "0x33f7a980a246f9b8fea2254e3065576e127d4d5f",
      "function": "grantRole(bytes32,address)",
      "arguments": [
        "0xaf290d8680820aad922855f39b306097b20e28774d6c1ad35a20325630c3a02c",
        "0x8d388136d578dCD791D081c6042284CED6d9B0c6"
      ],
      "transaction": {
        "from": "0xd7e38800201d6a42c408bf79d8723740c4e7f631",
        "to": "0x33f7a980a246f9b8fea2254e3065576e127d4d5f",
        "gas": "0x23e57",
        "value": "0x0",
        "input": "0x2f2ff15daf290d8680820aad922855f39b306097b20e28774d6c1ad35a20325630c3a02c0000000000000000000000008d388136d578dcd791d081c6042284ced6d9b0c6",
        "nonce": "0x1ac",
        "chainId": "0x38"
      },
      "additionalContracts": [],
      "isFixedGasLimit": false
    },
    {
      "hash": "0x88c829cbe9100d7be374a572e090274255df9ea39151d3c8fce25d95b3eb3dd6",
      "transactionType": "CALL",
      "contractName": null,
      "contractAddress": "0x33f7a980a246f9b8fea2254e3065576e127d4d5f",
      "function": "revokeRole(bytes32,address)",
      "arguments": [
        "0xaf290d8680820aad922855f39b306097b20e28774d6c1ad35a20325630c3a02c",
        "0xd7e38800201D6a42C408Bf79d8723740C4E7f631"
      ],
      "transaction": {
        "from": "0xd7e38800201d6a42c408bf79d8723740c4e7f631",
        "to": "0x33f7a980a246f9b8fea2254e3065576e127d4d5f",
        "gas": "0x12c75",
        "value": "0x0",
        "input": "0xd547741faf290d8680820aad922855f39b306097b20e28774d6c1ad35a20325630c3a02c000000000000000000000000d7e38800201d6a42c408bf79d8723740c4e7f631",
        "nonce": "0x1ad",
        "chainId": "0x38"
      },
      "additionalContracts": [],
      "isFixedGasLimit": false
    },
    {
      "hash": "0x7ce936d665fab1fab4cd17aebdf5735c916a4a90d1f80076d85b9f6232d27fd5",
      "transactionType": "CALL",
      "contractName": null,
      "contractAddress": "0x33f7a980a246f9b8fea2254e3065576e127d4d5f",
      "function": "revokeRole(bytes32,address)",
      "arguments": [
        "0x0000000000000000000000000000000000000000000000000000000000000000",
        "0xd7e38800201D6a42C408Bf79d8723740C4E7f631"
      ],
      "transaction": {
        "from": "0xd7e38800201d6a42c408bf79d8723740c4e7f631",
        "to": "0x33f7a980a246f9b8fea2254e3065576e127d4d5f",
        "gas": "0x11178",
        "value": "0x0",
        "input": "0xd547741f0000000000000000000000000000000000000000000000000000000000000000000000000000000000000000d7e38800201d6a42c408bf79d8723740c4e7f631",
        "nonce": "0x1ae",
        "chainId": "0x38"
      },
      "additionalContracts": [],
      "isFixedGasLimit": false
    }
  ],
  "receipts": [
    {
      "status": "0x1",
      "cumulativeGasUsed": "0x28d4ba2",
      "logs": [
        {
          "address": "0x33f7a980a246f9b8fea2254e3065576e127d4d5f",
          "topics": [
            "0x2f8788117e7eff1d82e926ec794901d17c78024a50270940304540a733656f0d",
            "0x0000000000000000000000000000000000000000000000000000000000000000",
            "0x00000000000000000000000007d274a68393e8b8a2ccf19a2ce4ba3518735253",
            "0x000000000000000000000000d7e38800201d6a42c408bf79d8723740c4e7f631"
          ],
          "data": "0x",
          "blockHash": "0x10c88f2f7cc000a778302d4300eb7b8c122a48a739c0f67a851c0d7b17984f9e",
          "blockNumber": "0x2fab6df",
          "transactionHash": "0x772c9f83f4ee02fe15738dfc2e4f5a65df7ef8679f9c718ce671dff7f8649374",
          "transactionIndex": "0xd6",
          "logIndex": "0x708",
          "removed": false
        }
      ],
      "logsBloom": "0x00000004008000000000000000000000000000000000000000000000000000000000000000000000000000000000000000000000000000000000000000000000000000000000000000000000002000000000000000000000000000000000000000000004020000000000040000000800000000000000000000000000000000000000000000000000000000000000000000200000000000000000000000040000000000000000000000000000000000000000000000000000001000000000000000000000000000000000000000000000000000000000000110000000000020000080000000000000000000000000000000000000000000020000000000000000",
      "type": "0x0",
      "transactionHash": "0x772c9f83f4ee02fe15738dfc2e4f5a65df7ef8679f9c718ce671dff7f8649374",
      "transactionIndex": "0xd6",
      "blockHash": "0x10c88f2f7cc000a778302d4300eb7b8c122a48a739c0f67a851c0d7b17984f9e",
      "blockNumber": "0x2fab6df",
      "gasUsed": "0x19e50",
      "effectiveGasPrice": "0x5f5e100",
      "from": "0xd7e38800201d6a42c408bf79d8723740c4e7f631",
      "to": "0x33f7a980a246f9b8fea2254e3065576e127d4d5f",
      "contractAddress": null
    },
    {
      "status": "0x1",
      "cumulativeGasUsed": "0x28eeb72",
      "logs": [
        {
          "address": "0x33f7a980a246f9b8fea2254e3065576e127d4d5f",
          "topics": [
            "0x2f8788117e7eff1d82e926ec794901d17c78024a50270940304540a733656f0d",
            "0xaf290d8680820aad922855f39b306097b20e28774d6c1ad35a20325630c3a02c",
            "0x0000000000000000000000008d388136d578dcd791d081c6042284ced6d9b0c6",
            "0x000000000000000000000000d7e38800201d6a42c408bf79d8723740c4e7f631"
          ],
          "data": "0x",
          "blockHash": "0x10c88f2f7cc000a778302d4300eb7b8c122a48a739c0f67a851c0d7b17984f9e",
          "blockNumber": "0x2fab6df",
          "transactionHash": "0xd59eb41610d309466bc52a0f88b0207ba8b6f885f36e2c2cc641c8491bb2f29b",
          "transactionIndex": "0xd7",
          "logIndex": "0x709",
          "removed": false
        }
      ],
      "logsBloom": "0x00000004008000000000000000000000000000000000000000000000000000004000000000000000000000000000000000000000000000000000000800000000000000000000000000000000002000008000000000000000000000000000000000000000000000000000040000000000000000000000000000000000004000000000000000000000000000000000000000000000000000000000000000040000000000000000000000000000000000000000000000000000001000000000000000000000000000000000000000010000000002000000000100000000000000000080000000000000000000000000000000000000000000020000000000000000",
      "type": "0x0",
      "transactionHash": "0xd59eb41610d309466bc52a0f88b0207ba8b6f885f36e2c2cc641c8491bb2f29b",
      "transactionIndex": "0xd7",
      "blockHash": "0x10c88f2f7cc000a778302d4300eb7b8c122a48a739c0f67a851c0d7b17984f9e",
      "blockNumber": "0x2fab6df",
      "gasUsed": "0x19fd0",
      "effectiveGasPrice": "0x5f5e100",
      "from": "0xd7e38800201d6a42c408bf79d8723740c4e7f631",
      "to": "0x33f7a980a246f9b8fea2254e3065576e127d4d5f",
      "contractAddress": null
    },
    {
      "status": "0x1",
      "cumulativeGasUsed": "0x28fb8e3",
      "logs": [
        {
          "address": "0x33f7a980a246f9b8fea2254e3065576e127d4d5f",
          "topics": [
            "0xf6391f5c32d9c69d2a47ea670b442974b53935d1edc7fd64eb21e047a839171b",
            "0xaf290d8680820aad922855f39b306097b20e28774d6c1ad35a20325630c3a02c",
            "0x000000000000000000000000d7e38800201d6a42c408bf79d8723740c4e7f631",
            "0x000000000000000000000000d7e38800201d6a42c408bf79d8723740c4e7f631"
          ],
          "data": "0x",
          "blockHash": "0x10c88f2f7cc000a778302d4300eb7b8c122a48a739c0f67a851c0d7b17984f9e",
          "blockNumber": "0x2fab6df",
          "transactionHash": "0x88c829cbe9100d7be374a572e090274255df9ea39151d3c8fce25d95b3eb3dd6",
          "transactionIndex": "0xd8",
          "logIndex": "0x70a",
          "removed": false
        }
      ],
      "logsBloom": "0x00000000008000000000000000000000000000000000000000000000000000000000000000000000000000000000000000200000000000000000000800000000000000000000000000000000002000008000000000000000000000000000000040000000000000000000040000000000000000000000000000000000004000000000000040000000000000000000000000000000000000000000000000040000000000000000000000000000000000000000000000000000000000000000000000000000000000000000000000000000000000000000000000000000000000000080000000000000000000000000000000000000000000020000000000000000",
      "type": "0x0",
      "transactionHash": "0x88c829cbe9100d7be374a572e090274255df9ea39151d3c8fce25d95b3eb3dd6",
      "transactionIndex": "0xd8",
      "blockHash": "0x10c88f2f7cc000a778302d4300eb7b8c122a48a739c0f67a851c0d7b17984f9e",
      "blockNumber": "0x2fab6df",
      "gasUsed": "0xcd71",
      "effectiveGasPrice": "0x5f5e100",
      "from": "0xd7e38800201d6a42c408bf79d8723740c4e7f631",
      "to": "0x33f7a980a246f9b8fea2254e3065576e127d4d5f",
      "contractAddress": null
    },
    {
      "status": "0x1",
      "cumulativeGasUsed": "0x2907ee1",
      "logs": [
        {
          "address": "0x33f7a980a246f9b8fea2254e3065576e127d4d5f",
          "topics": [
            "0xf6391f5c32d9c69d2a47ea670b442974b53935d1edc7fd64eb21e047a839171b",
            "0x0000000000000000000000000000000000000000000000000000000000000000",
            "0x000000000000000000000000d7e38800201d6a42c408bf79d8723740c4e7f631",
            "0x000000000000000000000000d7e38800201d6a42c408bf79d8723740c4e7f631"
          ],
          "data": "0x",
          "blockHash": "0x10c88f2f7cc000a778302d4300eb7b8c122a48a739c0f67a851c0d7b17984f9e",
          "blockNumber": "0x2fab6df",
          "transactionHash": "0x7ce936d665fab1fab4cd17aebdf5735c916a4a90d1f80076d85b9f6232d27fd5",
          "transactionIndex": "0xd9",
          "logIndex": "0x70b",
          "removed": false
        }
      ],
      "logsBloom": "0x00000000008000000000000000000000000000000000000000000000000000000000000000000000000000000000000000200000000000000000000000000000000000000000000000000000002000000000000000000000000000000000000040000000020000000000040000000800000000000000000000000000000000000000000040000000000000000000000000000000000000000000000000040000000000000000000000000000000000000000000000000000000000000000000000000000000000000000000000000000000000000000000000000000000020000080000000000000000000000000000000000000000000020000000000000000",
      "type": "0x0",
      "transactionHash": "0x7ce936d665fab1fab4cd17aebdf5735c916a4a90d1f80076d85b9f6232d27fd5",
      "transactionIndex": "0xd9",
      "blockHash": "0x10c88f2f7cc000a778302d4300eb7b8c122a48a739c0f67a851c0d7b17984f9e",
      "blockNumber": "0x2fab6df",
      "gasUsed": "0xc5fe",
      "effectiveGasPrice": "0x5f5e100",
      "from": "0xd7e38800201d6a42c408bf79d8723740c4e7f631",
      "to": "0x33f7a980a246f9b8fea2254e3065576e127d4d5f",
      "contractAddress": null
    }
  ],
  "libraries": [],
  "pending": [],
  "returns": {},
  "timestamp": 1747721257,
  "chain": 56,
  "commit": "2a20887"
}