{
  "transactions": [
    {
      "hash": "0xecf7741479d301800b9562753e9041014056dc931c66e212427cfb3be354e452",
      "transactionType": "CALL",
      "contractName": null,
      "contractAddress": "0xea55952a51ddd771d6eBc45Bd0B512276dd0b866",
      "function": "grantRole(bytes32,address)",
      "arguments": [
        "0x0000000000000000000000000000000000000000000000000000000000000000",
        "0x07D274a68393E8b8a2CCf19A2ce4Ba3518735253"
      ],
      "transaction": {
        "type": "0x00",
        "from": "0xd7e38800201d6a42c408bf79d8723740c4e7f631",
        "to": "0xea55952a51ddd771d6ebc45bd0b512276dd0b866",
        "gas": "0x25e2d",
        "value": "0x0",
        "data": "0x2f2ff15d000000000000000000000000000000000000000000000000000000000000000000000000000000000000000007d274a68393e8b8a2ccf19a2ce4ba3518735253",
        "nonce": "0xb8"
      },
      "additionalContracts": [],
      "isFixedGasLimit": false
    },
    {
      "hash": "0x78f76df211d062e76adf529b88a4736e59472202a6b50ac2999e50a746723f5c",
      "transactionType": "CALL",
      "contractName": null,
      "contractAddress": "0xea55952a51ddd771d6eBc45Bd0B512276dd0b866",
      "function": "grantRole(bytes32,address)",
      "arguments": [
        "0xaf290d8680820aad922855f39b306097b20e28774d6c1ad35a20325630c3a02c",
        "0x8d388136d578dCD791D081c6042284CED6d9B0c6"
      ],
      "transaction": {
        "type": "0x00",
        "from": "0xd7e38800201d6a42c408bf79d8723740c4e7f631",
        "to": "0xea55952a51ddd771d6ebc45bd0b512276dd0b866",
        "gas": "0x2605e",
        "value": "0x0",
        "data": "0x2f2ff15daf290d8680820aad922855f39b306097b20e28774d6c1ad35a20325630c3a02c0000000000000000000000008d388136d578dcd791d081c6042284ced6d9b0c6",
        "nonce": "0xb9"
      },
      "additionalContracts": [],
      "isFixedGasLimit": false
    },
    {
      "hash": "0xfd46359469f36248fdd6b64ea8db11590f8759708f5989ec4c81c1c09446c44d",
      "transactionType": "CALL",
      "contractName": null,
      "contractAddress": "0xea55952a51ddd771d6eBc45Bd0B512276dd0b866",
      "function": "revokeRole(bytes32,address)",
      "arguments": [
        "0xaf290d8680820aad922855f39b306097b20e28774d6c1ad35a20325630c3a02c",
        "0xd7e38800201D6a42C408Bf79d8723740C4E7f631"
      ],
      "transaction": {
        "type": "0x00",
        "from": "0xd7e38800201d6a42c408bf79d8723740c4e7f631",
        "to": "0xea55952a51ddd771d6ebc45bd0b512276dd0b866",
        "gas": "0x11c1b",
        "value": "0x0",
        "data": "0xd547741faf290d8680820aad922855f39b306097b20e28774d6c1ad35a20325630c3a02c000000000000000000000000d7e38800201d6a42c408bf79d8723740c4e7f631",
        "nonce": "0xba"
      },
      "additionalContracts": [],
      "isFixedGasLimit": false
    },
    {
      "hash": "0x5359decb2026a9bce72e84c79e8d1075eb7ac1dfd9dd9c60cee47147417c9d7c",
      "transactionType": "CALL",
      "contractName": null,
      "contractAddress": "0xea55952a51ddd771d6eBc45Bd0B512276dd0b866",
      "function": "revokeRole(bytes32,address)",
      "arguments": [
        "0x0000000000000000000000000000000000000000000000000000000000000000",
        "0xd7e38800201D6a42C408Bf79d8723740C4E7f631"
      ],
      "transaction": {
        "type": "0x00",
        "from": "0xd7e38800201d6a42c408bf79d8723740c4e7f631",
        "to": "0xea55952a51ddd771d6ebc45bd0b512276dd0b866",
        "gas": "0x111ce",
        "value": "0x0",
        "data": "0xd547741f0000000000000000000000000000000000000000000000000000000000000000000000000000000000000000d7e38800201d6a42c408bf79d8723740c4e7f631",
        "nonce": "0xbb"
      },
      "additionalContracts": [],
      "isFixedGasLimit": false
    }
  ],
  "receipts": [
    {
      "transactionHash": "0xecf7741479d301800b9562753e9041014056dc931c66e212427cfb3be354e452",
      "transactionIndex": "0x50",
      "blockHash": "0x12fb3d35a2229310eea785299f5067fdafbfe45d098f67829c29e4ee8777b7fc",
      "blockNumber": "0x2dfdd75",
      "from": "0xd7e38800201D6a42C408Bf79d8723740C4E7f631",
      "to": "0xea55952a51ddd771d6eBc45Bd0B512276dd0b866",
      "cumulativeGasUsed": "0x6c1883",
      "gasUsed": "0x19e7b",
      "contractAddress": null,
      "logs": [
        {
          "address": "0xea55952a51ddd771d6eBc45Bd0B512276dd0b866",
          "topics": [
            "0x2f8788117e7eff1d82e926ec794901d17c78024a50270940304540a733656f0d",
            "0x0000000000000000000000000000000000000000000000000000000000000000",
            "0x00000000000000000000000007d274a68393e8b8a2ccf19a2ce4ba3518735253",
            "0x000000000000000000000000d7e38800201d6a42c408bf79d8723740c4e7f631"
          ],
          "data": "0x",
          "blockHash": "0x12fb3d35a2229310eea785299f5067fdafbfe45d098f67829c29e4ee8777b7fc",
          "blockNumber": "0x2dfdd75",
          "transactionHash": "0xecf7741479d301800b9562753e9041014056dc931c66e212427cfb3be354e452",
          "transactionIndex": "0x50",
          "logIndex": "0xbf",
          "removed": false
        }
      ],
      "status": "0x1",
      "logsBloom": "0x00000004000000000000000000000000000000000000000000000000000000000000000000000000000000000000000000000000200000000000000000000000000000000000000000000000002000000000000000000000000000000000000000000004020000000000000000000800000000000000000000000000000000002000000000000000000000000000000000200000000000000000000000040000000000000000000000000000000000000000000000000000001000000000000000000000000000000000000000000000000000000000000110000000000020000080000000000000000000000000000000000000000000000000000000008000",
      "type": "0x0",
      "effectiveGasPrice": "0x3b9aca00"
    },
    {
      "transactionHash": "0x78f76df211d062e76adf529b88a4736e59472202a6b50ac2999e50a746723f5c",
      "transactionIndex": "0x51",
      "blockHash": "0x12fb3d35a2229310eea785299f5067fdafbfe45d098f67829c29e4ee8777b7fc",
      "blockNumber": "0x2dfdd75",
      "from": "0xd7e38800201D6a42C408Bf79d8723740C4E7f631",
      "to": "0xea55952a51ddd771d6eBc45Bd0B512276dd0b866",
      "cumulativeGasUsed": "0x6db87e",
      "gasUsed": "0x19ffb",
      "contractAddress": null,
      "logs": [
        {
          "address": "0xea55952a51ddd771d6eBc45Bd0B512276dd0b866",
          "topics": [
            "0x2f8788117e7eff1d82e926ec794901d17c78024a50270940304540a733656f0d",
            "0xaf290d8680820aad922855f39b306097b20e28774d6c1ad35a20325630c3a02c",
            "0x0000000000000000000000008d388136d578dcd791d081c6042284ced6d9b0c6",
            "0x000000000000000000000000d7e38800201d6a42c408bf79d8723740c4e7f631"
          ],
          "data": "0x",
          "blockHash": "0x12fb3d35a2229310eea785299f5067fdafbfe45d098f67829c29e4ee8777b7fc",
          "blockNumber": "0x2dfdd75",
          "transactionHash": "0x78f76df211d062e76adf529b88a4736e59472202a6b50ac2999e50a746723f5c",
          "transactionIndex": "0x51",
          "logIndex": "0xc0",
          "removed": false
        }
      ],
      "status": "0x1",
      "logsBloom": "0x00000004000000000000000000000000000000000000000000000000000000004000000000000000000000000000000000000000200000000000000800000000000000000000000000000000002000008000000000000000000000000000000000000000000000000000000000000000000000000000000000000000004000002000000000000000000000000000000000000000000000000000000000040000000000000000000000000000000000000000000000000000001000000000000000000000000000000000000000010000000002000000000100000000000000000080000000000000000000000000000000000000000000000000000000008000",
      "type": "0x0",
      "effectiveGasPrice": "0x3b9aca00"
    },
    {
      "transactionHash": "0xfd46359469f36248fdd6b64ea8db11590f8759708f5989ec4c81c1c09446c44d",
      "transactionIndex": "0x52",
      "blockHash": "0x12fb3d35a2229310eea785299f5067fdafbfe45d098f67829c29e4ee8777b7fc",
      "blockNumber": "0x2dfdd75",
      "from": "0xd7e38800201D6a42C408Bf79d8723740C4E7f631",
      "to": "0xea55952a51ddd771d6eBc45Bd0B512276dd0b866",
      "cumulativeGasUsed": "0x6e862e",
      "gasUsed": "0xcdb0",
      "contractAddress": null,
      "logs": [
        {
          "address": "0xea55952a51ddd771d6eBc45Bd0B512276dd0b866",
          "topics": [
            "0xf6391f5c32d9c69d2a47ea670b442974b53935d1edc7fd64eb21e047a839171b",
            "0xaf290d8680820aad922855f39b306097b20e28774d6c1ad35a20325630c3a02c",
            "0x000000000000000000000000d7e38800201d6a42c408bf79d8723740c4e7f631",
            "0x000000000000000000000000d7e38800201d6a42c408bf79d8723740c4e7f631"
          ],
          "data": "0x",
          "blockHash": "0x12fb3d35a2229310eea785299f5067fdafbfe45d098f67829c29e4ee8777b7fc",
          "blockNumber": "0x2dfdd75",
          "transactionHash": "0xfd46359469f36248fdd6b64ea8db11590f8759708f5989ec4c81c1c09446c44d",
          "transactionIndex": "0x52",
          "logIndex": "0xc1",
          "removed": false
        }
      ],
      "status": "0x1",
      "logsBloom": "0x00000000000000000000000000000000000000000000000000000000000000000000000000000000000000000000000000200000200000000000000800000000000000000000000000000000002000008000000000000000000000000000000040000000000000000000000000000000000000000000000000000000004000002000000040000000000000000000000000000000000000000000000000040000000000000000000000000000000000000000000000000000000000000000000000000000000000000000000000000000000000000000000000000000000000000080000000000000000000000000000000000000000000000000000000008000",
      "type": "0x0",
      "effectiveGasPrice": "0x3b9aca00"
    },
    {
      "transactionHash": "0x5359decb2026a9bce72e84c79e8d1075eb7ac1dfd9dd9c60cee47147417c9d7c",
      "transactionIndex": "0x53",
      "blockHash": "0x12fb3d35a2229310eea785299f5067fdafbfe45d098f67829c29e4ee8777b7fc",
      "blockNumber": "0x2dfdd75",
      "from": "0xd7e38800201D6a42C408Bf79d8723740C4E7f631",
      "to": "0xea55952a51ddd771d6eBc45Bd0B512276dd0b866",
      "cumulativeGasUsed": "0x6f4c6a",
      "gasUsed": "0xc63c",
      "contractAddress": null,
      "logs": [
        {
          "address": "0xea55952a51ddd771d6eBc45Bd0B512276dd0b866",
          "topics": [
            "0xf6391f5c32d9c69d2a47ea670b442974b53935d1edc7fd64eb21e047a839171b",
            "0x0000000000000000000000000000000000000000000000000000000000000000",
            "0x000000000000000000000000d7e38800201d6a42c408bf79d8723740c4e7f631",
            "0x000000000000000000000000d7e38800201d6a42c408bf79d8723740c4e7f631"
          ],
          "data": "0x",
          "blockHash": "0x12fb3d35a2229310eea785299f5067fdafbfe45d098f67829c29e4ee8777b7fc",
          "blockNumber": "0x2dfdd75",
          "transactionHash": "0x5359decb2026a9bce72e84c79e8d1075eb7ac1dfd9dd9c60cee47147417c9d7c",
          "transactionIndex": "0x53",
          "logIndex": "0xc2",
          "removed": false
        }
      ],
      "status": "0x1",
      "logsBloom": "0x00000000000000000000000000000000000000000000000000000000000000000000000000000000000000000000000000200000200000000000000000000000000000000000000000000000002000000000000000000000000000000000000040000000020000000000000000000800000000000000000000000000000000002000000040000000000000000000000000000000000000000000000000040000000000000000000000000000000000000000000000000000000000000000000000000000000000000000000000000000000000000000000000000000000020000080000000000000000000000000000000000000000000000000000000008000",
      "type": "0x0",
      "effectiveGasPrice": "0x3b9aca00"
    }
  ],
  "libraries": [],
  "pending": [],
  "returns": {},
  "timestamp": 1744258785,
  "chain": 56,
  "commit": "8cfcc27"
}