{
  "transactions": [
    {
      "hash": "0x0bedf33668a0b5f7be3a62f8d93c7524aba892ed3c5baf0c6ae2d5adf49c34e0",
      "transactionType": "CALL",
      "contractName": null,
      "contractAddress": "0x21650E416dC6C89486B2E654c86cC2c36c597b58",
      "function": "grantRole(bytes32,address)",
      "arguments": [
        "0x0000000000000000000000000000000000000000000000000000000000000000",
        "0x07D274a68393E8b8a2CCf19A2ce4Ba3518735253"
      ],
      "transaction": {
        "type": "0x00",
        "from": "0xd7e38800201d6a42c408bf79d8723740c4e7f631",
        "to": "0x21650e416dc6c89486b2e654c86cc2c36c597b58",
        "gas": "0x23c41",
        "value": "0x0",
        "data": "0x2f2ff15d000000000000000000000000000000000000000000000000000000000000000000000000000000000000000007d274a68393e8b8a2ccf19a2ce4ba3518735253",
        "nonce": "0xb6"
      },
      "additionalContracts": [],
      "isFixedGasLimit": false
    },
    {
      "hash": "0xe8ad487e29a976c7f68a775318403f4293c423d888cdb7fca7ad77c2b4a1ca04",
      "transactionType": "CALL",
      "contractName": null,
      "contractAddress": "0x21650E416dC6C89486B2E654c86cC2c36c597b58",
      "function": "revokeRole(bytes32,address)",
      "arguments": [
        "0x0000000000000000000000000000000000000000000000000000000000000000",
        "0xd7e38800201D6a42C408Bf79d8723740C4E7f631"
      ],
      "transaction": {
        "type": "0x00",
        "from": "0xd7e38800201d6a42c408bf79d8723740c4e7f631",
        "to": "0x21650e416dc6c89486b2e654c86cc2c36c597b58",
        "gas": "0x111fe",
        "value": "0x0",
        "data": "0xd547741f0000000000000000000000000000000000000000000000000000000000000000000000000000000000000000d7e38800201d6a42c408bf79d8723740c4e7f631",
        "nonce": "0xb7"
      },
      "additionalContracts": [],
      "isFixedGasLimit": false
    }
  ],
  "receipts": [
    {
      "transactionHash": "0x0bedf33668a0b5f7be3a62f8d93c7524aba892ed3c5baf0c6ae2d5adf49c34e0",
      "transactionIndex": "0x5c",
      "blockHash": "0xc961f8b630ee26084a3e3aa1f7f411da56fd957a60c8f3ea563c6d8af6d5eea2",
      "blockNumber": "0x2dfdc17",
      "from": "0xd7e38800201D6a42C408Bf79d8723740C4E7f631",
      "to": "0x21650E416dC6C89486B2E654c86cC2c36c597b58",
      "cumulativeGasUsed": "0x6df71e",
      "gasUsed": "0x19e4e",
      "contractAddress": null,
      "logs": [
        {
          "address": "0x21650E416dC6C89486B2E654c86cC2c36c597b58",
          "topics": [
            "0x2f8788117e7eff1d82e926ec794901d17c78024a50270940304540a733656f0d",
            "0x0000000000000000000000000000000000000000000000000000000000000000",
            "0x00000000000000000000000007d274a68393e8b8a2ccf19a2ce4ba3518735253",
            "0x000000000000000000000000d7e38800201d6a42c408bf79d8723740c4e7f631"
          ],
          "data": "0x",
          "blockHash": "0xc961f8b630ee26084a3e3aa1f7f411da56fd957a60c8f3ea563c6d8af6d5eea2",
          "blockNumber": "0x2dfdc17",
          "transactionHash": "0x0bedf33668a0b5f7be3a62f8d93c7524aba892ed3c5baf0c6ae2d5adf49c34e0",
          "transactionIndex": "0x5c",
          "logIndex": "0xb3",
          "removed": false
        }
      ],
      "status": "0x1",
      "logsBloom": "0x00000004000000000000000000000000000000000000000000000000000000000000000000000000000000000000000000000000000000000000000000000000000000000000000000000000002000000000000000000000000000000000000000000004020000000000000000000800000000000000000000000000000000000000000000000000000000000000000000200000000000000000000000040000000000000000000000000000000000000000000000000000001000000000000000000000000000000000000001000000000000000000000110000040000820000080000000000000000000000000000000000000000000000000000000000000",
      "type": "0x0",
      "effectiveGasPrice": "0x3b9aca00"
    },
    {
      "transactionHash": "0xe8ad487e29a976c7f68a775318403f4293c423d888cdb7fca7ad77c2b4a1ca04",
      "transactionIndex": "0x5d",
      "blockHash": "0xc961f8b630ee26084a3e3aa1f7f411da56fd957a60c8f3ea563c6d8af6d5eea2",
      "blockNumber": "0x2dfdc17",
      "from": "0xd7e38800201D6a42C408Bf79d8723740C4E7f631",
      "to": "0x21650E416dC6C89486B2E654c86cC2c36c597b58",
      "cumulativeGasUsed": "0x6ebd7d",
      "gasUsed": "0xc65f",
      "contractAddress": null,
      "logs": [
        {
          "address": "0x21650E416dC6C89486B2E654c86cC2c36c597b58",
          "topics": [
            "0xf6391f5c32d9c69d2a47ea670b442974b53935d1edc7fd64eb21e047a839171b",
            "0x0000000000000000000000000000000000000000000000000000000000000000",
            "0x000000000000000000000000d7e38800201d6a42c408bf79d8723740c4e7f631",
            "0x000000000000000000000000d7e38800201d6a42c408bf79d8723740c4e7f631"
          ],
          "data": "0x",
          "blockHash": "0xc961f8b630ee26084a3e3aa1f7f411da56fd957a60c8f3ea563c6d8af6d5eea2",
          "blockNumber": "0x2dfdc17",
          "transactionHash": "0xe8ad487e29a976c7f68a775318403f4293c423d888cdb7fca7ad77c2b4a1ca04",
          "transactionIndex": "0x5d",
          "logIndex": "0xb4",
          "removed": false
        }
      ],
      "status": "0x1",
      "logsBloom": "0x00000000000000000000000000000000000000000000000000000000000000000000000000000000000000000000000000200000000000000000000000000000000000000000000000000000002000000000000000000000000000000000000040000000020000000000000000000800000000000000000000000000000000000000000040000000000000000000000000000000000000000000000000040000000000000000000000000000000000000000000000000000000000000000000000000000000000000000000001000000000000000000000000000040000820000080000000000000000000000000000000000000000000000000000000000000",
      "type": "0x0",
      "effectiveGasPrice": "0x3b9aca00"
    }
  ],
  "libraries": [],
  "pending": [],
  "returns": {},
  "timestamp": 1744257735,
  "chain": 56,
  "commit": "8cfcc27"
}